{
  "contractName": "CarRental",
  "abi": [
    {
      "anonymous": false,
      "inputs": [
        {
          "indexed": true,
          "internalType": "uint256",
          "name": "bookingId",
          "type": "uint256"
        },
        {
          "indexed": true,
          "internalType": "address",
          "name": "owner",
          "type": "address"
        },
        {
          "indexed": true,
          "internalType": "address",
          "name": "renter",
          "type": "address"
        }
      ],
      "name": "BookingApproved",
      "type": "event"
    },
    {
      "anonymous": false,
      "inputs": [
        {
          "indexed": true,
          "internalType": "uint256",
          "name": "carId",
          "type": "uint256"
        },
        {
          "indexed": true,
          "internalType": "address",
          "name": "owner",
          "type": "address"
        },
        {
          "indexed": false,
          "internalType": "string",
          "name": "make",
          "type": "string"
        },
        {
          "indexed": false,
          "internalType": "string",
          "name": "model",
          "type": "string"
        }
      ],
      "name": "CarListed",
      "type": "event"
    },
    {
      "anonymous": false,
      "inputs": [
        {
          "indexed": true,
          "internalType": "uint256",
          "name": "disputeId",
          "type": "uint256"
        },
        {
          "indexed": true,
          "internalType": "uint256",
          "name": "bookingId",
          "type": "uint256"
        },
        {
          "indexed": true,
          "internalType": "address",
          "name": "initiator",
          "type": "address"
        }
      ],
      "name": "DisputeOpened",
      "type": "event"
    },
    {
      "anonymous": false,
      "inputs": [
        {
          "indexed": true,
          "internalType": "address",
          "name": "owner",
          "type": "address"
        },
        {
          "indexed": false,
          "internalType": "uint256",
          "name": "amount",
          "type": "uint256"
        }
      ],
      "name": "EarningsWithdrawn",
      "type": "event"
    },
    {
      "anonymous": false,
      "inputs": [
        {
          "indexed": true,
          "internalType": "uint256",
          "name": "carId",
          "type": "uint256"
        },
        {
          "indexed": true,
          "internalType": "address",
          "name": "owner",
          "type": "address"
        }
      ],
      "name": "ListingEdited",
      "type": "event"
    },
    {
      "anonymous": false,
      "inputs": [
        {
          "indexed": true,
          "internalType": "uint256",
          "name": "bookingId",
          "type": "uint256"
        },
        {
          "indexed": true,
          "internalType": "address",
          "name": "owner",
          "type": "address"
        }
      ],
      "name": "PickupConfirmed",
      "type": "event"
    },
    {
      "anonymous": false,
      "inputs": [
        {
          "indexed": true,
          "internalType": "uint256",
          "name": "bookingId",
          "type": "uint256"
        },
        {
          "indexed": true,
          "internalType": "address",
          "name": "owner",
          "type": "address"
        }
      ],
      "name": "ProofUploaded",
      "type": "event"
    },
    {
      "anonymous": false,
      "inputs": [
        {
          "indexed": true,
          "internalType": "uint256",
          "name": "bookingId",
          "type": "uint256"
        },
        {
          "indexed": true,
          "internalType": "address",
          "name": "renter",
          "type": "address"
        },
        {
          "indexed": false,
          "internalType": "uint8",
          "name": "score",
          "type": "uint8"
        }
      ],
      "name": "RenterRated",
      "type": "event"
    },
    {
      "anonymous": false,
      "inputs": [
        {
          "indexed": true,
          "internalType": "uint256",
          "name": "bookingId",
          "type": "uint256"
        },
        {
          "indexed": true,
          "internalType": "address",
          "name": "owner",
          "type": "address"
        },
        {
          "indexed": false,
          "internalType": "uint256",
          "name": "amount",
          "type": "uint256"
        }
      ],
      "name": "ReturnConfirmed",
      "type": "event"
    },
    {
      "inputs": [],
      "name": "bookingCounter",
      "outputs": [
        {
          "internalType": "uint256",
          "name": "",
          "type": "uint256"
        }
      ],
      "stateMutability": "view",
      "type": "function",
      "constant": true
    },
    {
      "inputs": [
        {
          "internalType": "uint256",
          "name": "",
          "type": "uint256"
        }
      ],
      "name": "bookings",
      "outputs": [
        {
          "internalType": "uint256",
          "name": "id",
          "type": "uint256"
        },
        {
          "internalType": "uint256",
          "name": "carId",
          "type": "uint256"
        },
        {
          "internalType": "address",
          "name": "renter",
          "type": "address"
        },
        {
          "internalType": "address",
          "name": "owner",
          "type": "address"
        },
        {
          "internalType": "uint256",
          "name": "startDate",
          "type": "uint256"
        },
        {
          "internalType": "uint256",
          "name": "endDate",
          "type": "uint256"
        },
        {
          "internalType": "uint256",
          "name": "totalPrice",
          "type": "uint256"
        },
        {
          "internalType": "enum CarRental.BookingStatus",
          "name": "status",
          "type": "uint8"
        },
        {
          "internalType": "bool",
          "name": "pickupConfirmed",
          "type": "bool"
        },
        {
          "internalType": "bool",
          "name": "returnConfirmed",
          "type": "bool"
        }
      ],
      "stateMutability": "view",
      "type": "function",
      "constant": true
    },
    {
      "inputs": [
        {
          "internalType": "uint256",
          "name": "",
          "type": "uint256"
        }
      ],
      "name": "carBookingCount",
      "outputs": [
        {
          "internalType": "uint256",
          "name": "",
          "type": "uint256"
        }
      ],
      "stateMutability": "view",
      "type": "function",
      "constant": true
    },
    {
      "inputs": [],
      "name": "carCounter",
      "outputs": [
        {
          "internalType": "uint256",
          "name": "",
          "type": "uint256"
        }
      ],
      "stateMutability": "view",
      "type": "function",
      "constant": true
    },
    {
      "inputs": [
        {
          "internalType": "uint256",
          "name": "",
          "type": "uint256"
        }
      ],
      "name": "cars",
      "outputs": [
        {
          "internalType": "uint256",
          "name": "id",
          "type": "uint256"
        },
        {
          "internalType": "address",
          "name": "owner",
          "type": "address"
        },
        {
          "internalType": "string",
          "name": "make",
          "type": "string"
        },
        {
          "internalType": "string",
          "name": "model",
          "type": "string"
        },
        {
          "internalType": "uint256",
          "name": "year",
          "type": "uint256"
        },
        {
          "internalType": "uint256",
          "name": "pricePerDay",
          "type": "uint256"
        },
        {
          "internalType": "string",
          "name": "location",
          "type": "string"
        },
        {
          "internalType": "bool",
          "name": "isAvailable",
          "type": "bool"
        },
        {
          "internalType": "uint256",
          "name": "createdAt",
          "type": "uint256"
        }
      ],
      "stateMutability": "view",
      "type": "function",
      "constant": true
    },
    {
      "inputs": [],
      "name": "disputeCounter",
      "outputs": [
        {
          "internalType": "uint256",
          "name": "",
          "type": "uint256"
        }
      ],
      "stateMutability": "view",
      "type": "function",
      "constant": true
    },
    {
      "inputs": [
        {
          "internalType": "uint256",
          "name": "",
          "type": "uint256"
        }
      ],
      "name": "disputes",
      "outputs": [
        {
          "internalType": "uint256",
          "name": "id",
          "type": "uint256"
        },
        {
          "internalType": "uint256",
          "name": "bookingId",
          "type": "uint256"
        },
        {
          "internalType": "address",
          "name": "initiator",
          "type": "address"
        },
        {
          "internalType": "string",
          "name": "reason",
          "type": "string"
        },
        {
          "internalType": "enum CarRental.DisputeStatus",
          "name": "status",
          "type": "uint8"
        },
        {
          "internalType": "uint256",
          "name": "createdAt",
          "type": "uint256"
        }
      ],
      "stateMutability": "view",
      "type": "function",
      "constant": true
    },
    {
      "inputs": [
        {
          "internalType": "address",
          "name": "",
          "type": "address"
        },
        {
          "internalType": "uint256",
          "name": "",
          "type": "uint256"
        }
      ],
      "name": "ownerCars",
      "outputs": [
        {
          "internalType": "uint256",
          "name": "",
          "type": "uint256"
        }
      ],
      "stateMutability": "view",
      "type": "function",
      "constant": true
    },
    {
      "inputs": [
        {
          "internalType": "address",
          "name": "",
          "type": "address"
        }
      ],
      "name": "ownerEarnings",
      "outputs": [
        {
          "internalType": "uint256",
          "name": "",
          "type": "uint256"
        }
      ],
      "stateMutability": "view",
      "type": "function",
      "constant": true
    },
    {
      "inputs": [
        {
          "internalType": "uint256",
          "name": "",
          "type": "uint256"
        }
      ],
      "name": "photoProofs",
      "outputs": [
        {
          "internalType": "uint256",
          "name": "bookingId",
          "type": "uint256"
        },
        {
          "internalType": "uint256",
          "name": "uploadedAt",
          "type": "uint256"
        }
      ],
      "stateMutability": "view",
      "type": "function",
      "constant": true
    },
    {
      "inputs": [
        {
          "internalType": "uint256",
          "name": "",
          "type": "uint256"
        }
      ],
      "name": "ratings",
      "outputs": [
        {
          "internalType": "uint256",
          "name": "bookingId",
          "type": "uint256"
        },
        {
          "internalType": "address",
          "name": "fromOwner",
          "type": "address"
        },
        {
          "internalType": "address",
          "name": "toRenter",
          "type": "address"
        },
        {
          "internalType": "uint8",
          "name": "score",
          "type": "uint8"
        },
        {
          "internalType": "string",
          "name": "comment",
          "type": "string"
        },
        {
          "internalType": "uint256",
          "name": "createdAt",
          "type": "uint256"
        }
      ],
      "stateMutability": "view",
      "type": "function",
      "constant": true
    },
    {
      "stateMutability": "payable",
      "type": "receive",
      "payable": true
    },
    {
      "inputs": [
        {
          "internalType": "string",
          "name": "make",
          "type": "string"
        },
        {
          "internalType": "string",
          "name": "model",
          "type": "string"
        },
        {
          "internalType": "uint256",
          "name": "year",
          "type": "uint256"
        },
        {
          "internalType": "uint256",
          "name": "pricePerDay",
          "type": "uint256"
        },
        {
          "internalType": "string",
          "name": "location",
          "type": "string"
        }
      ],
      "name": "listCarForRent",
      "outputs": [
        {
          "internalType": "uint256",
          "name": "",
          "type": "uint256"
        }
      ],
      "stateMutability": "nonpayable",
      "type": "function"
    },
    {
      "inputs": [
        {
          "internalType": "uint256",
          "name": "carId",
          "type": "uint256"
        },
        {
          "internalType": "string",
          "name": "newMake",
          "type": "string"
        },
        {
          "internalType": "string",
          "name": "newModel",
          "type": "string"
        },
        {
          "internalType": "uint256",
          "name": "newYear",
          "type": "uint256"
        },
        {
          "internalType": "uint256",
          "name": "newPricePerDay",
          "type": "uint256"
        },
        {
          "internalType": "string",
          "name": "newLocation",
          "type": "string"
        }
      ],
      "name": "editListing",
      "outputs": [],
      "stateMutability": "nonpayable",
      "type": "function"
    },
    {
      "inputs": [
        {
          "internalType": "uint256",
          "name": "bookingId",
          "type": "uint256"
        }
      ],
      "name": "approveBooking",
      "outputs": [],
      "stateMutability": "nonpayable",
      "type": "function"
    },
    {
      "inputs": [
        {
          "internalType": "uint256",
          "name": "bookingId",
          "type": "uint256"
        }
      ],
      "name": "confirmPickup",
      "outputs": [],
      "stateMutability": "nonpayable",
      "type": "function"
    },
    {
      "inputs": [
        {
          "internalType": "uint256",
          "name": "bookingId",
          "type": "uint256"
        }
      ],
      "name": "confirmReturn",
      "outputs": [],
      "stateMutability": "nonpayable",
      "type": "function"
    },
    {
      "inputs": [
        {
          "internalType": "uint256",
          "name": "bookingId",
          "type": "uint256"
        },
        {
          "internalType": "string[]",
          "name": "beforePhotos",
          "type": "string[]"
        },
        {
          "internalType": "string[]",
          "name": "afterPhotos",
          "type": "string[]"
        }
      ],
      "name": "uploadProof",
      "outputs": [],
      "stateMutability": "nonpayable",
      "type": "function"
    },
    {
      "inputs": [
        {
          "internalType": "uint256",
          "name": "bookingId",
          "type": "uint256"
        },
        {
          "internalType": "string",
          "name": "reason",
          "type": "string"
        }
      ],
      "name": "openDispute",
      "outputs": [
        {
          "internalType": "uint256",
          "name": "",
          "type": "uint256"
        }
      ],
      "stateMutability": "nonpayable",
      "type": "function"
    },
    {
      "inputs": [],
      "name": "withdrawEarnings",
      "outputs": [],
      "stateMutability": "nonpayable",
      "type": "function"
    },
    {
      "inputs": [
        {
          "internalType": "uint256",
          "name": "bookingId",
          "type": "uint256"
        },
        {
          "internalType": "uint8",
          "name": "score",
          "type": "uint8"
        },
        {
          "internalType": "string",
          "name": "comment",
          "type": "string"
        }
      ],
      "name": "rateRenter",
      "outputs": [],
      "stateMutability": "nonpayable",
      "type": "function"
    },
    {
      "inputs": [
        {
          "internalType": "uint256",
          "name": "carId",
          "type": "uint256"
        }
      ],
      "name": "getCar",
      "outputs": [
        {
          "components": [
            {
              "internalType": "uint256",
              "name": "id",
              "type": "uint256"
            },
            {
              "internalType": "address",
              "name": "owner",
              "type": "address"
            },
            {
              "internalType": "string",
              "name": "make",
              "type": "string"
            },
            {
              "internalType": "string",
              "name": "model",
              "type": "string"
            },
            {
              "internalType": "uint256",
              "name": "year",
              "type": "uint256"
            },
            {
              "internalType": "uint256",
              "name": "pricePerDay",
              "type": "uint256"
            },
            {
              "internalType": "string",
              "name": "location",
              "type": "string"
            },
            {
              "internalType": "bool",
              "name": "isAvailable",
              "type": "bool"
            },
            {
              "internalType": "uint256",
              "name": "createdAt",
              "type": "uint256"
            }
          ],
          "internalType": "struct CarRental.Car",
          "name": "",
          "type": "tuple"
        }
      ],
      "stateMutability": "view",
      "type": "function",
      "constant": true
    },
    {
      "inputs": [
        {
          "internalType": "uint256",
          "name": "bookingId",
          "type": "uint256"
        }
      ],
      "name": "getBooking",
      "outputs": [
        {
          "components": [
            {
              "internalType": "uint256",
              "name": "id",
              "type": "uint256"
            },
            {
              "internalType": "uint256",
              "name": "carId",
              "type": "uint256"
            },
            {
              "internalType": "address",
              "name": "renter",
              "type": "address"
            },
            {
              "internalType": "address",
              "name": "owner",
              "type": "address"
            },
            {
              "internalType": "uint256",
              "name": "startDate",
              "type": "uint256"
            },
            {
              "internalType": "uint256",
              "name": "endDate",
              "type": "uint256"
            },
            {
              "internalType": "uint256",
              "name": "totalPrice",
              "type": "uint256"
            },
            {
              "internalType": "enum CarRental.BookingStatus",
              "name": "status",
              "type": "uint8"
            },
            {
              "internalType": "bool",
              "name": "pickupConfirmed",
              "type": "bool"
            },
            {
              "internalType": "bool",
              "name": "returnConfirmed",
              "type": "bool"
            }
          ],
          "internalType": "struct CarRental.Booking",
          "name": "",
          "type": "tuple"
        }
      ],
      "stateMutability": "view",
      "type": "function",
      "constant": true
    },
    {
      "inputs": [
        {
          "internalType": "address",
          "name": "owner",
          "type": "address"
        }
      ],
      "name": "getOwnerCars",
      "outputs": [
        {
          "internalType": "uint256[]",
          "name": "",
          "type": "uint256[]"
        }
      ],
      "stateMutability": "view",
      "type": "function",
      "constant": true
    },
    {
      "inputs": [
        {
          "internalType": "address",
          "name": "owner",
          "type": "address"
        }
      ],
      "name": "getOwnerEarnings",
      "outputs": [
        {
          "internalType": "uint256",
          "name": "",
          "type": "uint256"
        }
      ],
      "stateMutability": "view",
      "type": "function",
      "constant": true
    },
    {
      "inputs": [
        {
          "internalType": "uint256",
          "name": "disputeId",
          "type": "uint256"
        }
      ],
      "name": "getDispute",
      "outputs": [
        {
          "components": [
            {
              "internalType": "uint256",
              "name": "id",
              "type": "uint256"
            },
            {
              "internalType": "uint256",
              "name": "bookingId",
              "type": "uint256"
            },
            {
              "internalType": "address",
              "name": "initiator",
              "type": "address"
            },
            {
              "internalType": "string",
              "name": "reason",
              "type": "string"
            },
            {
              "internalType": "enum CarRental.DisputeStatus",
              "name": "status",
              "type": "uint8"
            },
            {
              "internalType": "uint256",
              "name": "createdAt",
              "type": "uint256"
            }
          ],
          "internalType": "struct CarRental.Dispute",
          "name": "",
          "type": "tuple"
        }
      ],
      "stateMutability": "view",
      "type": "function",
      "constant": true
    },
    {
      "inputs": [
        {
          "internalType": "uint256",
          "name": "bookingId",
          "type": "uint256"
        }
      ],
      "name": "getPhotoProof",
      "outputs": [
        {
          "components": [
            {
              "internalType": "uint256",
              "name": "bookingId",
              "type": "uint256"
            },
            {
              "internalType": "string[]",
              "name": "beforePhotos",
              "type": "string[]"
            },
            {
              "internalType": "string[]",
              "name": "afterPhotos",
              "type": "string[]"
            },
            {
              "internalType": "uint256",
              "name": "uploadedAt",
              "type": "uint256"
            }
          ],
          "internalType": "struct CarRental.PhotoProof",
          "name": "",
          "type": "tuple"
        }
      ],
      "stateMutability": "view",
      "type": "function",
      "constant": true
    },
    {
      "inputs": [
        {
          "internalType": "uint256",
          "name": "bookingId",
          "type": "uint256"
        }
      ],
      "name": "getRating",
      "outputs": [
        {
          "components": [
            {
              "internalType": "uint256",
              "name": "bookingId",
              "type": "uint256"
            },
            {
              "internalType": "address",
              "name": "fromOwner",
              "type": "address"
            },
            {
              "internalType": "address",
              "name": "toRenter",
              "type": "address"
            },
            {
              "internalType": "uint8",
              "name": "score",
              "type": "uint8"
            },
            {
              "internalType": "string",
              "name": "comment",
              "type": "string"
            },
            {
              "internalType": "uint256",
              "name": "createdAt",
              "type": "uint256"
            }
          ],
          "internalType": "struct CarRental.Rating",
          "name": "",
          "type": "tuple"
        }
      ],
      "stateMutability": "view",
      "type": "function",
      "constant": true
    }
  ],
  "bytecode": "0x608060405234801561001057600080fd5b5061577880620000216000396000f3fe6080604052600436106101a05760003560e01c806393c8949f116100ec578063d33bcb551161008a578063e1cedf9511610064578063e1cedf9514610667578063e3a96cbd146106a4578063e937efc1146106e1578063f7746e361461071e576101a7565b8063d33bcb55146105d8578063d69b454414610601578063d96d32b11461063e576101a7565b8063b0ee0e9f116100c6578063b0ee0e9f1461051c578063b73c6ce914610559578063d236180b14610570578063d287ac42146105ad576101a7565b806393c8949f1461048d578063a3f0fd8f146104ca578063a9621af6146104f3576101a7565b80634ef5fee6116101595780635e8be190116101335780635e8be190146103ab5780636a5c841a146103e85780637d36f4d314610425578063914fe30914610450576101a7565b80634ef5fee6146102fc578063564a565d146103275780635d30e84d14610369576101a7565b80631c156a11146101ac5780631dab301e146101ea5780632e5df6e31461023057806332f8b6f61461025957806336f691c41461028257806343b6eedc146102bf576101a7565b366101a757005b600080fd5b3480156101b857600080fd5b506101d360048036038101906101ce9190613d0a565b610763565b6040516101e19291906151ad565b60405180910390f35b3480156101f657600080fd5b50610211600480360381019061020c9190613d0a565b610787565b6040516102279a999897969594939291906151d6565b60405180910390f35b34801561023c57600080fd5b5061025760048036038101906102529190613d0a565b610842565b005b34801561026557600080fd5b50610280600480360381019061027b9190613e06565b610c37565b005b34801561028e57600080fd5b506102a960048036038101906102a49190613db2565b610fa6565b6040516102b69190615088565b60405180910390f35b3480156102cb57600080fd5b506102e660048036038101906102e19190613c0f565b61143a565b6040516102f39190615088565b60405180910390f35b34801561030857600080fd5b5061031161146b565b60405161031e9190615088565b60405180910390f35b34801561033357600080fd5b5061034e60048036038101906103499190613d0a565b611471565b60405161036096959493929190615272565b60405180910390f35b34801561037557600080fd5b50610390600480360381019061038b9190613d0a565b611562565b6040516103a2969594939291906150a3565b60405180910390f35b3480156103b757600080fd5b506103d260048036038101906103cd9190613d0a565b611673565b6040516103df9190615000565b60405180910390f35b3480156103f457600080fd5b5061040f600480360381019061040a9190613d0a565b61194a565b60405161041c9190614fe4565b60405180910390f35b34801561043157600080fd5b5061043a611b6f565b6040516104479190615088565b60405180910390f35b34801561045c57600080fd5b5061047760048036038101906104729190613be6565b611b75565b6040516104849190614c2b565b60405180910390f35b34801561049957600080fd5b506104b460048036038101906104af9190613be6565b611c0c565b6040516104c19190615088565b60405180910390f35b3480156104d657600080fd5b506104f160048036038101906104ec9190613ed7565b611c55565b005b3480156104ff57600080fd5b5061051a60048036038101906105159190613d0a565b6120ef565b005b34801561052857600080fd5b50610543600480360381019061053e9190613d0a565b612467565b6040516105509190615066565b60405180910390f35b34801561056557600080fd5b5061056e61265d565b005b34801561057c57600080fd5b5061059760048036038101906105929190613d0a565b612827565b6040516105a49190615044565b60405180910390f35b3480156105b957600080fd5b506105c2612a74565b6040516105cf9190615088565b60405180910390f35b3480156105e457600080fd5b506105ff60048036038101906105fa9190613d0a565b612a7a565b005b34801561060d57600080fd5b5061062860048036038101906106239190613d0a565b612d56565b6040516106359190615088565b60405180910390f35b34801561064a57600080fd5b5061066560048036038101906106609190613d33565b612d6e565b005b34801561067357600080fd5b5061068e60048036038101906106899190613c4b565b612f8e565b60405161069b9190615088565b60405180910390f35b3480156106b057600080fd5b506106cb60048036038101906106c69190613d0a565b6132e2565b6040516106d89190615022565b60405180910390f35b3480156106ed57600080fd5b5061070860048036038101906107039190613be6565b6134f6565b6040516107159190615088565b60405180910390f35b34801561072a57600080fd5b5061074560048036038101906107409190613d0a565b61350e565b60405161075a9998979695949392919061510b565b60405180910390f35b60056020528060005260406000206000915090508060000154908060030154905082565b60016020528060005260406000206000915090508060000154908060010154908060020160009054906101000a900473ffffffffffffffffffffffffffffffffffffffff16908060030160009054906101000a900473ffffffffffffffffffffffffffffffffffffffff16908060040154908060050154908060060154908060070160009054906101000a900460ff16908060070160019054906101000a900460ff16908060070160029054906101000a900460ff1690508a565b803373ffffffffffffffffffffffffffffffffffffffff166001600083815260200190815260200160002060030160009054906101000a900473ffffffffffffffffffffffffffffffffffffffff1673ffffffffffffffffffffffffffffffffffffffff16146108e7576040517f08c379a00000000000000000000000000000000000000000000000000000000081526004016108de90614fc4565b60405180910390fd5b81600060016000838152602001908152602001600020600001541415610942576040517f08c379a000000000000000000000000000000000000000000000000000000000815260040161093990614d84565b60405180910390fd5b600060016000858152602001908152602001600020905060026004811115610993577f4e487b7100000000000000000000000000000000000000000000000000000000600052602160045260246000fd5b8160070160009054906101000a900460ff1660048111156109dd577f4e487b7100000000000000000000000000000000000000000000000000000000600052602160045260246000fd5b14610a1d576040517f08c379a0000000000000000000000000000000000000000000000000000000008152600401610a1490614da4565b60405180910390fd5b8060070160019054906101000a900460ff16610a6e576040517f08c379a0000000000000000000000000000000000000000000000000000000008152600401610a6590614d44565b60405180910390fd5b8060050154421015610ab5576040517f08c379a0000000000000000000000000000000000000000000000000000000008152600401610aac90614e64565b60405180910390fd5b60018160070160026101000a81548160ff02191690831515021790555060038160070160006101000a81548160ff02191690836004811115610b20577f4e487b7100000000000000000000000000000000000000000000000000000000600052602160045260246000fd5b021790555060016000808360010154815260200190815260200160002060070160006101000a81548160ff02191690831515021790555060076000826001015481526020019081526020016000206000815480929190610b7f90615563565b91905055508060060154600360003373ffffffffffffffffffffffffffffffffffffffff1673ffffffffffffffffffffffffffffffffffffffff1681526020019081526020016000206000828254610bd7919061542c565b925050819055503373ffffffffffffffffffffffffffffffffffffffff16847f85498c8237b9aa3e50dafa6ca9b982f4380f7c7ac3b893df1e18e8d784c8abeb8360060154604051610c299190615088565b60405180910390a350505050565b853373ffffffffffffffffffffffffffffffffffffffff1660008083815260200190815260200160002060010160009054906101000a900473ffffffffffffffffffffffffffffffffffffffff1673ffffffffffffffffffffffffffffffffffffffff1614610cdb576040517f08c379a0000000000000000000000000000000000000000000000000000000008152600401610cd290614dc4565b60405180910390fd5b866000806000838152602001908152602001600020600001541415610d35576040517f08c379a0000000000000000000000000000000000000000000000000000000008152600401610d2c90614ca4565b60405180910390fd5b6000600760008a81526020019081526020016000205414610d8b576040517f08c379a0000000000000000000000000000000000000000000000000000000008152600401610d8290614ee4565b60405180910390fd5b6000875111610dcf576040517f08c379a0000000000000000000000000000000000000000000000000000000008152600401610dc690614f44565b60405180910390fd5b6000865111610e13576040517f08c379a0000000000000000000000000000000000000000000000000000000008152600401610e0a90614e44565b60405180910390fd5b61076c85118015610e245750428511155b610e63576040517f08c379a0000000000000000000000000000000000000000000000000000000008152600401610e5a90614ce4565b60405180910390fd5b60008411610ea6576040517f08c379a0000000000000000000000000000000000000000000000000000000008152600401610e9d90614fa4565b60405180910390fd5b866000808a81526020019081526020016000206002019080519060200190610ecf929190613721565b50856000808a81526020019081526020016000206003019080519060200190610ef9929190613721565b50846000808a815260200190815260200160002060040181905550836000808a815260200190815260200160002060050181905550826000808a81526020019081526020016000206006019080519060200190610f57929190613721565b503373ffffffffffffffffffffffffffffffffffffffff16887f964dcd651e4dcda4a35c1d43bb5456d074b7ce6dcd637bdbdf70c92ceedd90cf60405160405180910390a35050505050505050565b6000823373ffffffffffffffffffffffffffffffffffffffff166001600083815260200190815260200160002060030160009054906101000a900473ffffffffffffffffffffffffffffffffffffffff1673ffffffffffffffffffffffffffffffffffffffff161461104d576040517f08c379a000000000000000000000000000000000000000000000000000000000815260040161104490614fc4565b60405180910390fd5b836000600160008381526020019081526020016000206000015414156110a8576040517f08c379a000000000000000000000000000000000000000000000000000000000815260040161109f90614d84565b60405180910390fd5b60008451116110ec576040517f08c379a00000000000000000000000000000000000000000000000000000000081526004016110e390614f04565b60405180910390fd5b60026004811115611126577f4e487b7100000000000000000000000000000000000000000000000000000000600052602160045260246000fd5b6001600087815260200190815260200160002060070160009054906101000a900460ff166004811115611182577f4e487b7100000000000000000000000000000000000000000000000000000000600052602160045260246000fd5b14806112215750600160048111156111c3577f4e487b7100000000000000000000000000000000000000000000000000000000600052602160045260246000fd5b6001600087815260200190815260200160002060070160009054906101000a900460ff16600481111561121f577f4e487b7100000000000000000000000000000000000000000000000000000000600052602160045260246000fd5b145b611260576040517f08c379a000000000000000000000000000000000000000000000000000000000815260040161125790614de4565b60405180910390fd5b600a6000815480929190611273906155bf565b91905055506000600a5490506040518060c001604052808281526020018781526020013373ffffffffffffffffffffffffffffffffffffffff168152602001868152602001600060028111156112f2577f4e487b7100000000000000000000000000000000000000000000000000000000600052602160045260246000fd5b81526020014281525060026000838152602001908152602001600020600082015181600001556020820151816001015560408201518160020160006101000a81548173ffffffffffffffffffffffffffffffffffffffff021916908373ffffffffffffffffffffffffffffffffffffffff1602179055506060820151816003019080519060200190611385929190613721565b5060808201518160040160006101000a81548160ff021916908360028111156113d7577f4e487b7100000000000000000000000000000000000000000000000000000000600052602160045260246000fd5b021790555060a082015181600501559050503373ffffffffffffffffffffffffffffffffffffffff1686827fc6fb55a2bd2838e444163cece1945a661c371c5ec8c1a4ea5d697aefc769054760405160405180910390a480935050505092915050565b6006602052816000526040600020818154811061145657600080fd5b90600052602060002001600091509150505481565b60085481565b60026020528060005260406000206000915090508060000154908060010154908060020160009054906101000a900473ffffffffffffffffffffffffffffffffffffffff16908060030180546114c69061558d565b80601f01602080910402602001604051908101604052809291908181526020018280546114f29061558d565b801561153f5780601f106115145761010080835404028352916020019161153f565b820191906000526020600020905b81548152906001019060200180831161152257829003601f168201915b5050505050908060040160009054906101000a900460ff16908060050154905086565b60046020528060005260406000206000915090508060000154908060010160009054906101000a900473ffffffffffffffffffffffffffffffffffffffff16908060020160009054906101000a900473ffffffffffffffffffffffffffffffffffffffff16908060020160149054906101000a900460ff16908060030180546115ea9061558d565b80601f01602080910402602001604051908101604052809291908181526020018280546116169061558d565b80156116635780601f1061163857610100808354040283529160200191611663565b820191906000526020600020905b81548152906001019060200180831161164657829003601f168201915b5050505050908060040154905086565b61167b6137a7565b8160008060008381526020019081526020016000206000015414156116d5576040517f08c379a00000000000000000000000000000000000000000000000000000000081526004016116cc90614ca4565b60405180910390fd5b60008084815260200190815260200160002060405180610120016040529081600082015481526020016001820160009054906101000a900473ffffffffffffffffffffffffffffffffffffffff1673ffffffffffffffffffffffffffffffffffffffff1673ffffffffffffffffffffffffffffffffffffffff1681526020016002820180546117639061558d565b80601f016020809104026020016040519081016040528092919081815260200182805461178f9061558d565b80156117dc5780601f106117b1576101008083540402835291602001916117dc565b820191906000526020600020905b8154815290600101906020018083116117bf57829003601f168201915b505050505081526020016003820180546117f59061558d565b80601f01602080910402602001604051908101604052809291908181526020018280546118219061558d565b801561186e5780601f106118435761010080835404028352916020019161186e565b820191906000526020600020905b81548152906001019060200180831161185157829003601f168201915b50505050508152602001600482015481526020016005820154815260200160068201805461189b9061558d565b80601f01602080910402602001604051908101604052809291908181526020018280546118c79061558d565b80156119145780601f106118e957610100808354040283529160200191611914565b820191906000526020600020905b8154815290600101906020018083116118f757829003601f168201915b505050505081526020016007820160009054906101000a900460ff16151515158152602001600882015481525050915050919050565b61195261380b565b816000600160008381526020019081526020016000206000015414156119ad576040517f08c379a00000000000000000000000000000000000000000000000000000000081526004016119a490614d84565b60405180910390fd5b600160008481526020019081526020016000206040518061014001604052908160008201548152602001600182015481526020016002820160009054906101000a900473ffffffffffffffffffffffffffffffffffffffff1673ffffffffffffffffffffffffffffffffffffffff1673ffffffffffffffffffffffffffffffffffffffff1681526020016003820160009054906101000a900473ffffffffffffffffffffffffffffffffffffffff1673ffffffffffffffffffffffffffffffffffffffff1673ffffffffffffffffffffffffffffffffffffffff1681526020016004820154815260200160058201548152602001600682015481526020016007820160009054906101000a900460ff166004811115611af5577f4e487b7100000000000000000000000000000000000000000000000000000000600052602160045260246000fd5b6004811115611b2d577f4e487b7100000000000000000000000000000000000000000000000000000000600052602160045260246000fd5b81526020016007820160019054906101000a900460ff161515151581526020016007820160029054906101000a900460ff161515151581525050915050919050565b600a5481565b6060600660008373ffffffffffffffffffffffffffffffffffffffff1673ffffffffffffffffffffffffffffffffffffffff168152602001908152602001600020805480602002602001604051908101604052809291908181526020018280548015611c0057602002820191906000526020600020905b815481526020019060010190808311611bec575b50505050509050919050565b6000600360008373ffffffffffffffffffffffffffffffffffffffff1673ffffffffffffffffffffffffffffffffffffffff168152602001908152602001600020549050919050565b823373ffffffffffffffffffffffffffffffffffffffff166001600083815260200190815260200160002060030160009054906101000a900473ffffffffffffffffffffffffffffffffffffffff1673ffffffffffffffffffffffffffffffffffffffff1614611cfa576040517f08c379a0000000000000000000000000000000000000000000000000000000008152600401611cf190614fc4565b60405180910390fd5b83600060016000838152602001908152602001600020600001541415611d55576040517f08c379a0000000000000000000000000000000000000000000000000000000008152600401611d4c90614d84565b60405180910390fd5b60036004811115611d8f577f4e487b7100000000000000000000000000000000000000000000000000000000600052602160045260246000fd5b6001600087815260200190815260200160002060070160009054906101000a900460ff166004811115611deb577f4e487b7100000000000000000000000000000000000000000000000000000000600052602160045260246000fd5b14611e2b576040517f08c379a0000000000000000000000000000000000000000000000000000000008152600401611e2290614f84565b60405180910390fd5b60018460ff1610158015611e43575060058460ff1611155b611e82576040517f08c379a0000000000000000000000000000000000000000000000000000000008152600401611e7990614e04565b60405180910390fd5b6000600460008781526020019081526020016000206004015414611edb576040517f08c379a0000000000000000000000000000000000000000000000000000000008152600401611ed290614ec4565b60405180910390fd5b6040518060c001604052808681526020013373ffffffffffffffffffffffffffffffffffffffff1681526020016001600088815260200190815260200160002060020160009054906101000a900473ffffffffffffffffffffffffffffffffffffffff1673ffffffffffffffffffffffffffffffffffffffff1681526020018560ff16815260200184815260200142815250600460008781526020019081526020016000206000820151816000015560208201518160010160006101000a81548173ffffffffffffffffffffffffffffffffffffffff021916908373ffffffffffffffffffffffffffffffffffffffff16021790555060408201518160020160006101000a81548173ffffffffffffffffffffffffffffffffffffffff021916908373ffffffffffffffffffffffffffffffffffffffff16021790555060608201518160020160146101000a81548160ff021916908360ff1602179055506080820151816003019080519060200190612055929190613721565b5060a082015181600401559050506001600086815260200190815260200160002060020160009054906101000a900473ffffffffffffffffffffffffffffffffffffffff1673ffffffffffffffffffffffffffffffffffffffff16857f0405b5db18cd07fc0de0525aa2be26a98f9b309298b869e63b81258a30c09ecf866040516120e091906152da565b60405180910390a35050505050565b803373ffffffffffffffffffffffffffffffffffffffff166001600083815260200190815260200160002060030160009054906101000a900473ffffffffffffffffffffffffffffffffffffffff1673ffffffffffffffffffffffffffffffffffffffff1614612194576040517f08c379a000000000000000000000000000000000000000000000000000000000815260040161218b90614fc4565b60405180910390fd5b816000600160008381526020019081526020016000206000015414156121ef576040517f08c379a00000000000000000000000000000000000000000000000000000000081526004016121e690614d84565b60405180910390fd5b600060016000858152602001908152602001600020905060006004811115612240577f4e487b7100000000000000000000000000000000000000000000000000000000600052602160045260246000fd5b8160070160009054906101000a900460ff16600481111561228a577f4e487b7100000000000000000000000000000000000000000000000000000000600052602160045260246000fd5b146122ca576040517f08c379a00000000000000000000000000000000000000000000000000000000081526004016122c190614e24565b60405180910390fd5b6000808260010154815260200190815260200160002060070160009054906101000a900460ff16612330576040517f08c379a000000000000000000000000000000000000000000000000000000000815260040161232790614e84565b60405180910390fd5b60018160070160006101000a81548160ff0219169083600481111561237e577f4e487b7100000000000000000000000000000000000000000000000000000000600052602160045260246000fd5b021790555060008060008360010154815260200190815260200160002060070160006101000a81548160ff021916908315150217905550600760008260010154815260200190815260200160002060008154809291906123dd906155bf565b91905055508060020160009054906101000a900473ffffffffffffffffffffffffffffffffffffffff1673ffffffffffffffffffffffffffffffffffffffff163373ffffffffffffffffffffffffffffffffffffffff16857f772951f83f6a497c3b5d4cde7582f029a8871b4924b84e663aef01d7a62e0f7860405160405180910390a450505050565b61246f6138c6565b6000600460008481526020019081526020016000206004015414156124c9576040517f08c379a00000000000000000000000000000000000000000000000000000000081526004016124c090614d24565b60405180910390fd5b600460008381526020019081526020016000206040518060c0016040529081600082015481526020016001820160009054906101000a900473ffffffffffffffffffffffffffffffffffffffff1673ffffffffffffffffffffffffffffffffffffffff1673ffffffffffffffffffffffffffffffffffffffff1681526020016002820160009054906101000a900473ffffffffffffffffffffffffffffffffffffffff1673ffffffffffffffffffffffffffffffffffffffff1673ffffffffffffffffffffffffffffffffffffffff1681526020016002820160149054906101000a900460ff1660ff1660ff1681526020016003820180546125ca9061558d565b80601f01602080910402602001604051908101604052809291908181526020018280546125f69061558d565b80156126435780601f1061261857610100808354040283529160200191612643565b820191906000526020600020905b81548152906001019060200180831161262657829003601f168201915b505050505081526020016004820154815250509050919050565b6000600360003373ffffffffffffffffffffffffffffffffffffffff1673ffffffffffffffffffffffffffffffffffffffff168152602001908152602001600020549050600081116126e4576040517f08c379a00000000000000000000000000000000000000000000000000000000081526004016126db90614f64565b60405180910390fd5b6000600360003373ffffffffffffffffffffffffffffffffffffffff1673ffffffffffffffffffffffffffffffffffffffff1681526020019081526020016000208190555060003373ffffffffffffffffffffffffffffffffffffffff168260405161274f90614c16565b60006040518083038185875af1925050503d806000811461278c576040519150601f19603f3d011682016040523d82523d6000602084013e612791565b606091505b50509050806127d5576040517f08c379a00000000000000000000000000000000000000000000000000000000081526004016127cc90614d04565b60405180910390fd5b3373ffffffffffffffffffffffffffffffffffffffff167f48dc35af7b45e2a81fffad55f6e2fafacdb1d3d0d50d24ebdc16324f5ba757f18360405161281b9190615088565b60405180910390a25050565b61282f61392b565b600060056000848152602001908152602001600020600301541415612889576040517f08c379a000000000000000000000000000000000000000000000000000000000815260040161288090614d64565b60405180910390fd5b600560008381526020019081526020016000206040518060800160405290816000820154815260200160018201805480602002602001604051908101604052809291908181526020016000905b828210156129825783829060005260206000200180546128f59061558d565b80601f01602080910402602001604051908101604052809291908181526020018280546129219061558d565b801561296e5780601f106129435761010080835404028352916020019161296e565b820191906000526020600020905b81548152906001019060200180831161295157829003601f168201915b5050505050815260200190600101906128d6565b50505050815260200160028201805480602002602001604051908101604052809291908181526020016000905b82821015612a5b5783829060005260206000200180546129ce9061558d565b80601f01602080910402602001604051908101604052809291908181526020018280546129fa9061558d565b8015612a475780601f10612a1c57610100808354040283529160200191612a47565b820191906000526020600020905b815481529060010190602001808311612a2a57829003601f168201915b5050505050815260200190600101906129af565b5050505081526020016003820154815250509050919050565b60095481565b803373ffffffffffffffffffffffffffffffffffffffff166001600083815260200190815260200160002060030160009054906101000a900473ffffffffffffffffffffffffffffffffffffffff1673ffffffffffffffffffffffffffffffffffffffff1614612b1f576040517f08c379a0000000000000000000000000000000000000000000000000000000008152600401612b1690614fc4565b60405180910390fd5b81600060016000838152602001908152602001600020600001541415612b7a576040517f08c379a0000000000000000000000000000000000000000000000000000000008152600401612b7190614d84565b60405180910390fd5b600060016000858152602001908152602001600020905060016004811115612bcb577f4e487b7100000000000000000000000000000000000000000000000000000000600052602160045260246000fd5b8160070160009054906101000a900460ff166004811115612c15577f4e487b7100000000000000000000000000000000000000000000000000000000600052602160045260246000fd5b14612c55576040517f08c379a0000000000000000000000000000000000000000000000000000000008152600401612c4c90614f24565b60405180910390fd5b8060040154421015612c9c576040517f08c379a0000000000000000000000000000000000000000000000000000000008152600401612c9390614cc4565b60405180910390fd5b60018160070160016101000a81548160ff02191690831515021790555060028160070160006101000a81548160ff02191690836004811115612d07577f4e487b7100000000000000000000000000000000000000000000000000000000600052602160045260246000fd5b02179055503373ffffffffffffffffffffffffffffffffffffffff16847f7f44dc96dfe82556f254203e555fa87ce76986f76eb50fc73d105558207ebb5860405160405180910390a350505050565b60076020528060005260406000206000915090505481565b823373ffffffffffffffffffffffffffffffffffffffff166001600083815260200190815260200160002060030160009054906101000a900473ffffffffffffffffffffffffffffffffffffffff1673ffffffffffffffffffffffffffffffffffffffff1614612e13576040517f08c379a0000000000000000000000000000000000000000000000000000000008152600401612e0a90614fc4565b60405180910390fd5b83600060016000838152602001908152602001600020600001541415612e6e576040517f08c379a0000000000000000000000000000000000000000000000000000000008152600401612e6590614d84565b60405180910390fd5b600084511180612e7f575060008351115b612ebe576040517f08c379a0000000000000000000000000000000000000000000000000000000008152600401612eb590614c84565b60405180910390fd5b60405180608001604052808681526020018581526020018481526020014281525060056000878152602001908152602001600020600082015181600001556020820151816001019080519060200190612f18929190613953565b506040820151816002019080519060200190612f35929190613953565b50606082015181600301559050503373ffffffffffffffffffffffffffffffffffffffff16857fb3766b7e0a449822146cec5e4d86cfdedfdbd6a7382fa1c9043e23f019ecd74460405160405180910390a35050505050565b600080865111612fd3576040517f08c379a0000000000000000000000000000000000000000000000000000000008152600401612fca90614f44565b60405180910390fd5b6000855111613017576040517f08c379a000000000000000000000000000000000000000000000000000000000815260040161300e90614e44565b60405180910390fd5b61076c841180156130285750428411155b613067576040517f08c379a000000000000000000000000000000000000000000000000000000000815260040161305e90614ce4565b60405180910390fd5b600083116130aa576040517f08c379a00000000000000000000000000000000000000000000000000000000081526004016130a190614fa4565b60405180910390fd5b600860008154809291906130bd906155bf565b9190505550600060085490506040518061012001604052808281526020013373ffffffffffffffffffffffffffffffffffffffff168152602001888152602001878152602001868152602001858152602001848152602001600115158152602001428152506000808381526020019081526020016000206000820151816000015560208201518160010160006101000a81548173ffffffffffffffffffffffffffffffffffffffff021916908373ffffffffffffffffffffffffffffffffffffffff16021790555060408201518160020190805190602001906131a1929190613721565b5060608201518160030190805190602001906131be929190613721565b506080820151816004015560a0820151816005015560c08201518160060190805190602001906131ef929190613721565b5060e08201518160070160006101000a81548160ff0219169083151502179055506101008201518160080155905050600660003373ffffffffffffffffffffffffffffffffffffffff1673ffffffffffffffffffffffffffffffffffffffff1681526020019081526020016000208190806001815401808255809150506001900390600052602060002001600090919091909150553373ffffffffffffffffffffffffffffffffffffffff16817f4be45ef5bd3606c02e624fc434f7ec7a6ad6dddda2606fa16194305208aa5d8b89896040516132cd929190614c4d565b60405180910390a38091505095945050505050565b6132ea6139b3565b600060026000848152602001908152602001600020600001541415613344576040517f08c379a000000000000000000000000000000000000000000000000000000000815260040161333b90614ea4565b60405180910390fd5b600260008381526020019081526020016000206040518060c001604052908160008201548152602001600182015481526020016002820160009054906101000a900473ffffffffffffffffffffffffffffffffffffffff1673ffffffffffffffffffffffffffffffffffffffff1673ffffffffffffffffffffffffffffffffffffffff1681526020016003820180546133dc9061558d565b80601f01602080910402602001604051908101604052809291908181526020018280546134089061558d565b80156134555780601f1061342a57610100808354040283529160200191613455565b820191906000526020600020905b81548152906001019060200180831161343857829003601f168201915b505050505081526020016004820160009054906101000a900460ff1660028111156134a9577f4e487b7100000000000000000000000000000000000000000000000000000000600052602160045260246000fd5b60028111156134e1577f4e487b7100000000000000000000000000000000000000000000000000000000600052602160045260246000fd5b81526020016005820154815250509050919050565b60036020528060005260406000206000915090505481565b60006020528060005260406000206000915090508060000154908060010160009054906101000a900473ffffffffffffffffffffffffffffffffffffffff169080600201805461355d9061558d565b80601f01602080910402602001604051908101604052809291908181526020018280546135899061558d565b80156135d65780601f106135ab576101008083540402835291602001916135d6565b820191906000526020600020905b8154815290600101906020018083116135b957829003601f168201915b5050505050908060030180546135eb9061558d565b80601f01602080910402602001604051908101604052809291908181526020018280546136179061558d565b80156136645780601f1061363957610100808354040283529160200191613664565b820191906000526020600020905b81548152906001019060200180831161364757829003601f168201915b5050505050908060040154908060050154908060060180546136859061558d565b80601f01602080910402602001604051908101604052809291908181526020018280546136b19061558d565b80156136fe5780601f106136d3576101008083540402835291602001916136fe565b820191906000526020600020905b8154815290600101906020018083116136e157829003601f168201915b5050505050908060070160009054906101000a900460ff16908060080154905089565b82805461372d9061558d565b90600052602060002090601f01602090048101928261374f5760008555613796565b82601f1061376857805160ff1916838001178555613796565b82800160010185558215613796579182015b8281111561379557825182559160200191906001019061377a565b5b5090506137a39190613a37565b5090565b60405180610120016040528060008152602001600073ffffffffffffffffffffffffffffffffffffffff1681526020016060815260200160608152602001600081526020016000815260200160608152602001600015158152602001600081525090565b6040518061014001604052806000815260200160008152602001600073ffffffffffffffffffffffffffffffffffffffff168152602001600073ffffffffffffffffffffffffffffffffffffffff168152602001600081526020016000815260200160008152602001600060048111156138ae577f4e487b7100000000000000000000000000000000000000000000000000000000600052602160045260246000fd5b81526020016000151581526020016000151581525090565b6040518060c0016040528060008152602001600073ffffffffffffffffffffffffffffffffffffffff168152602001600073ffffffffffffffffffffffffffffffffffffffff168152602001600060ff16815260200160608152602001600081525090565b6040518060800160405280600081526020016060815260200160608152602001600081525090565b8280548282559060005260206000209081019282156139a2579160200282015b828111156139a1578251829080519060200190613991929190613721565b5091602001919060010190613973565b5b5090506139af9190613a54565b5090565b6040518060c001604052806000815260200160008152602001600073ffffffffffffffffffffffffffffffffffffffff1681526020016060815260200160006002811115613a2a577f4e487b7100000000000000000000000000000000000000000000000000000000600052602160045260246000fd5b8152602001600081525090565b5b80821115613a50576000816000905550600101613a38565b5090565b5b80821115613a745760008181613a6b9190613a78565b50600101613a55565b5090565b508054613a849061558d565b6000825580601f10613a965750613ab5565b601f016020900490600052602060002090810190613ab49190613a37565b5b50565b6000613acb613ac684615326565b6152f5565b9050808382526020820190508260005b85811015613b0b5781358501613af18882613b92565b845260208401935060208301925050600181019050613adb565b5050509392505050565b6000613b28613b2384615352565b6152f5565b905082815260208101848484011115613b4057600080fd5b613b4b848285615521565b509392505050565b600081359050613b62816156fd565b92915050565b600082601f830112613b7957600080fd5b8135613b89848260208601613ab8565b91505092915050565b600082601f830112613ba357600080fd5b8135613bb3848260208601613b15565b91505092915050565b600081359050613bcb81615714565b92915050565b600081359050613be08161572b565b92915050565b600060208284031215613bf857600080fd5b6000613c0684828501613b53565b91505092915050565b60008060408385031215613c2257600080fd5b6000613c3085828601613b53565b9250506020613c4185828601613bbc565b9150509250929050565b600080600080600060a08688031215613c6357600080fd5b600086013567ffffffffffffffff811115613c7d57600080fd5b613c8988828901613b92565b955050602086013567ffffffffffffffff811115613ca657600080fd5b613cb288828901613b92565b9450506040613cc388828901613bbc565b9350506060613cd488828901613bbc565b925050608086013567ffffffffffffffff811115613cf157600080fd5b613cfd88828901613b92565b9150509295509295909350565b600060208284031215613d1c57600080fd5b6000613d2a84828501613bbc565b91505092915050565b600080600060608486031215613d4857600080fd5b6000613d5686828701613bbc565b935050602084013567ffffffffffffffff811115613d7357600080fd5b613d7f86828701613b68565b925050604084013567ffffffffffffffff811115613d9c57600080fd5b613da886828701613b68565b9150509250925092565b60008060408385031215613dc557600080fd5b6000613dd385828601613bbc565b925050602083013567ffffffffffffffff811115613df057600080fd5b613dfc85828601613b92565b9150509250929050565b60008060008060008060c08789031215613e1f57600080fd5b6000613e2d89828a01613bbc565b965050602087013567ffffffffffffffff811115613e4a57600080fd5b613e5689828a01613b92565b955050604087013567ffffffffffffffff811115613e7357600080fd5b613e7f89828a01613b92565b9450506060613e9089828a01613bbc565b9350506080613ea189828a01613bbc565b92505060a087013567ffffffffffffffff811115613ebe57600080fd5b613eca89828a01613b92565b9150509295509295509295565b600080600060608486031215613eec57600080fd5b6000613efa86828701613bbc565b9350506020613f0b86828701613bd1565b925050604084013567ffffffffffffffff811115613f2857600080fd5b613f3486828701613b92565b9150509250925092565b6000613f4a83836140b5565b905092915050565b6000613f5e8383614bda565b60208301905092915050565b613f7381615482565b82525050565b613f8281615482565b82525050565b6000613f93826153a2565b613f9d81856153dd565b935083602082028501613faf85615382565b8060005b85811015613feb5784840389528151613fcc8582613f3e565b9450613fd7836153c3565b925060208a01995050600181019050613fb3565b50829750879550505050505092915050565b6000614008826153ad565b61401281856153ee565b935061401d83615392565b8060005b8381101561404e5781516140358882613f52565b9750614040836153d0565b925050600181019050614021565b5085935050505092915050565b61406481615494565b82525050565b61407381615494565b82525050565b614082816154fd565b82525050565b614091816154fd565b82525050565b6140a08161550f565b82525050565b6140af8161550f565b82525050565b60006140c0826153b8565b6140ca818561540a565b93506140da818560208601615530565b6140e3816156c4565b840191505092915050565b60006140f9826153b8565b614103818561541b565b9350614113818560208601615530565b61411c816156c4565b840191505092915050565b6000614134601e8361541b565b91507f4d7573742075706c6f6164206174206c65617374206f6e652070686f746f00006000830152602082019050919050565b600061417460128361541b565b91507f43617220646f6573206e6f7420657869737400000000000000000000000000006000830152602082019050919050565b60006141b4601b8361541b565b91507f5069636b7570206461746520686173206e6f74206172726976656400000000006000830152602082019050919050565b60006141f4600c8361541b565b91507f496e76616c6964207965617200000000000000000000000000000000000000006000830152602082019050919050565b6000614234600f8361541b565b91507f5472616e73666572206661696c656400000000000000000000000000000000006000830152602082019050919050565b600061427460158361541b565b91507f526174696e6720646f6573206e6f7420657869737400000000000000000000006000830152602082019050919050565b60006142b4601e8361541b565b91507f5069636b7570206d75737420626520636f6e6669726d656420666972737400006000830152602082019050919050565b60006142f4601a8361541b565b91507f50686f746f2070726f6f6620646f6573206e6f742065786973740000000000006000830152602082019050919050565b600061433460168361541b565b91507f426f6f6b696e6720646f6573206e6f74206578697374000000000000000000006000830152602082019050919050565b600061437460168361541b565b91507f426f6f6b696e67206d75737420626520616374697665000000000000000000006000830152602082019050919050565b60006143b460268361541b565b91507f4f6e6c7920636172206f776e65722063616e20706572666f726d20746869732060008301527f616374696f6e00000000000000000000000000000000000000000000000000006020830152604082019050919050565b600061441a602c8361541b565b91507f43616e206f6e6c79206469737075746520616374697665206f7220617070726f60008301527f76656420626f6f6b696e677300000000000000000000000000000000000000006020830152604082019050919050565b6000614480601d8361541b565b91507f53636f7265206d757374206265206265747765656e203120616e6420350000006000830152602082019050919050565b60006144c060168361541b565b91507f426f6f6b696e67206973206e6f742070656e64696e67000000000000000000006000830152602082019050919050565b600061450060158361541b565b91507f4d6f64656c2063616e6e6f7420626520656d70747900000000000000000000006000830152602082019050919050565b6000614540601b8361541b565b91507f52657475726e206461746520686173206e6f74206172726976656400000000006000830152602082019050919050565b600061458060148361541b565b91507f436172206973206e6f7420617661696c61626c650000000000000000000000006000830152602082019050919050565b60006145c060168361541b565b91507f4469737075746520646f6573206e6f74206578697374000000000000000000006000830152602082019050919050565b600061460060258361541b565b91507f52656e74657220616c726561647920726174656420666f72207468697320626f60008301527f6f6b696e670000000000000000000000000000000000000000000000000000006020830152604082019050919050565b600061466660248361541b565b91507f43616e6e6f7420656469742063617220776974682061637469766520626f6f6b60008301527f696e6773000000000000000000000000000000000000000000000000000000006020830152604082019050919050565b60006146cc60168361541b565b91507f526561736f6e2063616e6e6f7420626520656d707479000000000000000000006000830152602082019050919050565b600061470c6000836153ff565b9150600082019050919050565b6000614726601e8361541b565b91507f426f6f6b696e67206d75737420626520617070726f76656420666972737400006000830152602082019050919050565b600061476660148361541b565b91507f4d616b652063616e6e6f7420626520656d7074790000000000000000000000006000830152602082019050919050565b60006147a660178361541b565b91507f4e6f206561726e696e677320746f2077697468647261770000000000000000006000830152602082019050919050565b60006147e660198361541b565b91507f426f6f6b696e67206d75737420626520636f6d706c65746564000000000000006000830152602082019050919050565b6000614826601c8361541b565b91507f5072696365206d7573742062652067726561746572207468616e2030000000006000830152602082019050919050565b6000614866602a8361541b565b91507f4f6e6c7920626f6f6b696e67206f776e65722063616e20706572666f726d207460008301527f68697320616374696f6e000000000000000000000000000000000000000000006020830152604082019050919050565b610140820160008201516148d66000850182614bda565b5060208201516148e96020850182614bda565b5060408201516148fc6040850182613f6a565b50606082015161490f6060850182613f6a565b5060808201516149226080850182614bda565b5060a082015161493560a0850182614bda565b5060c082015161494860c0850182614bda565b5060e082015161495b60e0850182614079565b5061010082015161497061010085018261405b565b5061012082015161498561012085018261405b565b50505050565b6000610120830160008301516149a46000860182614bda565b5060208301516149b76020860182613f6a565b50604083015184820360408601526149cf82826140b5565b915050606083015184820360608601526149e982826140b5565b91505060808301516149fe6080860182614bda565b5060a0830151614a1160a0860182614bda565b5060c083015184820360c0860152614a2982826140b5565b91505060e0830151614a3e60e086018261405b565b50610100830151614a53610100860182614bda565b508091505092915050565b600060c083016000830151614a766000860182614bda565b506020830151614a896020860182614bda565b506040830151614a9c6040860182613f6a565b5060608301518482036060860152614ab482826140b5565b9150506080830151614ac96080860182614097565b5060a0830151614adc60a0860182614bda565b508091505092915050565b6000608083016000830151614aff6000860182614bda565b5060208301518482036020860152614b178282613f88565b91505060408301518482036040860152614b318282613f88565b9150506060830151614b466060860182614bda565b508091505092915050565b600060c083016000830151614b696000860182614bda565b506020830151614b7c6020860182613f6a565b506040830151614b8f6040860182613f6a565b506060830151614ba26060860182614bf8565b5060808301518482036080860152614bba82826140b5565b91505060a0830151614bcf60a0860182614bda565b508091505092915050565b614be3816154e6565b82525050565b614bf2816154e6565b82525050565b614c01816154f0565b82525050565b614c10816154f0565b82525050565b6000614c21826146ff565b9150819050919050565b60006020820190508181036000830152614c458184613ffd565b905092915050565b60006040820190508181036000830152614c6781856140ee565b90508181036020830152614c7b81846140ee565b90509392505050565b60006020820190508181036000830152614c9d81614127565b9050919050565b60006020820190508181036000830152614cbd81614167565b9050919050565b60006020820190508181036000830152614cdd816141a7565b9050919050565b60006020820190508181036000830152614cfd816141e7565b9050919050565b60006020820190508181036000830152614d1d81614227565b9050919050565b60006020820190508181036000830152614d3d81614267565b9050919050565b60006020820190508181036000830152614d5d816142a7565b9050919050565b60006020820190508181036000830152614d7d816142e7565b9050919050565b60006020820190508181036000830152614d9d81614327565b9050919050565b60006020820190508181036000830152614dbd81614367565b9050919050565b60006020820190508181036000830152614ddd816143a7565b9050919050565b60006020820190508181036000830152614dfd8161440d565b9050919050565b60006020820190508181036000830152614e1d81614473565b9050919050565b60006020820190508181036000830152614e3d816144b3565b9050919050565b60006020820190508181036000830152614e5d816144f3565b9050919050565b60006020820190508181036000830152614e7d81614533565b9050919050565b60006020820190508181036000830152614e9d81614573565b9050919050565b60006020820190508181036000830152614ebd816145b3565b9050919050565b60006020820190508181036000830152614edd816145f3565b9050919050565b60006020820190508181036000830152614efd81614659565b9050919050565b60006020820190508181036000830152614f1d816146bf565b9050919050565b60006020820190508181036000830152614f3d81614719565b9050919050565b60006020820190508181036000830152614f5d81614759565b9050919050565b60006020820190508181036000830152614f7d81614799565b9050919050565b60006020820190508181036000830152614f9d816147d9565b9050919050565b60006020820190508181036000830152614fbd81614819565b9050919050565b60006020820190508181036000830152614fdd81614859565b9050919050565b600061014082019050614ffa60008301846148bf565b92915050565b6000602082019050818103600083015261501a818461498b565b905092915050565b6000602082019050818103600083015261503c8184614a5e565b905092915050565b6000602082019050818103600083015261505e8184614ae7565b905092915050565b600060208201905081810360008301526150808184614b51565b905092915050565b600060208201905061509d6000830184614be9565b92915050565b600060c0820190506150b86000830189614be9565b6150c56020830188613f79565b6150d26040830187613f79565b6150df6060830186614c07565b81810360808301526150f181856140ee565b905061510060a0830184614be9565b979650505050505050565b600061012082019050615121600083018c614be9565b61512e602083018b613f79565b8181036040830152615140818a6140ee565b9050818103606083015261515481896140ee565b90506151636080830188614be9565b61517060a0830187614be9565b81810360c083015261518281866140ee565b905061519160e083018561406a565b61519f610100830184614be9565b9a9950505050505050505050565b60006040820190506151c26000830185614be9565b6151cf6020830184614be9565b9392505050565b6000610140820190506151ec600083018d614be9565b6151f9602083018c614be9565b615206604083018b613f79565b615213606083018a613f79565b6152206080830189614be9565b61522d60a0830188614be9565b61523a60c0830187614be9565b61524760e0830186614088565b61525561010083018561406a565b61526361012083018461406a565b9b9a5050505050505050505050565b600060c0820190506152876000830189614be9565b6152946020830188614be9565b6152a16040830187613f79565b81810360608301526152b381866140ee565b90506152c260808301856140a6565b6152cf60a0830184614be9565b979650505050505050565b60006020820190506152ef6000830184614c07565b92915050565b6000604051905081810181811067ffffffffffffffff8211171561531c5761531b615695565b5b8060405250919050565b600067ffffffffffffffff82111561534157615340615695565b5b602082029050602081019050919050565b600067ffffffffffffffff82111561536d5761536c615695565b5b601f19601f8301169050602081019050919050565b6000819050602082019050919050565b6000819050602082019050919050565b600081519050919050565b600081519050919050565b600081519050919050565b6000602082019050919050565b6000602082019050919050565b600082825260208201905092915050565b600082825260208201905092915050565b600081905092915050565b600082825260208201905092915050565b600082825260208201905092915050565b6000615437826154e6565b9150615442836154e6565b9250827fffffffffffffffffffffffffffffffffffffffffffffffffffffffffffffffff0382111561547757615476615608565b5b828201905092915050565b600061548d826154c6565b9050919050565b60008115159050919050565b60008190506154ae826156d5565b919050565b60008190506154c1826156e9565b919050565b600073ffffffffffffffffffffffffffffffffffffffff82169050919050565b6000819050919050565b600060ff82169050919050565b6000615508826154a0565b9050919050565b600061551a826154b3565b9050919050565b82818337600083830152505050565b60005b8381101561554e578082015181840152602081019050615533565b8381111561555d576000848401525b50505050565b600061556e826154e6565b9150600082141561558257615581615608565b5b600182039050919050565b600060028204905060018216806155a557607f821691505b602082108114156155b9576155b8615666565b5b50919050565b60006155ca826154e6565b91507fffffffffffffffffffffffffffffffffffffffffffffffffffffffffffffffff8214156155fd576155fc615608565b5b600182019050919050565b7f4e487b7100000000000000000000000000000000000000000000000000000000600052601160045260246000fd5b7f4e487b7100000000000000000000000000000000000000000000000000000000600052602160045260246000fd5b7f4e487b7100000000000000000000000000000000000000000000000000000000600052602260045260246000fd5b7f4e487b7100000000000000000000000000000000000000000000000000000000600052604160045260246000fd5b6000601f19601f8301169050919050565b600581106156e6576156e5615637565b5b50565b600381106156fa576156f9615637565b5b50565b61570681615482565b811461571157600080fd5b50565b61571d816154e6565b811461572857600080fd5b50565b615734816154f0565b811461573f57600080fd5b5056fea26469706673582212206603dd3f20ed542e61b330f1c66e32c98a292cefd032b7e6e18db73158cba3dd64736f6c63430008000033",
  "immutableReferences": {},
  "source": "pragma solidity ^0.8.0;\n\ncontract CarRental {\n    // ==================== ENUMS ====================\n    enum BookingStatus {\n        Pending,\n        Approved,\n        Active,\n        Completed,\n        Cancelled\n    }\n\n    enum DisputeStatus {\n        Open,\n        Resolved,\n        Closed\n    }\n\n    // ==================== STRUCTS ====================\n    struct Car {\n        uint256 id;\n        address owner;\n        string make;\n        string model;\n        uint256 year;\n        uint256 pricePerDay;\n        string location;\n        bool isAvailable;\n        uint256 createdAt;\n    }\n\n    struct Booking {\n        uint256 id;\n        uint256 carId;\n        address renter;\n        address owner;\n        uint256 startDate;\n        uint256 endDate;\n        uint256 totalPrice;\n        BookingStatus status;\n        bool pickupConfirmed;\n        bool returnConfirmed;\n    }\n\n    struct Dispute {\n        uint256 id;\n        uint256 bookingId;\n        address initiator;\n        string reason;\n        DisputeStatus status;\n        uint256 createdAt;\n    }\n\n    struct Rating {\n        uint256 bookingId;\n        address fromOwner;\n        address toRenter;\n        uint8 score;\n        string comment;\n        uint256 createdAt;\n    }\n\n    struct PhotoProof {\n        uint256 bookingId;\n        string[] beforePhotos;\n        string[] afterPhotos;\n        uint256 uploadedAt;\n    }\n\n    // ==================== STATE VARIABLES ====================\n    mapping(uint256 => Car) public cars;\n    mapping(uint256 => Booking) public bookings;\n    mapping(uint256 => Dispute) public disputes;\n    mapping(address => uint256) public ownerEarnings;\n    mapping(uint256 => Rating) public ratings;\n    mapping(uint256 => PhotoProof) public photoProofs;\n    mapping(address => uint256[]) public ownerCars;\n    mapping(uint256 => uint256) public carBookingCount; // Track active bookings per car\n\n    uint256 public carCounter;\n    uint256 public bookingCounter;\n    uint256 public disputeCounter;\n\n    // ==================== MODIFIERS ====================\n    modifier onlyCarOwner(uint256 carId) {\n        require(cars[carId].owner == msg.sender, \"Only car owner can perform this action\");\n        _;\n    }\n\n    modifier onlyBookingOwner(uint256 bookingId) {\n        require(bookings[bookingId].owner == msg.sender, \"Only booking owner can perform this action\");\n        _;\n    }\n\n    modifier validBooking(uint256 bookingId) {\n        require(bookings[bookingId].id != 0, \"Booking does not exist\");\n        _;\n    }\n\n    modifier validCar(uint256 carId) {\n        require(cars[carId].id != 0, \"Car does not exist\");\n        _;\n    }\n\n    // ==================== EVENTS ====================\n    event CarListed(uint256 indexed carId, address indexed owner, string make, string model);\n    event ListingEdited(uint256 indexed carId, address indexed owner);\n    event BookingApproved(uint256 indexed bookingId, address indexed owner, address indexed renter);\n    event PickupConfirmed(uint256 indexed bookingId, address indexed owner);\n    event ReturnConfirmed(uint256 indexed bookingId, address indexed owner, uint256 amount);\n    event ProofUploaded(uint256 indexed bookingId, address indexed owner);\n    event DisputeOpened(uint256 indexed disputeId, uint256 indexed bookingId, address indexed initiator);\n    event EarningsWithdrawn(address indexed owner, uint256 amount);\n    event RenterRated(uint256 indexed bookingId, address indexed renter, uint8 score);\n\n    // ==================== OWNER FUNCTIONS ====================\n\n    /**\n     * @dev List a car for rent\n     * @param make Car manufacturer\n     * @param model Car model\n     * @param year Car year\n     * @param pricePerDay Price per day in wei\n     * @param location Car location\n     * @return carId The ID of the newly listed car\n     */\n    function listCarForRent(\n        string memory make,\n        string memory model,\n        uint256 year,\n        uint256 pricePerDay,\n        string memory location\n    ) public returns (uint256) {\n        require(bytes(make).length > 0, \"Make cannot be empty\");\n        require(bytes(model).length > 0, \"Model cannot be empty\");\n        require(year > 1900 && year <= block.timestamp, \"Invalid year\");\n        require(pricePerDay > 0, \"Price must be greater than 0\");\n\n        carCounter++;\n        uint256 carId = carCounter;\n\n        cars[carId] = Car({\n            id: carId,\n            owner: msg.sender,\n            make: make,\n            model: model,\n            year: year,\n            pricePerDay: pricePerDay,\n            location: location,\n            isAvailable: true,\n            createdAt: block.timestamp\n        });\n\n        ownerCars[msg.sender].push(carId);\n\n        emit CarListed(carId, msg.sender, make, model);\n        return carId;\n    }\n\n    /**\n     * @dev Edit an existing car listing\n     * @param carId The ID of the car to edit\n     * @param newMake New car manufacturer\n     * @param newModel New car model\n     * @param newYear New car year\n     * @param newPricePerDay New price per day in wei\n     * @param newLocation New car location\n     */\n    function editListing(\n        uint256 carId,\n        string memory newMake,\n        string memory newModel,\n        uint256 newYear,\n        uint256 newPricePerDay,\n        string memory newLocation\n    ) public onlyCarOwner(carId) validCar(carId) {\n        require(carBookingCount[carId] == 0, \"Cannot edit car with active bookings\");\n        require(bytes(newMake).length > 0, \"Make cannot be empty\");\n        require(bytes(newModel).length > 0, \"Model cannot be empty\");\n        require(newYear > 1900 && newYear <= block.timestamp, \"Invalid year\");\n        require(newPricePerDay > 0, \"Price must be greater than 0\");\n\n        cars[carId].make = newMake;\n        cars[carId].model = newModel;\n        cars[carId].year = newYear;\n        cars[carId].pricePerDay = newPricePerDay;\n        cars[carId].location = newLocation;\n\n        emit ListingEdited(carId, msg.sender);\n    }\n\n    /**\n     * @dev Approve a booking request\n     * @param bookingId The ID of the booking to approve\n     */\n    function approveBooking(uint256 bookingId)\n        public\n        onlyBookingOwner(bookingId)\n        validBooking(bookingId)\n    {\n        Booking storage booking = bookings[bookingId];\n        require(booking.status == BookingStatus.Pending, \"Booking is not pending\");\n        require(cars[booking.carId].isAvailable, \"Car is not available\");\n\n        booking.status = BookingStatus.Approved;\n        cars[booking.carId].isAvailable = false;\n        carBookingCount[booking.carId]++;\n\n        emit BookingApproved(bookingId, msg.sender, booking.renter);\n    }\n\n    /**\n     * @dev Confirm car pickup\n     * @param bookingId The ID of the booking\n     */\n    function confirmPickup(uint256 bookingId)\n        public\n        onlyBookingOwner(bookingId)\n        validBooking(bookingId)\n    {\n        Booking storage booking = bookings[bookingId];\n        require(booking.status == BookingStatus.Approved, \"Booking must be approved first\");\n        require(block.timestamp >= booking.startDate, \"Pickup date has not arrived\");\n\n        booking.pickupConfirmed = true;\n        booking.status = BookingStatus.Active;\n\n        emit PickupConfirmed(bookingId, msg.sender);\n    }\n\n    /**\n     * @dev Confirm car return\n     * @param bookingId The ID of the booking\n     */\n    function confirmReturn(uint256 bookingId)\n        public\n        onlyBookingOwner(bookingId)\n        validBooking(bookingId)\n    {\n        Booking storage booking = bookings[bookingId];\n        require(booking.status == BookingStatus.Active, \"Booking must be active\");\n        require(booking.pickupConfirmed, \"Pickup must be confirmed first\");\n        require(block.timestamp >= booking.endDate, \"Return date has not arrived\");\n\n        booking.returnConfirmed = true;\n        booking.status = BookingStatus.Completed;\n        cars[booking.carId].isAvailable = true;\n        carBookingCount[booking.carId]--;\n\n        // Release payment to owner\n        ownerEarnings[msg.sender] += booking.totalPrice;\n\n        emit ReturnConfirmed(bookingId, msg.sender, booking.totalPrice);\n    }\n\n    /**\n     * @dev Upload proof photos (before and after)\n     * @param bookingId The ID of the booking\n     * @param beforePhotos Array of photo URLs/hashes for before state\n     * @param afterPhotos Array of photo URLs/hashes for after state\n     */\n    function uploadProof(\n        uint256 bookingId,\n        string[] memory beforePhotos,\n        string[] memory afterPhotos\n    ) public onlyBookingOwner(bookingId) validBooking(bookingId) {\n        require(beforePhotos.length > 0 || afterPhotos.length > 0, \"Must upload at least one photo\");\n\n        photoProofs[bookingId] = PhotoProof({\n            bookingId: bookingId,\n            beforePhotos: beforePhotos,\n            afterPhotos: afterPhotos,\n            uploadedAt: block.timestamp\n        });\n\n        emit ProofUploaded(bookingId, msg.sender);\n    }\n\n    /**\n     * @dev Open a dispute for a booking\n     * @param bookingId The ID of the booking\n     * @param reason Reason for the dispute\n     * @return disputeId The ID of the newly created dispute\n     */\n    function openDispute(uint256 bookingId, string memory reason)\n        public\n        onlyBookingOwner(bookingId)\n        validBooking(bookingId)\n        returns (uint256)\n    {\n        require(bytes(reason).length > 0, \"Reason cannot be empty\");\n        require(\n            bookings[bookingId].status == BookingStatus.Active ||\n                bookings[bookingId].status == BookingStatus.Approved,\n            \"Can only dispute active or approved bookings\"\n        );\n\n        disputeCounter++;\n        uint256 disputeId = disputeCounter;\n\n        disputes[disputeId] = Dispute({\n            id: disputeId,\n            bookingId: bookingId,\n            initiator: msg.sender,\n            reason: reason,\n            status: DisputeStatus.Open,\n            createdAt: block.timestamp\n        });\n\n        emit DisputeOpened(disputeId, bookingId, msg.sender);\n        return disputeId;\n    }\n\n    /**\n     * @dev Withdraw accumulated earnings\n     */\n    function withdrawEarnings() public {\n        uint256 earnings = ownerEarnings[msg.sender];\n        require(earnings > 0, \"No earnings to withdraw\");\n\n        ownerEarnings[msg.sender] = 0;\n\n        (bool success, ) = payable(msg.sender).call{value: earnings}(\"\");\n        require(success, \"Transfer failed\");\n\n        emit EarningsWithdrawn(msg.sender, earnings);\n    }\n\n    /**\n     * @dev Rate a renter after booking completion\n     * @param bookingId The ID of the completed booking\n     * @param score Rating score (1-5)\n     * @param comment Optional comment\n     */\n    function rateRenter(\n        uint256 bookingId,\n        uint8 score,\n        string memory comment\n    ) public onlyBookingOwner(bookingId) validBooking(bookingId) {\n        require(bookings[bookingId].status == BookingStatus.Completed, \"Booking must be completed\");\n        require(score >= 1 && score <= 5, \"Score must be between 1 and 5\");\n        require(ratings[bookingId].createdAt == 0, \"Renter already rated for this booking\");\n\n        ratings[bookingId] = Rating({\n            bookingId: bookingId,\n            fromOwner: msg.sender,\n            toRenter: bookings[bookingId].renter,\n            score: score,\n            comment: comment,\n            createdAt: block.timestamp\n        });\n\n        emit RenterRated(bookingId, bookings[bookingId].renter, score);\n    }\n\n    // ==================== VIEW FUNCTIONS ====================\n\n    /**\n     * @dev Get car details\n     * @param carId The ID of the car\n     * @return Car struct\n     */\n    function getCar(uint256 carId) public view validCar(carId) returns (Car memory) {\n        return cars[carId];\n    }\n\n    /**\n     * @dev Get booking details\n     * @param bookingId The ID of the booking\n     * @return Booking struct\n     */\n    function getBooking(uint256 bookingId)\n        public\n        view\n        validBooking(bookingId)\n        returns (Booking memory)\n    {\n        return bookings[bookingId];\n    }\n\n    /**\n     * @dev Get all car IDs owned by an address\n     * @param owner The owner's address\n     * @return Array of car IDs\n     */\n    function getOwnerCars(address owner) public view returns (uint256[] memory) {\n        return ownerCars[owner];\n    }\n\n    /**\n     * @dev Get owner's pending earnings\n     * @param owner The owner's address\n     * @return Pending earnings in wei\n     */\n    function getOwnerEarnings(address owner) public view returns (uint256) {\n        return ownerEarnings[owner];\n    }\n\n    /**\n     * @dev Get dispute details\n     * @param disputeId The ID of the dispute\n     * @return Dispute struct\n     */\n    function getDispute(uint256 disputeId) public view returns (Dispute memory) {\n        require(disputes[disputeId].id != 0, \"Dispute does not exist\");\n        return disputes[disputeId];\n    }\n\n    /**\n     * @dev Get photo proof for a booking\n     * @param bookingId The ID of the booking\n     * @return PhotoProof struct\n     */\n    function getPhotoProof(uint256 bookingId) public view returns (PhotoProof memory) {\n        require(photoProofs[bookingId].uploadedAt != 0, \"Photo proof does not exist\");\n        return photoProofs[bookingId];\n    }\n\n    /**\n     * @dev Get rating for a booking\n     * @param bookingId The ID of the booking\n     * @return Rating struct\n     */\n    function getRating(uint256 bookingId) public view returns (Rating memory) {\n        require(ratings[bookingId].createdAt != 0, \"Rating does not exist\");\n        return ratings[bookingId];\n    }\n\n    // ==================== RECEIVE FUNCTION ====================\n    // Allow contract to receive payments (for booking payments)\n    receive() external payable {}\n}\n\n",
  "sourcePath": "/workspaces/DecentralizdCarRentalApp/blockchain/contracts/CarRental.sol",
  "compiler": {
    "name": "solc",
    "version": "0.8.0+commit.c7dfd78e.Emscripten.clang"
  },
  "schemaVersion": "3.4.16",
  "updatedAt": "2025-11-14T19:59:37.761Z",
  "networkType": "ethereum",
  "devdoc": {
    "kind": "dev",
    "methods": {
      "approveBooking(uint256)": {
        "details": "Approve a booking request",
        "params": {
          "bookingId": "The ID of the booking to approve"
        }
      },
      "confirmPickup(uint256)": {
        "details": "Confirm car pickup",
        "params": {
          "bookingId": "The ID of the booking"
        }
      },
      "confirmReturn(uint256)": {
        "details": "Confirm car return",
        "params": {
          "bookingId": "The ID of the booking"
        }
      },
      "editListing(uint256,string,string,uint256,uint256,string)": {
        "details": "Edit an existing car listing",
        "params": {
          "carId": "The ID of the car to edit",
          "newLocation": "New car location",
          "newMake": "New car manufacturer",
          "newModel": "New car model",
          "newPricePerDay": "New price per day in wei",
          "newYear": "New car year"
        }
      },
      "getBooking(uint256)": {
        "details": "Get booking details",
        "params": {
          "bookingId": "The ID of the booking"
        },
        "returns": {
          "_0": "Booking struct"
        }
      },
      "getCar(uint256)": {
        "details": "Get car details",
        "params": {
          "carId": "The ID of the car"
        },
        "returns": {
          "_0": "Car struct"
        }
      },
      "getDispute(uint256)": {
        "details": "Get dispute details",
        "params": {
          "disputeId": "The ID of the dispute"
        },
        "returns": {
          "_0": "Dispute struct"
        }
      },
      "getOwnerCars(address)": {
        "details": "Get all car IDs owned by an address",
        "params": {
          "owner": "The owner's address"
        },
        "returns": {
          "_0": "Array of car IDs"
        }
      },
      "getOwnerEarnings(address)": {
        "details": "Get owner's pending earnings",
        "params": {
          "owner": "The owner's address"
        },
        "returns": {
          "_0": "Pending earnings in wei"
        }
      },
      "getPhotoProof(uint256)": {
        "details": "Get photo proof for a booking",
        "params": {
          "bookingId": "The ID of the booking"
        },
        "returns": {
          "_0": "PhotoProof struct"
        }
      },
      "getRating(uint256)": {
        "details": "Get rating for a booking",
        "params": {
          "bookingId": "The ID of the booking"
        },
        "returns": {
          "_0": "Rating struct"
        }
      },
      "listCarForRent(string,string,uint256,uint256,string)": {
        "details": "List a car for rent",
        "params": {
          "location": "Car location",
          "make": "Car manufacturer",
          "model": "Car model",
          "pricePerDay": "Price per day in wei",
          "year": "Car year"
        },
        "returns": {
          "_0": "carId The ID of the newly listed car"
        }
      },
      "openDispute(uint256,string)": {
        "details": "Open a dispute for a booking",
        "params": {
          "bookingId": "The ID of the booking",
          "reason": "Reason for the dispute"
        },
        "returns": {
          "_0": "disputeId The ID of the newly created dispute"
        }
      },
      "rateRenter(uint256,uint8,string)": {
        "details": "Rate a renter after booking completion",
        "params": {
          "bookingId": "The ID of the completed booking",
          "comment": "Optional comment",
          "score": "Rating score (1-5)"
        }
      },
      "uploadProof(uint256,string[],string[])": {
        "details": "Upload proof photos (before and after)",
        "params": {
          "afterPhotos": "Array of photo URLs/hashes for after state",
          "beforePhotos": "Array of photo URLs/hashes for before state",
          "bookingId": "The ID of the booking"
        }
      },
      "withdrawEarnings()": {
        "details": "Withdraw accumulated earnings"
      }
    },
    "version": 1
  },
  "userdoc": {
    "kind": "user",
    "methods": {},
    "version": 1
  }
}