{
  "contractName": "CarRental",
  "abi": [
    {
      "inputs": [
        {
          "internalType": "address",
          "name": "_insuranceVerifier",
          "type": "address"
        },
        {
          "internalType": "address",
          "name": "_arbitrator",
          "type": "address"
        },
        {
          "internalType": "uint16",
          "name": "_feeBps",
          "type": "uint16"
        }
      ],
      "stateMutability": "nonpayable",
      "type": "constructor"
    },
    {
      "anonymous": false,
      "inputs": [
        {
          "indexed": true,
          "internalType": "uint256",
          "name": "bookingId",
          "type": "uint256"
        }
      ],
      "name": "BookingApproved",
      "type": "event"
    },
    {
      "anonymous": false,
      "inputs": [
        {
          "indexed": true,
          "internalType": "uint256",
          "name": "bookingId",
          "type": "uint256"
        }
      ],
      "name": "BookingCancelled",
      "type": "event"
    },
    {
      "anonymous": false,
      "inputs": [
        {
          "indexed": true,
          "internalType": "uint256",
          "name": "bookingId",
          "type": "uint256"
        },
        {
          "indexed": false,
          "internalType": "uint256",
          "name": "ownerCredit",
          "type": "uint256"
        },
        {
          "indexed": false,
          "internalType": "uint256",
          "name": "renterCredit",
          "type": "uint256"
        },
        {
          "indexed": false,
          "internalType": "uint256",
          "name": "fee",
          "type": "uint256"
        }
      ],
      "name": "BookingCompleted",
      "type": "event"
    },
    {
      "anonymous": false,
      "inputs": [
        {
          "indexed": true,
          "internalType": "uint256",
          "name": "bookingId",
          "type": "uint256"
        },
        {
          "indexed": true,
          "internalType": "address",
          "name": "by",
          "type": "address"
        }
      ],
      "name": "BookingDisputed",
      "type": "event"
    },
    {
      "anonymous": false,
      "inputs": [
        {
          "indexed": true,
          "internalType": "uint256",
          "name": "bookingId",
          "type": "uint256"
        }
      ],
      "name": "BookingRejected",
      "type": "event"
    },
    {
      "anonymous": false,
      "inputs": [
        {
          "indexed": true,
          "internalType": "uint256",
          "name": "bookingId",
          "type": "uint256"
        },
        {
          "indexed": true,
          "internalType": "uint256",
          "name": "listingId",
          "type": "uint256"
        },
        {
          "indexed": true,
          "internalType": "address",
          "name": "renter",
          "type": "address"
        },
        {
          "indexed": false,
          "internalType": "uint256",
          "name": "escrow",
          "type": "uint256"
        }
      ],
      "name": "BookingRequested",
      "type": "event"
    },
    {
      "anonymous": false,
      "inputs": [
        {
          "indexed": true,
          "internalType": "uint256",
          "name": "listingId",
          "type": "uint256"
        },
        {
          "indexed": false,
          "internalType": "bool",
          "name": "valid",
          "type": "bool"
        }
      ],
      "name": "InsuranceVerified",
      "type": "event"
    },
    {
      "anonymous": false,
      "inputs": [
        {
          "indexed": true,
          "internalType": "uint256",
          "name": "listingId",
          "type": "uint256"
        },
        {
          "indexed": false,
          "internalType": "bool",
          "name": "active",
          "type": "bool"
        }
      ],
      "name": "ListingActive",
      "type": "event"
    },
    {
      "anonymous": false,
      "inputs": [
        {
          "indexed": true,
          "internalType": "uint256",
          "name": "listingId",
          "type": "uint256"
        },
        {
          "indexed": true,
          "internalType": "address",
          "name": "carOwner",
          "type": "address"
        }
      ],
      "name": "ListingCreated",
      "type": "event"
    },
    {
      "anonymous": false,
      "inputs": [
        {
          "indexed": true,
          "internalType": "uint256",
          "name": "listingId",
          "type": "uint256"
        }
      ],
      "name": "ListingEdited",
      "type": "event"
    },
    {
      "anonymous": false,
      "inputs": [
        {
          "indexed": true,
          "internalType": "uint256",
          "name": "bookingId",
          "type": "uint256"
        },
        {
          "indexed": true,
          "internalType": "address",
          "name": "by",
          "type": "address"
        }
      ],
      "name": "PickupConfirmed",
      "type": "event"
    },
    {
      "anonymous": false,
      "inputs": [
        {
          "indexed": true,
          "internalType": "uint256",
          "name": "bookingId",
          "type": "uint256"
        },
        {
          "indexed": true,
          "internalType": "address",
          "name": "by",
          "type": "address"
        }
      ],
      "name": "ReturnConfirmed",
      "type": "event"
    },
    {
      "anonymous": false,
      "inputs": [
        {
          "indexed": true,
          "internalType": "address",
          "name": "user",
          "type": "address"
        }
      ],
      "name": "UserRegistered",
      "type": "event"
    },
    {
      "inputs": [],
      "name": "arbitrator",
      "outputs": [
        {
          "internalType": "address",
          "name": "",
          "type": "address"
        }
      ],
      "stateMutability": "view",
      "type": "function",
      "constant": true
    },
    {
      "inputs": [
        {
          "internalType": "address",
          "name": "",
          "type": "address"
        }
      ],
      "name": "balances",
      "outputs": [
        {
          "internalType": "uint256",
          "name": "",
          "type": "uint256"
        }
      ],
      "stateMutability": "view",
      "type": "function",
      "constant": true
    },
    {
      "inputs": [
        {
          "internalType": "uint256",
          "name": "",
          "type": "uint256"
        }
      ],
      "name": "bookings",
      "outputs": [
        {
          "internalType": "uint256",
          "name": "listingId",
          "type": "uint256"
        },
        {
          "internalType": "address payable",
          "name": "renter",
          "type": "address"
        },
        {
          "internalType": "uint64",
          "name": "startDate",
          "type": "uint64"
        },
        {
          "internalType": "uint64",
          "name": "endDate",
          "type": "uint64"
        },
        {
          "internalType": "uint256",
          "name": "rentalCost",
          "type": "uint256"
        },
        {
          "internalType": "uint256",
          "name": "deposit",
          "type": "uint256"
        },
        {
          "internalType": "enum CarRental.BookingStatus",
          "name": "status",
          "type": "uint8"
        },
        {
          "internalType": "bool",
          "name": "renterPickup",
          "type": "bool"
        },
        {
          "internalType": "bool",
          "name": "ownerReturn",
          "type": "bool"
        },
        {
          "internalType": "string",
          "name": "pickupProofURI_renter",
          "type": "string"
        },
        {
          "internalType": "string",
          "name": "returnProofURI_owner",
          "type": "string"
        },
        {
          "internalType": "uint256",
          "name": "escrow",
          "type": "uint256"
        }
      ],
      "stateMutability": "view",
      "type": "function",
      "constant": true
    },
    {
      "inputs": [],
      "name": "contractOwner",
      "outputs": [
        {
          "internalType": "address",
          "name": "",
          "type": "address"
        }
      ],
      "stateMutability": "view",
      "type": "function",
      "constant": true
    },
    {
      "inputs": [],
      "name": "insuranceVerifier",
      "outputs": [
        {
          "internalType": "address",
          "name": "",
          "type": "address"
        }
      ],
      "stateMutability": "view",
      "type": "function",
      "constant": true
    },
    {
      "inputs": [
        {
          "internalType": "uint256",
          "name": "",
          "type": "uint256"
        }
      ],
      "name": "listings",
      "outputs": [
        {
          "internalType": "address payable",
          "name": "carOwner",
          "type": "address"
        },
        {
          "internalType": "uint256",
          "name": "dailyPrice",
          "type": "uint256"
        },
        {
          "internalType": "uint256",
          "name": "securityDeposit",
          "type": "uint256"
        },
        {
          "internalType": "bool",
          "name": "active",
          "type": "bool"
        },
        {
          "internalType": "bool",
          "name": "insuranceValid",
          "type": "bool"
        },
        {
          "internalType": "string",
          "name": "insuranceDocURI",
          "type": "string"
        },
        {
          "internalType": "string",
          "name": "make",
          "type": "string"
        },
        {
          "internalType": "string",
          "name": "model",
          "type": "string"
        },
        {
          "internalType": "uint256",
          "name": "year",
          "type": "uint256"
        },
        {
          "internalType": "string",
          "name": "location",
          "type": "string"
        }
      ],
      "stateMutability": "view",
      "type": "function",
      "constant": true
    },
    {
      "inputs": [],
      "name": "platformFeeBps",
      "outputs": [
        {
          "internalType": "uint16",
          "name": "",
          "type": "uint16"
        }
      ],
      "stateMutability": "view",
      "type": "function",
      "constant": true
    },
    {
      "inputs": [
        {
          "internalType": "uint256",
          "name": "",
          "type": "uint256"
        }
      ],
      "name": "rateOwnerScore",
      "outputs": [
        {
          "internalType": "uint8",
          "name": "value",
          "type": "uint8"
        },
        {
          "internalType": "bool",
          "name": "set",
          "type": "bool"
        }
      ],
      "stateMutability": "view",
      "type": "function",
      "constant": true
    },
    {
      "inputs": [
        {
          "internalType": "uint256",
          "name": "",
          "type": "uint256"
        }
      ],
      "name": "rateRenterScore",
      "outputs": [
        {
          "internalType": "uint8",
          "name": "value",
          "type": "uint8"
        },
        {
          "internalType": "bool",
          "name": "set",
          "type": "bool"
        }
      ],
      "stateMutability": "view",
      "type": "function",
      "constant": true
    },
    {
      "inputs": [
        {
          "internalType": "address",
          "name": "",
          "type": "address"
        }
      ],
      "name": "users",
      "outputs": [
        {
          "internalType": "bool",
          "name": "registered",
          "type": "bool"
        }
      ],
      "stateMutability": "view",
      "type": "function",
      "constant": true
    },
    {
      "inputs": [
        {
          "internalType": "address",
          "name": "_insuranceVerifier",
          "type": "address"
        },
        {
          "internalType": "address",
          "name": "_arbitrator",
          "type": "address"
        }
      ],
      "name": "setRoles",
      "outputs": [],
      "stateMutability": "nonpayable",
      "type": "function"
    },
    {
      "inputs": [
        {
          "internalType": "uint16",
          "name": "_feeBps",
          "type": "uint16"
        }
      ],
      "name": "setPlatformFee",
      "outputs": [],
      "stateMutability": "nonpayable",
      "type": "function"
    },
    {
      "inputs": [],
      "name": "register",
      "outputs": [],
      "stateMutability": "nonpayable",
      "type": "function"
    },
    {
      "inputs": [
        {
          "internalType": "uint256",
          "name": "dailyPrice",
          "type": "uint256"
        },
        {
          "internalType": "uint256",
          "name": "securityDeposit",
          "type": "uint256"
        },
        {
          "internalType": "string",
          "name": "insuranceDocURI",
          "type": "string"
        },
        {
          "internalType": "string",
          "name": "make",
          "type": "string"
        },
        {
          "internalType": "string",
          "name": "model",
          "type": "string"
        },
        {
          "internalType": "uint256",
          "name": "year",
          "type": "uint256"
        },
        {
          "internalType": "string",
          "name": "location",
          "type": "string"
        }
      ],
      "name": "createListing",
      "outputs": [
        {
          "internalType": "uint256",
          "name": "id",
          "type": "uint256"
        }
      ],
      "stateMutability": "nonpayable",
      "type": "function"
    },
    {
      "inputs": [
        {
          "internalType": "uint256",
          "name": "listingId",
          "type": "uint256"
        },
        {
          "internalType": "uint256",
          "name": "dailyPrice",
          "type": "uint256"
        },
        {
          "internalType": "uint256",
          "name": "securityDeposit",
          "type": "uint256"
        },
        {
          "internalType": "string",
          "name": "insuranceDocURI",
          "type": "string"
        },
        {
          "internalType": "string",
          "name": "make",
          "type": "string"
        },
        {
          "internalType": "string",
          "name": "model",
          "type": "string"
        },
        {
          "internalType": "uint256",
          "name": "year",
          "type": "uint256"
        },
        {
          "internalType": "string",
          "name": "location",
          "type": "string"
        }
      ],
      "name": "editListing",
      "outputs": [],
      "stateMutability": "nonpayable",
      "type": "function"
    },
    {
      "inputs": [
        {
          "internalType": "uint256",
          "name": "listingId",
          "type": "uint256"
        },
        {
          "internalType": "bool",
          "name": "active_",
          "type": "bool"
        }
      ],
      "name": "setListingActive",
      "outputs": [],
      "stateMutability": "nonpayable",
      "type": "function"
    },
    {
      "inputs": [
        {
          "internalType": "uint256",
          "name": "listingId",
          "type": "uint256"
        },
        {
          "internalType": "bool",
          "name": "valid",
          "type": "bool"
        }
      ],
      "name": "verifyInsurance",
      "outputs": [],
      "stateMutability": "nonpayable",
      "type": "function"
    },
    {
      "inputs": [
        {
          "internalType": "uint256",
          "name": "listingId",
          "type": "uint256"
        },
        {
          "internalType": "uint64",
          "name": "startDate",
          "type": "uint64"
        },
        {
          "internalType": "uint64",
          "name": "endDate",
          "type": "uint64"
        }
      ],
      "name": "requestBooking",
      "outputs": [
        {
          "internalType": "uint256",
          "name": "id",
          "type": "uint256"
        }
      ],
      "stateMutability": "payable",
      "type": "function",
      "payable": true
    },
    {
      "inputs": [
        {
          "internalType": "uint256",
          "name": "bookingId",
          "type": "uint256"
        }
      ],
      "name": "approveBooking",
      "outputs": [],
      "stateMutability": "nonpayable",
      "type": "function"
    },
    {
      "inputs": [
        {
          "internalType": "uint256",
          "name": "bookingId",
          "type": "uint256"
        }
      ],
      "name": "rejectBooking",
      "outputs": [],
      "stateMutability": "nonpayable",
      "type": "function"
    },
    {
      "inputs": [
        {
          "internalType": "uint256",
          "name": "bookingId",
          "type": "uint256"
        }
      ],
      "name": "cancelBeforeActive",
      "outputs": [],
      "stateMutability": "nonpayable",
      "type": "function"
    },
    {
      "inputs": [
        {
          "internalType": "uint256",
          "name": "bookingId",
          "type": "uint256"
        },
        {
          "internalType": "string",
          "name": "proofURI",
          "type": "string"
        }
      ],
      "name": "confirmPickup",
      "outputs": [],
      "stateMutability": "nonpayable",
      "type": "function"
    },
    {
      "inputs": [
        {
          "internalType": "uint256",
          "name": "bookingId",
          "type": "uint256"
        },
        {
          "internalType": "string",
          "name": "proofURI",
          "type": "string"
        }
      ],
      "name": "confirmReturn",
      "outputs": [],
      "stateMutability": "nonpayable",
      "type": "function"
    },
    {
      "inputs": [
        {
          "internalType": "uint256",
          "name": "bookingId",
          "type": "uint256"
        }
      ],
      "name": "openDispute",
      "outputs": [],
      "stateMutability": "nonpayable",
      "type": "function"
    },
    {
      "inputs": [
        {
          "internalType": "uint256",
          "name": "bookingId",
          "type": "uint256"
        },
        {
          "internalType": "uint256",
          "name": "ownerPayout",
          "type": "uint256"
        },
        {
          "internalType": "uint256",
          "name": "renterPayout",
          "type": "uint256"
        }
      ],
      "name": "resolveDispute",
      "outputs": [],
      "stateMutability": "nonpayable",
      "type": "function"
    },
    {
      "inputs": [
        {
          "internalType": "uint256",
          "name": "bookingId",
          "type": "uint256"
        },
        {
          "internalType": "uint8",
          "name": "score",
          "type": "uint8"
        }
      ],
      "name": "rateOwner",
      "outputs": [],
      "stateMutability": "nonpayable",
      "type": "function"
    },
    {
      "inputs": [
        {
          "internalType": "uint256",
          "name": "bookingId",
          "type": "uint256"
        },
        {
          "internalType": "uint8",
          "name": "score",
          "type": "uint8"
        }
      ],
      "name": "rateRenter",
      "outputs": [],
      "stateMutability": "nonpayable",
      "type": "function"
    },
    {
      "inputs": [],
      "name": "withdraw",
      "outputs": [],
      "stateMutability": "nonpayable",
      "type": "function"
    }
  ],
  "bytecode": "0x608034620000cf57601f62002b6138819003918201601f19168301916001600160401b03831184841017620000d357808492606094604052833981010312620000cf576200004d81620000e7565b60406200005d60208401620000e7565b9201519061ffff82168203620000cf57600160078190555f80546001600160a01b031990811633179091558154166001600160a01b03928316179055600280546001600160b01b031916939091169290921760a09190911b61ffff60a01b16179055604051612a649081620000fd8239f35b5f80fd5b634e487b7160e01b5f52604160045260245ffd5b51906001600160a01b0382168203620000cf5756fe6080806040526004361015610012575f80fd5b5f3560e01c9081631aa3a0081461226a575080631dab301e1461216757806322dcd13e14612143578063267070ad1461202d57806327d00fb014611f3f57806327e235e314611f075780632fd5402914611e465780633898a6b3146117df5780633ccfd60b1461174f5780633fabe74f146115b65780633feb94751461157a5780635549756c146115115780635cbc742c1461147f5780635f42c4da1461114a57806362c514f41461109d5780636c65bd9214610c8e5780636cbc87da14610aa55780636cc6cde114610a7d5780637599f54f14610a55578063857d239b1461095e5780638a2c5522146109135780639eb42b9e14610514578063a24e0ea214610436578063a87430ba146103f9578063a9621af6146102de578063ce606ee0146102b7578063de74e57b146101b95763f6072a1014610150575f80fd5b346101b55760403660031901126101b5576101696124f2565b6024356001600160a01b0381811692918390036101b55761018e815f54163314612854565b6bffffffffffffffffffffffff60a01b911681600154161760015560025416176002555f80f35b5f80fd5b346101b55760203660031901126101b5576004356004548110156101b5576101e2604091612345565b50805460018201546002830154600384015491936102b393909261029e91610290906001600160a01b031661028261021c600488016123f2565b610228600589016123f2565b9260ff61023760068b016123f2565b96610249600860078d01549c016123f2565b998e519e8f9e8f90610140968252602082015201528c6060838316151591015260081c16151560808c01528060a08c01528a0190612494565b9088820360c08a0152612494565b9086820360e0880152612494565b91610100850152838203610120850152612494565b0390f35b346101b5575f3660031901126101b5575f546040516001600160a01b039091168152602090f35b346101b55760203660031901126101b5576004356102fb816122f8565b50805461031c61030a82612345565b50546001600160a01b0316331461269b565b600582019182549160ff83169060088210156103e557610361926103436001889414612629565b6001600160401b03600281600184015460a01c16920154169161294d565b6103945760ff191660021790557fa0135758a7a152fbc51fc651f1214b629c474d76f3dcbe6095def00eaf87f18c5f80a2005b60405162461bcd60e51b815260206004820152602360248201527f6461746573206f7665726c61702077697468206578697374696e6720626f6f6b604482015262696e6760e81b6064820152608490fd5b634e487b7160e01b5f52602160045260245ffd5b346101b55760203660031901126101b5576001600160a01b0361041a6124f2565b165f526003602052602060ff60405f2054166040519015158152f35b346101b557610444366124d2565b9061044e816122f8565b5060ff6005820154169260088410156103e55761048a60ff9261047660046105079714612587565b600101546001600160a01b03163314612895565b1690600182101580610509575b6104a0906125c3565b805f5260086020526104bc60ff60405f205460081c16156125f5565b604051916104c9836123b6565b82526020820190600182525f52600860205260ff60405f2092511660ff1983541617825551151561ff00825491151560081b169061ff001916179055565b005b506005821115610497565b60603660031901126101b55760043560248035916001600160401b0390818416938481036101b55760449283359081168091036101b557335f526020956003875261056560ff60405f2054166126d7565b6001546001600160a01b039190821633146108c457816002541633146108815761058e85612345565b5091825416331461083e57600382015460ff8116156108085760081c60ff16156107cf5742811061078e578083111561075f576105cf620151809184612827565b048015610730576105e66002916001840154612841565b9101916105f4835483612834565b958634036106fb575060055496600160401b8810156106e857600188018060055561061e896122f8565b505088116106d5575091859391600893610637896122f8565b509387855560018501908154906001600160401b0360a01b9060a01b16906001600160401b0360a01b1933169063ffffffff60e01b161717905560028401906001600160401b0319825416179055600383015554600482015560058101600160ff198254161790550155604051918252827fccf64f7160f860aa529bd13ee78679de073ff8e017433570a494477ea0563a43853394a4604051908152f35b634e487b7160e01b5f9081526011600452fd5b634e487b7160e01b5f9081526041600452fd5b886f696e636f727265637420657363726f7760801b60649260108b6040519462461bcd60e51b86526004860152840152820152fd5b60405162461bcd60e51b815260048101899052600981890152686d696e20312064617960b81b81880152606490fd5b60405162461bcd60e51b81526004810189905260098189015268195b990f9cdd185c9d60ba1b81880152606490fd5b6064877f73746172742064617465206d75737420626520696e2074686520667574757265888b6040519362461bcd60e51b8552816004860152840152820152fd5b60405162461bcd60e51b815260048101899052601381890152721a5b9cdd5c985b98d9481b9bdd081d985b1a59606a1b81880152606490fd5b60405162461bcd60e51b8152600481018a90526010818a01526f6c697374696e6720696e61637469766560801b81890152606490fd5b60405162461bcd60e51b8152600481018990526017818901527f63616e6e6f7420626f6f6b206f776e206c697374696e6700000000000000000081880152606490fd5b60405162461bcd60e51b815260048101899052601b818901527f61726269747261746f722063616e6e6f7420626f6f6b2063617273000000000081880152606490fd5b60405162461bcd60e51b8152600481018990526023818901527f696e737572616e63652076657269666965722063616e6e6f7420626f6f6b2063818801526261727360e81b6064820152608490fd5b346101b55760203660031901126101b5576004355f5260096020526102b360405f2054604051918160ff80859460081c1691168390929160209060ff60408401951683521515910152565b346101b55760203660031901126101b557600435610980600160075414612662565b600260075561098e816122f8565b50600581019081549060ff821660088110156103e55760018114908115610a4a575b5015610a15576109ea926006600860018060a01b03600185015416936109d7853314612895565b01935f8554955560ff19161790556128cf565b7ff774c001cb52a3566b767ed6e37c92706acb2b80a3ff6049e2849cd62725d0855f80a26001600755005b60405162461bcd60e51b815260206004820152600d60248201526c18d85b9b9bdd0818d85b98d95b609a1b6044820152606490fd5b6002915014856109b0565b346101b5575f3660031901126101b5576001546040516001600160a01b039091168152602090f35b346101b5575f3660031901126101b5576002546040516001600160a01b039091168152602090f35b346101b557610ab336612554565b610abe8392936122f8565b50926005840191825460ff811660088110156103e557600203610c5a576001868101549096906001600160a01b03163303610c155761010060069261ff00191617855501916001600160401b038211610c0157610b2582610b1f855461237e565b856127d8565b5f95601f8311600114610b985750610b579293949582915f92610b8d575b50508160011b915f199060031b1c19161790565b90555b805460ff1916600317905533907f7f44dc96dfe82556f254203e555fa87ce76986f76eb50fc73d105558207ebb585f80a3005b013590508680610b43565b90601f19831696845f5260209260205f20935f915b8a8310610bea575050508360019596979810610bd1575b505050811b019055610b5a565b01355f19600384901b60f8161c19169055858080610bc4565b848401358655948501949281019291810191610bad565b634e487b7160e01b5f52604160045260245ffd5b60405162461bcd60e51b815260206004820152601e60248201527f6f6e6c792072656e7465722063616e20636f6e6669726d207069636b757000006044820152606490fd5b60405162461bcd60e51b815260206004820152600c60248201526b1b9bdd08185c1c1c9bdd995960a21b6044820152606490fd5b346101b5576101003660031901126101b5576004356001600160401b036024356064358281116101b557610cc6903690600401612508565b90916084358481116101b557610ce0903690600401612508565b929060a4358681116101b557610cfa903690600401612508565b60c4359260e4358981116101b557610d16903690600401612508565b979098610d228c612345565b5096610d3860018060a01b03895416331461269b565b610d43891515612714565b61076c871180611091575b610d579061274c565b60019889890155604435600289015560048801918c8211610c0157610d8082610b1f855461237e565b5f90601f831160011461102a57610dad92915f918361101f5750508160011b915f199060031b1c19161790565b90555b60058601918a8211610c0157610dca82610b1f855461237e565b5f90601f8311600114610fb857610df792915f9183610fad5750508160011b915f199060031b1c19161790565b90555b6006840191888211610c0157610e1482610b1f855461237e565b5f90601f8311600114610f3f579180610e47926008979695945f92610f345750508160011b915f199060031b1c19161790565b90555b600782015501938211610c0157610e6b82610e65865461237e565b866127d8565b5f90601f8311600114610ecd57508190610e99935f92610ec25750508160011b915f199060031b1c19161790565b90555b7f4c520ab09d5e06c4894077fa644a2085c63bd037543118226e3428b47423ebb55f80a2005b013590508580610b43565b92601f19831691855f528360209360205f20945f905b88838310610f1a5750505010610f01575b505050811b019055610e9c565b01355f19600384901b60f8161c19169055848080610ef4565b868601358855909601959384019387935090810190610ee3565b013590508c80610b43565b91869195949392601f19821690845f5260209160205f20925f905b828210610f94575050978360089910610f7b575b505050811b019055610e4a565b01355f19600384901b60f8161c191690558b8080610f6e565b8a8401358555998a01998b969094019390810190610f5a565b013590508d80610b43565b90889291601f19831691855f5260209260205f20935f905b8282106110065750508411610fed575b505050811b019055610dfa565b01355f19600384901b60f8161c191690558c8080610fe0565b8385013586558d97909501949283019290810190610fd0565b013590508f80610b43565b908a9291601f19831691855f5260209260205f20935f905b828210611078575050841161105f575b505050811b019055610db0565b01355f19600384901b60f8161c191690558e8080611052565b8385013586558f97909501949283019290810190611042565b50610834871115610d4e565b346101b5576110ab36612535565b6001546001600160a01b031633036111155760208161110a7f407f6d6347d33597d66cbccf076e0edec1897f54ef9b615e3ceeea3b84ca71009360036110f087612345565b50019061ff00825491151560081b169061ff001916179055565b6040519015158152a2005b60405162461bcd60e51b815260206004820152600d60248201526c6e6f7420696e737572616e636560981b6044820152606490fd5b346101b55761115836612554565b600192916111698460075414612662565b6002600755611177836122f8565b50916111838354612345565b5092600581019081549160ff831660088110156103e55760030361144d5794546001600160a01b03959086163303611408576201000060079362ff0000191617905501916001600160401b038211610c01576111e382610b1f855461237e565b5f90601f83116001146113a15761121092915f91836113965750508160011b915f199060031b1c19161790565b90555b61121c826122f8565b50906112288254612345565b506005830160ff81541660088110156103e55760036112479114612629565b60038401549361271061126361ffff60025460a01c1687612841565b0461126e8187612827565b926004830154946008840197611286878a5492612834565b0361135f57889787808c611331977f05b7b4c873ca1f8b454c7ecb8fe749d8241d28083d9a966e4f1f40604db97a789b5f96541686526006602052604086206112d08b8254612834565b905501541683526006602052604083206112eb898254612834565b90558254168252600660205260408220611306858254612834565b905555600460ff19825416179055604051938493846040919493926060820195825260208201520152565b0390a233907f8e823f38cc816af62efd341a51dee8f420e5fd62f6c8483c16186967968b86615f80a3600755005b60405162461bcd60e51b815260206004820152600f60248201526e0cae6c6e4deee40dad2e6dac2e8c6d608b1b6044820152606490fd5b013590508780610b43565b90869291601f19831691855f5260209260205f20935f905b8282106113ef57505084116113d6575b505050811b019055611213565b01355f19600384901b60f8161c191690558680806113c9565b8385013586558b979095019492830192908101906113b9565b60405162461bcd60e51b815260206004820152601d60248201527f6f6e6c79206f776e65722063616e20636f6e6669726d2072657475726e0000006044820152606490fd5b60405162461bcd60e51b815260206004820152600a6024820152696e6f742061637469766560b01b6044820152606490fd5b346101b55760203660031901126101b55760043561ffff81168082036101b5576103e8906114b760018060a01b035f54163314612854565b116114dd576002805461ffff60a01b191660a09290921b61ffff60a01b16919091179055005b60405162461bcd60e51b815260206004820152600c60248201526b0cccaca40e8dede40d0d2ced60a31b6044820152606490fd5b346101b55760207f0d85d5ffd1953217a27952a606aa782203679f724633773992d529af76ef695061154236612535565b61110a816003611553859795612345565b5061156860018060a01b03825416331461269b565b019060ff801983541691151516179055565b346101b55760203660031901126101b5576004355f9081526008602081815260409283902054835160ff80831682529190931c16151590820152f35b346101b55760603660031901126101b5576004356024356044356115de600160075414612662565b60026007819055546001600160a01b0392838216330361171957611601856122f8565b509061160d8254612345565b5092600583019060ff82541660088110156103e5576007036116e5576116338684612834565b60088501908154036116ac57878060016116a2977f05b7b4c873ca1f8b454c7ecb8fe749d8241d28083d9a966e4f1f40604db97a789b61168961271061168161ffff5f9a60a01c168c612841565b04809a612827565b9a541686526006602052604086206112d08b8254612834565b0390a26001600755005b60405162461bcd60e51b81526020600482015260116024820152706d7573742073706c697420657363726f7760781b6044820152606490fd5b60405162461bcd60e51b815260206004820152600c60248201526b1b9bdd08191a5cdc1d5d195960a21b6044820152606490fd5b60405162461bcd60e51b815260206004820152600e60248201526d3737ba1030b93134ba3930ba37b960911b6044820152606490fd5b346101b5575f3660031901126101b55761176d600160075414612662565b6002600755335f52600660205260405f205480156117a45761179d90335f5260066020525f6040812055336128cf565b6001600755005b60405162461bcd60e51b81526020600482015260136024820152726e6f7468696e6720746f20776974686472617760681b6044820152606490fd5b346101b55760e03660031901126101b5576044356001600160401b0381116101b55761180f903690600401612508565b906064356001600160401b0381116101b55761182f903690600401612508565b9190926084356001600160401b0381116101b557611851903690600401612508565b919060c4356001600160401b0381116101b557611872903690600401612508565b939094335f52600360205261188d60ff60405f2054166126d7565b6001546001600160a01b03163314611def576002546001600160a01b03163314611da0576118be6004351515612714565b61076c60a4351180611d92575b6118d49061274c565b60405197886101408101106001600160401b036101408b011117610c015761195d9761193061193c93611948975f60808e61014081016040523381526004356020820152602435604082015260016060820152015236916127a2565b60a08b015236916127a2565b60c088015236916127a2565b60e085015260a43561010085015236916127a2565b610120820152600454600160401b811015610c01578060016119829201600455612345565b919091611d7f5760018060a01b038151166bffffffffffffffffffffffff60a01b83541617825560208101516001830155604081015160028301556119fb600383016119e060608401511515829060ff801983541691151516179055565b6080830151815461ff00191690151560081b61ff0016179055565b600482019160a08201519283516001600160401b038111610c0157611a2a81611a24845461237e565b846127d8565b602094601f8211600114611d1d57611a5b9293949582915f92611cb05750508160011b915f199060031b1c19161790565b90555b600581019160c08101519283516001600160401b038111610c0157611a8781611a24845461237e565b602094601f8211600114611cbb57611ab89293949582915f92611cb05750508160011b915f199060031b1c19161790565b90555b600682019160e08201519283516001600160401b038111610c0157611ae481611a24845461237e565b6020601f8211600114611c4557816008949392611b1a9261012097985f92611c3a5750508160011b915f199060031b1c19161790565b90555b6101008401516007820155019101519081516001600160401b038111610c0157611b4b81611a24845461237e565b602092601f8211600114611bda57611b7a929382915f92611bcf5750508160011b915f199060031b1c19161790565b90555b6004545f198101908111611bbb5760405160209133817f4e0f9c4c10f3933a613addba91d6bd94f54a77e3e2748707ee7fe140aef218c55f80a38152f35b634e487b7160e01b5f52601160045260245ffd5b015190508480610b43565b601f19821693835f5260205f20915f5b868110611c225750836001959610611c0a575b505050811b019055611b7d565b01515f1960f88460031b161c19169055838080611bfd565b91926020600181928685015181550194019201611bea565b015190508880610b43565b601f19821695835f5260205f20965f5b818110611c9857509660019284926008979695610120999a10611c80575b505050811b019055611b1d565b01515f1960f88460031b161c19169055878080611c73565b83830151895560019098019760209384019301611c55565b015190508680610b43565b601f19821695835f5260205f20915f5b888110611d0557508360019596979810611ced575b505050811b019055611abb565b01515f1960f88460031b161c19169055858080611ce0565b91926020600181928685015181550194019201611ccb565b601f19821695835f5260205f20915f5b888110611d6757508360019596979810611d4f575b505050811b019055611a5e565b01515f1960f88460031b161c19169055858080611d42565b91926020600181928685015181550194019201611d2d565b634e487b7160e01b5f525f60045260245ffd5b5061083460a43511156118cb565b60405162461bcd60e51b815260206004820152602160248201527f61726269747261746f722063616e6e6f7420637265617465206c697374696e676044820152607360f81b6064820152608490fd5b60405162461bcd60e51b815260206004820152602960248201527f696e737572616e63652076657269666965722063616e6e6f7420637265617465604482015268206c697374696e677360b81b6064820152608490fd5b346101b55760203660031901126101b557600435611e68600160075414612662565b6002600755611e76816122f8565b50611e818154612345565b50546001600160a01b039190611e9a908316331461269b565b600581019182549160ff83169060088210156103e557611edc94611ec16001809414612629565b600560088301955f8754975560ff19161790550154166128cf565b7f6dda7094ca195e26efe2cf69536896d308e1876357ff952db64326381dc394135f80a26001600755005b346101b55760203660031901126101b5576001600160a01b03611f286124f2565b165f526006602052602060405f2054604051908152f35b346101b55760203660031901126101b557600435611f5c816122f8565b50611f678154612345565b506001820154336001600160a01b039182161491821561201f575b505015611fee57600501805460ff81169060088210156103e557611fb482600260079414908115611fe3575b50612629565b60ff191617905533907f5510d5e6aae1240aa1a06dbdba1a2738d59705856a2b2dd100fad8db8c93ed4b5f80a3005b600391501486611fae565b60405162461bcd60e51b81526020600482015260096024820152686e6f7420706172747960b81b6044820152606490fd5b909150541633148380611f82565b346101b55761203b366124d2565b90612045816122f8565b5060ff60056120548354612345565b50549201546001600160a01b03909216911660088110156103e557600461207b9114612587565b330361210d5760ff610507921690600182101580612102575b61209d906125c3565b805f5260096020526120b960ff60405f205460081c16156125f5565b604051916120c6836123b6565b8252600160208084019182525f92835260099052604090912091518254915161ffff1990921660ff919091161790151560081b61ff0016179055565b506005821115612094565b60405162461bcd60e51b815260206004820152600e60248201526d37b7363c9031b0b91037bbb732b960911b6044820152606490fd5b346101b5575f3660031901126101b557602061ffff60025460a01c16604051908152f35b346101b55760203660031901126101b5576004356005548110156101b55761218e906122f8565b5080546001820154916001600160401b0390816002820154169060038101549160048201549060058301549160ff8316946121cb600686016123f2565b9260086121da600788016123f2565b960154976040519a6101809a8c5260018060a01b03811660208d015260a01c1660408b015260608a0152608089015260a088015260088410156103e557869560ff6122509361225f9660c08a0152818160081c16151560e08a015260101c16151561010088015280610120880152860190612494565b90848203610140860152612494565b906101608301520390f35b346101b5575f3660031901126101b557335f52600360205260ff60405f2054166122cc57335f52600360205260405f20600160ff19825416179055337f54db7a5cb4735e1aac1f53db512d3390390bb6637bd30ad4bf9fc98667d9b9b95f80a2005b62461bcd60e51b8152602060048201526007602482015266616c726561647960c81b6044820152606490fd5b6005548110156123315760099060055f52027f036b6384b5eca791c62761152d0c79bb0604c104a5fb6f4eb0703f3154bb3db001905f90565b634e487b7160e01b5f52603260045260245ffd5b6004548110156123315760099060045f52027f8a35acfbc15ff81a39ae7d344fd709f28e8600b4aa8c65c6b64bfe7fe36bd19b01905f90565b90600182811c921680156123ac575b602083101461239857565b634e487b7160e01b5f52602260045260245ffd5b91607f169161238d565b604081019081106001600160401b03821117610c0157604052565b90601f801991011681019081106001600160401b03821117610c0157604052565b9060405191825f82546124048161237e565b908184526020946001916001811690815f146124725750600114612434575b505050612432925003836123d1565b565b5f90815285812095935091905b81831061245a57505061243293508201015f8080612423565b85548884018501529485019487945091830191612441565b9250505061243294925060ff191682840152151560051b8201015f8080612423565b91908251928382525f5b8481106124be575050825f602080949584010152601f8019910116010190565b60208183018101518483018201520161249e565b60409060031901126101b5576004359060243560ff811681036101b55790565b600435906001600160a01b03821682036101b557565b9181601f840112156101b5578235916001600160401b0383116101b557602083818601950101116101b557565b60409060031901126101b5576004359060243580151581036101b55790565b9060406003198301126101b55760043591602435906001600160401b0382116101b55761258391600401612508565b9091565b1561258e57565b60405162461bcd60e51b815260206004820152600d60248201526c1b9bdd0818dbdb5c1b195d1959609a1b6044820152606490fd5b156125ca57565b606460405162461bcd60e51b8152602060048201526004602482015263312e2e3560e01b6044820152fd5b156125fc57565b60405162461bcd60e51b81526020600482015260056024820152641c985d195960da1b6044820152606490fd5b1561263057565b60405162461bcd60e51b815260206004820152600a6024820152696261642073746174757360b01b6044820152606490fd5b1561266957565b60405162461bcd60e51b815260206004820152600a6024820152697265656e7472616e637960b01b6044820152606490fd5b156126a257565b60405162461bcd60e51b815260206004820152600d60248201526c3737ba1031b0b91037bbb732b960991b6044820152606490fd5b156126de57565b60405162461bcd60e51b815260206004820152600e60248201526d1c9959da5cdd195c88199a5c9cdd60921b6044820152606490fd5b1561271b57565b60405162461bcd60e51b815260206004820152600960248201526862616420707269636560b81b6044820152606490fd5b1561275357565b60405162461bcd60e51b815260206004820152600c60248201526b34b73b30b634b2103cb2b0b960a11b6044820152606490fd5b6001600160401b038111610c0157601f01601f191660200190565b9291926127ae82612787565b916127bc60405193846123d1565b8294818452818301116101b5578281602093845f960137010152565b601f82116127e557505050565b5f5260205f20906020601f840160051c8301931061281d575b601f0160051c01905b818110612812575050565b5f8155600101612807565b90915081906127fe565b91908203918211611bbb57565b91908201809211611bbb57565b81810292918115918404141715611bbb57565b1561285b57565b60405162461bcd60e51b81526020600482015260126024820152713737ba1031b7b73a3930b1ba1037bbb732b960711b6044820152606490fd5b1561289c57565b60405162461bcd60e51b815260206004820152600b60248201526a37b7363c903932b73a32b960a91b6044820152606490fd5b5f918291829182916001600160a01b03165af13d15612948573d6128f281612787565b9061290060405192836123d1565b81525f60203d92013e5b1561291157565b60405162461bcd60e51b815260206004820152600f60248201526e1d1c985b9cd9995c8819985a5b1959608a1b6044820152606490fd5b61290a565b60058054949293925f5b86811061296957505050505050505f90565b612972816122f8565b5084815403612a2557828214612a255760ff8482015416906008821015806103e557600292838114918215612a18575b8215612a07575b5050156129fd576001600160401b039081600193818584015460a01c1692015416828a161091826129f1575b50506129e657506001905b01612957565b965050505050505090565b88161190505f806129d5565b50506001906129e0565b9091506103e5576007145f806129a9565b506003811491505f6129a2565b506001906129e056fea2646970667358221220c0d49a90959074ae055eb4fd30c222758b2fa978e361dc5f973e4c90ce43544364736f6c63430008180033",
  "immutableReferences": {},
  "source": "// SPDX-License-Identifier: MIT\npragma solidity ^0.8.0;\n\ncontract CarRental {\n    /* =========================== Roles & Config =========================== */\n\n    address public contractOwner;         // contract owner (platform admin)\n    address public insuranceVerifier;     // role\n    address public arbitrator;            // role\n    uint16  public platformFeeBps;        // optional marketplace fee on rental (not deposit), e.g., 200 = 2%\n\n    modifier onlyOwner() { require(msg.sender == contractOwner, \"not contract owner\"); _; }\n    modifier onlyInsurance() { require(msg.sender == insuranceVerifier, \"not insurance\"); _; }\n    modifier onlyArbitrator() { require(msg.sender == arbitrator, \"not arbitrator\"); _; }\n\n    constructor(address _insuranceVerifier, address _arbitrator, uint16 _feeBps) {\n        contractOwner = msg.sender;\n        insuranceVerifier = _insuranceVerifier;\n        arbitrator = _arbitrator;\n        platformFeeBps = _feeBps; // can be 0\n    }\n\n    function setRoles(address _insuranceVerifier, address _arbitrator) external onlyOwner {\n        insuranceVerifier = _insuranceVerifier;\n        arbitrator = _arbitrator;\n    }\n\n    function setPlatformFee(uint16 _feeBps) external onlyOwner {\n        require(_feeBps <= 1000, \"fee too high\");\n        platformFeeBps = _feeBps;\n    }\n\n    /* ================================ Users =============================== */\n\n    struct User {\n        bool registered;\n    }\n    mapping(address => User) public users;\n\n    event UserRegistered(address indexed user);\n\n    function register() external {\n        require(!users[msg.sender].registered, \"already\");\n        users[msg.sender].registered = true;\n        emit UserRegistered(msg.sender);\n    }\n\n    /* =============================== Listings ============================= */\n\n    struct Listing {\n        address payable carOwner;         // car owner (listing creator)\n        uint256 dailyPrice;        // in wei per day\n        uint256 securityDeposit;   // in wei\n        bool    active;            // car owner can pause/unpause\n        bool    insuranceValid;    // set by InsuranceVerifier\n        string  insuranceDocURI;   // optional\n        string  make;              // car make/brand\n        string  model;             // car model\n        uint256 year;              // car year\n        string  location;          // car location\n    }\n    Listing[] public listings;\n\n    event ListingCreated(uint256 indexed listingId, address indexed carOwner);\n    event ListingEdited(uint256 indexed listingId);\n    event ListingActive(uint256 indexed listingId, bool active);\n    event InsuranceVerified(uint256 indexed listingId, bool valid);\n\n    function createListing(\n        uint256 dailyPrice,\n        uint256 securityDeposit,\n        string calldata insuranceDocURI,\n        string calldata make,\n        string calldata model,\n        uint256 year,\n        string calldata location\n    ) external returns (uint256 id) {\n        require(users[msg.sender].registered, \"register first\");\n        require(msg.sender != insuranceVerifier, \"insurance verifier cannot create listings\");\n        require(msg.sender != arbitrator, \"arbitrator cannot create listings\");\n        require(dailyPrice > 0, \"bad price\");\n        require(year > 1900 && year <= 2100, \"invalid year\");\n        listings.push(Listing({\n            carOwner: payable(msg.sender),\n            dailyPrice: dailyPrice,\n            securityDeposit: securityDeposit,\n            active: true,\n            insuranceValid: false,\n            insuranceDocURI: insuranceDocURI,\n            make: make,\n            model: model,\n            year: year,\n            location: location\n        }));\n        id = listings.length - 1;\n        emit ListingCreated(id, msg.sender);\n    }\n\n    function editListing(\n        uint256 listingId,\n        uint256 dailyPrice,\n        uint256 securityDeposit,\n        string calldata insuranceDocURI,\n        string calldata make,\n        string calldata model,\n        uint256 year,\n        string calldata location\n    ) external {\n        Listing storage L = listings[listingId];\n        require(msg.sender == L.carOwner, \"not car owner\");\n        require(dailyPrice > 0, \"bad price\");\n        require(year > 1900 && year <= 2100, \"invalid year\");\n        L.dailyPrice = dailyPrice;\n        L.securityDeposit = securityDeposit;\n        L.insuranceDocURI = insuranceDocURI;\n        L.make = make;\n        L.model = model;\n        L.year = year;\n        L.location = location;\n        emit ListingEdited(listingId);\n    }\n\n    function setListingActive(uint256 listingId, bool active_) external {\n        Listing storage L = listings[listingId];\n        require(msg.sender == L.carOwner, \"not car owner\");\n        L.active = active_;\n        emit ListingActive(listingId, active_);\n    }\n\n    function verifyInsurance(uint256 listingId, bool valid) external onlyInsurance {\n        listings[listingId].insuranceValid = valid;\n        emit InsuranceVerified(listingId, valid);\n    }\n\n    /* =============================== Bookings ============================= */\n\n    enum BookingStatus {\n        None,\n        Requested,     // renter escrowed funds; waiting for car owner approve/reject\n        Approved,      // pickup pending\n        Active,        // pickup confirmed by renter\n        Completed,     // funds split; ratings enabled\n        Rejected,      // rejected by car owner; refunded\n        Cancelled,     // cancelled before activation; refunded\n        Disputed       // arbitrator must resolve\n    }\n\n    struct Booking {\n        // immutable-ish\n        uint256 listingId;\n        address payable renter;\n        uint64  startDate;   // unix seconds\n        uint64  endDate;     // unix seconds\n        uint256 rentalCost;  // computed and locked at request time\n        uint256 deposit;     // copied from listing at request time\n\n        // status\n        BookingStatus status;\n        bool renterPickup;  // set when renter confirms pickup\n        bool ownerReturn;   // set when owner confirms return\n\n        // evidence URIs (optional)\n        string pickupProofURI_renter;\n        string returnProofURI_owner;\n\n        // accounting\n        uint256 escrow; // rentalCost + deposit, held until completion or dispute\n    }\n\n    Booking[] public bookings;\n\n    event BookingRequested(uint256 indexed bookingId, uint256 indexed listingId, address indexed renter, uint256 escrow);\n    event BookingApproved(uint256 indexed bookingId);\n    event BookingRejected(uint256 indexed bookingId);\n    event PickupConfirmed(uint256 indexed bookingId, address indexed by);\n    event ReturnConfirmed(uint256 indexed bookingId, address indexed by);\n    event BookingCompleted(uint256 indexed bookingId, uint256 ownerCredit, uint256 renterCredit, uint256 fee);\n    event BookingDisputed(uint256 indexed bookingId, address indexed by);\n    event BookingCancelled(uint256 indexed bookingId);\n\n    // Pull-payment balances\n    mapping(address => uint256) public balances;\n\n    // simple, gas-cheap reentrancy guard\n    uint256 private locked = 1;\n    modifier nonReentrant() {\n        require(locked == 1, \"reentrancy\");\n        locked = 2;\n        _;\n        locked = 1;\n    }\n\n    function daysBetween(uint64 a, uint64 b) internal pure returns (uint256) {\n        require(b > a, \"end>start\");\n        return (uint256(b) - uint256(a)) / 1 days;\n    }\n\n    /**\n     * Check if two date ranges overlap\n     * Returns true if the ranges overlap, false otherwise\n     */\n    function datesOverlap(\n        uint64 start1,\n        uint64 end1,\n        uint64 start2,\n        uint64 end2\n    ) internal pure returns (bool) {\n        return start1 < end2 && end1 > start2;\n    }\n\n    /**\n     * Check if a booking overlaps with any active bookings for the same listing\n     * Active bookings are: Approved, Active, or Disputed\n     */\n    function hasOverlappingBooking(\n        uint256 listingId,\n        uint64 startDate,\n        uint64 endDate,\n        uint256 excludeBookingId\n    ) internal view returns (bool) {\n        for (uint256 i = 0; i < bookings.length; i++) {\n            Booking storage existing = bookings[i];\n            \n            // Skip if not for the same listing\n            if (existing.listingId != listingId) continue;\n            \n            // Skip the booking we're checking (for updates)\n            if (i == excludeBookingId) continue;\n            \n            // Only check active bookings: Approved, Active, or Disputed\n            BookingStatus status = existing.status;\n            bool isActive = status == BookingStatus.Approved ||\n                           status == BookingStatus.Active ||\n                           status == BookingStatus.Disputed;\n            \n            if (!isActive) continue;\n            \n            // Check for date overlap\n            if (datesOverlap(startDate, endDate, existing.startDate, existing.endDate)) {\n                return true;\n            }\n        }\n        return false;\n    }\n\n    function requestBooking(\n        uint256 listingId,\n        uint64 startDate,\n        uint64 endDate\n    ) external payable returns (uint256 id) {\n        require(users[msg.sender].registered, \"register first\");\n        require(msg.sender != insuranceVerifier, \"insurance verifier cannot book cars\");\n        require(msg.sender != arbitrator, \"arbitrator cannot book cars\");\n        Listing storage L = listings[listingId];\n        require(msg.sender != L.carOwner, \"cannot book own listing\");\n        require(L.active, \"listing inactive\");\n        require(L.insuranceValid, \"insurance not valid\");\n        require(startDate >= block.timestamp, \"start date must be in the future\");\n        uint256 numDays = daysBetween(startDate, endDate);\n        require(numDays > 0, \"min 1 day\");\n\n        uint256 rentalCost = L.dailyPrice * numDays;\n        uint256 total = rentalCost + L.securityDeposit;\n        require(msg.value == total, \"incorrect escrow\");\n\n        bookings.push();\n        id = bookings.length - 1;\n        Booking storage B = bookings[id];\n        B.listingId = listingId;\n        B.renter = payable(msg.sender);\n        B.startDate = startDate;\n        B.endDate = endDate;\n        B.rentalCost = rentalCost;\n        B.deposit = L.securityDeposit;\n        B.status = BookingStatus.Requested;\n        B.escrow = total;\n\n        emit BookingRequested(id, listingId, msg.sender, total);\n    }\n\n    function approveBooking(uint256 bookingId) external {\n        Booking storage B = bookings[bookingId];\n        Listing storage L = listings[B.listingId];\n        require(msg.sender == L.carOwner, \"not car owner\");\n        require(B.status == BookingStatus.Requested, \"bad status\");\n        \n        // Check for overlapping dates with existing active bookings\n        require(\n            !hasOverlappingBooking(B.listingId, B.startDate, B.endDate, bookingId),\n            \"dates overlap with existing booking\"\n        );\n        \n        B.status = BookingStatus.Approved;\n        emit BookingApproved(bookingId);\n    }\n\n    function rejectBooking(uint256 bookingId) external nonReentrant {\n        Booking storage B = bookings[bookingId];\n        Listing storage L = listings[B.listingId];\n        require(msg.sender == L.carOwner, \"not car owner\");\n        require(B.status == BookingStatus.Requested, \"bad status\");\n        uint256 refund = B.escrow;\n        B.escrow = 0;\n        B.status = BookingStatus.Rejected;\n        _safeTransfer(B.renter, refund);\n        emit BookingRejected(bookingId);\n    }\n\n    function cancelBeforeActive(uint256 bookingId) external nonReentrant {\n        Booking storage B = bookings[bookingId];\n        require(B.status == BookingStatus.Requested || B.status == BookingStatus.Approved, \"cannot cancel\");\n        require(msg.sender == B.renter, \"only renter\");\n        uint256 refund = B.escrow;\n        B.escrow = 0;\n        B.status = BookingStatus.Cancelled;\n        _safeTransfer(B.renter, refund);\n        emit BookingCancelled(bookingId);\n    }\n\n    function confirmPickup(uint256 bookingId, string calldata proofURI) external {\n        Booking storage B = bookings[bookingId];\n        require(B.status == BookingStatus.Approved, \"not approved\");\n        require(msg.sender == B.renter, \"only renter can confirm pickup\");\n        B.renterPickup = true;\n        B.pickupProofURI_renter = proofURI;\n        B.status = BookingStatus.Active;\n        emit PickupConfirmed(bookingId, msg.sender);\n    }\n\n    function confirmReturn(uint256 bookingId, string calldata proofURI) external nonReentrant {\n        Booking storage B = bookings[bookingId];\n        Listing storage L = listings[B.listingId];\n        require(B.status == BookingStatus.Active, \"not active\");\n        require(msg.sender == L.carOwner, \"only owner can confirm return\");\n        B.ownerReturn = true;\n        B.returnProofURI_owner = proofURI;\n        _completeWithoutDispute(bookingId);\n        emit ReturnConfirmed(bookingId, msg.sender);\n    }\n\n    function openDispute(uint256 bookingId) external {\n        Booking storage B = bookings[bookingId];\n        Listing storage L = listings[B.listingId];\n        require(\n            msg.sender == B.renter || msg.sender == L.carOwner,\n            \"not party\"\n        );\n        require(\n            B.status == BookingStatus.Approved ||\n            B.status == BookingStatus.Active,\n            \"bad status\"\n        );\n        B.status = BookingStatus.Disputed;\n        emit BookingDisputed(bookingId, msg.sender);\n    }\n\n    function resolveDispute(uint256 bookingId, uint256 ownerPayout, uint256 renterPayout)\n        external\n        nonReentrant\n        onlyArbitrator\n    {\n        Booking storage B = bookings[bookingId];\n        Listing storage L = listings[B.listingId];\n        require(B.status == BookingStatus.Disputed, \"not disputed\");\n        require(ownerPayout + renterPayout == B.escrow, \"must split escrow\");\n\n        uint256 fee = (ownerPayout * platformFeeBps) / 10_000;\n        uint256 ownerNet = ownerPayout - fee;\n\n        balances[L.carOwner] += ownerNet;\n        balances[B.renter] += renterPayout;\n        balances[contractOwner] += fee;\n\n        B.escrow = 0;\n        B.status = BookingStatus.Completed;\n\n        emit BookingCompleted(bookingId, ownerNet, renterPayout, fee);\n    }\n\n    function _completeWithoutDispute(uint256 bookingId) internal {\n        Booking storage B = bookings[bookingId];\n        Listing storage L = listings[B.listingId];\n        require(B.status == BookingStatus.Active, \"bad status\");\n\n        uint256 fee = (B.rentalCost * platformFeeBps) / 10_000;\n        uint256 ownerNet = B.rentalCost - fee;\n        uint256 renterBack = B.deposit;\n\n        require(B.escrow == B.rentalCost + B.deposit, \"escrow mismatch\");\n        balances[L.carOwner] += ownerNet;\n        balances[B.renter]   += renterBack;\n        balances[contractOwner]      += fee;\n\n        B.escrow = 0;\n        B.status = BookingStatus.Completed;\n\n        emit BookingCompleted(bookingId, ownerNet, renterBack, fee);\n    }\n\n    /* ================================ Ratings ============================= */\n\n    struct Rating { uint8 value; bool set; }\n    // bookingId => ratings\n    mapping(uint256 => Rating) public rateOwnerScore;\n    mapping(uint256 => Rating) public rateRenterScore;\n\n    function rateOwner(uint256 bookingId, uint8 score) external {\n        Booking storage B = bookings[bookingId];\n        require(B.status == BookingStatus.Completed, \"not completed\");\n        require(msg.sender == B.renter, \"only renter\");\n        require(score >= 1 && score <= 5, \"1..5\");\n        require(!rateOwnerScore[bookingId].set, \"rated\");\n        rateOwnerScore[bookingId] = Rating(score, true);\n    }\n\n    function rateRenter(uint256 bookingId, uint8 score) external {\n        Booking storage B = bookings[bookingId];\n        address carOwner = listings[B.listingId].carOwner;\n        require(B.status == BookingStatus.Completed, \"not completed\");\n        require(msg.sender == carOwner, \"only car owner\");\n        require(score >= 1 && score <= 5, \"1..5\");\n        require(!rateRenterScore[bookingId].set, \"rated\");\n        rateRenterScore[bookingId] = Rating(score, true);\n    }\n\n    /* ================================ Funds =============================== */\n\n    function withdraw() external nonReentrant {\n        uint256 amount = balances[msg.sender];\n        require(amount > 0, \"nothing to withdraw\");\n        balances[msg.sender] = 0;\n        _safeTransfer(payable(msg.sender), amount);\n    }\n\n    function _safeTransfer(address payable to, uint256 amount) internal {\n        (bool ok, ) = to.call{value: amount}(\"\");\n        require(ok, \"transfer failed\");\n    }\n}\n",
  "sourcePath": "/workspaces/DecentralizdCarRentalApp/blockchain/contracts/CarRental.sol",
  "compiler": {
    "name": "solc",
    "version": "0.8.24+commit.e11b9ed9.Emscripten.clang"
  },
  "schemaVersion": "3.4.16",
  "updatedAt": "2025-11-24T02:27:53.238Z",
  "networkType": "ethereum",
  "devdoc": {
    "kind": "dev",
    "methods": {},
    "version": 1
  },
  "userdoc": {
    "kind": "user",
    "methods": {},
    "version": 1
  }
}