{
  "contractName": "CarRental",
  "abi": [
    {
      "inputs": [],
      "stateMutability": "nonpayable",
      "type": "constructor"
    },
    {
      "anonymous": false,
      "inputs": [
        {
          "indexed": true,
          "internalType": "uint256",
          "name": "bookingId",
          "type": "uint256"
        },
        {
          "indexed": true,
          "internalType": "address",
          "name": "owner",
          "type": "address"
        }
      ],
      "name": "BookingApproved",
      "type": "event"
    },
    {
      "anonymous": false,
      "inputs": [
        {
          "indexed": true,
          "internalType": "uint256",
          "name": "bookingId",
          "type": "uint256"
        }
      ],
      "name": "BookingCancelled",
      "type": "event"
    },
    {
      "anonymous": false,
      "inputs": [
        {
          "indexed": true,
          "internalType": "uint256",
          "name": "bookingId",
          "type": "uint256"
        },
        {
          "indexed": true,
          "internalType": "uint256",
          "name": "carId",
          "type": "uint256"
        },
        {
          "indexed": true,
          "internalType": "address",
          "name": "renter",
          "type": "address"
        }
      ],
      "name": "BookingCreated",
      "type": "event"
    },
    {
      "anonymous": false,
      "inputs": [
        {
          "indexed": true,
          "internalType": "uint256",
          "name": "carId",
          "type": "uint256"
        },
        {
          "indexed": true,
          "internalType": "address",
          "name": "owner",
          "type": "address"
        }
      ],
      "name": "CarEdited",
      "type": "event"
    },
    {
      "anonymous": false,
      "inputs": [
        {
          "indexed": true,
          "internalType": "uint256",
          "name": "carId",
          "type": "uint256"
        },
        {
          "indexed": true,
          "internalType": "address",
          "name": "owner",
          "type": "address"
        },
        {
          "indexed": false,
          "internalType": "string",
          "name": "make",
          "type": "string"
        },
        {
          "indexed": false,
          "internalType": "string",
          "name": "model",
          "type": "string"
        }
      ],
      "name": "CarListed",
      "type": "event"
    },
    {
      "anonymous": false,
      "inputs": [
        {
          "indexed": true,
          "internalType": "uint256",
          "name": "carId",
          "type": "uint256"
        },
        {
          "indexed": true,
          "internalType": "address",
          "name": "owner",
          "type": "address"
        }
      ],
      "name": "CarRemoved",
      "type": "event"
    },
    {
      "anonymous": false,
      "inputs": [
        {
          "indexed": true,
          "internalType": "uint256",
          "name": "disputeId",
          "type": "uint256"
        },
        {
          "indexed": true,
          "internalType": "uint256",
          "name": "bookingId",
          "type": "uint256"
        },
        {
          "indexed": true,
          "internalType": "address",
          "name": "initiator",
          "type": "address"
        }
      ],
      "name": "DisputeOpened",
      "type": "event"
    },
    {
      "anonymous": false,
      "inputs": [
        {
          "indexed": true,
          "internalType": "uint256",
          "name": "disputeId",
          "type": "uint256"
        },
        {
          "indexed": true,
          "internalType": "address",
          "name": "arbitrator",
          "type": "address"
        }
      ],
      "name": "DisputeResolved",
      "type": "event"
    },
    {
      "anonymous": false,
      "inputs": [
        {
          "indexed": true,
          "internalType": "address",
          "name": "owner",
          "type": "address"
        },
        {
          "indexed": false,
          "internalType": "uint256",
          "name": "amount",
          "type": "uint256"
        }
      ],
      "name": "EarningsWithdrawn",
      "type": "event"
    },
    {
      "anonymous": false,
      "inputs": [
        {
          "indexed": true,
          "internalType": "address",
          "name": "renter",
          "type": "address"
        },
        {
          "indexed": true,
          "internalType": "address",
          "name": "verifier",
          "type": "address"
        }
      ],
      "name": "InsuranceRevoked",
      "type": "event"
    },
    {
      "anonymous": false,
      "inputs": [
        {
          "indexed": true,
          "internalType": "address",
          "name": "renter",
          "type": "address"
        },
        {
          "indexed": true,
          "internalType": "address",
          "name": "verifier",
          "type": "address"
        }
      ],
      "name": "InsuranceVerified",
      "type": "event"
    },
    {
      "anonymous": false,
      "inputs": [
        {
          "indexed": true,
          "internalType": "address",
          "name": "owner",
          "type": "address"
        },
        {
          "indexed": false,
          "internalType": "string",
          "name": "username",
          "type": "string"
        }
      ],
      "name": "OwnerRegistered",
      "type": "event"
    },
    {
      "anonymous": false,
      "inputs": [
        {
          "indexed": true,
          "internalType": "uint256",
          "name": "bookingId",
          "type": "uint256"
        },
        {
          "indexed": true,
          "internalType": "address",
          "name": "confirmer",
          "type": "address"
        }
      ],
      "name": "PickupConfirmed",
      "type": "event"
    },
    {
      "anonymous": false,
      "inputs": [
        {
          "indexed": true,
          "internalType": "uint256",
          "name": "bookingId",
          "type": "uint256"
        },
        {
          "indexed": true,
          "internalType": "address",
          "name": "rater",
          "type": "address"
        },
        {
          "indexed": true,
          "internalType": "address",
          "name": "ratee",
          "type": "address"
        },
        {
          "indexed": false,
          "internalType": "uint8",
          "name": "rating",
          "type": "uint8"
        }
      ],
      "name": "RatingSubmitted",
      "type": "event"
    },
    {
      "anonymous": false,
      "inputs": [
        {
          "indexed": true,
          "internalType": "address",
          "name": "renter",
          "type": "address"
        },
        {
          "indexed": false,
          "internalType": "string",
          "name": "username",
          "type": "string"
        }
      ],
      "name": "RenterRegistered",
      "type": "event"
    },
    {
      "anonymous": false,
      "inputs": [
        {
          "indexed": true,
          "internalType": "uint256",
          "name": "bookingId",
          "type": "uint256"
        },
        {
          "indexed": true,
          "internalType": "address",
          "name": "confirmer",
          "type": "address"
        }
      ],
      "name": "ReturnConfirmed",
      "type": "event"
    },
    {
      "inputs": [],
      "name": "bookingCounter",
      "outputs": [
        {
          "internalType": "uint256",
          "name": "",
          "type": "uint256"
        }
      ],
      "stateMutability": "view",
      "type": "function",
      "constant": true
    },
    {
      "inputs": [
        {
          "internalType": "uint256",
          "name": "",
          "type": "uint256"
        }
      ],
      "name": "bookings",
      "outputs": [
        {
          "internalType": "uint256",
          "name": "bookingId",
          "type": "uint256"
        },
        {
          "internalType": "uint256",
          "name": "carId",
          "type": "uint256"
        },
        {
          "internalType": "address",
          "name": "renter",
          "type": "address"
        },
        {
          "internalType": "address",
          "name": "owner",
          "type": "address"
        },
        {
          "internalType": "uint256",
          "name": "startDate",
          "type": "uint256"
        },
        {
          "internalType": "uint256",
          "name": "endDate",
          "type": "uint256"
        },
        {
          "internalType": "uint256",
          "name": "totalCost",
          "type": "uint256"
        },
        {
          "internalType": "enum CarRental.BookingStatus",
          "name": "status",
          "type": "uint8"
        },
        {
          "internalType": "bool",
          "name": "pickupConfirmed",
          "type": "bool"
        },
        {
          "internalType": "bool",
          "name": "returnConfirmed",
          "type": "bool"
        },
        {
          "internalType": "bool",
          "name": "ownerApproved",
          "type": "bool"
        },
        {
          "internalType": "bool",
          "name": "hasDispute",
          "type": "bool"
        },
        {
          "internalType": "uint256",
          "name": "disputeId",
          "type": "uint256"
        }
      ],
      "stateMutability": "view",
      "type": "function",
      "constant": true
    },
    {
      "inputs": [],
      "name": "carCounter",
      "outputs": [
        {
          "internalType": "uint256",
          "name": "",
          "type": "uint256"
        }
      ],
      "stateMutability": "view",
      "type": "function",
      "constant": true
    },
    {
      "inputs": [
        {
          "internalType": "uint256",
          "name": "",
          "type": "uint256"
        }
      ],
      "name": "cars",
      "outputs": [
        {
          "internalType": "uint256",
          "name": "carId",
          "type": "uint256"
        },
        {
          "internalType": "address",
          "name": "owner",
          "type": "address"
        },
        {
          "internalType": "string",
          "name": "make",
          "type": "string"
        },
        {
          "internalType": "string",
          "name": "model",
          "type": "string"
        },
        {
          "internalType": "uint256",
          "name": "year",
          "type": "uint256"
        },
        {
          "internalType": "string",
          "name": "location",
          "type": "string"
        },
        {
          "internalType": "uint256",
          "name": "dailyRate",
          "type": "uint256"
        },
        {
          "internalType": "bool",
          "name": "isAvailable",
          "type": "bool"
        },
        {
          "internalType": "bool",
          "name": "isListed",
          "type": "bool"
        },
        {
          "internalType": "uint256",
          "name": "totalBookings",
          "type": "uint256"
        }
      ],
      "stateMutability": "view",
      "type": "function",
      "constant": true
    },
    {
      "inputs": [],
      "name": "contractOwner",
      "outputs": [
        {
          "internalType": "address",
          "name": "",
          "type": "address"
        }
      ],
      "stateMutability": "view",
      "type": "function",
      "constant": true
    },
    {
      "inputs": [
        {
          "internalType": "address",
          "name": "",
          "type": "address"
        }
      ],
      "name": "disputeArbitrators",
      "outputs": [
        {
          "internalType": "bool",
          "name": "",
          "type": "bool"
        }
      ],
      "stateMutability": "view",
      "type": "function",
      "constant": true
    },
    {
      "inputs": [],
      "name": "disputeCounter",
      "outputs": [
        {
          "internalType": "uint256",
          "name": "",
          "type": "uint256"
        }
      ],
      "stateMutability": "view",
      "type": "function",
      "constant": true
    },
    {
      "inputs": [
        {
          "internalType": "uint256",
          "name": "",
          "type": "uint256"
        }
      ],
      "name": "disputes",
      "outputs": [
        {
          "internalType": "uint256",
          "name": "disputeId",
          "type": "uint256"
        },
        {
          "internalType": "uint256",
          "name": "bookingId",
          "type": "uint256"
        },
        {
          "internalType": "address",
          "name": "initiator",
          "type": "address"
        },
        {
          "internalType": "string",
          "name": "reason",
          "type": "string"
        },
        {
          "internalType": "enum CarRental.DisputeStatus",
          "name": "status",
          "type": "uint8"
        },
        {
          "internalType": "address",
          "name": "arbitrator",
          "type": "address"
        }
      ],
      "stateMutability": "view",
      "type": "function",
      "constant": true
    },
    {
      "inputs": [
        {
          "internalType": "address",
          "name": "",
          "type": "address"
        }
      ],
      "name": "insuranceRecords",
      "outputs": [
        {
          "internalType": "address",
          "name": "renter",
          "type": "address"
        },
        {
          "internalType": "bool",
          "name": "isVerified",
          "type": "bool"
        },
        {
          "internalType": "bool",
          "name": "isRevoked",
          "type": "bool"
        },
        {
          "internalType": "uint256",
          "name": "verifiedAt",
          "type": "uint256"
        },
        {
          "internalType": "address",
          "name": "verifier",
          "type": "address"
        }
      ],
      "stateMutability": "view",
      "type": "function",
      "constant": true
    },
    {
      "inputs": [
        {
          "internalType": "address",
          "name": "",
          "type": "address"
        }
      ],
      "name": "insuranceVerifiers",
      "outputs": [
        {
          "internalType": "bool",
          "name": "",
          "type": "bool"
        }
      ],
      "stateMutability": "view",
      "type": "function",
      "constant": true
    },
    {
      "inputs": [
        {
          "internalType": "string",
          "name": "",
          "type": "string"
        }
      ],
      "name": "ownerUsernames",
      "outputs": [
        {
          "internalType": "bool",
          "name": "",
          "type": "bool"
        }
      ],
      "stateMutability": "view",
      "type": "function",
      "constant": true
    },
    {
      "inputs": [
        {
          "internalType": "address",
          "name": "",
          "type": "address"
        }
      ],
      "name": "owners",
      "outputs": [
        {
          "internalType": "address",
          "name": "ownerAddress",
          "type": "address"
        },
        {
          "internalType": "string",
          "name": "username",
          "type": "string"
        },
        {
          "internalType": "bytes32",
          "name": "loginHash",
          "type": "bytes32"
        },
        {
          "internalType": "bool",
          "name": "isRegistered",
          "type": "bool"
        },
        {
          "internalType": "uint256",
          "name": "totalEarnings",
          "type": "uint256"
        },
        {
          "internalType": "uint256",
          "name": "withdrawableEarnings",
          "type": "uint256"
        },
        {
          "internalType": "uint256",
          "name": "totalListings",
          "type": "uint256"
        }
      ],
      "stateMutability": "view",
      "type": "function",
      "constant": true
    },
    {
      "inputs": [
        {
          "internalType": "string",
          "name": "",
          "type": "string"
        }
      ],
      "name": "renterUsernames",
      "outputs": [
        {
          "internalType": "bool",
          "name": "",
          "type": "bool"
        }
      ],
      "stateMutability": "view",
      "type": "function",
      "constant": true
    },
    {
      "inputs": [
        {
          "internalType": "address",
          "name": "",
          "type": "address"
        }
      ],
      "name": "renters",
      "outputs": [
        {
          "internalType": "address",
          "name": "renterAddress",
          "type": "address"
        },
        {
          "internalType": "string",
          "name": "username",
          "type": "string"
        },
        {
          "internalType": "bytes32",
          "name": "loginHash",
          "type": "bytes32"
        },
        {
          "internalType": "bool",
          "name": "isRegistered",
          "type": "bool"
        },
        {
          "internalType": "uint256",
          "name": "totalBookings",
          "type": "uint256"
        }
      ],
      "stateMutability": "view",
      "type": "function",
      "constant": true
    },
    {
      "inputs": [
        {
          "internalType": "string",
          "name": "_username",
          "type": "string"
        },
        {
          "internalType": "bytes32",
          "name": "_passwordHash",
          "type": "bytes32"
        }
      ],
      "name": "registerOwner",
      "outputs": [],
      "stateMutability": "nonpayable",
      "type": "function"
    },
    {
      "inputs": [
        {
          "internalType": "string",
          "name": "_username",
          "type": "string"
        },
        {
          "internalType": "bytes32",
          "name": "_passwordHash",
          "type": "bytes32"
        }
      ],
      "name": "registerRenter",
      "outputs": [],
      "stateMutability": "nonpayable",
      "type": "function"
    },
    {
      "inputs": [
        {
          "internalType": "bytes32",
          "name": "_passwordHash",
          "type": "bytes32"
        }
      ],
      "name": "loginOwner",
      "outputs": [
        {
          "internalType": "bool",
          "name": "",
          "type": "bool"
        }
      ],
      "stateMutability": "view",
      "type": "function",
      "constant": true
    },
    {
      "inputs": [
        {
          "internalType": "bytes32",
          "name": "_passwordHash",
          "type": "bytes32"
        }
      ],
      "name": "loginRenter",
      "outputs": [
        {
          "internalType": "bool",
          "name": "",
          "type": "bool"
        }
      ],
      "stateMutability": "view",
      "type": "function",
      "constant": true
    },
    {
      "inputs": [
        {
          "internalType": "string",
          "name": "_make",
          "type": "string"
        },
        {
          "internalType": "string",
          "name": "_model",
          "type": "string"
        },
        {
          "internalType": "uint256",
          "name": "_year",
          "type": "uint256"
        },
        {
          "internalType": "string",
          "name": "_location",
          "type": "string"
        },
        {
          "internalType": "uint256",
          "name": "_dailyRate",
          "type": "uint256"
        }
      ],
      "name": "listCar",
      "outputs": [],
      "stateMutability": "nonpayable",
      "type": "function"
    },
    {
      "inputs": [
        {
          "internalType": "uint256",
          "name": "_carId",
          "type": "uint256"
        },
        {
          "internalType": "string",
          "name": "_make",
          "type": "string"
        },
        {
          "internalType": "string",
          "name": "_model",
          "type": "string"
        },
        {
          "internalType": "uint256",
          "name": "_year",
          "type": "uint256"
        },
        {
          "internalType": "string",
          "name": "_location",
          "type": "string"
        },
        {
          "internalType": "uint256",
          "name": "_dailyRate",
          "type": "uint256"
        }
      ],
      "name": "editListing",
      "outputs": [],
      "stateMutability": "nonpayable",
      "type": "function"
    },
    {
      "inputs": [
        {
          "internalType": "uint256",
          "name": "_carId",
          "type": "uint256"
        }
      ],
      "name": "removeCar",
      "outputs": [],
      "stateMutability": "nonpayable",
      "type": "function"
    },
    {
      "inputs": [
        {
          "internalType": "uint256",
          "name": "_carId",
          "type": "uint256"
        },
        {
          "internalType": "uint256",
          "name": "_startDate",
          "type": "uint256"
        },
        {
          "internalType": "uint256",
          "name": "_endDate",
          "type": "uint256"
        }
      ],
      "name": "bookCar",
      "outputs": [],
      "stateMutability": "payable",
      "type": "function",
      "payable": true
    },
    {
      "inputs": [
        {
          "internalType": "uint256",
          "name": "_bookingId",
          "type": "uint256"
        }
      ],
      "name": "cancelBooking",
      "outputs": [],
      "stateMutability": "nonpayable",
      "type": "function"
    },
    {
      "inputs": [
        {
          "internalType": "uint256",
          "name": "_bookingId",
          "type": "uint256"
        }
      ],
      "name": "approveBooking",
      "outputs": [],
      "stateMutability": "nonpayable",
      "type": "function"
    },
    {
      "inputs": [
        {
          "internalType": "uint256",
          "name": "_bookingId",
          "type": "uint256"
        }
      ],
      "name": "confirmPickup",
      "outputs": [],
      "stateMutability": "nonpayable",
      "type": "function"
    },
    {
      "inputs": [
        {
          "internalType": "uint256",
          "name": "_bookingId",
          "type": "uint256"
        }
      ],
      "name": "confirmReturn",
      "outputs": [],
      "stateMutability": "nonpayable",
      "type": "function"
    },
    {
      "inputs": [
        {
          "internalType": "uint256",
          "name": "_bookingId",
          "type": "uint256"
        },
        {
          "internalType": "string",
          "name": "_reason",
          "type": "string"
        }
      ],
      "name": "openDispute",
      "outputs": [],
      "stateMutability": "nonpayable",
      "type": "function"
    },
    {
      "inputs": [
        {
          "internalType": "uint256",
          "name": "_disputeId",
          "type": "uint256"
        },
        {
          "internalType": "address",
          "name": "_winner",
          "type": "address"
        }
      ],
      "name": "resolveDispute",
      "outputs": [],
      "stateMutability": "nonpayable",
      "type": "function"
    },
    {
      "inputs": [
        {
          "internalType": "uint256",
          "name": "_bookingId",
          "type": "uint256"
        }
      ],
      "name": "settleBooking",
      "outputs": [],
      "stateMutability": "nonpayable",
      "type": "function"
    },
    {
      "inputs": [],
      "name": "withdrawEarnings",
      "outputs": [],
      "stateMutability": "nonpayable",
      "type": "function"
    },
    {
      "inputs": [
        {
          "internalType": "address",
          "name": "_renter",
          "type": "address"
        }
      ],
      "name": "verifyInsurance",
      "outputs": [],
      "stateMutability": "nonpayable",
      "type": "function"
    },
    {
      "inputs": [
        {
          "internalType": "address",
          "name": "_renter",
          "type": "address"
        }
      ],
      "name": "revokeInsurance",
      "outputs": [],
      "stateMutability": "nonpayable",
      "type": "function"
    },
    {
      "inputs": [
        {
          "internalType": "uint256",
          "name": "_bookingId",
          "type": "uint256"
        },
        {
          "internalType": "uint8",
          "name": "_rating",
          "type": "uint8"
        }
      ],
      "name": "rateRenter",
      "outputs": [],
      "stateMutability": "nonpayable",
      "type": "function"
    },
    {
      "inputs": [
        {
          "internalType": "uint256",
          "name": "_bookingId",
          "type": "uint256"
        },
        {
          "internalType": "uint8",
          "name": "_rating",
          "type": "uint8"
        }
      ],
      "name": "rateOwner",
      "outputs": [],
      "stateMutability": "nonpayable",
      "type": "function"
    },
    {
      "inputs": [
        {
          "internalType": "address",
          "name": "_verifier",
          "type": "address"
        }
      ],
      "name": "addInsuranceVerifier",
      "outputs": [],
      "stateMutability": "nonpayable",
      "type": "function"
    },
    {
      "inputs": [
        {
          "internalType": "address",
          "name": "_verifier",
          "type": "address"
        }
      ],
      "name": "removeInsuranceVerifier",
      "outputs": [],
      "stateMutability": "nonpayable",
      "type": "function"
    },
    {
      "inputs": [
        {
          "internalType": "address",
          "name": "_arbitrator",
          "type": "address"
        }
      ],
      "name": "addDisputeArbitrator",
      "outputs": [],
      "stateMutability": "nonpayable",
      "type": "function"
    },
    {
      "inputs": [
        {
          "internalType": "address",
          "name": "_arbitrator",
          "type": "address"
        }
      ],
      "name": "removeDisputeArbitrator",
      "outputs": [],
      "stateMutability": "nonpayable",
      "type": "function"
    },
    {
      "inputs": [
        {
          "internalType": "address",
          "name": "_owner",
          "type": "address"
        }
      ],
      "name": "getOwner",
      "outputs": [
        {
          "internalType": "address",
          "name": "ownerAddress",
          "type": "address"
        },
        {
          "internalType": "string",
          "name": "username",
          "type": "string"
        },
        {
          "internalType": "bool",
          "name": "isRegistered",
          "type": "bool"
        },
        {
          "internalType": "uint256",
          "name": "totalEarnings",
          "type": "uint256"
        },
        {
          "internalType": "uint256",
          "name": "withdrawableEarnings",
          "type": "uint256"
        },
        {
          "internalType": "uint256",
          "name": "totalListings",
          "type": "uint256"
        }
      ],
      "stateMutability": "view",
      "type": "function",
      "constant": true
    },
    {
      "inputs": [
        {
          "internalType": "address",
          "name": "_renter",
          "type": "address"
        }
      ],
      "name": "getRenter",
      "outputs": [
        {
          "internalType": "address",
          "name": "renterAddress",
          "type": "address"
        },
        {
          "internalType": "string",
          "name": "username",
          "type": "string"
        },
        {
          "internalType": "bool",
          "name": "isRegistered",
          "type": "bool"
        },
        {
          "internalType": "uint256",
          "name": "totalBookings",
          "type": "uint256"
        }
      ],
      "stateMutability": "view",
      "type": "function",
      "constant": true
    },
    {
      "inputs": [
        {
          "internalType": "uint256",
          "name": "_carId",
          "type": "uint256"
        }
      ],
      "name": "getCarBasic",
      "outputs": [
        {
          "internalType": "uint256",
          "name": "carId",
          "type": "uint256"
        },
        {
          "internalType": "address",
          "name": "owner",
          "type": "address"
        },
        {
          "internalType": "string",
          "name": "make",
          "type": "string"
        },
        {
          "internalType": "string",
          "name": "model",
          "type": "string"
        },
        {
          "internalType": "uint256",
          "name": "year",
          "type": "uint256"
        }
      ],
      "stateMutability": "view",
      "type": "function",
      "constant": true
    },
    {
      "inputs": [
        {
          "internalType": "uint256",
          "name": "_carId",
          "type": "uint256"
        }
      ],
      "name": "getCarRental",
      "outputs": [
        {
          "internalType": "string",
          "name": "location",
          "type": "string"
        },
        {
          "internalType": "uint256",
          "name": "dailyRate",
          "type": "uint256"
        },
        {
          "internalType": "bool",
          "name": "isAvailable",
          "type": "bool"
        },
        {
          "internalType": "bool",
          "name": "isListed",
          "type": "bool"
        }
      ],
      "stateMutability": "view",
      "type": "function",
      "constant": true
    },
    {
      "inputs": [
        {
          "internalType": "uint256",
          "name": "_bookingId",
          "type": "uint256"
        }
      ],
      "name": "getBookingBasic",
      "outputs": [
        {
          "internalType": "uint256",
          "name": "bookingId",
          "type": "uint256"
        },
        {
          "internalType": "uint256",
          "name": "carId",
          "type": "uint256"
        },
        {
          "internalType": "address",
          "name": "renter",
          "type": "address"
        },
        {
          "internalType": "address",
          "name": "owner",
          "type": "address"
        }
      ],
      "stateMutability": "view",
      "type": "function",
      "constant": true
    },
    {
      "inputs": [
        {
          "internalType": "uint256",
          "name": "_bookingId",
          "type": "uint256"
        }
      ],
      "name": "getBookingDates",
      "outputs": [
        {
          "internalType": "uint256",
          "name": "startDate",
          "type": "uint256"
        },
        {
          "internalType": "uint256",
          "name": "endDate",
          "type": "uint256"
        },
        {
          "internalType": "uint256",
          "name": "totalCost",
          "type": "uint256"
        }
      ],
      "stateMutability": "view",
      "type": "function",
      "constant": true
    },
    {
      "inputs": [
        {
          "internalType": "uint256",
          "name": "_bookingId",
          "type": "uint256"
        }
      ],
      "name": "getBookingStatus",
      "outputs": [
        {
          "internalType": "enum CarRental.BookingStatus",
          "name": "status",
          "type": "uint8"
        },
        {
          "internalType": "bool",
          "name": "pickupConfirmed",
          "type": "bool"
        },
        {
          "internalType": "bool",
          "name": "returnConfirmed",
          "type": "bool"
        },
        {
          "internalType": "bool",
          "name": "ownerApproved",
          "type": "bool"
        },
        {
          "internalType": "bool",
          "name": "hasDispute",
          "type": "bool"
        }
      ],
      "stateMutability": "view",
      "type": "function",
      "constant": true
    }
  ],
  "bytecode": "0x608060405234801561001057600080fd5b50600d80546001600160a01b03191633179055613f81806100326000396000f3fe6080604052600436106102725760003560e01c8063820980471161014f578063ba6cb126116100c1578063d33bcb551161007a578063d33bcb55146107e4578063e8d01f7814610804578063ec95e01214610835578063f7746e3614610866578063f9746eb81461089c578063fa544161146108bc57610272565b8063ba6cb1261461071d578063bb3383181461074d578063bf1271031461076d578063ca5861091461078d578063ce606ee0146107ad578063d287ac42146107cf57610272565b8063a003da4911610113578063a003da4914610658578063a24e0ea214610688578063a3f2a9e7146106a8578063a9621af6146106c8578063b52e4c86146106e8578063b73c6ce91461070857610272565b806382098047146105b857806383175d0f146105d85780638b88aac4146105f85780638fdf6e9f146106185780639fead93d1461063857610272565b80633c15b31c116101e8578063667cb554116101ac578063667cb554146104f15780636a38ddb3146105205780636a4b27f4146105405780637463f890146105705780637d36f4d3146105905780637f836a25146105a557610272565b80633c15b31c1461041b5780634175cd2f1461044c5780634ef5fee61461046c578063564a565d1461048e578063644a1370146104c057610272565b806322473ff31161023a57806322473ff31461035b578063267070ad1461037b578063282ec7051461039b5780632e5df6e3146103bb57806336a9b684146103db57806336f691c4146103fb57610272565b8063022914a7146102775780630dca825e146102b35780630e33599d146102d55780631d53b119146102f55780631dab301e14610322575b600080fd5b34801561028357600080fd5b50610297610292366004612fca565b6108ee565b6040516102aa97969594939291906133ed565b60405180910390f35b3480156102bf57600080fd5b506102d36102ce366004612feb565b6109c0565b005b3480156102e157600080fd5b506102d36102f0366004613117565b610af1565b34801561030157600080fd5b50610315610310366004613003565b610ce9565b6040516102aa919061343b565b34801561032e57600080fd5b5061034261033d366004612feb565b610d09565b6040516102aa9d9c9b9a99989796959493929190613cf1565b34801561036757600080fd5b50610315610376366004613003565b610d8c565b34801561038757600080fd5b506102d3610396366004613252565b610dac565b3480156103a757600080fd5b506102d36103b6366004612fca565b610ee4565b3480156103c757600080fd5b506102d36103d6366004612feb565b61108d565b3480156103e757600080fd5b506103156103f6366004612feb565b6111bf565b34801561040757600080fd5b506102d3610416366004613142565b61120d565b34801561042757600080fd5b5061043b610436366004612feb565b61149a565b6040516102aa959493929190613446565b34801561045857600080fd5b506102d3610467366004612fca565b6114da565b34801561047857600080fd5b5061048161159c565b6040516102aa9190613bed565b34801561049a57600080fd5b506104ae6104a9366004612feb565b6115a2565b6040516102aa96959493929190613d80565b3480156104cc57600080fd5b506104e06104db366004612fca565b611679565b6040516102aa9594939291906133ac565b3480156104fd57600080fd5b5061051161050c366004612feb565b611741565b6040516102aa93929190613dda565b34801561052c57600080fd5b506102d361053b366004612feb565b611768565b34801561054c57600080fd5b5061056061055b366004612fca565b6118a4565b6040516102aa949392919061332c565b34801561057c57600080fd5b5061031561058b366004612feb565b611977565b34801561059c57600080fd5b506104816119c1565b6102d36105b3366004613227565b6119c7565b3480156105c457600080fd5b506102d36105d3366004612fca565b611c05565b3480156105e457600080fd5b506102d36105f336600461303e565b611c50565b34801561060457600080fd5b506102d3610613366004612feb565b611df7565b34801561062457600080fd5b506102d3610633366004612fca565b611f40565b34801561064457600080fd5b506102d3610653366004613081565b611f8e565b34801561066457600080fd5b50610678610673366004612feb565b612101565b6040516102aa94939291906134ba565b34801561069457600080fd5b506102d36106a3366004613252565b6121c9565b3480156106b457600080fd5b506102d36106c336600461303e565b6122f4565b3480156106d457600080fd5b506102d36106e3366004612feb565b6124b1565b3480156106f457600080fd5b50610315610703366004612fca565b6125a9565b34801561071457600080fd5b506102d36125be565b34801561072957600080fd5b5061073d610738366004612feb565b6126a3565b6040516102aa9493929190613cca565b34801561075957600080fd5b50610315610768366004612fca565b6126d7565b34801561077957600080fd5b506102d3610788366004612fca565b6126ec565b34801561079957600080fd5b506102d36107a8366004613187565b61273a565b3480156107b957600080fd5b506107c26128b9565b6040516102aa91906132e8565b3480156107db57600080fd5b506104816128c8565b3480156107f057600080fd5b506102d36107ff366004612feb565b6128ce565b34801561081057600080fd5b5061082461081f366004612fca565b6129d4565b6040516102aa9594939291906132fc565b34801561084157600080fd5b50610855610850366004612feb565b612a16565b6040516102aa959493929190613bf6565b34801561087257600080fd5b50610886610881366004612feb565b612b6f565b6040516102aa9a99989796959493929190613c45565b3480156108a857600080fd5b506102d36108b7366004612fca565b612d68565b3480156108c857600080fd5b506108dc6108d7366004612fca565b612db3565b6040516102aa96959493929190613363565b600060208190529081526040902080546001820180546001600160a01b03909216929161091a90613eb3565b80601f016020809104026020016040519081016040528092919081815260200182805461094690613eb3565b80156109935780601f1061096857610100808354040283529160200191610993565b820191906000526020600020905b81548152906001019060200180831161097657829003601f168201915b50505060028401546003850154600486015460058701546006909701549596929560ff9092169450925087565b600081815260056020526040902060028101546001600160a01b03163314610a035760405162461bcd60e51b81526004016109fa90613720565b60405180910390fd5b6000600782015460ff166005811115610a2c57634e487b7160e01b600052602160045260246000fd5b14610a495760405162461bcd60e51b81526004016109fa906136e9565b6007810180546001919060ff191682800217905550600181810154600090815260046020526040808220600701805460ff19169093179092556002830154600684015492516001600160a01b039091169280156108fc0292909190818181858888f19350505050158015610ac1573d6000803e3d6000fd5b5060405182907ff774c001cb52a3566b767ed6e37c92706acb2b80a3ff6049e2849cd62725d08590600090a25050565b3360009081526009602052604090205460ff16610b205760405162461bcd60e51b81526004016109fa906137d3565b600082815260066020526040812090600482015460ff166002811115610b5657634e487b7160e01b600052602160045260246000fd5b14610b735760405162461bcd60e51b81526004016109fa906138d3565b600181015460009081526005602052604090206007810154640100000000900460ff16610bb25760405162461bcd60e51b81526004016109fa906135f0565b60048281018054600160ff1991821617610100600160a81b031916336101000217909155600783018054909116909117905560038101546001600160a01b0384811691161415610c7457600681015460038201546001600160a01b031660009081526020819052604081206005018054909190610c30908490613dfe565b9091555050600681015460038201546001600160a01b031660009081526020819052604081206004018054909190610c69908490613dfe565b90915550610cb69050565b600281015460068201546040516001600160a01b039092169181156108fc0291906000818181858888f19350505050158015610cb4573d6000803e3d6000fd5b505b604051339085907ff77ceb5e091d2da041bc760667f9d5fe7a756949eaf29250ad0e60ca6f4c27d990600090a350505050565b805160208183018101805160038252928201919093012091525460ff1681565b6005602081905260009182526040909120805460018201546002830154600384015460048501549585015460068601546007870154600890970154959794966001600160a01b03948516969490931694939192909160ff80831692610100810482169262010000820483169263010000008304811692640100000000900416908d565b805160208183018101805160028252928201919093012091525460ff1681565b3360009081526020819052604090206003015460ff16610dde5760405162461bcd60e51b81526004016109fa90613559565b600082815260056020526040902060038101546001600160a01b03163314610e185760405162461bcd60e51b81526004016109fa906139a8565b6004600782015460ff166005811115610e4157634e487b7160e01b600052602160045260246000fd5b14610e5e5760405162461bcd60e51b81526004016109fa90613748565b60018260ff1610158015610e76575060058260ff1611155b610e925760405162461bcd60e51b81526004016109fa9061389c565b60028101546040516001600160a01b0390911690339085907f1c77a158686639c60e48e2f63ec680c6dfd55fdebf1a1d34b6ad59eee1f2861090610ed7908790613df0565b60405180910390a4505050565b3360009081526008602052604090205460ff16610f135760405162461bcd60e51b81526004016109fa90613b00565b6001600160a01b03811660009081526001602052604090206003015460ff16610f4e5760405162461bcd60e51b81526004016109fa90613b37565b6001600160a01b038116600090815260076020526040902054600160a01b900460ff161580610f9c57506001600160a01b038116600090815260076020526040902054600160a81b900460ff165b610fb85760405162461bcd60e51b81526004016109fa90613522565b6040805160a0810182526001600160a01b0380841680835260016020808501828152600086880181815242606089019081523360808a0181815288855260079096528a842099518a54955193511515600160a81b0260ff60a81b19941515600160a01b0260ff60a01b19928c166001600160a01b03199889161792909216919091179390931692909217895551948801949094559151600290960180549690951695169490941790925592519092917f32be68da2c0c6d68e92d0c0b668395c88fc0612143c27c37951d98090808322f91a350565b600081815260056020526040902060028101546001600160a01b03163314806110c2575060038101546001600160a01b031633145b6110de5760405162461bcd60e51b81526004016109fa90613bc5565b6002600782015460ff16600581111561110757634e487b7160e01b600052602160045260246000fd5b146111245760405162461bcd60e51b81526004016109fa90613687565b80600501544210156111485760405162461bcd60e51b81526004016109fa906138fd565b60078101805462ff0000191662010000178082556003919060ff191660018302179055506001818101546000908152600460205260409020600701805460ff19169091179055604051339083907f8e823f38cc816af62efd341a51dee8f420e5fd62f6c8483c16186967968b866190600090a35050565b3360009081526001602052604081206003015460ff166111f15760405162461bcd60e51b81526004016109fa90613b37565b503360009081526001602052604090206002015481145b919050565b600082815260056020526040902060028101546001600160a01b0316331480611242575060038101546001600160a01b031633145b61125e5760405162461bcd60e51b81526004016109fa90613bc5565b6003600782015460ff16600581111561128757634e487b7160e01b600052602160045260246000fd5b14806112b957506002600782015460ff1660058111156112b757634e487b7160e01b600052602160045260246000fd5b145b6112d55760405162461bcd60e51b81526004016109fa90613838565b6007810154640100000000900460ff16156113025760405162461bcd60e51b81526004016109fa906135c0565b600c805490600061131283613eee565b91905055506040518060c00160405280600c548152602001848152602001336001600160a01b031681526020018381526020016000600281111561136657634e487b7160e01b600052602160045260246000fd5b815260006020918201819052600c5481526006825260409081902083518155838301516001820155908301516002820180546001600160a01b0319166001600160a01b039092169190911790556060830151805191926113ce92600385019290910190612e99565b50608082015160048201805460ff1916600183600281111561140057634e487b7160e01b600052602160045260246000fd5b021790555060a09190910151600490910180546001600160a01b0390921661010002610100600160a81b031990921691909117905560078101805464ff00000000191664010000000017808255600c5460088401556005919060ff19166001830217905550600c54604051339185917fc6fb55a2bd2838e444163cece1945a661c371c5ec8c1a4ea5d697aefc769054790600090a4505050565b60009081526005602052604090206007015460ff808216926101008304821692620100008104831692630100000082048116926401000000009092041690565b3360009081526008602052604090205460ff166115095760405162461bcd60e51b81526004016109fa90613b00565b6001600160a01b038116600090815260076020526040902054600160a01b900460ff166115485760405162461bcd60e51b81526004016109fa90613657565b6001600160a01b038116600081815260076020526040808220805460ff60a81b1916600160a81b179055513392917faa7e63ec2536ca3a899abb1365f5775916d8905cc25c084f1af7cb186f541a3c91a350565b600a5481565b6006602052600090815260409020805460018201546002830154600384018054939492936001600160a01b0390921692916115dc90613eb3565b80601f016020809104026020016040519081016040528092919081815260200182805461160890613eb3565b80156116555780601f1061162a57610100808354040283529160200191611655565b820191906000526020600020905b81548152906001019060200180831161163857829003601f168201915b5050506004909301549192505060ff8116906001600160a01b036101009091041686565b6001602081905260009182526040909120805491810180546001600160a01b03909316926116a690613eb3565b80601f01602080910402602001604051908101604052809291908181526020018280546116d290613eb3565b801561171f5780601f106116f45761010080835404028352916020019161171f565b820191906000526020600020905b81548152906001019060200180831161170257829003601f168201915b50505050600283015460038401546004909401549293909260ff909116915085565b60009081526005602081905260409091206004810154918101546006909101549192909190565b3360009081526020819052604090206003015460ff1661179a5760405162461bcd60e51b81526004016109fa90613559565b6000818152600460205260409020600101546001600160a01b031633146117d35760405162461bcd60e51b81526004016109fa906139a8565b600081815260046020526040902060070154610100900460ff166118095760405162461bcd60e51b81526004016109fa90613b9d565b60008181526004602052604090206007015460ff1661183a5760405162461bcd60e51b81526004016109fa90613934565b6000818152600460209081526040808320600701805461ffff1916905533835290829052812060060180549161186f83613e9c565b9091555050604051339082907fc3c0ddab9ecd9a2284c61fb1b5fd46ba0bf81a798b51cff2aaff892f10a3c9d390600090a350565b6001600160a01b038082166000908152600160208190526040822080549181018054929094169360609392839291906118dc90613eb3565b80601f016020809104026020016040519081016040528092919081815260200182805461190890613eb3565b80156119555780601f1061192a57610100808354040283529160200191611955565b820191906000526020600020905b81548152906001019060200180831161193857829003601f168201915b505050600384015460049094015497999298505060ff90921695945092505050565b3360009081526020819052604081206003015460ff166119a95760405162461bcd60e51b81526004016109fa906137a5565b50336000908152602081905260409020600201541490565b600c5481565b3360009081526001602052604090206003015460ff166119f95760405162461bcd60e51b81526004016109fa906136b2565b60008381526004602052604090206007810154610100900460ff168015611a245750600781015460ff165b611a405760405162461bcd60e51b81526004016109fa906139d3565b8183108015611a4f5750428310155b611a6b5760405162461bcd60e51b81526004016109fa90613a2a565b3360009081526007602052604090208054600160a01b900460ff168015611a9b57508054600160a81b900460ff16155b611ab75760405162461bcd60e51b81526004016109fa90613657565b600062015180611ac78686613e55565b611ad19190613e16565b8360060154611ae09190613e36565b905080341015611b025760405162461bcd60e51b81526004016109fa9061380a565b600b8054906000611b1283613eee565b9091555050600b546000818152600560208190526040822092835560018084018a90556002840180546001600160a01b03199081163317909155908701546003850180549092166001600160a01b03909116179055600483018890558201869055600682018390556007808301805460ff199081169091559086018054909116905560088501805491611ba483613eee565b9091555050336000908152600160205260408120600401805491611bc783613eee565b9091555050600b54604051339189917f63b2ee9406f5b4de2520627b528758c36b93081ec000b0579013c887b40b456290600090a450505050505050565b600d546001600160a01b03163314611c2f5760405162461bcd60e51b81526004016109fa906139fe565b6001600160a01b03166000908152600860205260409020805460ff19169055565b3360009081526001602052604090206003015460ff1615611c835760405162461bcd60e51b81526004016109fa90613865565b600382604051611c9391906132cc565b9081526040519081900360200190205460ff1615611cc35760405162461bcd60e51b81526004016109fa90613775565b6000825111611ce45760405162461bcd60e51b81526004016109fa906134eb565b6040805160a08101825233808252602080830186815283850186905260016060850181905260006080860181905293845280835294909220835181546001600160a01b0319166001600160a01b039091161781559151805193949293611d51938501929190910190612e99565b506040820151816002015560608201518160030160006101000a81548160ff021916908315150217905550608082015181600401559050506001600383604051611d9b91906132cc565b908152604051908190036020018120805492151560ff199093169290921790915533907f9196745b441709d0330f54516183b3c0114e30f6cb7a8971b00501a20c19a4ab90611deb908590613479565b60405180910390a25050565b60008181526005602052604090206003600782015460ff166005811115611e2e57634e487b7160e01b600052602160045260246000fd5b14611e4b5760405162461bcd60e51b81526004016109fa9061397a565b6007810154640100000000900460ff1615611e785760405162461bcd60e51b81526004016109fa90613a51565b60038101546001600160a01b0316331480611e9f575060028101546001600160a01b031633145b611ebb5760405162461bcd60e51b81526004016109fa90613bc5565b60078101805460ff19166004179055600681015460038201546001600160a01b031660009081526020819052604081206005018054909190611efe908490613dfe565b9091555050600681015460038201546001600160a01b031660009081526020819052604081206004018054909190611f37908490613dfe565b90915550505050565b600d546001600160a01b03163314611f6a5760405162461bcd60e51b81526004016109fa906139fe565b6001600160a01b03166000908152600960205260409020805460ff19166001179055565b3360009081526020819052604090206003015460ff16611fc05760405162461bcd60e51b81526004016109fa90613559565b60008111611fe05760405162461bcd60e51b81526004016109fa90613abf565b600a8054906000611ff083613eee565b9091555050600a5460008181526004602090815260409091208281556001810180546001600160a01b03191633179055875190916120359160028401918a0190612e99565b50855161204b9060038301906020890190612e99565b506004810185905583516120689060058301906020870190612e99565b50600680820184905560078201805461ff001960ff19909116600117166101001790556000600883018190553381526020819052604081209091018054916120af83613eee565b9190505550336001600160a01b0316827f4be45ef5bd3606c02e624fc434f7ec7a6ad6dddda2606fa16194305208aa5d8b89896040516120f092919061348c565b60405180910390a350505050505050565b6000818152600460205260408120600581018054606093928392839261212690613eb3565b80601f016020809104026020016040519081016040528092919081815260200182805461215290613eb3565b801561219f5780601f106121745761010080835404028352916020019161219f565b820191906000526020600020905b81548152906001019060200180831161218257829003601f168201915b50505050600683015460079093015491989297505060ff8082169650610100909104169350915050565b3360009081526001602052604090206003015460ff166121fb5760405162461bcd60e51b81526004016109fa906136b2565b600082815260056020526040902060028101546001600160a01b031633146122355760405162461bcd60e51b81526004016109fa90613720565b6004600782015460ff16600581111561225e57634e487b7160e01b600052602160045260246000fd5b1461227b5760405162461bcd60e51b81526004016109fa90613748565b60018260ff1610158015612293575060058260ff1611155b6122af5760405162461bcd60e51b81526004016109fa9061389c565b60038101546040516001600160a01b0390911690339085907f1c77a158686639c60e48e2f63ec680c6dfd55fdebf1a1d34b6ad59eee1f2861090610ed7908790613df0565b3360009081526020819052604090206003015460ff16156123275760405162461bcd60e51b81526004016109fa90613589565b60028260405161233791906132cc565b9081526040519081900360200190205460ff16156123675760405162461bcd60e51b81526004016109fa90613775565b60008251116123885760405162461bcd60e51b81526004016109fa906134eb565b6040805160e08101825233808252602080830186815283850186905260016060850181905260006080860181905260a0860181905260c0860181905293845283835294909220835181546001600160a01b0319166001600160a01b039091161781559151805193949293612403938501929190910190612e99565b506040820151816002015560608201518160030160006101000a81548160ff0219169083151502179055506080820151816004015560a0820151816005015560c08201518160060155905050600160028360405161246191906132cc565b908152604051908190036020018120805492151560ff199093169290921790915533907f5f66e430b448d83d46a65ab17a365f04c0c8f1a66ac20bcc38dfde7f2d67514190611deb908590613479565b3360009081526020819052604090206003015460ff166124e35760405162461bcd60e51b81526004016109fa90613559565b600081815260056020526040902060038101546001600160a01b0316331461251d5760405162461bcd60e51b81526004016109fa906139a8565b6000600782015460ff16600581111561254657634e487b7160e01b600052602160045260246000fd5b146125635760405162461bcd60e51b81526004016109fa90613620565b60078101805463ff00000019166301000000179055604051339083907f3af9c898bf33ad521e1e15f7dc1cd466a08a3a2d238472e9a4abff2c20553abb90600090a35050565b60096020526000908152604090205460ff1681565b3360009081526020819052604090206003015460ff166125f05760405162461bcd60e51b81526004016109fa90613559565b33600090815260208190526040902060050154806126205760405162461bcd60e51b81526004016109fa90613a88565b336000818152602081905260408082206005018290555183156108fc0291849190818181858888f1935050505015801561265e573d6000803e3d6000fd5b50336001600160a01b03167f48dc35af7b45e2a81fffad55f6e2fafacdb1d3d0d50d24ebdc16324f5ba757f1826040516126989190613bed565b60405180910390a250565b6000908152600560205260409020805460018201546002830154600390930154919390926001600160a01b03908116921690565b60086020526000908152604090205460ff1681565b600d546001600160a01b031633146127165760405162461bcd60e51b81526004016109fa906139fe565b6001600160a01b03166000908152600860205260409020805460ff19166001179055565b3360009081526020819052604090206003015460ff1661276c5760405162461bcd60e51b81526004016109fa90613559565b6000868152600460205260409020600101546001600160a01b031633146127a55760405162461bcd60e51b81526004016109fa906139a8565b600086815260046020526040902060070154610100900460ff166127db5760405162461bcd60e51b81526004016109fa90613b9d565b600081116127fb5760405162461bcd60e51b81526004016109fa90613abf565b6000868152600460209081526040909120865161282092600290920191880190612e99565b506000868152600460209081526040909120855161284692600390920191870190612e99565b506000868152600460208181526040909220908101859055835161287292600590920191850190612e99565b5060008681526004602052604080822060060183905551339188917ff6de82cc309e90935e7cbf8f44636fb7f7597e27ce10ac4e720706ae2ebed0599190a3505050505050565b600d546001600160a01b031681565b600b5481565b600081815260056020526040902060028101546001600160a01b0316331480612903575060038101546001600160a01b031633145b61291f5760405162461bcd60e51b81526004016109fa90613bc5565b6000600782015460ff16600581111561294857634e487b7160e01b600052602160045260246000fd5b146129655760405162461bcd60e51b81526004016109fa90613620565b80600401544210156129895760405162461bcd60e51b81526004016109fa90613b66565b600781018054600261ff00199091166101001760ff1916179055604051339083907f7f44dc96dfe82556f254203e555fa87ce76986f76eb50fc73d105558207ebb5890600090a35050565b6007602052600090815260409020805460018201546002909201546001600160a01b038083169360ff600160a01b8504811694600160a81b9004169290911685565b60008181526004602052604081208054600182015460028301805492946001600160a01b039092169360609384939290612a4f90613eb3565b80601f0160208091040260200160405190810160405280929190818152602001828054612a7b90613eb3565b8015612ac85780601f10612a9d57610100808354040283529160200191612ac8565b820191906000526020600020905b815481529060010190602001808311612aab57829003601f168201915b50505050509350806003018054612ade90613eb3565b80601f0160208091040260200160405190810160405280929190818152602001828054612b0a90613eb3565b8015612b575780601f10612b2c57610100808354040283529160200191612b57565b820191906000526020600020905b815481529060010190602001808311612b3a57829003601f168201915b50505050509250806004015491505091939590929450565b60046020526000908152604090208054600182015460028301805492936001600160a01b0390921692612ba190613eb3565b80601f0160208091040260200160405190810160405280929190818152602001828054612bcd90613eb3565b8015612c1a5780601f10612bef57610100808354040283529160200191612c1a565b820191906000526020600020905b815481529060010190602001808311612bfd57829003601f168201915b505050505090806003018054612c2f90613eb3565b80601f0160208091040260200160405190810160405280929190818152602001828054612c5b90613eb3565b8015612ca85780601f10612c7d57610100808354040283529160200191612ca8565b820191906000526020600020905b815481529060010190602001808311612c8b57829003601f168201915b505050505090806004015490806005018054612cc390613eb3565b80601f0160208091040260200160405190810160405280929190818152602001828054612cef90613eb3565b8015612d3c5780601f10612d1157610100808354040283529160200191612d3c565b820191906000526020600020905b815481529060010190602001808311612d1f57829003601f168201915b505050600684015460078501546008909501549394909360ff808316945061010090920490911691508a565b600d546001600160a01b03163314612d925760405162461bcd60e51b81526004016109fa906139fe565b6001600160a01b03166000908152600960205260409020805460ff19169055565b6001600160a01b038082166000908152602081905260408120805460018201805491909416936060939283928392839291612ded90613eb3565b80601f0160208091040260200160405190810160405280929190818152602001828054612e1990613eb3565b8015612e665780601f10612e3b57610100808354040283529160200191612e66565b820191906000526020600020905b815481529060010190602001808311612e4957829003601f168201915b505050506003830154600484015460058501546006909501549a9c939b5060ff9091169990985092965091945092505050565b828054612ea590613eb3565b90600052602060002090601f016020900481019282612ec75760008555612f0d565b82601f10612ee057805160ff1916838001178555612f0d565b82800160010185558215612f0d579182015b82811115612f0d578251825591602001919060010190612ef2565b50612f19929150612f1d565b5090565b5b80821115612f195760008155600101612f1e565b80356001600160a01b038116811461120857600080fd5b600082601f830112612f59578081fd5b813567ffffffffffffffff80821115612f7457612f74613f35565b604051601f8301601f191681016020018281118282101715612f9857612f98613f35565b604052828152848301602001861015612faf578384fd5b82602086016020830137918201602001929092529392505050565b600060208284031215612fdb578081fd5b612fe482612f32565b9392505050565b600060208284031215612ffc578081fd5b5035919050565b600060208284031215613014578081fd5b813567ffffffffffffffff81111561302a578182fd5b61303684828501612f49565b949350505050565b60008060408385031215613050578081fd5b823567ffffffffffffffff811115613066578182fd5b61307285828601612f49565b95602094909401359450505050565b600080600080600060a08688031215613098578081fd5b853567ffffffffffffffff808211156130af578283fd5b6130bb89838a01612f49565b965060208801359150808211156130d0578283fd5b6130dc89838a01612f49565b95506040880135945060608801359150808211156130f8578283fd5b5061310588828901612f49565b95989497509295608001359392505050565b60008060408385031215613129578182fd5b8235915061313960208401612f32565b90509250929050565b60008060408385031215613154578182fd5b82359150602083013567ffffffffffffffff811115613171578182fd5b61317d85828601612f49565b9150509250929050565b60008060008060008060c0878903121561319f578081fd5b86359550602087013567ffffffffffffffff808211156131bd578283fd5b6131c98a838b01612f49565b965060408901359150808211156131de578283fd5b6131ea8a838b01612f49565b9550606089013594506080890135915080821115613206578283fd5b5061321389828a01612f49565b92505060a087013590509295509295509295565b60008060006060848603121561323b578283fd5b505081359360208301359350604090920135919050565b60008060408385031215613264578182fd5b82359150602083013560ff8116811461327b578182fd5b809150509250929050565b15159052565b6006811061329c5761329c613f1f565b9052565b600081518084526132b8816020860160208601613e6c565b601f01601f19169290920160200192915050565b600082516132de818460208701613e6c565b9190910192915050565b6001600160a01b0391909116815260200190565b6001600160a01b039586168152931515602085015291151560408401526060830152909116608082015260a00190565b6001600160a01b0385168152608060208201819052600090613350908301866132a0565b9315156040830152506060015292915050565b6001600160a01b038716815260c060208201819052600090613387908301886132a0565b9515156040830152506060810193909352608083019190915260a09091015292915050565b6001600160a01b038616815260a0602082018190526000906133d0908301876132a0565b604083019590955250911515606083015260809091015292915050565b6001600160a01b038816815260e060208201819052600090613411908301896132a0565b6040830197909752509315156060850152608084019290925260a083015260c09091015292915050565b901515815260200190565b60a08101613454828861328c565b9415156020820152921515604084015290151560608301521515608090910152919050565b600060208252612fe460208301846132a0565b60006040825261349f60408301856132a0565b82810360208401526134b181856132a0565b95945050505050565b6000608082526134cd60808301876132a0565b60208301959095525091151560408301521515606090910152919050565b60208082526018908201527f557365726e616d652063616e6e6f7420626520656d7074790000000000000000604082015260600190565b6020808252601a908201527f496e737572616e636520616c7265616479207665726966696564000000000000604082015260600190565b6020808252601690820152752737ba1030903932b3b4b9ba32b932b21037bbb732b960511b604082015260600190565b60208082526018908201527f4f776e657220616c726561647920726567697374657265640000000000000000604082015260600190565b6020808252601690820152754469737075746520616c72656164792065786973747360501b604082015260600190565b602080825260169082015275426f6f6b696e6720686173206e6f206469737075746560501b604082015260600190565b6020808252601c908201527f426f6f6b696e67206e6f7420696e20426f6f6b65642073746174757300000000604082015260600190565b602080825260169082015275125b9cdd5c985b98d9481b9bdd081d995c9a599a595960521b604082015260600190565b6020808252601190820152700436172206e6f74207069636b656420757607c1b604082015260600190565b60208082526017908201527f4e6f74206120726567697374657265642072656e746572000000000000000000604082015260600190565b6020808252601b908201527f426f6f6b696e672063616e6e6f742062652063616e63656c6c65640000000000604082015260600190565b6020808252600e908201526d2737ba103a3432903932b73a32b960911b604082015260600190565b602080825260139082015272109bdbdada5b99c81b9bdd081cd95d1d1b1959606a1b604082015260600190565b6020808252601690820152752ab9b2b93730b6b29030b63932b0b23c903a30b5b2b760511b604082015260600190565b60208082526014908201527313dddb995c881b9bdd081c9959da5cdd195c995960621b604082015260600190565b60208082526018908201527f4e6f74206120646973707574652061726269747261746f720000000000000000604082015260600190565b602080825260149082015273125b9cdd59999a58da595b9d081c185e5b595b9d60621b604082015260600190565b60208082526013908201527243616e6e6f74206f70656e206469737075746560681b604082015260600190565b60208082526019908201527f52656e74657220616c7265616479207265676973746572656400000000000000604082015260600190565b6020808252601e908201527f526174696e67206d757374206265206265747765656e203120616e6420350000604082015260600190565b60208082526010908201526f2234b9b83aba32903737ba1037b832b760811b604082015260600190565b60208082526017908201527f52657475726e2074696d65206e6f742072656163686564000000000000000000604082015260600190565b60208082526026908201527f43616e6e6f742072656d6f76652063617220776974682061637469766520626f6040820152656f6b696e677360d01b606082015260800190565b602080825260149082015273109bdbdada5b99c81b9bdd081c995d1d5c9b995960621b604082015260600190565b6020808252601190820152702737ba103a34329031b0b91037bbb732b960791b604082015260600190565b602080825260119082015270436172206e6f7420617661696c61626c6560781b604082015260600190565b6020808252601290820152712737ba1031b7b73a3930b1ba1037bbb732b960711b604082015260600190565b6020808252600d908201526c496e76616c696420646174657360981b604082015260600190565b6020808252601a908201527f426f6f6b696e6720686173206163746976652064697370757465000000000000604082015260600190565b60208082526017908201527f4e6f206561726e696e677320746f207769746864726177000000000000000000604082015260600190565b60208082526021908201527f4461696c792072617465206d7573742062652067726561746572207468616e206040820152600360fc1b606082015260800190565b60208082526019908201527f4e6f7420616e20696e737572616e636520766572696669657200000000000000604082015260600190565b60208082526015908201527414995b9d195c881b9bdd081c9959da5cdd195c9959605a1b604082015260600190565b60208082526017908201527f5069636b75702074696d65206e6f742072656163686564000000000000000000604082015260600190565b6020808252600e908201526d10d85c881b9bdd081b1a5cdd195960921b604082015260600190565b6020808252600e908201526d139bdd08185d5d1a1bdc9a5e995960921b604082015260600190565b90815260200190565b8581526001600160a01b038516602082015260a060408201819052600090613c20908301866132a0565b8281036060840152613c3281866132a0565b9150508260808301529695505050505050565b8a81526001600160a01b038a16602082015261014060408201819052600090613c708382018c6132a0565b90508281036060840152613c84818b6132a0565b905088608084015282810360a0840152613c9e81896132a0565b60c0840197909752505092151560e0840152901515610100830152610120909101529695505050505050565b93845260208401929092526001600160a01b03908116604084015216606082015260800190565b8d8152602081018d90526001600160a01b038c811660408301528b166060820152608081018a905260a0810189905260c081018890526101a08101613d3960e083018961328c565b861515610100830152851515610120830152613d59610140830186613286565b613d67610160830185613286565b826101808301529e9d5050505050505050505050505050565b600087825286602083015260018060a01b03808716604084015260c06060840152613dae60c08401876132a0565b915060038510613dc057613dc0613f1f565b84608084015280841660a084015250979650505050505050565b9283526020830191909152604082015260600190565b60ff91909116815260200190565b60008219821115613e1157613e11613f09565b500190565b600082613e3157634e487b7160e01b81526012600452602481fd5b500490565b6000816000190483118215151615613e5057613e50613f09565b500290565b600082821015613e6757613e67613f09565b500390565b60005b83811015613e87578181015183820152602001613e6f565b83811115613e96576000848401525b50505050565b600081613eab57613eab613f09565b506000190190565b600281046001821680613ec757607f821691505b60208210811415613ee857634e487b7160e01b600052602260045260246000fd5b50919050565b6000600019821415613f0257613f02613f09565b5060010190565b634e487b7160e01b600052601160045260246000fd5b634e487b7160e01b600052602160045260246000fd5b634e487b7160e01b600052604160045260246000fdfea2646970667358221220421e6fe3c5aa3060b489c6fea2cd1fd3470e931fad0737515dce00d821f9a8e164736f6c63430008000033",
  "immutableReferences": {},
  "source": "// SPDX-License-Identifier: UNLICENSED\npragma solidity ^0.8.0;\n\ncontract CarRental {\n    // ============ STRUCTS ============\n    \n    struct Owner {\n        address ownerAddress;\n        string username;\n        bytes32 loginHash; // Hash key for login\n        bool isRegistered;\n        uint256 totalEarnings;\n        uint256 withdrawableEarnings;\n        uint256 totalListings;\n    }\n    \n    struct Renter {\n        address renterAddress;\n        string username;\n        bytes32 loginHash; // Hash key for login\n        bool isRegistered;\n        uint256 totalBookings;\n    }\n    \n    struct Car {\n        uint256 carId;\n        address owner;\n        string make;\n        string model;\n        uint256 year;\n        string location;\n        uint256 dailyRate; // in wei\n        bool isAvailable;\n        bool isListed;\n        uint256 totalBookings;\n    }\n    \n    struct Booking {\n        uint256 bookingId;\n        uint256 carId;\n        address renter;\n        address owner;\n        uint256 startDate;\n        uint256 endDate;\n        uint256 totalCost;\n        BookingStatus status;\n        bool pickupConfirmed;\n        bool returnConfirmed;\n        bool ownerApproved;\n        bool hasDispute;\n        uint256 disputeId;\n    }\n    \n    struct Dispute {\n        uint256 disputeId;\n        uint256 bookingId;\n        address initiator; // Owner or Renter who opened the dispute\n        string reason;\n        DisputeStatus status;\n        address arbitrator; // Dispute Arbitrator address\n    }\n    \n    struct Insurance {\n        address renter;\n        bool isVerified;\n        bool isRevoked;\n        uint256 verifiedAt;\n        address verifier; // Insurance Verifier address\n    }\n    \n    enum BookingStatus {\n        Booked,\n        Cancelled,\n        PickedUp,\n        Returned,\n        Settled,\n        FundsFrozen\n    }\n    \n    enum DisputeStatus {\n        Open,\n        Resolved,\n        Closed\n    }\n    \n    // ============ STATE VARIABLES ============\n    \n    mapping(address => Owner) public owners;\n    mapping(address => Renter) public renters;\n    mapping(string => bool) public ownerUsernames; // Track unique owner usernames\n    mapping(string => bool) public renterUsernames; // Track unique renter usernames\n    mapping(uint256 => Car) public cars;\n    mapping(uint256 => Booking) public bookings;\n    mapping(uint256 => Dispute) public disputes;\n    mapping(address => Insurance) public insuranceRecords;\n    \n    // Role mappings\n    mapping(address => bool) public insuranceVerifiers;\n    mapping(address => bool) public disputeArbitrators;\n    \n    uint256 public carCounter;\n    uint256 public bookingCounter;\n    uint256 public disputeCounter;\n    \n    address public contractOwner;\n    \n    // ============ EVENTS ============\n    \n    event OwnerRegistered(address indexed owner, string username);\n    event RenterRegistered(address indexed renter, string username);\n    event CarListed(uint256 indexed carId, address indexed owner, string make, string model);\n    event CarEdited(uint256 indexed carId, address indexed owner);\n    event CarRemoved(uint256 indexed carId, address indexed owner);\n    event BookingCreated(uint256 indexed bookingId, uint256 indexed carId, address indexed renter);\n    event BookingCancelled(uint256 indexed bookingId);\n    event BookingApproved(uint256 indexed bookingId, address indexed owner);\n    event PickupConfirmed(uint256 indexed bookingId, address indexed confirmer);\n    event ReturnConfirmed(uint256 indexed bookingId, address indexed confirmer);\n    event DisputeOpened(uint256 indexed disputeId, uint256 indexed bookingId, address indexed initiator);\n    event DisputeResolved(uint256 indexed disputeId, address indexed arbitrator);\n    event InsuranceVerified(address indexed renter, address indexed verifier);\n    event InsuranceRevoked(address indexed renter, address indexed verifier);\n    event EarningsWithdrawn(address indexed owner, uint256 amount);\n    event RatingSubmitted(uint256 indexed bookingId, address indexed rater, address indexed ratee, uint8 rating);\n    \n    // ============ MODIFIERS ============\n    \n    modifier onlyOwner() {\n        require(owners[msg.sender].isRegistered, \"Not a registered owner\");\n        _;\n    }\n    \n    modifier onlyRenter() {\n        require(renters[msg.sender].isRegistered, \"Not a registered renter\");\n        _;\n    }\n    \n    modifier onlyInsuranceVerifier() {\n        require(insuranceVerifiers[msg.sender], \"Not an insurance verifier\");\n        _;\n    }\n    \n    modifier onlyDisputeArbitrator() {\n        require(disputeArbitrators[msg.sender], \"Not a dispute arbitrator\");\n        _;\n    }\n    \n    modifier onlyContractOwner() {\n        require(msg.sender == contractOwner, \"Not contract owner\");\n        _;\n    }\n    \n    // ============ CONSTRUCTOR ============\n    \n    constructor() {\n        contractOwner = msg.sender;\n    }\n    \n    // ============ REGISTRATION FUNCTIONS ============\n    \n    /**\n     * @dev Register a new car owner with username and password hash\n     * @param _username Unique username for the owner\n     * @param _passwordHash Hash of the password (should be computed off-chain)\n     */\n    function registerOwner(string memory _username, bytes32 _passwordHash) public {\n        require(!owners[msg.sender].isRegistered, \"Owner already registered\");\n        require(!ownerUsernames[_username], \"Username already taken\");\n        require(bytes(_username).length > 0, \"Username cannot be empty\");\n        \n        owners[msg.sender] = Owner({\n            ownerAddress: msg.sender,\n            username: _username,\n            loginHash: _passwordHash,\n            isRegistered: true,\n            totalEarnings: 0,\n            withdrawableEarnings: 0,\n            totalListings: 0\n        });\n        \n        ownerUsernames[_username] = true;\n        \n        emit OwnerRegistered(msg.sender, _username);\n    }\n    \n    /**\n     * @dev Register a new renter with username and password hash\n     * @param _username Unique username for the renter\n     * @param _passwordHash Hash of the password (should be computed off-chain)\n     */\n    function registerRenter(string memory _username, bytes32 _passwordHash) public {\n        require(!renters[msg.sender].isRegistered, \"Renter already registered\");\n        require(!renterUsernames[_username], \"Username already taken\");\n        require(bytes(_username).length > 0, \"Username cannot be empty\");\n        \n        renters[msg.sender] = Renter({\n            renterAddress: msg.sender,\n            username: _username,\n            loginHash: _passwordHash,\n            isRegistered: true,\n            totalBookings: 0\n        });\n        \n        renterUsernames[_username] = true;\n        \n        emit RenterRegistered(msg.sender, _username);\n    }\n    \n    /**\n     * @dev Verify login for owner using password hash\n     * @param _passwordHash Hash of the password to verify\n     * @return bool True if login hash matches\n     */\n    function loginOwner(bytes32 _passwordHash) public view returns (bool) {\n        require(owners[msg.sender].isRegistered, \"Owner not registered\");\n        return owners[msg.sender].loginHash == _passwordHash;\n    }\n    \n    /**\n     * @dev Verify login for renter using password hash\n     * @param _passwordHash Hash of the password to verify\n     * @return bool True if login hash matches\n     */\n    function loginRenter(bytes32 _passwordHash) public view returns (bool) {\n        require(renters[msg.sender].isRegistered, \"Renter not registered\");\n        return renters[msg.sender].loginHash == _passwordHash;\n    }\n    \n    // ============ CAR LISTING FUNCTIONS ============\n    \n    /**\n     * @dev List a car for rent\n     * @param _make Car make/brand\n     * @param _model Car model\n     * @param _year Car year\n     * @param _location Car location\n     * @param _dailyRate Daily rental rate in wei\n     */\n    function listCar(\n        string memory _make,\n        string memory _model,\n        uint256 _year,\n        string memory _location,\n        uint256 _dailyRate\n    ) public onlyOwner {\n        require(_dailyRate > 0, \"Daily rate must be greater than 0\");\n        \n        carCounter++;\n        uint256 newCarId = carCounter;\n        Car storage newCar = cars[newCarId];\n        newCar.carId = newCarId;\n        newCar.owner = msg.sender;\n        newCar.make = _make;\n        newCar.model = _model;\n        newCar.year = _year;\n        newCar.location = _location;\n        newCar.dailyRate = _dailyRate;\n        newCar.isAvailable = true;\n        newCar.isListed = true;\n        newCar.totalBookings = 0;\n        \n        owners[msg.sender].totalListings++;\n        \n        emit CarListed(newCarId, msg.sender, _make, _model);\n    }\n    \n    /**\n     * @dev Edit a car listing\n     * @param _carId ID of the car to edit\n     * @param _make Updated car make\n     * @param _model Updated car model\n     * @param _year Updated car year\n     * @param _location Updated car location\n     * @param _dailyRate Updated daily rental rate\n     */\n    function editListing(\n        uint256 _carId,\n        string memory _make,\n        string memory _model,\n        uint256 _year,\n        string memory _location,\n        uint256 _dailyRate\n    ) public onlyOwner {\n        require(cars[_carId].owner == msg.sender, \"Not the car owner\");\n        require(cars[_carId].isListed, \"Car not listed\");\n        require(_dailyRate > 0, \"Daily rate must be greater than 0\");\n        \n        cars[_carId].make = _make;\n        cars[_carId].model = _model;\n        cars[_carId].year = _year;\n        cars[_carId].location = _location;\n        cars[_carId].dailyRate = _dailyRate;\n        \n        emit CarEdited(_carId, msg.sender);\n    }\n    \n    /**\n     * @dev Remove/unlist a car from rental\n     * @param _carId ID of the car to remove\n     */\n    function removeCar(uint256 _carId) public onlyOwner {\n        require(cars[_carId].owner == msg.sender, \"Not the car owner\");\n        require(cars[_carId].isListed, \"Car not listed\");\n        require(cars[_carId].isAvailable, \"Cannot remove car with active bookings\");\n        \n        cars[_carId].isListed = false;\n        cars[_carId].isAvailable = false;\n        \n        owners[msg.sender].totalListings--;\n        \n        emit CarRemoved(_carId, msg.sender);\n    }\n    \n    // ============ BOOKING FUNCTIONS ============\n    \n    /**\n     * @dev Book a car\n     * @param _carId ID of the car to book\n     * @param _startDate Start date timestamp\n     * @param _endDate End date timestamp\n     */\n    function bookCar(\n        uint256 _carId,\n        uint256 _startDate,\n        uint256 _endDate\n    ) public payable onlyRenter {\n        Car storage car = cars[_carId];\n        require(car.isListed && car.isAvailable, \"Car not available\");\n        require(_startDate < _endDate && _startDate >= block.timestamp, \"Invalid dates\");\n        Insurance storage insurance = insuranceRecords[msg.sender];\n        require(insurance.isVerified && !insurance.isRevoked, \"Insurance not verified\");\n        \n        uint256 totalCost = car.dailyRate * ((_endDate - _startDate) / 1 days);\n        require(msg.value >= totalCost, \"Insufficient payment\");\n        \n        bookingCounter++;\n        Booking storage newBooking = bookings[bookingCounter];\n        newBooking.bookingId = bookingCounter;\n        newBooking.carId = _carId;\n        newBooking.renter = msg.sender;\n        newBooking.owner = car.owner;\n        newBooking.startDate = _startDate;\n        newBooking.endDate = _endDate;\n        newBooking.totalCost = totalCost;\n        newBooking.status = BookingStatus.Booked;\n        \n        car.isAvailable = false;\n        car.totalBookings++;\n        renters[msg.sender].totalBookings++;\n        \n        emit BookingCreated(bookingCounter, _carId, msg.sender);\n    }\n    \n    /**\n     * @dev Cancel a booking\n     * @param _bookingId ID of the booking to cancel\n     */\n    function cancelBooking(uint256 _bookingId) public {\n        Booking storage booking = bookings[_bookingId];\n        require(booking.renter == msg.sender, \"Not the renter\");\n        require(booking.status == BookingStatus.Booked, \"Booking cannot be cancelled\");\n        \n        booking.status = BookingStatus.Cancelled;\n        cars[booking.carId].isAvailable = true;\n        \n        // Refund to renter\n        payable(booking.renter).transfer(booking.totalCost);\n        \n        emit BookingCancelled(_bookingId);\n    }\n    \n    /**\n     * @dev Approve a booking (by owner)\n     * @param _bookingId ID of the booking to approve\n     */\n    function approveBooking(uint256 _bookingId) public onlyOwner {\n        Booking storage booking = bookings[_bookingId];\n        require(booking.owner == msg.sender, \"Not the car owner\");\n        require(booking.status == BookingStatus.Booked, \"Booking not in Booked status\");\n        \n        booking.ownerApproved = true;\n        \n        emit BookingApproved(_bookingId, msg.sender);\n    }\n    \n    /**\n     * @dev Confirm pickup\n     * @param _bookingId ID of the booking\n     */\n    function confirmPickup(uint256 _bookingId) public {\n        Booking storage booking = bookings[_bookingId];\n        require(booking.renter == msg.sender || booking.owner == msg.sender, \"Not authorized\");\n        require(booking.status == BookingStatus.Booked, \"Booking not in Booked status\");\n        require(block.timestamp >= booking.startDate, \"Pickup time not reached\");\n        \n        booking.pickupConfirmed = true;\n        booking.status = BookingStatus.PickedUp;\n        \n        emit PickupConfirmed(_bookingId, msg.sender);\n    }\n    \n    /**\n     * @dev Confirm return\n     * @param _bookingId ID of the booking\n     */\n    function confirmReturn(uint256 _bookingId) public {\n        Booking storage booking = bookings[_bookingId];\n        require(booking.renter == msg.sender || booking.owner == msg.sender, \"Not authorized\");\n        require(booking.status == BookingStatus.PickedUp, \"Car not picked up\");\n        require(block.timestamp >= booking.endDate, \"Return time not reached\");\n        \n        booking.returnConfirmed = true;\n        booking.status = BookingStatus.Returned;\n        cars[booking.carId].isAvailable = true;\n        \n        // Check if overdue\n        if (block.timestamp > booking.endDate) {\n            // Can trigger dispute if needed\n        }\n        \n        emit ReturnConfirmed(_bookingId, msg.sender);\n    }\n    \n    // ============ DISPUTE FUNCTIONS ============\n    \n    /**\n     * @dev Open a dispute for a booking\n     * @param _bookingId ID of the booking\n     * @param _reason Reason for the dispute\n     */\n    function openDispute(uint256 _bookingId, string memory _reason) public {\n        Booking storage booking = bookings[_bookingId];\n        require(booking.renter == msg.sender || booking.owner == msg.sender, \"Not authorized\");\n        require(booking.status == BookingStatus.Returned || booking.status == BookingStatus.PickedUp, \"Cannot open dispute\");\n        require(!booking.hasDispute, \"Dispute already exists\");\n        \n        disputeCounter++;\n        disputes[disputeCounter] = Dispute({\n            disputeId: disputeCounter,\n            bookingId: _bookingId,\n            initiator: msg.sender,\n            reason: _reason,\n            status: DisputeStatus.Open,\n            arbitrator: address(0)\n        });\n        \n        booking.hasDispute = true;\n        booking.disputeId = disputeCounter;\n        booking.status = BookingStatus.FundsFrozen;\n        \n        emit DisputeOpened(disputeCounter, _bookingId, msg.sender);\n    }\n    \n    /**\n     * @dev Resolve a dispute (by arbitrator)\n     * @param _disputeId ID of the dispute\n     * @param _winner Address of the winner (owner or renter)\n     */\n    function resolveDispute(uint256 _disputeId, address _winner) public onlyDisputeArbitrator {\n        Dispute storage dispute = disputes[_disputeId];\n        require(dispute.status == DisputeStatus.Open, \"Dispute not open\");\n        \n        Booking storage booking = bookings[dispute.bookingId];\n        require(booking.hasDispute, \"Booking has no dispute\");\n        \n        dispute.status = DisputeStatus.Resolved;\n        dispute.arbitrator = msg.sender;\n        booking.status = BookingStatus.Settled;\n        \n        // Transfer funds to winner\n        if (_winner == booking.owner) {\n            owners[booking.owner].withdrawableEarnings += booking.totalCost;\n            owners[booking.owner].totalEarnings += booking.totalCost;\n        } else {\n            payable(booking.renter).transfer(booking.totalCost);\n        }\n        \n        emit DisputeResolved(_disputeId, msg.sender);\n    }\n    \n    // ============ SETTLEMENT FUNCTIONS ============\n    \n    /**\n     * @dev Settle a booking (when no dispute)\n     * @param _bookingId ID of the booking\n     */\n    function settleBooking(uint256 _bookingId) public {\n        Booking storage booking = bookings[_bookingId];\n        require(booking.status == BookingStatus.Returned, \"Booking not returned\");\n        require(!booking.hasDispute, \"Booking has active dispute\");\n        require(booking.owner == msg.sender || booking.renter == msg.sender, \"Not authorized\");\n        \n        booking.status = BookingStatus.Settled;\n        owners[booking.owner].withdrawableEarnings += booking.totalCost;\n        owners[booking.owner].totalEarnings += booking.totalCost;\n    }\n    \n    /**\n     * @dev Withdraw earnings (by owner)\n     */\n    function withdrawEarnings() public onlyOwner {\n        uint256 amount = owners[msg.sender].withdrawableEarnings;\n        require(amount > 0, \"No earnings to withdraw\");\n        \n        owners[msg.sender].withdrawableEarnings = 0;\n        payable(msg.sender).transfer(amount);\n        \n        emit EarningsWithdrawn(msg.sender, amount);\n    }\n    \n    // ============ INSURANCE FUNCTIONS ============\n    \n    /**\n     * @dev Verify insurance for a renter\n     * @param _renter Address of the renter\n     */\n    function verifyInsurance(address _renter) public onlyInsuranceVerifier {\n        require(renters[_renter].isRegistered, \"Renter not registered\");\n        require(!insuranceRecords[_renter].isVerified || insuranceRecords[_renter].isRevoked, \"Insurance already verified\");\n        \n        insuranceRecords[_renter] = Insurance({\n            renter: _renter,\n            isVerified: true,\n            isRevoked: false,\n            verifiedAt: block.timestamp,\n            verifier: msg.sender\n        });\n        \n        emit InsuranceVerified(_renter, msg.sender);\n    }\n    \n    /**\n     * @dev Revoke insurance for a renter\n     * @param _renter Address of the renter\n     */\n    function revokeInsurance(address _renter) public onlyInsuranceVerifier {\n        require(insuranceRecords[_renter].isVerified, \"Insurance not verified\");\n        \n        insuranceRecords[_renter].isRevoked = true;\n        \n        emit InsuranceRevoked(_renter, msg.sender);\n    }\n    \n    // ============ RATING FUNCTIONS ============\n    \n    /**\n     * @dev Rate a renter (by owner)\n     * @param _bookingId ID of the booking\n     * @param _rating Rating value (1-5)\n     */\n    function rateRenter(uint256 _bookingId, uint8 _rating) public onlyOwner {\n        Booking storage booking = bookings[_bookingId];\n        require(booking.owner == msg.sender, \"Not the car owner\");\n        require(booking.status == BookingStatus.Settled, \"Booking not settled\");\n        require(_rating >= 1 && _rating <= 5, \"Rating must be between 1 and 5\");\n        \n        emit RatingSubmitted(_bookingId, msg.sender, booking.renter, _rating);\n    }\n    \n    /**\n     * @dev Rate an owner (by renter)\n     * @param _bookingId ID of the booking\n     * @param _rating Rating value (1-5)\n     */\n    function rateOwner(uint256 _bookingId, uint8 _rating) public onlyRenter {\n        Booking storage booking = bookings[_bookingId];\n        require(booking.renter == msg.sender, \"Not the renter\");\n        require(booking.status == BookingStatus.Settled, \"Booking not settled\");\n        require(_rating >= 1 && _rating <= 5, \"Rating must be between 1 and 5\");\n        \n        emit RatingSubmitted(_bookingId, msg.sender, booking.owner, _rating);\n    }\n    \n    // ============ ADMIN FUNCTIONS ============\n    \n    /**\n     * @dev Add an insurance verifier\n     * @param _verifier Address of the verifier\n     */\n    function addInsuranceVerifier(address _verifier) public onlyContractOwner {\n        insuranceVerifiers[_verifier] = true;\n    }\n    \n    /**\n     * @dev Remove an insurance verifier\n     * @param _verifier Address of the verifier\n     */\n    function removeInsuranceVerifier(address _verifier) public onlyContractOwner {\n        insuranceVerifiers[_verifier] = false;\n    }\n    \n    /**\n     * @dev Add a dispute arbitrator\n     * @param _arbitrator Address of the arbitrator\n     */\n    function addDisputeArbitrator(address _arbitrator) public onlyContractOwner {\n        disputeArbitrators[_arbitrator] = true;\n    }\n    \n    /**\n     * @dev Remove a dispute arbitrator\n     * @param _arbitrator Address of the arbitrator\n     */\n    function removeDisputeArbitrator(address _arbitrator) public onlyContractOwner {\n        disputeArbitrators[_arbitrator] = false;\n    }\n    \n    // ============ VIEW FUNCTIONS ============\n    \n    /**\n     * @dev Get owner information\n     * @param _owner Address of the owner\n     */\n    function getOwner(address _owner) public view returns (\n        address ownerAddress,\n        string memory username,\n        bool isRegistered,\n        uint256 totalEarnings,\n        uint256 withdrawableEarnings,\n        uint256 totalListings\n    ) {\n        Owner storage o = owners[_owner];\n        ownerAddress = o.ownerAddress;\n        username = o.username;\n        isRegistered = o.isRegistered;\n        totalEarnings = o.totalEarnings;\n        withdrawableEarnings = o.withdrawableEarnings;\n        totalListings = o.totalListings;\n    }\n    \n    /**\n     * @dev Get renter information\n     * @param _renter Address of the renter\n     */\n    function getRenter(address _renter) public view returns (\n        address renterAddress,\n        string memory username,\n        bool isRegistered,\n        uint256 totalBookings\n    ) {\n        Renter storage r = renters[_renter];\n        renterAddress = r.renterAddress;\n        username = r.username;\n        isRegistered = r.isRegistered;\n        totalBookings = r.totalBookings;\n    }\n    \n    /**\n     * @dev Get car basic information\n     * @param _carId ID of the car\n     */\n    function getCarBasic(uint256 _carId) public view returns (\n        uint256 carId,\n        address owner,\n        string memory make,\n        string memory model,\n        uint256 year\n    ) {\n        Car storage c = cars[_carId];\n        carId = c.carId;\n        owner = c.owner;\n        make = c.make;\n        model = c.model;\n        year = c.year;\n    }\n    \n    /**\n     * @dev Get car rental information\n     * @param _carId ID of the car\n     */\n    function getCarRental(uint256 _carId) public view returns (\n        string memory location,\n        uint256 dailyRate,\n        bool isAvailable,\n        bool isListed\n    ) {\n        Car storage c = cars[_carId];\n        location = c.location;\n        dailyRate = c.dailyRate;\n        isAvailable = c.isAvailable;\n        isListed = c.isListed;\n    }\n    \n    /**\n     * @dev Get booking basic information\n     * @param _bookingId ID of the booking\n     */\n    function getBookingBasic(uint256 _bookingId) public view returns (\n        uint256 bookingId,\n        uint256 carId,\n        address renter,\n        address owner\n    ) {\n        Booking storage b = bookings[_bookingId];\n        bookingId = b.bookingId;\n        carId = b.carId;\n        renter = b.renter;\n        owner = b.owner;\n    }\n    \n    /**\n     * @dev Get booking dates and cost\n     * @param _bookingId ID of the booking\n     */\n    function getBookingDates(uint256 _bookingId) public view returns (\n        uint256 startDate,\n        uint256 endDate,\n        uint256 totalCost\n ) {\n        Booking storage b = bookings[_bookingId];\n        startDate = b.startDate;\n        endDate = b.endDate;\n        totalCost = b.totalCost;\n    }\n    \n    /**\n     * @dev Get booking status information\n     * @param _bookingId ID of the booking\n     */\n    function getBookingStatus(uint256 _bookingId) public view returns (\n        BookingStatus status,\n        bool pickupConfirmed,\n        bool returnConfirmed,\n        bool ownerApproved,\n        bool hasDispute\n    ) {\n        Booking storage b = bookings[_bookingId];\n        status = b.status;\n        pickupConfirmed = b.pickupConfirmed;\n        returnConfirmed = b.returnConfirmed;\n        ownerApproved = b.ownerApproved;\n        hasDispute = b.hasDispute;\n    }\n}\n\n",
  "sourcePath": "/workspaces/DecentralizdCarRentalApp/blockchain/contracts/CarRental.sol",
  "compiler": {
    "name": "solc",
    "version": "0.8.0+commit.c7dfd78e.Emscripten.clang"
  },
  "schemaVersion": "3.4.16",
  "updatedAt": "2025-11-17T05:40:18.591Z",
  "networkType": "ethereum",
  "devdoc": {
    "kind": "dev",
    "methods": {
      "addDisputeArbitrator(address)": {
        "details": "Add a dispute arbitrator",
        "params": {
          "_arbitrator": "Address of the arbitrator"
        }
      },
      "addInsuranceVerifier(address)": {
        "details": "Add an insurance verifier",
        "params": {
          "_verifier": "Address of the verifier"
        }
      },
      "approveBooking(uint256)": {
        "details": "Approve a booking (by owner)",
        "params": {
          "_bookingId": "ID of the booking to approve"
        }
      },
      "bookCar(uint256,uint256,uint256)": {
        "details": "Book a car",
        "params": {
          "_carId": "ID of the car to book",
          "_endDate": "End date timestamp",
          "_startDate": "Start date timestamp"
        }
      },
      "cancelBooking(uint256)": {
        "details": "Cancel a booking",
        "params": {
          "_bookingId": "ID of the booking to cancel"
        }
      },
      "confirmPickup(uint256)": {
        "details": "Confirm pickup",
        "params": {
          "_bookingId": "ID of the booking"
        }
      },
      "confirmReturn(uint256)": {
        "details": "Confirm return",
        "params": {
          "_bookingId": "ID of the booking"
        }
      },
      "editListing(uint256,string,string,uint256,string,uint256)": {
        "details": "Edit a car listing",
        "params": {
          "_carId": "ID of the car to edit",
          "_dailyRate": "Updated daily rental rate",
          "_location": "Updated car location",
          "_make": "Updated car make",
          "_model": "Updated car model",
          "_year": "Updated car year"
        }
      },
      "getBookingBasic(uint256)": {
        "details": "Get booking basic information",
        "params": {
          "_bookingId": "ID of the booking"
        }
      },
      "getBookingDates(uint256)": {
        "details": "Get booking dates and cost",
        "params": {
          "_bookingId": "ID of the booking"
        }
      },
      "getBookingStatus(uint256)": {
        "details": "Get booking status information",
        "params": {
          "_bookingId": "ID of the booking"
        }
      },
      "getCarBasic(uint256)": {
        "details": "Get car basic information",
        "params": {
          "_carId": "ID of the car"
        }
      },
      "getCarRental(uint256)": {
        "details": "Get car rental information",
        "params": {
          "_carId": "ID of the car"
        }
      },
      "getOwner(address)": {
        "details": "Get owner information",
        "params": {
          "_owner": "Address of the owner"
        }
      },
      "getRenter(address)": {
        "details": "Get renter information",
        "params": {
          "_renter": "Address of the renter"
        }
      },
      "listCar(string,string,uint256,string,uint256)": {
        "details": "List a car for rent",
        "params": {
          "_dailyRate": "Daily rental rate in wei",
          "_location": "Car location",
          "_make": "Car make/brand",
          "_model": "Car model",
          "_year": "Car year"
        }
      },
      "loginOwner(bytes32)": {
        "details": "Verify login for owner using password hash",
        "params": {
          "_passwordHash": "Hash of the password to verify"
        },
        "returns": {
          "_0": "bool True if login hash matches"
        }
      },
      "loginRenter(bytes32)": {
        "details": "Verify login for renter using password hash",
        "params": {
          "_passwordHash": "Hash of the password to verify"
        },
        "returns": {
          "_0": "bool True if login hash matches"
        }
      },
      "openDispute(uint256,string)": {
        "details": "Open a dispute for a booking",
        "params": {
          "_bookingId": "ID of the booking",
          "_reason": "Reason for the dispute"
        }
      },
      "rateOwner(uint256,uint8)": {
        "details": "Rate an owner (by renter)",
        "params": {
          "_bookingId": "ID of the booking",
          "_rating": "Rating value (1-5)"
        }
      },
      "rateRenter(uint256,uint8)": {
        "details": "Rate a renter (by owner)",
        "params": {
          "_bookingId": "ID of the booking",
          "_rating": "Rating value (1-5)"
        }
      },
      "registerOwner(string,bytes32)": {
        "details": "Register a new car owner with username and password hash",
        "params": {
          "_passwordHash": "Hash of the password (should be computed off-chain)",
          "_username": "Unique username for the owner"
        }
      },
      "registerRenter(string,bytes32)": {
        "details": "Register a new renter with username and password hash",
        "params": {
          "_passwordHash": "Hash of the password (should be computed off-chain)",
          "_username": "Unique username for the renter"
        }
      },
      "removeCar(uint256)": {
        "details": "Remove/unlist a car from rental",
        "params": {
          "_carId": "ID of the car to remove"
        }
      },
      "removeDisputeArbitrator(address)": {
        "details": "Remove a dispute arbitrator",
        "params": {
          "_arbitrator": "Address of the arbitrator"
        }
      },
      "removeInsuranceVerifier(address)": {
        "details": "Remove an insurance verifier",
        "params": {
          "_verifier": "Address of the verifier"
        }
      },
      "resolveDispute(uint256,address)": {
        "details": "Resolve a dispute (by arbitrator)",
        "params": {
          "_disputeId": "ID of the dispute",
          "_winner": "Address of the winner (owner or renter)"
        }
      },
      "revokeInsurance(address)": {
        "details": "Revoke insurance for a renter",
        "params": {
          "_renter": "Address of the renter"
        }
      },
      "settleBooking(uint256)": {
        "details": "Settle a booking (when no dispute)",
        "params": {
          "_bookingId": "ID of the booking"
        }
      },
      "verifyInsurance(address)": {
        "details": "Verify insurance for a renter",
        "params": {
          "_renter": "Address of the renter"
        }
      },
      "withdrawEarnings()": {
        "details": "Withdraw earnings (by owner)"
      }
    },
    "version": 1
  },
  "userdoc": {
    "kind": "user",
    "methods": {},
    "version": 1
  }
}