{
  "contractName": "CarRental",
  "abi": [
    {
      "inputs": [
        {
          "internalType": "address",
          "name": "_insuranceVerifier",
          "type": "address"
        },
        {
          "internalType": "address",
          "name": "_arbitrator",
          "type": "address"
        },
        {
          "internalType": "uint16",
          "name": "_feeBps",
          "type": "uint16"
        }
      ],
      "stateMutability": "nonpayable",
      "type": "constructor"
    },
    {
      "anonymous": false,
      "inputs": [
        {
          "indexed": true,
          "internalType": "uint256",
          "name": "bookingId",
          "type": "uint256"
        }
      ],
      "name": "BookingApproved",
      "type": "event"
    },
    {
      "anonymous": false,
      "inputs": [
        {
          "indexed": true,
          "internalType": "uint256",
          "name": "bookingId",
          "type": "uint256"
        }
      ],
      "name": "BookingCancelled",
      "type": "event"
    },
    {
      "anonymous": false,
      "inputs": [
        {
          "indexed": true,
          "internalType": "uint256",
          "name": "bookingId",
          "type": "uint256"
        },
        {
          "indexed": false,
          "internalType": "uint256",
          "name": "ownerCredit",
          "type": "uint256"
        },
        {
          "indexed": false,
          "internalType": "uint256",
          "name": "renterCredit",
          "type": "uint256"
        },
        {
          "indexed": false,
          "internalType": "uint256",
          "name": "fee",
          "type": "uint256"
        }
      ],
      "name": "BookingCompleted",
      "type": "event"
    },
    {
      "anonymous": false,
      "inputs": [
        {
          "indexed": true,
          "internalType": "uint256",
          "name": "bookingId",
          "type": "uint256"
        },
        {
          "indexed": true,
          "internalType": "address",
          "name": "by",
          "type": "address"
        }
      ],
      "name": "BookingDisputed",
      "type": "event"
    },
    {
      "anonymous": false,
      "inputs": [
        {
          "indexed": true,
          "internalType": "uint256",
          "name": "bookingId",
          "type": "uint256"
        }
      ],
      "name": "BookingRejected",
      "type": "event"
    },
    {
      "anonymous": false,
      "inputs": [
        {
          "indexed": true,
          "internalType": "uint256",
          "name": "bookingId",
          "type": "uint256"
        },
        {
          "indexed": true,
          "internalType": "uint256",
          "name": "listingId",
          "type": "uint256"
        },
        {
          "indexed": true,
          "internalType": "address",
          "name": "renter",
          "type": "address"
        },
        {
          "indexed": false,
          "internalType": "uint256",
          "name": "escrow",
          "type": "uint256"
        }
      ],
      "name": "BookingRequested",
      "type": "event"
    },
    {
      "anonymous": false,
      "inputs": [
        {
          "indexed": true,
          "internalType": "uint256",
          "name": "listingId",
          "type": "uint256"
        },
        {
          "indexed": false,
          "internalType": "bool",
          "name": "valid",
          "type": "bool"
        }
      ],
      "name": "InsuranceVerified",
      "type": "event"
    },
    {
      "anonymous": false,
      "inputs": [
        {
          "indexed": true,
          "internalType": "uint256",
          "name": "listingId",
          "type": "uint256"
        },
        {
          "indexed": false,
          "internalType": "bool",
          "name": "active",
          "type": "bool"
        }
      ],
      "name": "ListingActive",
      "type": "event"
    },
    {
      "anonymous": false,
      "inputs": [
        {
          "indexed": true,
          "internalType": "uint256",
          "name": "listingId",
          "type": "uint256"
        },
        {
          "indexed": true,
          "internalType": "address",
          "name": "carOwner",
          "type": "address"
        }
      ],
      "name": "ListingCreated",
      "type": "event"
    },
    {
      "anonymous": false,
      "inputs": [
        {
          "indexed": true,
          "internalType": "uint256",
          "name": "listingId",
          "type": "uint256"
        }
      ],
      "name": "ListingEdited",
      "type": "event"
    },
    {
      "anonymous": false,
      "inputs": [
        {
          "indexed": true,
          "internalType": "uint256",
          "name": "bookingId",
          "type": "uint256"
        },
        {
          "indexed": true,
          "internalType": "address",
          "name": "by",
          "type": "address"
        }
      ],
      "name": "PickupConfirmed",
      "type": "event"
    },
    {
      "anonymous": false,
      "inputs": [
        {
          "indexed": true,
          "internalType": "uint256",
          "name": "bookingId",
          "type": "uint256"
        },
        {
          "indexed": true,
          "internalType": "address",
          "name": "by",
          "type": "address"
        }
      ],
      "name": "ReturnConfirmed",
      "type": "event"
    },
    {
      "anonymous": false,
      "inputs": [
        {
          "indexed": true,
          "internalType": "address",
          "name": "user",
          "type": "address"
        }
      ],
      "name": "UserRegistered",
      "type": "event"
    },
    {
      "inputs": [],
      "name": "arbitrator",
      "outputs": [
        {
          "internalType": "address",
          "name": "",
          "type": "address"
        }
      ],
      "stateMutability": "view",
      "type": "function",
      "constant": true
    },
    {
      "inputs": [
        {
          "internalType": "address",
          "name": "",
          "type": "address"
        }
      ],
      "name": "balances",
      "outputs": [
        {
          "internalType": "uint256",
          "name": "",
          "type": "uint256"
        }
      ],
      "stateMutability": "view",
      "type": "function",
      "constant": true
    },
    {
      "inputs": [
        {
          "internalType": "uint256",
          "name": "",
          "type": "uint256"
        }
      ],
      "name": "bookings",
      "outputs": [
        {
          "internalType": "uint256",
          "name": "listingId",
          "type": "uint256"
        },
        {
          "internalType": "address payable",
          "name": "renter",
          "type": "address"
        },
        {
          "internalType": "uint64",
          "name": "startDate",
          "type": "uint64"
        },
        {
          "internalType": "uint64",
          "name": "endDate",
          "type": "uint64"
        },
        {
          "internalType": "uint256",
          "name": "rentalCost",
          "type": "uint256"
        },
        {
          "internalType": "uint256",
          "name": "deposit",
          "type": "uint256"
        },
        {
          "internalType": "enum CarRental.BookingStatus",
          "name": "status",
          "type": "uint8"
        },
        {
          "internalType": "bool",
          "name": "renterPickup",
          "type": "bool"
        },
        {
          "internalType": "bool",
          "name": "ownerReturn",
          "type": "bool"
        },
        {
          "internalType": "string",
          "name": "renterInsuranceDocURI",
          "type": "string"
        },
        {
          "internalType": "string",
          "name": "pickupProofURI_renter",
          "type": "string"
        },
        {
          "internalType": "string",
          "name": "returnProofURI_owner",
          "type": "string"
        },
        {
          "internalType": "uint256",
          "name": "escrow",
          "type": "uint256"
        }
      ],
      "stateMutability": "view",
      "type": "function",
      "constant": true
    },
    {
      "inputs": [],
      "name": "contractOwner",
      "outputs": [
        {
          "internalType": "address",
          "name": "",
          "type": "address"
        }
      ],
      "stateMutability": "view",
      "type": "function",
      "constant": true
    },
    {
      "inputs": [],
      "name": "insuranceVerifier",
      "outputs": [
        {
          "internalType": "address",
          "name": "",
          "type": "address"
        }
      ],
      "stateMutability": "view",
      "type": "function",
      "constant": true
    },
    {
      "inputs": [
        {
          "internalType": "uint256",
          "name": "",
          "type": "uint256"
        }
      ],
      "name": "listings",
      "outputs": [
        {
          "internalType": "address payable",
          "name": "carOwner",
          "type": "address"
        },
        {
          "internalType": "uint256",
          "name": "dailyPrice",
          "type": "uint256"
        },
        {
          "internalType": "uint256",
          "name": "securityDeposit",
          "type": "uint256"
        },
        {
          "internalType": "bool",
          "name": "active",
          "type": "bool"
        },
        {
          "internalType": "enum CarRental.InsuranceStatus",
          "name": "insuranceStatus",
          "type": "uint8"
        },
        {
          "internalType": "string",
          "name": "insuranceDocURI",
          "type": "string"
        },
        {
          "internalType": "string",
          "name": "make",
          "type": "string"
        },
        {
          "internalType": "string",
          "name": "model",
          "type": "string"
        },
        {
          "internalType": "uint256",
          "name": "year",
          "type": "uint256"
        },
        {
          "internalType": "string",
          "name": "location",
          "type": "string"
        }
      ],
      "stateMutability": "view",
      "type": "function",
      "constant": true
    },
    {
      "inputs": [],
      "name": "platformFeeBps",
      "outputs": [
        {
          "internalType": "uint16",
          "name": "",
          "type": "uint16"
        }
      ],
      "stateMutability": "view",
      "type": "function",
      "constant": true
    },
    {
      "inputs": [
        {
          "internalType": "uint256",
          "name": "",
          "type": "uint256"
        }
      ],
      "name": "rateOwnerScore",
      "outputs": [
        {
          "internalType": "uint8",
          "name": "value",
          "type": "uint8"
        },
        {
          "internalType": "bool",
          "name": "set",
          "type": "bool"
        }
      ],
      "stateMutability": "view",
      "type": "function",
      "constant": true
    },
    {
      "inputs": [
        {
          "internalType": "uint256",
          "name": "",
          "type": "uint256"
        }
      ],
      "name": "rateRenterScore",
      "outputs": [
        {
          "internalType": "uint8",
          "name": "value",
          "type": "uint8"
        },
        {
          "internalType": "bool",
          "name": "set",
          "type": "bool"
        }
      ],
      "stateMutability": "view",
      "type": "function",
      "constant": true
    },
    {
      "inputs": [
        {
          "internalType": "address",
          "name": "",
          "type": "address"
        }
      ],
      "name": "users",
      "outputs": [
        {
          "internalType": "bool",
          "name": "registered",
          "type": "bool"
        }
      ],
      "stateMutability": "view",
      "type": "function",
      "constant": true
    },
    {
      "inputs": [
        {
          "internalType": "address",
          "name": "_insuranceVerifier",
          "type": "address"
        },
        {
          "internalType": "address",
          "name": "_arbitrator",
          "type": "address"
        }
      ],
      "name": "setRoles",
      "outputs": [],
      "stateMutability": "nonpayable",
      "type": "function"
    },
    {
      "inputs": [
        {
          "internalType": "uint16",
          "name": "_feeBps",
          "type": "uint16"
        }
      ],
      "name": "setPlatformFee",
      "outputs": [],
      "stateMutability": "nonpayable",
      "type": "function"
    },
    {
      "inputs": [],
      "name": "register",
      "outputs": [],
      "stateMutability": "nonpayable",
      "type": "function"
    },
    {
      "inputs": [
        {
          "internalType": "uint256",
          "name": "dailyPrice",
          "type": "uint256"
        },
        {
          "internalType": "uint256",
          "name": "securityDeposit",
          "type": "uint256"
        },
        {
          "internalType": "string",
          "name": "insuranceDocURI",
          "type": "string"
        },
        {
          "internalType": "string",
          "name": "make",
          "type": "string"
        },
        {
          "internalType": "string",
          "name": "model",
          "type": "string"
        },
        {
          "internalType": "uint256",
          "name": "year",
          "type": "uint256"
        },
        {
          "internalType": "string",
          "name": "location",
          "type": "string"
        }
      ],
      "name": "createListing",
      "outputs": [
        {
          "internalType": "uint256",
          "name": "id",
          "type": "uint256"
        }
      ],
      "stateMutability": "nonpayable",
      "type": "function"
    },
    {
      "inputs": [
        {
          "internalType": "uint256",
          "name": "listingId",
          "type": "uint256"
        },
        {
          "internalType": "uint256",
          "name": "dailyPrice",
          "type": "uint256"
        },
        {
          "internalType": "uint256",
          "name": "securityDeposit",
          "type": "uint256"
        },
        {
          "internalType": "string",
          "name": "insuranceDocURI",
          "type": "string"
        },
        {
          "internalType": "string",
          "name": "make",
          "type": "string"
        },
        {
          "internalType": "string",
          "name": "model",
          "type": "string"
        },
        {
          "internalType": "uint256",
          "name": "year",
          "type": "uint256"
        },
        {
          "internalType": "string",
          "name": "location",
          "type": "string"
        }
      ],
      "name": "editListing",
      "outputs": [],
      "stateMutability": "nonpayable",
      "type": "function"
    },
    {
      "inputs": [
        {
          "internalType": "uint256",
          "name": "listingId",
          "type": "uint256"
        },
        {
          "internalType": "bool",
          "name": "active_",
          "type": "bool"
        }
      ],
      "name": "setListingActive",
      "outputs": [],
      "stateMutability": "nonpayable",
      "type": "function"
    },
    {
      "inputs": [
        {
          "internalType": "uint256",
          "name": "listingId",
          "type": "uint256"
        },
        {
          "internalType": "bool",
          "name": "valid",
          "type": "bool"
        }
      ],
      "name": "verifyInsurance",
      "outputs": [],
      "stateMutability": "nonpayable",
      "type": "function"
    },
    {
      "inputs": [
        {
          "internalType": "uint256",
          "name": "listingId",
          "type": "uint256"
        },
        {
          "internalType": "uint64",
          "name": "startDate",
          "type": "uint64"
        },
        {
          "internalType": "uint64",
          "name": "endDate",
          "type": "uint64"
        },
        {
          "internalType": "string",
          "name": "renterInsuranceDocURI",
          "type": "string"
        }
      ],
      "name": "requestBooking",
      "outputs": [
        {
          "internalType": "uint256",
          "name": "id",
          "type": "uint256"
        }
      ],
      "stateMutability": "payable",
      "type": "function",
      "payable": true
    },
    {
      "inputs": [
        {
          "internalType": "uint256",
          "name": "bookingId",
          "type": "uint256"
        }
      ],
      "name": "approveBooking",
      "outputs": [],
      "stateMutability": "nonpayable",
      "type": "function"
    },
    {
      "inputs": [
        {
          "internalType": "uint256",
          "name": "bookingId",
          "type": "uint256"
        }
      ],
      "name": "rejectBooking",
      "outputs": [],
      "stateMutability": "nonpayable",
      "type": "function"
    },
    {
      "inputs": [
        {
          "internalType": "uint256",
          "name": "bookingId",
          "type": "uint256"
        }
      ],
      "name": "cancelBeforeActive",
      "outputs": [],
      "stateMutability": "nonpayable",
      "type": "function"
    },
    {
      "inputs": [
        {
          "internalType": "uint256",
          "name": "bookingId",
          "type": "uint256"
        },
        {
          "internalType": "string",
          "name": "proofURI",
          "type": "string"
        }
      ],
      "name": "confirmPickup",
      "outputs": [],
      "stateMutability": "nonpayable",
      "type": "function"
    },
    {
      "inputs": [
        {
          "internalType": "uint256",
          "name": "bookingId",
          "type": "uint256"
        },
        {
          "internalType": "string",
          "name": "proofURI",
          "type": "string"
        }
      ],
      "name": "confirmReturn",
      "outputs": [],
      "stateMutability": "nonpayable",
      "type": "function"
    },
    {
      "inputs": [
        {
          "internalType": "uint256",
          "name": "bookingId",
          "type": "uint256"
        }
      ],
      "name": "openDispute",
      "outputs": [],
      "stateMutability": "nonpayable",
      "type": "function"
    },
    {
      "inputs": [
        {
          "internalType": "uint256",
          "name": "bookingId",
          "type": "uint256"
        },
        {
          "internalType": "uint256",
          "name": "ownerPayout",
          "type": "uint256"
        },
        {
          "internalType": "uint256",
          "name": "renterPayout",
          "type": "uint256"
        }
      ],
      "name": "resolveDispute",
      "outputs": [],
      "stateMutability": "nonpayable",
      "type": "function"
    },
    {
      "inputs": [
        {
          "internalType": "uint256",
          "name": "bookingId",
          "type": "uint256"
        },
        {
          "internalType": "uint8",
          "name": "score",
          "type": "uint8"
        }
      ],
      "name": "rateOwner",
      "outputs": [],
      "stateMutability": "nonpayable",
      "type": "function"
    },
    {
      "inputs": [
        {
          "internalType": "uint256",
          "name": "bookingId",
          "type": "uint256"
        },
        {
          "internalType": "uint8",
          "name": "score",
          "type": "uint8"
        }
      ],
      "name": "rateRenter",
      "outputs": [],
      "stateMutability": "nonpayable",
      "type": "function"
    },
    {
      "inputs": [],
      "name": "withdraw",
      "outputs": [],
      "stateMutability": "nonpayable",
      "type": "function"
    }
  ],
  "bytecode": "0x608034620000cf57601f62002cea38819003918201601f19168301916001600160401b03831184841017620000d357808492606094604052833981010312620000cf576200004d81620000e7565b60406200005d60208401620000e7565b9201519061ffff82168203620000cf57600160078190555f80546001600160a01b031990811633179091558154166001600160a01b03928316179055600280546001600160b01b031916939091169290921760a09190911b61ffff60a01b16179055604051612bed9081620000fd8239f35b5f80fd5b634e487b7160e01b5f52604160045260245ffd5b51906001600160a01b0382168203620000cf5756fe6080806040526004361015610012575f80fd5b5f3560e01c9081631aa3a008146123d4575080631dab301e146122b057806322dcd13e1461228c57806325c73a7114611d44578063267070ad14611c2e57806327d00fb014611b4057806327e235e314611b085780632fd5402914611a475780633898a6b3146113e75780633ccfd60b146113575780633fabe74f146111be5780633feb9475146111825780635549756c146111195780635cbc742c146110875780635f42c4da14610d5257806362c514f414610ca55780636c65bd92146108965780636cbc87da146106ad5780636cc6cde1146106855780637599f54f1461065d578063857d239b146105665780638a2c55221461051b578063a24e0ea21461043d578063a87430ba14610400578063a9621af6146102f9578063ce606ee0146102d2578063de74e57b146101b95763f6072a1014610150575f80fd5b346101b55760403660031901126101b557610169612650565b6024356001600160a01b0381811692918390036101b55761018e815f541633146129dd565b6bffffffffffffffffffffffff60a01b911681600154161760015560025416176002555f80f35b5f80fd5b346101b55760203660031901126101b5576004356004548110156101b5576101e0906126b8565b5060018060a01b0381541660018201549160028101549060038101549160ff8360081c169261021160048401612523565b9061021e60058501612523565b9560ff61022d60068701612523565b9261023f600860078901549801612523565b956040519a610140948c5260208c015260408b0152161515606089015260038610156102be5787966102896102a594610297936102ba9960808c01528060a08c01528a01906125c5565b9088820360c08a01526125c5565b9086820360e08801526125c5565b916101008501528382036101208501526125c5565b0390f35b634e487b7160e01b5f52602160045260245ffd5b346101b5575f3660031901126101b5575f546040516001600160a01b039091168152602090f35b346101b55760203660031901126101b55760043561031681612462565b508054610337610325826126b8565b50546001600160a01b031633146128be565b600582019182549160ff83169060088210156102be5761037c9261035e600188941461284c565b6001600160401b03600281600184015460a01c169201541691612ad6565b6103af5760ff191660021790557fa0135758a7a152fbc51fc651f1214b629c474d76f3dcbe6095def00eaf87f18c5f80a2005b60405162461bcd60e51b815260206004820152602360248201527f6461746573206f7665726c61702077697468206578697374696e6720626f6f6b604482015262696e6760e81b6064820152608490fd5b346101b55760203660031901126101b5576001600160a01b03610421612650565b165f526003602052602060ff60405f2054166040519015158152f35b346101b55761044b36612630565b9061045581612462565b5060ff6005820154169260088410156102be5761049160ff9261047d600461050e97146127aa565b600101546001600160a01b03163314612a1e565b1690600182101580610510575b6104a7906127e6565b805f5260086020526104c360ff60405f205460081c1615612818565b604051916104d0836124e7565b82526020820190600182525f52600860205260ff60405f2092511660ff1983541617825551151561ff00825491151560081b169061ff001916179055565b005b50600582111561049e565b346101b55760203660031901126101b5576004355f5260096020526102ba60405f2054604051918160ff80859460081c1691168390929160209060ff60408401951683521515910152565b346101b55760203660031901126101b557600435610588600160075414612885565b600260075561059681612462565b50600581019081549060ff821660088110156102be5760018114908115610652575b501561061d576105f2926006600960018060a01b03600185015416936105df853314612a1e565b01935f8554955560ff1916179055612a58565b7ff774c001cb52a3566b767ed6e37c92706acb2b80a3ff6049e2849cd62725d0855f80a26001600755005b60405162461bcd60e51b815260206004820152600d60248201526c18d85b9b9bdd0818d85b98d95b609a1b6044820152606490fd5b6002915014856105b8565b346101b5575f3660031901126101b5576001546040516001600160a01b039091168152602090f35b346101b5575f3660031901126101b5576002546040516001600160a01b039091168152602090f35b346101b5576106bb36612685565b6106c6839293612462565b50926005840191825460ff811660088110156102be57600203610862576001868101549096906001600160a01b0316330361081d5761010060079261ff00191617855501916001600160401b0382116108095761072d8261072785546124af565b8561275b565b5f95601f83116001146107a0575061075f9293949582915f92610795575b50508160011b915f199060031b1c19161790565b90555b805460ff1916600317905533907f7f44dc96dfe82556f254203e555fa87ce76986f76eb50fc73d105558207ebb585f80a3005b01359050868061074b565b90601f19831696845f5260209260205f20935f915b8a83106107f25750505083600195969798106107d9575b505050811b019055610762565b01355f19600384901b60f8161c191690558580806107cc565b8484013586559485019492810192918101916107b5565b634e487b7160e01b5f52604160045260245ffd5b60405162461bcd60e51b815260206004820152601e60248201527f6f6e6c792072656e7465722063616e20636f6e6669726d207069636b757000006044820152606490fd5b60405162461bcd60e51b815260206004820152600c60248201526b1b9bdd08185c1c1c9bdd995960a21b6044820152606490fd5b346101b5576101003660031901126101b5576004356001600160401b036024356064358281116101b5576108ce903690600401612603565b90916084358481116101b5576108e8903690600401612603565b929060a4358681116101b557610902903690600401612603565b60c4359260e4358981116101b55761091e903690600401612603565b97909861092a8c6126b8565b509661094060018060a01b0389541633146128be565b61094b8915156128fa565b61076c871180610c99575b61095f90612932565b60019889890155604435600289015560048801918c8211610809576109888261072785546124af565b5f90601f8311600114610c32576109b592915f9183610c275750508160011b915f199060031b1c19161790565b90555b60058601918a8211610809576109d28261072785546124af565b5f90601f8311600114610bc0576109ff92915f9183610bb55750508160011b915f199060031b1c19161790565b90555b600684019188821161080957610a1c8261072785546124af565b5f90601f8311600114610b47579180610a4f926008979695945f92610b3c5750508160011b915f199060031b1c19161790565b90555b60078201550193821161080957610a7382610a6d86546124af565b8661275b565b5f90601f8311600114610ad557508190610aa1935f92610aca5750508160011b915f199060031b1c19161790565b90555b7f4c520ab09d5e06c4894077fa644a2085c63bd037543118226e3428b47423ebb55f80a2005b01359050858061074b565b92601f19831691855f528360209360205f20945f905b88838310610b225750505010610b09575b505050811b019055610aa4565b01355f19600384901b60f8161c19169055848080610afc565b868601358855909601959384019387935090810190610aeb565b013590508c8061074b565b91869195949392601f19821690845f5260209160205f20925f905b828210610b9c575050978360089910610b83575b505050811b019055610a52565b01355f19600384901b60f8161c191690558b8080610b76565b8a8401358555998a01998b969094019390810190610b62565b013590508d8061074b565b90889291601f19831691855f5260209260205f20935f905b828210610c0e5750508411610bf5575b505050811b019055610a02565b01355f19600384901b60f8161c191690558c8080610be8565b8385013586558d97909501949283019290810190610bd8565b013590508f8061074b565b908a9291601f19831691855f5260209260205f20935f905b828210610c805750508411610c67575b505050811b0190556109b8565b01355f19600384901b60f8161c191690558e8080610c5a565b8385013586558f97909501949283019290810190610c4a565b50610834871115610956565b346101b557610cb336612666565b6001546001600160a01b03163303610d1d5760207f407f6d6347d33597d66cbccf076e0edec1897f54ef9b615e3ceeea3b84ca710091805f14610d1357610d0860015b6003610d01876126b8565b50016129be565b6040519015158152a2005b610d086002610cf6565b60405162461bcd60e51b815260206004820152600d60248201526c6e6f7420696e737572616e636560981b6044820152606490fd5b346101b557610d6036612685565b60019291610d718460075414612885565b6002600755610d7f83612462565b5091610d8b83546126b8565b5092600581019081549160ff831660088110156102be576003036110555794546001600160a01b03959086163303611010576201000060089362ff0000191617905501916001600160401b03821161080957610deb8261072785546124af565b5f90601f8311600114610fa957610e1892915f9183610f9e5750508160011b915f199060031b1c19161790565b90555b610e2482612462565b5090610e3082546126b8565b506005830160ff81541660088110156102be576003610e4f911461284c565b600384015493612710610e6b61ffff60025460a01c168761272e565b04610e76818761274e565b926004830154946009840197610e8e878a5492612741565b03610f6757889787808c610f39977f05b7b4c873ca1f8b454c7ecb8fe749d8241d28083d9a966e4f1f40604db97a789b5f9654168652600660205260408620610ed88b8254612741565b90550154168352600660205260408320610ef3898254612741565b90558254168252600660205260408220610f0e858254612741565b905555600460ff19825416179055604051938493846040919493926060820195825260208201520152565b0390a233907f8e823f38cc816af62efd341a51dee8f420e5fd62f6c8483c16186967968b86615f80a3600755005b60405162461bcd60e51b815260206004820152600f60248201526e0cae6c6e4deee40dad2e6dac2e8c6d608b1b6044820152606490fd5b01359050878061074b565b90869291601f19831691855f5260209260205f20935f905b828210610ff75750508411610fde575b505050811b019055610e1b565b01355f19600384901b60f8161c19169055868080610fd1565b8385013586558b97909501949283019290810190610fc1565b60405162461bcd60e51b815260206004820152601d60248201527f6f6e6c79206f776e65722063616e20636f6e6669726d2072657475726e0000006044820152606490fd5b60405162461bcd60e51b815260206004820152600a6024820152696e6f742061637469766560b01b6044820152606490fd5b346101b55760203660031901126101b55760043561ffff81168082036101b5576103e8906110bf60018060a01b035f541633146129dd565b116110e5576002805461ffff60a01b191660a09290921b61ffff60a01b16919091179055005b60405162461bcd60e51b815260206004820152600c60248201526b0cccaca40e8dede40d0d2ced60a31b6044820152606490fd5b346101b55760207f0d85d5ffd1953217a27952a606aa782203679f724633773992d529af76ef695061114a36612666565b610d0881600361115b8597956126b8565b5061117060018060a01b0382541633146128be565b019060ff801983541691151516179055565b346101b55760203660031901126101b5576004355f9081526008602081815260409283902054835160ff80831682529190931c16151590820152f35b346101b55760603660031901126101b5576004356024356044356111e6600160075414612885565b60026007819055546001600160a01b039283821633036113215761120985612462565b509061121582546126b8565b5092600583019060ff82541660088110156102be576007036112ed5761123b8684612741565b60098501908154036112b457878060016112aa977f05b7b4c873ca1f8b454c7ecb8fe749d8241d28083d9a966e4f1f40604db97a789b61129161271061128961ffff5f9a60a01c168c61272e565b04809a61274e565b9a54168652600660205260408620610ed88b8254612741565b0390a26001600755005b60405162461bcd60e51b81526020600482015260116024820152706d7573742073706c697420657363726f7760781b6044820152606490fd5b60405162461bcd60e51b815260206004820152600c60248201526b1b9bdd08191a5cdc1d5d195960a21b6044820152606490fd5b60405162461bcd60e51b815260206004820152600e60248201526d3737ba1030b93134ba3930ba37b960911b6044820152606490fd5b346101b5575f3660031901126101b557611375600160075414612885565b6002600755335f52600660205260405f205480156113ac576113a590335f5260066020525f604081205533612a58565b6001600755005b60405162461bcd60e51b81526020600482015260136024820152726e6f7468696e6720746f20776974686472617760681b6044820152606490fd5b346101b55760e03660031901126101b5576044356001600160401b0381116101b557611417903690600401612603565b906064356001600160401b0381116101b557611437903690600401612603565b9190926084356001600160401b0381116101b557611459903690600401612603565b919060c4356001600160401b0381116101b55761147a903690600401612603565b939094335f52600360205261149560ff60405f2054166126f1565b6001546001600160a01b031633146119f0576002546001600160a01b031633146119a1576114c660043515156128fa565b61076c60a4351180611993575b6114dc90612932565b60405197886101408101106001600160401b036101408b011117610809576115659761153861154493611550975f60808e6101408101604052338152600435602082015260243560408201526001606082015201523691612988565b60a08b01523691612988565b60c08801523691612988565b60e085015260a4356101008501523691612988565b610120820152600454600160401b8110156108095780600161158a92016004556126b8565b9190916119805760018060a01b038151166bffffffffffffffffffffffff60a01b8354161782556020810151600183015560408101516002830155600382016115e560608301511515829060ff801983541691151516179055565b608082015160038110156102be576115fc916129be565b600482019160a08201519283516001600160401b0381116108095761162b8161162584546124af565b8461275b565b602094601f821160011461191e5761165c9293949582915f926118b15750508160011b915f199060031b1c19161790565b90555b600581019160c08101519283516001600160401b038111610809576116888161162584546124af565b602094601f82116001146118bc576116b99293949582915f926118b15750508160011b915f199060031b1c19161790565b90555b600682019160e08201519283516001600160401b038111610809576116e58161162584546124af565b6020601f82116001146118465781600894939261171b9261012097985f9261183b5750508160011b915f199060031b1c19161790565b90555b6101008401516007820155019101519081516001600160401b0381116108095761174c8161162584546124af565b602092601f82116001146117db5761177b929382915f926117d05750508160011b915f199060031b1c19161790565b90555b6004545f1981019081116117bc5760405160209133817f4e0f9c4c10f3933a613addba91d6bd94f54a77e3e2748707ee7fe140aef218c55f80a38152f35b634e487b7160e01b5f52601160045260245ffd5b01519050848061074b565b601f19821693835f5260205f20915f5b868110611823575083600195961061180b575b505050811b01905561177e565b01515f1960f88460031b161c191690558380806117fe565b919260206001819286850151815501940192016117eb565b01519050888061074b565b601f19821695835f5260205f20965f5b81811061189957509660019284926008979695610120999a10611881575b505050811b01905561171e565b01515f1960f88460031b161c19169055878080611874565b83830151895560019098019760209384019301611856565b01519050868061074b565b601f19821695835f5260205f20915f5b888110611906575083600195969798106118ee575b505050811b0190556116bc565b01515f1960f88460031b161c191690558580806118e1565b919260206001819286850151815501940192016118cc565b601f19821695835f5260205f20915f5b88811061196857508360019596979810611950575b505050811b01905561165f565b01515f1960f88460031b161c19169055858080611943565b9192602060018192868501518155019401920161192e565b634e487b7160e01b5f525f60045260245ffd5b5061083460a43511156114d3565b60405162461bcd60e51b815260206004820152602160248201527f61726269747261746f722063616e6e6f7420637265617465206c697374696e676044820152607360f81b6064820152608490fd5b60405162461bcd60e51b815260206004820152602960248201527f696e737572616e63652076657269666965722063616e6e6f7420637265617465604482015268206c697374696e677360b81b6064820152608490fd5b346101b55760203660031901126101b557600435611a69600160075414612885565b6002600755611a7781612462565b50611a8281546126b8565b50546001600160a01b039190611a9b90831633146128be565b600581019182549160ff83169060088210156102be57611add94611ac2600180941461284c565b600560098301955f8754975560ff1916179055015416612a58565b7f6dda7094ca195e26efe2cf69536896d308e1876357ff952db64326381dc394135f80a26001600755005b346101b55760203660031901126101b5576001600160a01b03611b29612650565b165f526006602052602060405f2054604051908152f35b346101b55760203660031901126101b557600435611b5d81612462565b50611b6881546126b8565b506001820154336001600160a01b0391821614918215611c20575b505015611bef57600501805460ff81169060088210156102be57611bb582600260079414908115611be4575b5061284c565b60ff191617905533907f5510d5e6aae1240aa1a06dbdba1a2738d59705856a2b2dd100fad8db8c93ed4b5f80a3005b600391501486611baf565b60405162461bcd60e51b81526020600482015260096024820152686e6f7420706172747960b81b6044820152606490fd5b909150541633148380611b83565b346101b557611c3c36612630565b90611c4681612462565b5060ff6005611c5583546126b8565b50549201546001600160a01b03909216911660088110156102be576004611c7c91146127aa565b3303611d0e5760ff61050e921690600182101580611d03575b611c9e906127e6565b805f526009602052611cba60ff60405f205460081c1615612818565b60405191611cc7836124e7565b8252600160208084019182525f92835260099052604090912091518254915161ffff1990921660ff919091161790151560081b61ff0016179055565b506005821115611c95565b60405162461bcd60e51b815260206004820152600e60248201526d37b7363c9031b0b91037bbb732b960911b6044820152606490fd5b60803660031901126101b557600435602480356001600160401b0392838216938483036101b5576044928335948286168096036101b55760649687358481116101b557611d95903690600401612603565b929093335f5260209960038b52611db260ff60405f2054166126f1565b6001805490946001600160a01b03918216331461223e57816002541633146121fc57611ddd8a6126b8565b509182541633146121ba57600382015460ff8116156121855760081c60ff166003811015612172578603612137574281106120f557808c11156120c757611e2862015180918d61274e565b04801561209957611e3e6002918784015461272e565b910191611e4c835483612741565b9a8b34036120665787156120265750506005549a600160401b8c101561201357858c0180600555611e7c8d612462565b50508c1161200057906006939291611e938d612462565b508b815587810180546001600160e01b0319163367ffffffffffffffff60a01b19161760a09690961b67ffffffffffffffff60a01b169590951790945560028401805467ffffffffffffffff19169091179055600383015554600482015560058101805460ff1916851790556009810189905501948311611fed5750611f1d82610a6d86546124af565b5f90601f8311600114611f8d57508190611f4b935f92611f825750508160011b915f199060031b1c19161790565b90555b604051918252827fccf64f7160f860aa529bd13ee78679de073ff8e017433570a494477ea0563a43853394a4604051908152f35b01359050888061074b565b92601f19831691855f52838a5f20935f5b8c88838310611fd65750505010611fbd575b505050811b019055611f4e565b01355f19600384901b60f8161c19169055878080611fb0565b858701358855909601959384019387935001611f9e565b634e487b7160e01b5f9081526041600452fd5b84634e487b7160e01b5f5260116004525ffd5b84634e487b7160e01b5f5260416004525ffd5b7f72656e74657220696e737572616e6365207265717569726564000000000000008e916019886040519462461bcd60e51b86526004860152840152820152fd5b6f696e636f727265637420657363726f7760801b8e916010886040519462461bcd60e51b86526004860152840152820152fd5b60405162461bcd60e51b8152600481018e9052600981870152686d696e20312064617960b81b818d01528390fd5b60405162461bcd60e51b8152600481018e905260098187015268195b990f9cdd185c9d60ba1b818d01528390fd5b505060405162461bcd60e51b8152600481018c90528084018c90527f73746172742064617465206d75737420626520696e2074686520667574757265818b0152fd5b60405162461bcd60e51b8152600481018e9052601681870152751a5b9cdd5c985b98d9481b9bdd08185c1c1c9bdd995960521b818d01528390fd5b85634e487b7160e01b5f5260216004525ffd5b60405162461bcd60e51b8152600481018f90526010818801526f6c697374696e6720696e61637469766560801b818e01528490fd5b60405162461bcd60e51b8152600481018e90526017818701527f63616e6e6f7420626f6f6b206f776e206c697374696e67000000000000000000818d01528390fd5b60405162461bcd60e51b8152600481018e9052601b818701527f61726269747261746f722063616e6e6f7420626f6f6b20636172730000000000818d01528390fd5b60405162461bcd60e51b8152600481018e90526023818701527f696e737572616e63652076657269666965722063616e6e6f7420626f6f6b2063818d01526261727360e81b81850152608490fd5b346101b5575f3660031901126101b557602061ffff60025460a01c16604051908152f35b346101b55760203660031901126101b5576004356005548110156101b5576122d790612462565b508054906001810154916001600160401b03908160028401541692600381015493600482015490600583015460ff81169261231460068601612523565b9761232160078701612523565b93600961233060088901612523565b970154986040519b6101a0998d528c602060018060a01b03831691015260a01c1660408c015260608b015260808a015260a089015260088310156102be5787966123c99560ff6123ab936123ba9660c08c0152818160081c16151560e08c015260101c1615156101008a0152806101208a01528801906125c5565b908682036101408801526125c5565b908482036101608601526125c5565b906101808301520390f35b346101b5575f3660031901126101b557335f52600360205260ff60405f20541661243657335f52600360205260405f20600160ff19825416179055337f54db7a5cb4735e1aac1f53db512d3390390bb6637bd30ad4bf9fc98667d9b9b95f80a2005b62461bcd60e51b8152602060048201526007602482015266616c726561647960c81b6044820152606490fd5b60055481101561249b57600a9060055f52027f036b6384b5eca791c62761152d0c79bb0604c104a5fb6f4eb0703f3154bb3db001905f90565b634e487b7160e01b5f52603260045260245ffd5b90600182811c921680156124dd575b60208310146124c957565b634e487b7160e01b5f52602260045260245ffd5b91607f16916124be565b604081019081106001600160401b0382111761080957604052565b90601f801991011681019081106001600160401b0382111761080957604052565b9060405191825f8254612535816124af565b908184526020946001916001811690815f146125a35750600114612565575b50505061256392500383612502565b565b5f90815285812095935091905b81831061258b57505061256393508201015f8080612554565b85548884018501529485019487945091830191612572565b9250505061256394925060ff191682840152151560051b8201015f8080612554565b91908251928382525f5b8481106125ef575050825f602080949584010152601f8019910116010190565b6020818301810151848301820152016125cf565b9181601f840112156101b5578235916001600160401b0383116101b557602083818601950101116101b557565b60409060031901126101b5576004359060243560ff811681036101b55790565b600435906001600160a01b03821682036101b557565b60409060031901126101b5576004359060243580151581036101b55790565b9060406003198301126101b55760043591602435906001600160401b0382116101b5576126b491600401612603565b9091565b60045481101561249b5760099060045f52027f8a35acfbc15ff81a39ae7d344fd709f28e8600b4aa8c65c6b64bfe7fe36bd19b01905f90565b156126f857565b60405162461bcd60e51b815260206004820152600e60248201526d1c9959da5cdd195c88199a5c9cdd60921b6044820152606490fd5b818102929181159184041417156117bc57565b919082018092116117bc57565b919082039182116117bc57565b601f821161276857505050565b5f5260205f20906020601f840160051c830193106127a0575b601f0160051c01905b818110612795575050565b5f815560010161278a565b9091508190612781565b156127b157565b60405162461bcd60e51b815260206004820152600d60248201526c1b9bdd0818dbdb5c1b195d1959609a1b6044820152606490fd5b156127ed57565b606460405162461bcd60e51b8152602060048201526004602482015263312e2e3560e01b6044820152fd5b1561281f57565b60405162461bcd60e51b81526020600482015260056024820152641c985d195960da1b6044820152606490fd5b1561285357565b60405162461bcd60e51b815260206004820152600a6024820152696261642073746174757360b01b6044820152606490fd5b1561288c57565b60405162461bcd60e51b815260206004820152600a6024820152697265656e7472616e637960b01b6044820152606490fd5b156128c557565b60405162461bcd60e51b815260206004820152600d60248201526c3737ba1031b0b91037bbb732b960991b6044820152606490fd5b1561290157565b60405162461bcd60e51b815260206004820152600960248201526862616420707269636560b81b6044820152606490fd5b1561293957565b60405162461bcd60e51b815260206004820152600c60248201526b34b73b30b634b2103cb2b0b960a11b6044820152606490fd5b6001600160401b03811161080957601f01601f191660200190565b9291926129948261296d565b916129a26040519384612502565b8294818452818301116101b5578281602093845f960137010152565b9060038110156102be5761ff0082549160081b169061ff001916179055565b156129e457565b60405162461bcd60e51b81526020600482015260126024820152713737ba1031b7b73a3930b1ba1037bbb732b960711b6044820152606490fd5b15612a2557565b60405162461bcd60e51b815260206004820152600b60248201526a37b7363c903932b73a32b960a91b6044820152606490fd5b5f918291829182916001600160a01b03165af13d15612ad1573d612a7b8161296d565b90612a896040519283612502565b81525f60203d92013e5b15612a9a57565b60405162461bcd60e51b815260206004820152600f60248201526e1d1c985b9cd9995c8819985a5b1959608a1b6044820152606490fd5b612a93565b60058054949293925f5b868110612af257505050505050505f90565b612afb81612462565b5084815403612bae57828214612bae5760ff8482015416906008821015806102be57600292838114918215612ba1575b8215612b90575b505015612b86576001600160401b039081600193818584015460a01c1692015416828a16109182612b7a575b5050612b6f57506001905b01612ae0565b965050505050505090565b88161190505f80612b5e565b5050600190612b69565b9091506102be576007145f80612b32565b506003811491505f612b2b565b50600190612b6956fea26469706673582212209d831b053b87ec3e8c06639140970b3b0bbff3c079f9cc176b2163327c807d8364736f6c63430008180033",
  "immutableReferences": {},
  "source": "// SPDX-License-Identifier: MIT\npragma solidity ^0.8.0;\n\ncontract CarRental {\n    /* =========================== Roles & Config =========================== */\n\n    address public contractOwner;         // contract owner (platform admin)\n    address public insuranceVerifier;     // role\n    address public arbitrator;            // role\n    uint16  public platformFeeBps;        // optional marketplace fee on rental (not deposit), e.g., 200 = 2%\n\n    modifier onlyOwner() { require(msg.sender == contractOwner, \"not contract owner\"); _; }\n    modifier onlyInsurance() { require(msg.sender == insuranceVerifier, \"not insurance\"); _; }\n    modifier onlyArbitrator() { require(msg.sender == arbitrator, \"not arbitrator\"); _; }\n\n    constructor(address _insuranceVerifier, address _arbitrator, uint16 _feeBps) {\n        contractOwner = msg.sender;\n        insuranceVerifier = _insuranceVerifier;\n        arbitrator = _arbitrator;\n        platformFeeBps = _feeBps; // can be 0\n    }\n\n    function setRoles(address _insuranceVerifier, address _arbitrator) external onlyOwner {\n        insuranceVerifier = _insuranceVerifier;\n        arbitrator = _arbitrator;\n    }\n\n    function setPlatformFee(uint16 _feeBps) external onlyOwner {\n        require(_feeBps <= 1000, \"fee too high\");\n        platformFeeBps = _feeBps;\n    }\n\n    /* ================================ Users =============================== */\n\n    struct User {\n        bool registered;\n    }\n    mapping(address => User) public users;\n\n    event UserRegistered(address indexed user);\n\n    function register() external {\n        require(!users[msg.sender].registered, \"already\");\n        users[msg.sender].registered = true;\n        emit UserRegistered(msg.sender);\n    }\n\n    /* =============================== Listings ============================= */\n\n    enum InsuranceStatus {\n        Pending,    // 0 - never verified\n        Approved,   // 1 - verified and valid\n        Rejected    // 2 - explicitly rejected\n    }\n\n    struct Listing {\n        address payable carOwner;         // car owner (listing creator)\n        uint256 dailyPrice;        // in wei per day\n        uint256 securityDeposit;   // in wei\n        bool    active;            // car owner can pause/unpause\n        InsuranceStatus insuranceStatus;  // Changed from bool insuranceValid\n        string  insuranceDocURI;   // optional\n        string  make;              // car make/brand\n        string  model;             // car model\n        uint256 year;              // car year\n        string  location;          // car location\n    }\n    Listing[] public listings;\n\n    event ListingCreated(uint256 indexed listingId, address indexed carOwner);\n    event ListingEdited(uint256 indexed listingId);\n    event ListingActive(uint256 indexed listingId, bool active);\n    event InsuranceVerified(uint256 indexed listingId, bool valid);\n\n    function createListing(\n        uint256 dailyPrice,\n        uint256 securityDeposit,\n        string calldata insuranceDocURI,\n        string calldata make,\n        string calldata model,\n        uint256 year,\n        string calldata location\n    ) external returns (uint256 id) {\n        require(users[msg.sender].registered, \"register first\");\n        require(msg.sender != insuranceVerifier, \"insurance verifier cannot create listings\");\n        require(msg.sender != arbitrator, \"arbitrator cannot create listings\");\n        require(dailyPrice > 0, \"bad price\");\n        require(year > 1900 && year <= 2100, \"invalid year\");\n        listings.push(Listing({\n            carOwner: payable(msg.sender),\n            dailyPrice: dailyPrice,\n            securityDeposit: securityDeposit,\n            active: true,\n            insuranceStatus: InsuranceStatus.Pending,  // Changed\n            insuranceDocURI: insuranceDocURI,\n            make: make,\n            model: model,\n            year: year,\n            location: location\n        }));\n        id = listings.length - 1;\n        emit ListingCreated(id, msg.sender);\n    }\n\n    function editListing(\n        uint256 listingId,\n        uint256 dailyPrice,\n        uint256 securityDeposit,\n        string calldata insuranceDocURI,\n        string calldata make,\n        string calldata model,\n        uint256 year,\n        string calldata location\n    ) external {\n        Listing storage L = listings[listingId];\n        require(msg.sender == L.carOwner, \"not car owner\");\n        require(dailyPrice > 0, \"bad price\");\n        require(year > 1900 && year <= 2100, \"invalid year\");\n        L.dailyPrice = dailyPrice;\n        L.securityDeposit = securityDeposit;\n        L.insuranceDocURI = insuranceDocURI;\n        L.make = make;\n        L.model = model;\n        L.year = year;\n        L.location = location;\n        emit ListingEdited(listingId);\n    }\n\n    function setListingActive(uint256 listingId, bool active_) external {\n        Listing storage L = listings[listingId];\n        require(msg.sender == L.carOwner, \"not car owner\");\n        L.active = active_;\n        emit ListingActive(listingId, active_);\n    }\n\n    function verifyInsurance(uint256 listingId, bool valid) external onlyInsurance {\n        listings[listingId].insuranceStatus = valid \n            ? InsuranceStatus.Approved \n            : InsuranceStatus.Rejected;\n        emit InsuranceVerified(listingId, valid);\n    }\n\n    /* =============================== Bookings ============================= */\n\n    enum BookingStatus {\n        None,\n        Requested,     // renter escrowed funds; waiting for car owner approve/reject\n        Approved,      // pickup pending\n        Active,        // pickup confirmed by renter\n        Completed,     // funds split; ratings enabled\n        Rejected,      // rejected by car owner; refunded\n        Cancelled,     // cancelled before activation; refunded\n        Disputed       // arbitrator must resolve\n    }\n\n    struct Booking {\n        // immutable-ish\n        uint256 listingId;\n        address payable renter;\n        uint64  startDate;   // unix seconds\n        uint64  endDate;     // unix seconds\n        uint256 rentalCost;  // computed and locked at request time\n        uint256 deposit;     // copied from listing at request time\n\n        // status\n        BookingStatus status;\n        bool renterPickup;  // set when renter confirms pickup\n        bool ownerReturn;   // set when owner confirms return\n\n        // evidence URIs (optional)\n        string renterInsuranceDocURI;  // renter's insurance document (required for booking)\n        string pickupProofURI_renter;\n        string returnProofURI_owner;\n\n        // accounting\n        uint256 escrow; // rentalCost + deposit, held until completion or dispute\n    }\n\n    Booking[] public bookings;\n\n    event BookingRequested(uint256 indexed bookingId, uint256 indexed listingId, address indexed renter, uint256 escrow);\n    event BookingApproved(uint256 indexed bookingId);\n    event BookingRejected(uint256 indexed bookingId);\n    event PickupConfirmed(uint256 indexed bookingId, address indexed by);\n    event ReturnConfirmed(uint256 indexed bookingId, address indexed by);\n    event BookingCompleted(uint256 indexed bookingId, uint256 ownerCredit, uint256 renterCredit, uint256 fee);\n    event BookingDisputed(uint256 indexed bookingId, address indexed by);\n    event BookingCancelled(uint256 indexed bookingId);\n\n    // Pull-payment balances\n    mapping(address => uint256) public balances;\n\n    // simple, gas-cheap reentrancy guard\n    uint256 private locked = 1;\n    modifier nonReentrant() {\n        require(locked == 1, \"reentrancy\");\n        locked = 2;\n        _;\n        locked = 1;\n    }\n\n    function daysBetween(uint64 a, uint64 b) internal pure returns (uint256) {\n        require(b > a, \"end>start\");\n        return (uint256(b) - uint256(a)) / 1 days;\n    }\n\n    /**\n     * Check if two date ranges overlap\n     * Returns true if the ranges overlap, false otherwise\n     */\n    function datesOverlap(\n        uint64 start1,\n        uint64 end1,\n        uint64 start2,\n        uint64 end2\n    ) internal pure returns (bool) {\n        return start1 < end2 && end1 > start2;\n    }\n\n    /**\n     * Check if a booking overlaps with any active bookings for the same listing\n     * Active bookings are: Approved, Active, or Disputed\n     */\n    function hasOverlappingBooking(\n        uint256 listingId,\n        uint64 startDate,\n        uint64 endDate,\n        uint256 excludeBookingId\n    ) internal view returns (bool) {\n        for (uint256 i = 0; i < bookings.length; i++) {\n            Booking storage existing = bookings[i];\n            \n            // Skip if not for the same listing\n            if (existing.listingId != listingId) continue;\n            \n            // Skip the booking we're checking (for updates)\n            if (i == excludeBookingId) continue;\n            \n            // Only check active bookings: Approved, Active, or Disputed\n            BookingStatus status = existing.status;\n            bool isActive = status == BookingStatus.Approved ||\n                           status == BookingStatus.Active ||\n                           status == BookingStatus.Disputed;\n            \n            if (!isActive) continue;\n            \n            // Check for date overlap\n            if (datesOverlap(startDate, endDate, existing.startDate, existing.endDate)) {\n                return true;\n            }\n        }\n        return false;\n    }\n\n    function requestBooking(\n        uint256 listingId,\n        uint64 startDate,\n        uint64 endDate,\n        string calldata renterInsuranceDocURI\n    ) external payable returns (uint256 id) {\n        require(users[msg.sender].registered, \"register first\");\n        require(msg.sender != insuranceVerifier, \"insurance verifier cannot book cars\");\n        require(msg.sender != arbitrator, \"arbitrator cannot book cars\");\n        Listing storage L = listings[listingId];\n        require(msg.sender != L.carOwner, \"cannot book own listing\");\n        require(L.active, \"listing inactive\");\n        require(\n            L.insuranceStatus == InsuranceStatus.Approved, \n            \"insurance not approved\"\n        );\n        require(startDate >= block.timestamp, \"start date must be in the future\");\n        uint256 numDays = daysBetween(startDate, endDate);\n        require(numDays > 0, \"min 1 day\");\n\n        uint256 rentalCost = L.dailyPrice * numDays;\n        uint256 total = rentalCost + L.securityDeposit;\n        require(msg.value == total, \"incorrect escrow\");\n        require(bytes(renterInsuranceDocURI).length > 0, \"renter insurance required\");\n\n        bookings.push();\n        id = bookings.length - 1;\n        Booking storage B = bookings[id];\n        B.listingId = listingId;\n        B.renter = payable(msg.sender);\n        B.startDate = startDate;\n        B.endDate = endDate;\n        B.rentalCost = rentalCost;\n        B.deposit = L.securityDeposit;\n        B.status = BookingStatus.Requested;\n        B.escrow = total;\n        B.renterInsuranceDocURI = renterInsuranceDocURI;\n\n        emit BookingRequested(id, listingId, msg.sender, total);\n    }\n\n    function approveBooking(uint256 bookingId) external {\n        Booking storage B = bookings[bookingId];\n        Listing storage L = listings[B.listingId];\n        require(msg.sender == L.carOwner, \"not car owner\");\n        require(B.status == BookingStatus.Requested, \"bad status\");\n        \n        // Check for overlapping dates with existing active bookings\n        require(\n            !hasOverlappingBooking(B.listingId, B.startDate, B.endDate, bookingId),\n            \"dates overlap with existing booking\"\n        );\n        \n        B.status = BookingStatus.Approved;\n        emit BookingApproved(bookingId);\n    }\n\n    function rejectBooking(uint256 bookingId) external nonReentrant {\n        Booking storage B = bookings[bookingId];\n        Listing storage L = listings[B.listingId];\n        require(msg.sender == L.carOwner, \"not car owner\");\n        require(B.status == BookingStatus.Requested, \"bad status\");\n        uint256 refund = B.escrow;\n        B.escrow = 0;\n        B.status = BookingStatus.Rejected;\n        _safeTransfer(B.renter, refund);\n        emit BookingRejected(bookingId);\n    }\n\n    function cancelBeforeActive(uint256 bookingId) external nonReentrant {\n        Booking storage B = bookings[bookingId];\n        require(B.status == BookingStatus.Requested || B.status == BookingStatus.Approved, \"cannot cancel\");\n        require(msg.sender == B.renter, \"only renter\");\n        uint256 refund = B.escrow;\n        B.escrow = 0;\n        B.status = BookingStatus.Cancelled;\n        _safeTransfer(B.renter, refund);\n        emit BookingCancelled(bookingId);\n    }\n\n    function confirmPickup(uint256 bookingId, string calldata proofURI) external {\n        Booking storage B = bookings[bookingId];\n        require(B.status == BookingStatus.Approved, \"not approved\");\n        require(msg.sender == B.renter, \"only renter can confirm pickup\");\n        B.renterPickup = true;\n        B.pickupProofURI_renter = proofURI;\n        B.status = BookingStatus.Active;\n        emit PickupConfirmed(bookingId, msg.sender);\n    }\n\n    function confirmReturn(uint256 bookingId, string calldata proofURI) external nonReentrant {\n        Booking storage B = bookings[bookingId];\n        Listing storage L = listings[B.listingId];\n        require(B.status == BookingStatus.Active, \"not active\");\n        require(msg.sender == L.carOwner, \"only owner can confirm return\");\n        B.ownerReturn = true;\n        B.returnProofURI_owner = proofURI;\n        _completeWithoutDispute(bookingId);\n        emit ReturnConfirmed(bookingId, msg.sender);\n    }\n\n    function openDispute(uint256 bookingId) external {\n        Booking storage B = bookings[bookingId];\n        Listing storage L = listings[B.listingId];\n        require(\n            msg.sender == B.renter || msg.sender == L.carOwner,\n            \"not party\"\n        );\n        require(\n            B.status == BookingStatus.Approved ||\n            B.status == BookingStatus.Active,\n            \"bad status\"\n        );\n        B.status = BookingStatus.Disputed;\n        emit BookingDisputed(bookingId, msg.sender);\n    }\n\n    function resolveDispute(uint256 bookingId, uint256 ownerPayout, uint256 renterPayout)\n        external\n        nonReentrant\n        onlyArbitrator\n    {\n        Booking storage B = bookings[bookingId];\n        Listing storage L = listings[B.listingId];\n        require(B.status == BookingStatus.Disputed, \"not disputed\");\n        require(ownerPayout + renterPayout == B.escrow, \"must split escrow\");\n\n        uint256 fee = (ownerPayout * platformFeeBps) / 10_000;\n        uint256 ownerNet = ownerPayout - fee;\n\n        balances[L.carOwner] += ownerNet;\n        balances[B.renter] += renterPayout;\n        balances[contractOwner] += fee;\n\n        B.escrow = 0;\n        B.status = BookingStatus.Completed;\n\n        emit BookingCompleted(bookingId, ownerNet, renterPayout, fee);\n    }\n\n    function _completeWithoutDispute(uint256 bookingId) internal {\n        Booking storage B = bookings[bookingId];\n        Listing storage L = listings[B.listingId];\n        require(B.status == BookingStatus.Active, \"bad status\");\n\n        uint256 fee = (B.rentalCost * platformFeeBps) / 10_000;\n        uint256 ownerNet = B.rentalCost - fee;\n        uint256 renterBack = B.deposit;\n\n        require(B.escrow == B.rentalCost + B.deposit, \"escrow mismatch\");\n        balances[L.carOwner] += ownerNet;\n        balances[B.renter]   += renterBack;\n        balances[contractOwner]      += fee;\n\n        B.escrow = 0;\n        B.status = BookingStatus.Completed;\n\n        emit BookingCompleted(bookingId, ownerNet, renterBack, fee);\n    }\n\n    /* ================================ Ratings ============================= */\n\n    struct Rating { uint8 value; bool set; }\n    // bookingId => ratings\n    mapping(uint256 => Rating) public rateOwnerScore;\n    mapping(uint256 => Rating) public rateRenterScore;\n\n    function rateOwner(uint256 bookingId, uint8 score) external {\n        Booking storage B = bookings[bookingId];\n        require(B.status == BookingStatus.Completed, \"not completed\");\n        require(msg.sender == B.renter, \"only renter\");\n        require(score >= 1 && score <= 5, \"1..5\");\n        require(!rateOwnerScore[bookingId].set, \"rated\");\n        rateOwnerScore[bookingId] = Rating(score, true);\n    }\n\n    function rateRenter(uint256 bookingId, uint8 score) external {\n        Booking storage B = bookings[bookingId];\n        address carOwner = listings[B.listingId].carOwner;\n        require(B.status == BookingStatus.Completed, \"not completed\");\n        require(msg.sender == carOwner, \"only car owner\");\n        require(score >= 1 && score <= 5, \"1..5\");\n        require(!rateRenterScore[bookingId].set, \"rated\");\n        rateRenterScore[bookingId] = Rating(score, true);\n    }\n\n    /* ================================ Funds =============================== */\n\n    function withdraw() external nonReentrant {\n        uint256 amount = balances[msg.sender];\n        require(amount > 0, \"nothing to withdraw\");\n        balances[msg.sender] = 0;\n        _safeTransfer(payable(msg.sender), amount);\n    }\n\n    function _safeTransfer(address payable to, uint256 amount) internal {\n        (bool ok, ) = to.call{value: amount}(\"\");\n        require(ok, \"transfer failed\");\n    }\n}\n",
  "sourcePath": "/workspaces/DecentralizdCarRentalApp/blockchain/contracts/CarRental.sol",
  "compiler": {
    "name": "solc",
    "version": "0.8.24+commit.e11b9ed9.Emscripten.clang"
  },
  "schemaVersion": "3.4.16",
  "updatedAt": "2025-11-29T06:37:26.842Z",
  "networkType": "ethereum",
  "devdoc": {
    "kind": "dev",
    "methods": {},
    "version": 1
  },
  "userdoc": {
    "kind": "user",
    "methods": {},
    "version": 1
  }
}