{
  "contractName": "CarRental",
  "abi": [
    {
      "inputs": [
        {
          "internalType": "address",
          "name": "_insuranceVerifier",
          "type": "address"
        },
        {
          "internalType": "address",
          "name": "_arbitrator",
          "type": "address"
        },
        {
          "internalType": "uint16",
          "name": "_feeBps",
          "type": "uint16"
        }
      ],
      "stateMutability": "nonpayable",
      "type": "constructor"
    },
    {
      "anonymous": false,
      "inputs": [
        {
          "indexed": true,
          "internalType": "uint256",
          "name": "bookingId",
          "type": "uint256"
        }
      ],
      "name": "BookingApproved",
      "type": "event"
    },
    {
      "anonymous": false,
      "inputs": [
        {
          "indexed": true,
          "internalType": "uint256",
          "name": "bookingId",
          "type": "uint256"
        }
      ],
      "name": "BookingCancelled",
      "type": "event"
    },
    {
      "anonymous": false,
      "inputs": [
        {
          "indexed": true,
          "internalType": "uint256",
          "name": "bookingId",
          "type": "uint256"
        },
        {
          "indexed": false,
          "internalType": "uint256",
          "name": "ownerCredit",
          "type": "uint256"
        },
        {
          "indexed": false,
          "internalType": "uint256",
          "name": "renterCredit",
          "type": "uint256"
        },
        {
          "indexed": false,
          "internalType": "uint256",
          "name": "fee",
          "type": "uint256"
        }
      ],
      "name": "BookingCompleted",
      "type": "event"
    },
    {
      "anonymous": false,
      "inputs": [
        {
          "indexed": true,
          "internalType": "uint256",
          "name": "bookingId",
          "type": "uint256"
        },
        {
          "indexed": true,
          "internalType": "address",
          "name": "by",
          "type": "address"
        }
      ],
      "name": "BookingDisputed",
      "type": "event"
    },
    {
      "anonymous": false,
      "inputs": [
        {
          "indexed": true,
          "internalType": "uint256",
          "name": "bookingId",
          "type": "uint256"
        }
      ],
      "name": "BookingRejected",
      "type": "event"
    },
    {
      "anonymous": false,
      "inputs": [
        {
          "indexed": true,
          "internalType": "uint256",
          "name": "bookingId",
          "type": "uint256"
        },
        {
          "indexed": true,
          "internalType": "uint256",
          "name": "listingId",
          "type": "uint256"
        },
        {
          "indexed": true,
          "internalType": "address",
          "name": "renter",
          "type": "address"
        },
        {
          "indexed": false,
          "internalType": "uint256",
          "name": "escrow",
          "type": "uint256"
        }
      ],
      "name": "BookingRequested",
      "type": "event"
    },
    {
      "anonymous": false,
      "inputs": [
        {
          "indexed": true,
          "internalType": "uint256",
          "name": "listingId",
          "type": "uint256"
        },
        {
          "indexed": false,
          "internalType": "bool",
          "name": "valid",
          "type": "bool"
        }
      ],
      "name": "InsuranceVerified",
      "type": "event"
    },
    {
      "anonymous": false,
      "inputs": [
        {
          "indexed": true,
          "internalType": "uint256",
          "name": "listingId",
          "type": "uint256"
        },
        {
          "indexed": false,
          "internalType": "bool",
          "name": "active",
          "type": "bool"
        }
      ],
      "name": "ListingActive",
      "type": "event"
    },
    {
      "anonymous": false,
      "inputs": [
        {
          "indexed": true,
          "internalType": "uint256",
          "name": "listingId",
          "type": "uint256"
        },
        {
          "indexed": true,
          "internalType": "address",
          "name": "owner",
          "type": "address"
        }
      ],
      "name": "ListingCreated",
      "type": "event"
    },
    {
      "anonymous": false,
      "inputs": [
        {
          "indexed": true,
          "internalType": "uint256",
          "name": "listingId",
          "type": "uint256"
        }
      ],
      "name": "ListingEdited",
      "type": "event"
    },
    {
      "anonymous": false,
      "inputs": [
        {
          "indexed": true,
          "internalType": "uint256",
          "name": "bookingId",
          "type": "uint256"
        },
        {
          "indexed": true,
          "internalType": "address",
          "name": "by",
          "type": "address"
        }
      ],
      "name": "PickupConfirmed",
      "type": "event"
    },
    {
      "anonymous": false,
      "inputs": [
        {
          "indexed": true,
          "internalType": "uint256",
          "name": "bookingId",
          "type": "uint256"
        },
        {
          "indexed": true,
          "internalType": "address",
          "name": "by",
          "type": "address"
        }
      ],
      "name": "ReturnConfirmed",
      "type": "event"
    },
    {
      "anonymous": false,
      "inputs": [
        {
          "indexed": true,
          "internalType": "address",
          "name": "user",
          "type": "address"
        }
      ],
      "name": "UserRegistered",
      "type": "event"
    },
    {
      "inputs": [],
      "name": "arbitrator",
      "outputs": [
        {
          "internalType": "address",
          "name": "",
          "type": "address"
        }
      ],
      "stateMutability": "view",
      "type": "function",
      "constant": true
    },
    {
      "inputs": [
        {
          "internalType": "address",
          "name": "",
          "type": "address"
        }
      ],
      "name": "balances",
      "outputs": [
        {
          "internalType": "uint256",
          "name": "",
          "type": "uint256"
        }
      ],
      "stateMutability": "view",
      "type": "function",
      "constant": true
    },
    {
      "inputs": [
        {
          "internalType": "uint256",
          "name": "",
          "type": "uint256"
        }
      ],
      "name": "bookings",
      "outputs": [
        {
          "internalType": "uint256",
          "name": "listingId",
          "type": "uint256"
        },
        {
          "internalType": "address payable",
          "name": "renter",
          "type": "address"
        },
        {
          "internalType": "uint64",
          "name": "startDate",
          "type": "uint64"
        },
        {
          "internalType": "uint64",
          "name": "endDate",
          "type": "uint64"
        },
        {
          "internalType": "uint256",
          "name": "rentalCost",
          "type": "uint256"
        },
        {
          "internalType": "uint256",
          "name": "deposit",
          "type": "uint256"
        },
        {
          "internalType": "enum CarRental.BookingStatus",
          "name": "status",
          "type": "uint8"
        },
        {
          "internalType": "bool",
          "name": "renterPickup",
          "type": "bool"
        },
        {
          "internalType": "bool",
          "name": "ownerPickup",
          "type": "bool"
        },
        {
          "internalType": "bool",
          "name": "renterReturn",
          "type": "bool"
        },
        {
          "internalType": "bool",
          "name": "ownerReturn",
          "type": "bool"
        },
        {
          "internalType": "string",
          "name": "pickupProofURI_renter",
          "type": "string"
        },
        {
          "internalType": "string",
          "name": "pickupProofURI_owner",
          "type": "string"
        },
        {
          "internalType": "string",
          "name": "returnProofURI_renter",
          "type": "string"
        },
        {
          "internalType": "string",
          "name": "returnProofURI_owner",
          "type": "string"
        },
        {
          "internalType": "uint256",
          "name": "escrow",
          "type": "uint256"
        }
      ],
      "stateMutability": "view",
      "type": "function",
      "constant": true
    },
    {
      "inputs": [],
      "name": "insuranceVerifier",
      "outputs": [
        {
          "internalType": "address",
          "name": "",
          "type": "address"
        }
      ],
      "stateMutability": "view",
      "type": "function",
      "constant": true
    },
    {
      "inputs": [
        {
          "internalType": "uint256",
          "name": "",
          "type": "uint256"
        }
      ],
      "name": "listings",
      "outputs": [
        {
          "internalType": "address payable",
          "name": "ownerAddr",
          "type": "address"
        },
        {
          "internalType": "uint256",
          "name": "dailyPrice",
          "type": "uint256"
        },
        {
          "internalType": "uint256",
          "name": "securityDeposit",
          "type": "uint256"
        },
        {
          "internalType": "bool",
          "name": "active",
          "type": "bool"
        },
        {
          "internalType": "bool",
          "name": "insuranceValid",
          "type": "bool"
        },
        {
          "internalType": "string",
          "name": "insuranceDocURI",
          "type": "string"
        },
        {
          "internalType": "string",
          "name": "make",
          "type": "string"
        },
        {
          "internalType": "string",
          "name": "model",
          "type": "string"
        },
        {
          "internalType": "uint256",
          "name": "year",
          "type": "uint256"
        },
        {
          "internalType": "string",
          "name": "location",
          "type": "string"
        }
      ],
      "stateMutability": "view",
      "type": "function",
      "constant": true
    },
    {
      "inputs": [],
      "name": "owner",
      "outputs": [
        {
          "internalType": "address",
          "name": "",
          "type": "address"
        }
      ],
      "stateMutability": "view",
      "type": "function",
      "constant": true
    },
    {
      "inputs": [],
      "name": "platformFeeBps",
      "outputs": [
        {
          "internalType": "uint16",
          "name": "",
          "type": "uint16"
        }
      ],
      "stateMutability": "view",
      "type": "function",
      "constant": true
    },
    {
      "inputs": [
        {
          "internalType": "uint256",
          "name": "",
          "type": "uint256"
        }
      ],
      "name": "rateOwnerScore",
      "outputs": [
        {
          "internalType": "uint8",
          "name": "value",
          "type": "uint8"
        },
        {
          "internalType": "bool",
          "name": "set",
          "type": "bool"
        }
      ],
      "stateMutability": "view",
      "type": "function",
      "constant": true
    },
    {
      "inputs": [
        {
          "internalType": "uint256",
          "name": "",
          "type": "uint256"
        }
      ],
      "name": "rateRenterScore",
      "outputs": [
        {
          "internalType": "uint8",
          "name": "value",
          "type": "uint8"
        },
        {
          "internalType": "bool",
          "name": "set",
          "type": "bool"
        }
      ],
      "stateMutability": "view",
      "type": "function",
      "constant": true
    },
    {
      "inputs": [
        {
          "internalType": "address",
          "name": "",
          "type": "address"
        }
      ],
      "name": "users",
      "outputs": [
        {
          "internalType": "bool",
          "name": "registered",
          "type": "bool"
        }
      ],
      "stateMutability": "view",
      "type": "function",
      "constant": true
    },
    {
      "inputs": [
        {
          "internalType": "address",
          "name": "_insuranceVerifier",
          "type": "address"
        },
        {
          "internalType": "address",
          "name": "_arbitrator",
          "type": "address"
        }
      ],
      "name": "setRoles",
      "outputs": [],
      "stateMutability": "nonpayable",
      "type": "function"
    },
    {
      "inputs": [
        {
          "internalType": "uint16",
          "name": "_feeBps",
          "type": "uint16"
        }
      ],
      "name": "setPlatformFee",
      "outputs": [],
      "stateMutability": "nonpayable",
      "type": "function"
    },
    {
      "inputs": [],
      "name": "register",
      "outputs": [],
      "stateMutability": "nonpayable",
      "type": "function"
    },
    {
      "inputs": [
        {
          "internalType": "uint256",
          "name": "dailyPrice",
          "type": "uint256"
        },
        {
          "internalType": "uint256",
          "name": "securityDeposit",
          "type": "uint256"
        },
        {
          "internalType": "string",
          "name": "insuranceDocURI",
          "type": "string"
        },
        {
          "internalType": "string",
          "name": "make",
          "type": "string"
        },
        {
          "internalType": "string",
          "name": "model",
          "type": "string"
        },
        {
          "internalType": "uint256",
          "name": "year",
          "type": "uint256"
        },
        {
          "internalType": "string",
          "name": "location",
          "type": "string"
        }
      ],
      "name": "createListing",
      "outputs": [
        {
          "internalType": "uint256",
          "name": "id",
          "type": "uint256"
        }
      ],
      "stateMutability": "nonpayable",
      "type": "function"
    },
    {
      "inputs": [
        {
          "internalType": "uint256",
          "name": "listingId",
          "type": "uint256"
        },
        {
          "internalType": "uint256",
          "name": "dailyPrice",
          "type": "uint256"
        },
        {
          "internalType": "uint256",
          "name": "securityDeposit",
          "type": "uint256"
        },
        {
          "internalType": "string",
          "name": "insuranceDocURI",
          "type": "string"
        },
        {
          "internalType": "string",
          "name": "make",
          "type": "string"
        },
        {
          "internalType": "string",
          "name": "model",
          "type": "string"
        },
        {
          "internalType": "uint256",
          "name": "year",
          "type": "uint256"
        },
        {
          "internalType": "string",
          "name": "location",
          "type": "string"
        }
      ],
      "name": "editListing",
      "outputs": [],
      "stateMutability": "nonpayable",
      "type": "function"
    },
    {
      "inputs": [
        {
          "internalType": "uint256",
          "name": "listingId",
          "type": "uint256"
        },
        {
          "internalType": "bool",
          "name": "active_",
          "type": "bool"
        }
      ],
      "name": "setListingActive",
      "outputs": [],
      "stateMutability": "nonpayable",
      "type": "function"
    },
    {
      "inputs": [
        {
          "internalType": "uint256",
          "name": "listingId",
          "type": "uint256"
        },
        {
          "internalType": "bool",
          "name": "valid",
          "type": "bool"
        }
      ],
      "name": "verifyInsurance",
      "outputs": [],
      "stateMutability": "nonpayable",
      "type": "function"
    },
    {
      "inputs": [
        {
          "internalType": "uint256",
          "name": "listingId",
          "type": "uint256"
        },
        {
          "internalType": "uint64",
          "name": "startDate",
          "type": "uint64"
        },
        {
          "internalType": "uint64",
          "name": "endDate",
          "type": "uint64"
        }
      ],
      "name": "requestBooking",
      "outputs": [
        {
          "internalType": "uint256",
          "name": "id",
          "type": "uint256"
        }
      ],
      "stateMutability": "payable",
      "type": "function",
      "payable": true
    },
    {
      "inputs": [
        {
          "internalType": "uint256",
          "name": "bookingId",
          "type": "uint256"
        }
      ],
      "name": "approveBooking",
      "outputs": [],
      "stateMutability": "nonpayable",
      "type": "function"
    },
    {
      "inputs": [
        {
          "internalType": "uint256",
          "name": "bookingId",
          "type": "uint256"
        }
      ],
      "name": "rejectBooking",
      "outputs": [],
      "stateMutability": "nonpayable",
      "type": "function"
    },
    {
      "inputs": [
        {
          "internalType": "uint256",
          "name": "bookingId",
          "type": "uint256"
        }
      ],
      "name": "cancelBeforeActive",
      "outputs": [],
      "stateMutability": "nonpayable",
      "type": "function"
    },
    {
      "inputs": [
        {
          "internalType": "uint256",
          "name": "bookingId",
          "type": "uint256"
        },
        {
          "internalType": "string",
          "name": "proofURI",
          "type": "string"
        }
      ],
      "name": "confirmPickup",
      "outputs": [],
      "stateMutability": "nonpayable",
      "type": "function"
    },
    {
      "inputs": [
        {
          "internalType": "uint256",
          "name": "bookingId",
          "type": "uint256"
        },
        {
          "internalType": "string",
          "name": "proofURI",
          "type": "string"
        }
      ],
      "name": "confirmReturn",
      "outputs": [],
      "stateMutability": "nonpayable",
      "type": "function"
    },
    {
      "inputs": [
        {
          "internalType": "uint256",
          "name": "bookingId",
          "type": "uint256"
        }
      ],
      "name": "openDispute",
      "outputs": [],
      "stateMutability": "nonpayable",
      "type": "function"
    },
    {
      "inputs": [
        {
          "internalType": "uint256",
          "name": "bookingId",
          "type": "uint256"
        },
        {
          "internalType": "uint256",
          "name": "ownerPayout",
          "type": "uint256"
        },
        {
          "internalType": "uint256",
          "name": "renterPayout",
          "type": "uint256"
        }
      ],
      "name": "resolveDispute",
      "outputs": [],
      "stateMutability": "nonpayable",
      "type": "function"
    },
    {
      "inputs": [
        {
          "internalType": "uint256",
          "name": "bookingId",
          "type": "uint256"
        },
        {
          "internalType": "uint8",
          "name": "score",
          "type": "uint8"
        }
      ],
      "name": "rateOwner",
      "outputs": [],
      "stateMutability": "nonpayable",
      "type": "function"
    },
    {
      "inputs": [
        {
          "internalType": "uint256",
          "name": "bookingId",
          "type": "uint256"
        },
        {
          "internalType": "uint8",
          "name": "score",
          "type": "uint8"
        }
      ],
      "name": "rateRenter",
      "outputs": [],
      "stateMutability": "nonpayable",
      "type": "function"
    },
    {
      "inputs": [],
      "name": "withdraw",
      "outputs": [],
      "stateMutability": "nonpayable",
      "type": "function"
    }
  ],
  "bytecode": "0x608034620000cf57601f62002bbe38819003918201601f19168301916001600160401b03831184841017620000d357808492606094604052833981010312620000cf576200004d81620000e7565b60406200005d60208401620000e7565b9201519061ffff82168203620000cf57600160078190555f80546001600160a01b031990811633179091558154166001600160a01b03928316179055600280546001600160b01b031916939091169290921760a09190911b61ffff60a01b16179055604051612ac19081620000fd8239f35b5f80fd5b634e487b7160e01b5f52604160045260245ffd5b51906001600160a01b0382168203620000cf5756fe6080806040526004361015610012575f80fd5b5f3560e01c9081631aa3a008146123aa575080631dab301e1461224757806322dcd13e14612223578063267070ad1461211157806327d00fb01461203257806327e235e314611ffa5780632fd5402914611f395780633898a6b3146118d25780633ccfd60b146118425780633fabe74f146116a95780633feb94751461166d5780635549756c146116045780635cbc742c146115725780635f42c4da1461115b57806362c514f4146110ae5780636c65bd9214610c9f5780636cbc87da146109e15780636cc6cde1146109b95780637599f54f14610991578063857d239b1461089a5780638a2c55221461084f5780638da5cb5b146108285780639eb42b9e14610471578063a24e0ea214610393578063a87430ba14610356578063a9621af6146102b7578063de74e57b146101b95763f6072a1014610150575f80fd5b346101b55760403660031901126101b5576101696125f9565b6024356001600160a01b0381811692918390036101b55761018e815f54163314612998565b6bffffffffffffffffffffffff60a01b911681600154161760015560025416176002555f80f35b5f80fd5b346101b55760203660031901126101b5576004356004548110156101b5576101e260409161268e565b50805460018201546002830154600384015491936102b393909261029e91610290906001600160a01b031661028261021c600488016124f9565b610228600589016124f9565b9260ff61023760068b016124f9565b96610249600860078d01549c016124f9565b998e519e8f9e8f90610140968252602082015201528c6060838316151591015260081c16151560808c01528060a08c01528a019061259b565b9088820360c08a015261259b565b9086820360e088015261259b565b9161010085015283820361012085015261259b565b0390f35b346101b55760203660031901126101b55760043560056102d682612438565b506102f66102e4825461268e565b50546001600160a01b031633146127db565b01805460ff811690600982101561034257610315600160029314612769565b60ff19161790557fa0135758a7a152fbc51fc651f1214b629c474d76f3dcbe6095def00eaf87f18c5f80a2005b634e487b7160e01b5f52602160045260245ffd5b346101b55760203660031901126101b5576001600160a01b036103776125f9565b165f526003602052602060ff60405f2054166040519015158152f35b346101b5576103a1366125d9565b906103ab81612438565b5060ff600582015416926009841015610342576103e760ff926103d3600561046497146126c7565b600101546001600160a01b031633146129d3565b1690600182101580610466575b6103fd90612703565b805f52600860205261041960ff60405f205460081c1615612735565b60405191610426836124bd565b82526020820190600182525f52600860205260ff60405f2092511660ff1983541617825551151561ff00825491151560081b169061ff001916179055565b005b5060058211156103f4565b60603660031901126101b55760043560248035916001600160401b0390818416938481036101b55760449283359081168091036101b557335f52602095600387526104c260ff60405f20541661281b565b6001546001600160a01b039190821633146107d95781600254163314610796576104eb8561268e565b5091825416331461075357600382015460ff81161561071d5760081c60ff16156106e457808311156106b55761052562015180918461296b565b0480156106865761053c6002916001840154612985565b91019161054a835483612978565b95863403610651575060055496600160401b88101561063e57600188018060055561057489612438565b5050881161062b575091859391600a9361058d89612438565b509387855560018501908154906001600160401b0360a01b9060a01b16906001600160401b0360a01b1933169063ffffffff60e01b161717905560028401906001600160401b0319825416179055600383015554600482015560058101600160ff198254161790550155604051918252827fccf64f7160f860aa529bd13ee78679de073ff8e017433570a494477ea0563a43853394a4604051908152f35b634e487b7160e01b5f9081526011600452fd5b634e487b7160e01b5f9081526041600452fd5b886f696e636f727265637420657363726f7760801b60649260108b6040519462461bcd60e51b86526004860152840152820152fd5b60405162461bcd60e51b815260048101899052600981890152686d696e20312064617960b81b81880152606490fd5b60405162461bcd60e51b81526004810189905260098189015268195b990f9cdd185c9d60ba1b81880152606490fd5b60405162461bcd60e51b815260048101899052601381890152721a5b9cdd5c985b98d9481b9bdd081d985b1a59606a1b81880152606490fd5b60405162461bcd60e51b8152600481018a90526010818a01526f6c697374696e6720696e61637469766560801b81890152606490fd5b60405162461bcd60e51b8152600481018990526017818901527f63616e6e6f7420626f6f6b206f776e206c697374696e6700000000000000000081880152606490fd5b60405162461bcd60e51b815260048101899052601b818901527f61726269747261746f722063616e6e6f7420626f6f6b2063617273000000000081880152606490fd5b60405162461bcd60e51b8152600481018990526023818901527f696e737572616e63652076657269666965722063616e6e6f7420626f6f6b2063818801526261727360e81b6064820152608490fd5b346101b5575f3660031901126101b5575f546040516001600160a01b039091168152602090f35b346101b55760203660031901126101b5576004355f5260096020526102b360405f2054604051918160ff80859460081c1691168390929160209060ff60408401951683521515910152565b346101b55760203660031901126101b5576004356108bc6001600754146127a2565b60026007556108ca81612438565b50600581019081549060ff821660098110156103425760018114908115610986575b501561095157610926926007600a60018060a01b03600185015416936109138533146129d3565b01935f8554955560ff1916179055612a0d565b7ff774c001cb52a3566b767ed6e37c92706acb2b80a3ff6049e2849cd62725d0855f80a26001600755005b60405162461bcd60e51b815260206004820152600d60248201526c18d85b9b9bdd0818d85b98d95b609a1b6044820152606490fd5b6002915014856108ec565b346101b5575f3660031901126101b5576001546040516001600160a01b039091168152602090f35b346101b5575f3660031901126101b5576002546040516001600160a01b039091168152602090f35b346101b5576109ef3661265b565b6109fa839293612438565b5092610a06845461268e565b5091600585019485549060ff8216600981101561034257600203610c6b5760018181015490956001600160a01b03913390831603610b80575050865461ff0019166101001787556006019390506001600160401b038211610b6c57610a7582610a6f8654612485565b8661291c565b5f90601f8311600114610b0557508190610aa4935f92610afa575b50508160011b915f199060031b1c19161790565b90555b33907f7f44dc96dfe82556f254203e555fa87ce76986f76eb50fc73d105558207ebb585f80a3805460ff8160081c1680610aed575b610ae257005b60ff19166003179055005b5060ff8160101c16610adc565b013590508680610a90565b92601f19831691855f528360209360205f20945f905b88838310610b525750505010610b39575b505050811b019055610aa7565b01355f19600384901b60f8161c19169055858080610b2c565b868601358855909601959384019387935090810190610b1b565b634e487b7160e01b5f52604160045260245ffd5b541633145f14610c3a576201000060079262ff0000191617875501926001600160401b038211610b6c57610bb882610a6f8654612485565b5f90601f8311600114610bed57508190610be6935f92610afa5750508160011b915f199060031b1c19161790565b9055610aa7565b92601f19831691855f528360209360205f20945f905b88838310610c205750505010610b3957505050811b019055610aa7565b868601358855909601959384019387935090810190610c03565b60405162461bcd60e51b81526020600482015260096024820152686e6f7420706172747960b81b6044820152606490fd5b60405162461bcd60e51b815260206004820152600c60248201526b1b9bdd08185c1c1c9bdd995960a21b6044820152606490fd5b346101b5576101003660031901126101b5576004356001600160401b036024356064358281116101b557610cd790369060040161260f565b90916084358481116101b557610cf190369060040161260f565b929060a4358681116101b557610d0b90369060040161260f565b60c4359260e4358981116101b557610d2790369060040161260f565b979098610d338c61268e565b5096610d4960018060a01b0389541633146127db565b610d54891515612858565b61076c8711806110a2575b610d6890612890565b60019889890155604435600289015560048801918c8211610b6c57610d9782610d918554612485565b8561291c565b5f90601f831160011461103b57610dc492915f91836110305750508160011b915f199060031b1c19161790565b90555b60058601918a8211610b6c57610de182610d918554612485565b5f90601f8311600114610fc957610e0e92915f9183610fbe5750508160011b915f199060031b1c19161790565b90555b6006840191888211610b6c57610e2b82610d918554612485565b5f90601f8311600114610f50579180610e5e926008979695945f92610f455750508160011b915f199060031b1c19161790565b90555b600782015501938211610b6c57610e7c82610a6f8654612485565b5f90601f8311600114610ede57508190610eaa935f92610ed35750508160011b915f199060031b1c19161790565b90555b7f4c520ab09d5e06c4894077fa644a2085c63bd037543118226e3428b47423ebb55f80a2005b013590508580610a90565b92601f19831691855f528360209360205f20945f905b88838310610f2b5750505010610f12575b505050811b019055610ead565b01355f19600384901b60f8161c19169055848080610f05565b868601358855909601959384019387935090810190610ef4565b013590508c80610a90565b91869195949392601f19821690845f5260209160205f20925f905b828210610fa5575050978360089910610f8c575b505050811b019055610e61565b01355f19600384901b60f8161c191690558b8080610f7f565b8a8401358555998a01998b969094019390810190610f6b565b013590508d80610a90565b90889291601f19831691855f5260209260205f20935f905b8282106110175750508411610ffe575b505050811b019055610e11565b01355f19600384901b60f8161c191690558c8080610ff1565b8385013586558d97909501949283019290810190610fe1565b013590508f80610a90565b908a9291601f19831691855f5260209260205f20935f905b8282106110895750508411611070575b505050811b019055610dc7565b01355f19600384901b60f8161c191690558e8080611063565b8385013586558f97909501949283019290810190611053565b50610834871115610d5f565b346101b5576110bc3661263c565b6001546001600160a01b031633036111265760208161111b7f407f6d6347d33597d66cbccf076e0edec1897f54ef9b615e3ceeea3b84ca71009360036111018761268e565b50019061ff00825491151560081b169061ff001916179055565b6040519015158152a2005b60405162461bcd60e51b815260206004820152600d60248201526c6e6f7420696e737572616e636560981b6044820152606490fd5b346101b5576111693661265b565b6001929161117a84600754146127a2565b600260075561118883612438565b5090611194825461268e565b5092600583019283549060ff821660098110156103425760038114908115611567575b501561153557808801546001600160a01b039687913390831603611478575050845463ff000000191663010000001785556008019290506001600160401b038211610b6c5761120a82610d918554612485565b5f90601f83116001146114115761123792915f91836114065750508160011b915f199060031b1c19161790565b90555b33837f8e823f38cc816af62efd341a51dee8f420e5fd62f6c8483c16186967968b86615f80a3805460ff8160181c16806113f9575b156113e857505061127f82612438565b5061128a815461268e565b50600582019160ff8354166009811015610342578060036112b492149081156113dd575b50612769565b6003810154926127106112d061ffff60025460a01c1686612985565b04906112dc828661296b565b93600484015495600a8501906112f488835492612978565b036113a65787808b61139d977f05b7b4c873ca1f8b454c7ecb8fe749d8241d28083d9a966e4f1f40604db97a789b5f965416865260066020526040862061133c8b8254612978565b90550154168352600660205260408320611357898254612978565b90558254168252600660205260408220611372858254612978565b905555600560ff19825416179055604051938493846040919493926060820195825260208201520152565b0390a25b600755005b60405162461bcd60e51b815260206004820152600f60248201526e0cae6c6e4deee40dad2e6dac2e8c6d608b1b6044820152606490fd5b6004915014886112ae565b60ff19166004179055506113a19050565b5060ff8160201c1661126f565b013590508880610a90565b90879291601f19831691855f5260209260205f20935f905b82821061145f5750508411611446575b505050811b01905561123a565b01355f19600384901b60f8161c19169055878080611439565b8385013586558c97909501949283019290810190611429565b541633145f14610c3a5764010000000060099264ff00000000191617855501916001600160401b038211610b6c576114b482610d918554612485565b5f90601f83116001146114e8576114e192915f91836114065750508160011b915f199060031b1c19161790565b905561123a565b90879291601f19831691855f5260209260205f20935f905b82821061151c575050841161144657505050811b01905561123a565b8385013586558c97909501949283019290810190611500565b60405162461bcd60e51b815260206004820152600a6024820152696e6f742061637469766560b01b6044820152606490fd5b6004915014896111b7565b346101b55760203660031901126101b55760043561ffff81168082036101b5576103e8906115aa60018060a01b035f54163314612998565b116115d0576002805461ffff60a01b191660a09290921b61ffff60a01b16919091179055005b60405162461bcd60e51b815260206004820152600c60248201526b0cccaca40e8dede40d0d2ced60a31b6044820152606490fd5b346101b55760207f0d85d5ffd1953217a27952a606aa782203679f724633773992d529af76ef69506116353661263c565b61111b81600361164685979561268e565b5061165b60018060a01b0382541633146127db565b019060ff801983541691151516179055565b346101b55760203660031901126101b5576004355f9081526008602081815260409283902054835160ff80831682529190931c16151590820152f35b346101b55760603660031901126101b5576004356024356044356116d16001600754146127a2565b60026007819055546001600160a01b0392838216330361180c576116f485612438565b5090611700825461268e565b5092600583019060ff8254166009811015610342576008036117d8576117268684612978565b600a85019081540361179f5787806001611795977f05b7b4c873ca1f8b454c7ecb8fe749d8241d28083d9a966e4f1f40604db97a789b61177c61271061177461ffff5f9a60a01c168c612985565b04809a61296b565b9a5416865260066020526040862061133c8b8254612978565b0390a26001600755005b60405162461bcd60e51b81526020600482015260116024820152706d7573742073706c697420657363726f7760781b6044820152606490fd5b60405162461bcd60e51b815260206004820152600c60248201526b1b9bdd08191a5cdc1d5d195960a21b6044820152606490fd5b60405162461bcd60e51b815260206004820152600e60248201526d3737ba1030b93134ba3930ba37b960911b6044820152606490fd5b346101b5575f3660031901126101b5576118606001600754146127a2565b6002600755335f52600660205260405f205480156118975761189090335f5260066020525f604081205533612a0d565b6001600755005b60405162461bcd60e51b81526020600482015260136024820152726e6f7468696e6720746f20776974686472617760681b6044820152606490fd5b346101b55760e03660031901126101b5576044356001600160401b0381116101b55761190290369060040161260f565b906064356001600160401b0381116101b55761192290369060040161260f565b9190926084356001600160401b0381116101b55761194490369060040161260f565b919060c4356001600160401b0381116101b55761196590369060040161260f565b939094335f52600360205261198060ff60405f20541661281b565b6001546001600160a01b03163314611ee2576002546001600160a01b03163314611e93576119b16004351515612858565b61076c60a4351180611e85575b6119c790612890565b60405197886101408101106001600160401b036101408b011117610b6c57611a5097611a23611a2f93611a3b975f60808e61014081016040523381526004356020820152602435604082015260016060820152015236916128e6565b60a08b015236916128e6565b60c088015236916128e6565b60e085015260a43561010085015236916128e6565b610120820152600454600160401b811015610b6c57806001611a75920160045561268e565b919091611e725760018060a01b038151166bffffffffffffffffffffffff60a01b8354161782556020810151600183015560408101516002830155611aee60038301611ad360608401511515829060ff801983541691151516179055565b6080830151815461ff00191690151560081b61ff0016179055565b600482019160a08201519283516001600160401b038111610b6c57611b1d81611b178454612485565b8461291c565b602094601f8211600114611e1057611b4e9293949582915f92611da35750508160011b915f199060031b1c19161790565b90555b600581019160c08101519283516001600160401b038111610b6c57611b7a81611b178454612485565b602094601f8211600114611dae57611bab9293949582915f92611da35750508160011b915f199060031b1c19161790565b90555b600682019160e08201519283516001600160401b038111610b6c57611bd781611b178454612485565b6020601f8211600114611d3857816008949392611c0d9261012097985f92611d2d5750508160011b915f199060031b1c19161790565b90555b6101008401516007820155019101519081516001600160401b038111610b6c57611c3e81611b178454612485565b602092601f8211600114611ccd57611c6d929382915f92611cc25750508160011b915f199060031b1c19161790565b90555b6004545f198101908111611cae5760405160209133817f4e0f9c4c10f3933a613addba91d6bd94f54a77e3e2748707ee7fe140aef218c55f80a38152f35b634e487b7160e01b5f52601160045260245ffd5b015190508480610a90565b601f19821693835f5260205f20915f5b868110611d155750836001959610611cfd575b505050811b019055611c70565b01515f1960f88460031b161c19169055838080611cf0565b91926020600181928685015181550194019201611cdd565b015190508880610a90565b601f19821695835f5260205f20965f5b818110611d8b57509660019284926008979695610120999a10611d73575b505050811b019055611c10565b01515f1960f88460031b161c19169055878080611d66565b83830151895560019098019760209384019301611d48565b015190508680610a90565b601f19821695835f5260205f20915f5b888110611df857508360019596979810611de0575b505050811b019055611bae565b01515f1960f88460031b161c19169055858080611dd3565b91926020600181928685015181550194019201611dbe565b601f19821695835f5260205f20915f5b888110611e5a57508360019596979810611e42575b505050811b019055611b51565b01515f1960f88460031b161c19169055858080611e35565b91926020600181928685015181550194019201611e20565b634e487b7160e01b5f525f60045260245ffd5b5061083460a43511156119be565b60405162461bcd60e51b815260206004820152602160248201527f61726269747261746f722063616e6e6f7420637265617465206c697374696e676044820152607360f81b6064820152608490fd5b60405162461bcd60e51b815260206004820152602960248201527f696e737572616e63652076657269666965722063616e6e6f7420637265617465604482015268206c697374696e677360b81b6064820152608490fd5b346101b55760203660031901126101b557600435611f5b6001600754146127a2565b6002600755611f6981612438565b50611f74815461268e565b50546001600160a01b039190611f8d90831633146127db565b600581019182549160ff831690600982101561034257611fcf94611fb46001809414612769565b6006600a8301955f8754975560ff1916179055015416612a0d565b7f6dda7094ca195e26efe2cf69536896d308e1876357ff952db64326381dc394135f80a26001600755005b346101b55760203660031901126101b5576001600160a01b0361201b6125f9565b165f526006602052602060405f2054604051908152f35b346101b55760203660031901126101b55760043561204f81612438565b5061205a815461268e565b506001820154336001600160a01b0391821614918215612103575b505015610c3a57600501805460ff8116906009821015918261034257600281149283156120f6575b83156120e0575b50506120b1600892612769565b60ff191617905533907f5510d5e6aae1240aa1a06dbdba1a2738d59705856a2b2dd100fad8db8c93ed4b5f80a3005b909250610342576120b1600460089314926120a4565b506003811492505f61209d565b909150541633148380612075565b346101b55761211f366125d9565b9061212981612438565b5060ff6005612138835461268e565b50549201546001600160a01b039092169116600981101561034257600561215f91146126c7565b33036121f15760ff6104649216906001821015806121e6575b61218190612703565b805f52600960205261219d60ff60405f205460081c1615612735565b604051916121aa836124bd565b8252600160208084019182525f92835260099052604090912091518254915161ffff1990921660ff919091161790151560081b61ff0016179055565b506005821115612178565b60405162461bcd60e51b815260206004820152600a60248201526937b7363c9037bbb732b960b11b6044820152606490fd5b346101b5575f3660031901126101b557602061ffff60025460a01c16604051908152f35b346101b55760203660031901126101b5576004356005548110156101b55761226e90612438565b5080546001820154916001600160401b0390816002820154169060038101549360048201549260058301549560ff8716906122ab600686016124f9565b956122b8600787016124f9565b916122c5600888016124f9565b94600a6122d460098a016124f9565b980154996040519c8d9861020099528d602060018060a01b03831691015260a01c1660408d015260608c015260808b015260a08a015260098210156103425761237261239f966123909560ff8c9b6123819660c08e01528c60e0838360081c1615159101528c610100838360101c1615159101528c610120838360181c16151591015260201c1615156101408c0152806101608c01528a019061259b565b908882036101808a015261259b565b908682036101a088015261259b565b908482036101c086015261259b565b906101e08301520390f35b346101b5575f3660031901126101b557335f52600360205260ff60405f20541661240c57335f52600360205260405f20600160ff19825416179055337f54db7a5cb4735e1aac1f53db512d3390390bb6637bd30ad4bf9fc98667d9b9b95f80a2005b62461bcd60e51b8152602060048201526007602482015266616c726561647960c81b6044820152606490fd5b60055481101561247157600b9060055f52027f036b6384b5eca791c62761152d0c79bb0604c104a5fb6f4eb0703f3154bb3db001905f90565b634e487b7160e01b5f52603260045260245ffd5b90600182811c921680156124b3575b602083101461249f57565b634e487b7160e01b5f52602260045260245ffd5b91607f1691612494565b604081019081106001600160401b03821117610b6c57604052565b90601f801991011681019081106001600160401b03821117610b6c57604052565b9060405191825f825461250b81612485565b908184526020946001916001811690815f14612579575060011461253b575b505050612539925003836124d8565b565b5f90815285812095935091905b81831061256157505061253993508201015f808061252a565b85548884018501529485019487945091830191612548565b9250505061253994925060ff191682840152151560051b8201015f808061252a565b91908251928382525f5b8481106125c5575050825f602080949584010152601f8019910116010190565b6020818301810151848301820152016125a5565b60409060031901126101b5576004359060243560ff811681036101b55790565b600435906001600160a01b03821682036101b557565b9181601f840112156101b5578235916001600160401b0383116101b557602083818601950101116101b557565b60409060031901126101b5576004359060243580151581036101b55790565b9060406003198301126101b55760043591602435906001600160401b0382116101b55761268a9160040161260f565b9091565b6004548110156124715760099060045f52027f8a35acfbc15ff81a39ae7d344fd709f28e8600b4aa8c65c6b64bfe7fe36bd19b01905f90565b156126ce57565b60405162461bcd60e51b815260206004820152600d60248201526c1b9bdd0818dbdb5c1b195d1959609a1b6044820152606490fd5b1561270a57565b606460405162461bcd60e51b8152602060048201526004602482015263312e2e3560e01b6044820152fd5b1561273c57565b60405162461bcd60e51b81526020600482015260056024820152641c985d195960da1b6044820152606490fd5b1561277057565b60405162461bcd60e51b815260206004820152600a6024820152696261642073746174757360b01b6044820152606490fd5b156127a957565b60405162461bcd60e51b815260206004820152600a6024820152697265656e7472616e637960b01b6044820152606490fd5b156127e257565b60405162461bcd60e51b81526020600482015260116024820152703737ba103634b9ba34b7339037bbb732b960791b6044820152606490fd5b1561282257565b60405162461bcd60e51b815260206004820152600e60248201526d1c9959da5cdd195c88199a5c9cdd60921b6044820152606490fd5b1561285f57565b60405162461bcd60e51b815260206004820152600960248201526862616420707269636560b81b6044820152606490fd5b1561289757565b60405162461bcd60e51b815260206004820152600c60248201526b34b73b30b634b2103cb2b0b960a11b6044820152606490fd5b6001600160401b038111610b6c57601f01601f191660200190565b9291926128f2826128cb565b9161290060405193846124d8565b8294818452818301116101b5578281602093845f960137010152565b601f821161292957505050565b5f5260205f20906020601f840160051c83019310612961575b601f0160051c01905b818110612956575050565b5f815560010161294b565b9091508190612942565b91908203918211611cae57565b91908201809211611cae57565b81810292918115918404141715611cae57565b1561299f57565b60405162461bcd60e51b815260206004820152600c60248201526b6e6f7420706c6174666f726d60a01b6044820152606490fd5b156129da57565b60405162461bcd60e51b815260206004820152600b60248201526a37b7363c903932b73a32b960a91b6044820152606490fd5b5f918291829182916001600160a01b03165af13d15612a86573d612a30816128cb565b90612a3e60405192836124d8565b81525f60203d92013e5b15612a4f57565b60405162461bcd60e51b815260206004820152600f60248201526e1d1c985b9cd9995c8819985a5b1959608a1b6044820152606490fd5b612a4856fea264697066735822122090b16b9ff669e330e7febf50eabf58fd7c3f4b78cb7ef874ac1b648ebd46fd9f64736f6c63430008180033",
  "immutableReferences": {},
  "source": "// SPDX-License-Identifier: MIT\npragma solidity ^0.8.0;\n\ncontract CarRental {\n    /* =========================== Roles & Config =========================== */\n\n    address public owner;                 // contract owner (platform)\n    address public insuranceVerifier;     // role\n    address public arbitrator;            // role\n    uint16  public platformFeeBps;        // optional marketplace fee on rental (not deposit), e.g., 200 = 2%\n\n    modifier onlyOwner() { require(msg.sender == owner, \"not platform\"); _; }\n    modifier onlyInsurance() { require(msg.sender == insuranceVerifier, \"not insurance\"); _; }\n    modifier onlyArbitrator() { require(msg.sender == arbitrator, \"not arbitrator\"); _; }\n\n    constructor(address _insuranceVerifier, address _arbitrator, uint16 _feeBps) {\n        owner = msg.sender;\n        insuranceVerifier = _insuranceVerifier;\n        arbitrator = _arbitrator;\n        platformFeeBps = _feeBps; // can be 0\n    }\n\n    function setRoles(address _insuranceVerifier, address _arbitrator) external onlyOwner {\n        insuranceVerifier = _insuranceVerifier;\n        arbitrator = _arbitrator;\n    }\n\n    function setPlatformFee(uint16 _feeBps) external onlyOwner {\n        require(_feeBps <= 1000, \"fee too high\");\n        platformFeeBps = _feeBps;\n    }\n\n    /* ================================ Users =============================== */\n\n    struct User {\n        bool registered;\n    }\n    mapping(address => User) public users;\n\n    event UserRegistered(address indexed user);\n\n    function register() external {\n        require(!users[msg.sender].registered, \"already\");\n        users[msg.sender].registered = true;\n        emit UserRegistered(msg.sender);\n    }\n\n    /* =============================== Listings ============================= */\n\n    struct Listing {\n        address payable ownerAddr;\n        uint256 dailyPrice;        // in wei per day\n        uint256 securityDeposit;   // in wei\n        bool    active;            // owner can pause/unpause\n        bool    insuranceValid;    // set by InsuranceVerifier\n        string  insuranceDocURI;   // optional\n        string  make;              // car make/brand\n        string  model;             // car model\n        uint256 year;              // car year\n        string  location;          // car location\n    }\n    Listing[] public listings;\n\n    event ListingCreated(uint256 indexed listingId, address indexed owner);\n    event ListingEdited(uint256 indexed listingId);\n    event ListingActive(uint256 indexed listingId, bool active);\n    event InsuranceVerified(uint256 indexed listingId, bool valid);\n\n    function createListing(\n        uint256 dailyPrice,\n        uint256 securityDeposit,\n        string calldata insuranceDocURI,\n        string calldata make,\n        string calldata model,\n        uint256 year,\n        string calldata location\n    ) external returns (uint256 id) {\n        require(users[msg.sender].registered, \"register first\");\n        require(msg.sender != insuranceVerifier, \"insurance verifier cannot create listings\");\n        require(msg.sender != arbitrator, \"arbitrator cannot create listings\");\n        require(dailyPrice > 0, \"bad price\");\n        require(year > 1900 && year <= 2100, \"invalid year\");\n        listings.push(Listing({\n            ownerAddr: payable(msg.sender),\n            dailyPrice: dailyPrice,\n            securityDeposit: securityDeposit,\n            active: true,\n            insuranceValid: false,\n            insuranceDocURI: insuranceDocURI,\n            make: make,\n            model: model,\n            year: year,\n            location: location\n        }));\n        id = listings.length - 1;\n        emit ListingCreated(id, msg.sender);\n    }\n\n    function editListing(\n        uint256 listingId,\n        uint256 dailyPrice,\n        uint256 securityDeposit,\n        string calldata insuranceDocURI,\n        string calldata make,\n        string calldata model,\n        uint256 year,\n        string calldata location\n    ) external {\n        Listing storage L = listings[listingId];\n        require(msg.sender == L.ownerAddr, \"not listing owner\");\n        require(dailyPrice > 0, \"bad price\");\n        require(year > 1900 && year <= 2100, \"invalid year\");\n        L.dailyPrice = dailyPrice;\n        L.securityDeposit = securityDeposit;\n        L.insuranceDocURI = insuranceDocURI;\n        L.make = make;\n        L.model = model;\n        L.year = year;\n        L.location = location;\n        emit ListingEdited(listingId);\n    }\n\n    function setListingActive(uint256 listingId, bool active_) external {\n        Listing storage L = listings[listingId];\n        require(msg.sender == L.ownerAddr, \"not listing owner\");\n        L.active = active_;\n        emit ListingActive(listingId, active_);\n    }\n\n    function verifyInsurance(uint256 listingId, bool valid) external onlyInsurance {\n        listings[listingId].insuranceValid = valid;\n        emit InsuranceVerified(listingId, valid);\n    }\n\n    /* =============================== Bookings ============================= */\n\n    enum BookingStatus {\n        None,\n        Requested,     // renter escrowed funds; waiting for owner approve/reject\n        Approved,      // pickup pending\n        Active,        // pickup confirmed by both\n        ReturnPending, // one party has confirmed return\n        Completed,     // funds split; ratings enabled\n        Rejected,      // rejected by owner; refunded\n        Cancelled,     // cancelled before activation; refunded\n        Disputed       // arbitrator must resolve\n    }\n\n    struct Booking {\n        // immutable-ish\n        uint256 listingId;\n        address payable renter;\n        uint64  startDate;   // unix seconds\n        uint64  endDate;     // unix seconds\n        uint256 rentalCost;  // computed and locked at request time\n        uint256 deposit;     // copied from listing at request time\n\n        // status\n        BookingStatus status;\n        bool renterPickup;\n        bool ownerPickup;\n        bool renterReturn;\n        bool ownerReturn;\n\n        // evidence URIs (optional)\n        string pickupProofURI_renter;\n        string pickupProofURI_owner;\n        string returnProofURI_renter;\n        string returnProofURI_owner;\n\n        // accounting\n        uint256 escrow; // rentalCost + deposit, held until completion or dispute\n    }\n\n    Booking[] public bookings;\n\n    event BookingRequested(uint256 indexed bookingId, uint256 indexed listingId, address indexed renter, uint256 escrow);\n    event BookingApproved(uint256 indexed bookingId);\n    event BookingRejected(uint256 indexed bookingId);\n    event PickupConfirmed(uint256 indexed bookingId, address indexed by);\n    event ReturnConfirmed(uint256 indexed bookingId, address indexed by);\n    event BookingCompleted(uint256 indexed bookingId, uint256 ownerCredit, uint256 renterCredit, uint256 fee);\n    event BookingDisputed(uint256 indexed bookingId, address indexed by);\n    event BookingCancelled(uint256 indexed bookingId);\n\n    // Pull-payment balances\n    mapping(address => uint256) public balances;\n\n    // simple, gas-cheap reentrancy guard\n    uint256 private locked = 1;\n    modifier nonReentrant() {\n        require(locked == 1, \"reentrancy\");\n        locked = 2;\n        _;\n        locked = 1;\n    }\n\n    function daysBetween(uint64 a, uint64 b) internal pure returns (uint256) {\n        require(b > a, \"end>start\");\n        return (uint256(b) - uint256(a)) / 1 days;\n    }\n\n    function requestBooking(\n        uint256 listingId,\n        uint64 startDate,\n        uint64 endDate\n    ) external payable returns (uint256 id) {\n        require(users[msg.sender].registered, \"register first\");\n        require(msg.sender != insuranceVerifier, \"insurance verifier cannot book cars\");\n        require(msg.sender != arbitrator, \"arbitrator cannot book cars\");\n        Listing storage L = listings[listingId];\n        require(msg.sender != L.ownerAddr, \"cannot book own listing\");\n        require(L.active, \"listing inactive\");\n        require(L.insuranceValid, \"insurance not valid\");\n        uint256 numDays = daysBetween(startDate, endDate);\n        require(numDays > 0, \"min 1 day\");\n\n        uint256 rentalCost = L.dailyPrice * numDays;\n        uint256 total = rentalCost + L.securityDeposit;\n        require(msg.value == total, \"incorrect escrow\");\n\n        bookings.push();\n        id = bookings.length - 1;\n        Booking storage B = bookings[id];\n        B.listingId = listingId;\n        B.renter = payable(msg.sender);\n        B.startDate = startDate;\n        B.endDate = endDate;\n        B.rentalCost = rentalCost;\n        B.deposit = L.securityDeposit;\n        B.status = BookingStatus.Requested;\n        B.escrow = total;\n\n        emit BookingRequested(id, listingId, msg.sender, total);\n    }\n\n    function approveBooking(uint256 bookingId) external {\n        Booking storage B = bookings[bookingId];\n        Listing storage L = listings[B.listingId];\n        require(msg.sender == L.ownerAddr, \"not listing owner\");\n        require(B.status == BookingStatus.Requested, \"bad status\");\n        B.status = BookingStatus.Approved;\n        emit BookingApproved(bookingId);\n    }\n\n    function rejectBooking(uint256 bookingId) external nonReentrant {\n        Booking storage B = bookings[bookingId];\n        Listing storage L = listings[B.listingId];\n        require(msg.sender == L.ownerAddr, \"not listing owner\");\n        require(B.status == BookingStatus.Requested, \"bad status\");\n        uint256 refund = B.escrow;\n        B.escrow = 0;\n        B.status = BookingStatus.Rejected;\n        _safeTransfer(B.renter, refund);\n        emit BookingRejected(bookingId);\n    }\n\n    function cancelBeforeActive(uint256 bookingId) external nonReentrant {\n        Booking storage B = bookings[bookingId];\n        require(B.status == BookingStatus.Requested || B.status == BookingStatus.Approved, \"cannot cancel\");\n        require(msg.sender == B.renter, \"only renter\");\n        uint256 refund = B.escrow;\n        B.escrow = 0;\n        B.status = BookingStatus.Cancelled;\n        _safeTransfer(B.renter, refund);\n        emit BookingCancelled(bookingId);\n    }\n\n    function confirmPickup(uint256 bookingId, string calldata proofURI) external {\n        Booking storage B = bookings[bookingId];\n        Listing storage L = listings[B.listingId];\n        require(B.status == BookingStatus.Approved, \"not approved\");\n        if (msg.sender == B.renter) {\n            B.renterPickup = true;\n            B.pickupProofURI_renter = proofURI;\n        } else if (msg.sender == L.ownerAddr) {\n            B.ownerPickup = true;\n            B.pickupProofURI_owner = proofURI;\n        } else {\n            revert(\"not party\");\n        }\n        emit PickupConfirmed(bookingId, msg.sender);\n        if (B.renterPickup && B.ownerPickup) {\n            B.status = BookingStatus.Active;\n        }\n    }\n\n    function confirmReturn(uint256 bookingId, string calldata proofURI) external nonReentrant {\n        Booking storage B = bookings[bookingId];\n        Listing storage L = listings[B.listingId];\n        require(B.status == BookingStatus.Active || B.status == BookingStatus.ReturnPending, \"not active\");\n\n        if (msg.sender == B.renter) {\n            B.renterReturn = true;\n            B.returnProofURI_renter = proofURI;\n        } else if (msg.sender == L.ownerAddr) {\n            B.ownerReturn = true;\n            B.returnProofURI_owner = proofURI;\n        } else {\n            revert(\"not party\");\n        }\n        emit ReturnConfirmed(bookingId, msg.sender);\n\n        if (B.renterReturn && B.ownerReturn) {\n            // No dispute: settle immediately\n            _completeWithoutDispute(bookingId);\n        } else {\n            B.status = BookingStatus.ReturnPending;\n        }\n    }\n\n    function openDispute(uint256 bookingId) external {\n        Booking storage B = bookings[bookingId];\n        Listing storage L = listings[B.listingId];\n        require(\n            msg.sender == B.renter || msg.sender == L.ownerAddr,\n            \"not party\"\n        );\n        require(\n            B.status == BookingStatus.Approved ||\n            B.status == BookingStatus.Active ||\n            B.status == BookingStatus.ReturnPending,\n            \"bad status\"\n        );\n        B.status = BookingStatus.Disputed;\n        emit BookingDisputed(bookingId, msg.sender);\n    }\n\n    function resolveDispute(uint256 bookingId, uint256 ownerPayout, uint256 renterPayout)\n        external\n        nonReentrant\n        onlyArbitrator\n    {\n        Booking storage B = bookings[bookingId];\n        Listing storage L = listings[B.listingId];\n        require(B.status == BookingStatus.Disputed, \"not disputed\");\n        require(ownerPayout + renterPayout == B.escrow, \"must split escrow\");\n\n        uint256 fee = (ownerPayout * platformFeeBps) / 10_000;\n        uint256 ownerNet = ownerPayout - fee;\n\n        balances[L.ownerAddr] += ownerNet;\n        balances[B.renter] += renterPayout;\n        balances[owner] += fee;\n\n        B.escrow = 0;\n        B.status = BookingStatus.Completed;\n\n        emit BookingCompleted(bookingId, ownerNet, renterPayout, fee);\n    }\n\n    function _completeWithoutDispute(uint256 bookingId) internal {\n        Booking storage B = bookings[bookingId];\n        Listing storage L = listings[B.listingId];\n        require(\n            B.status == BookingStatus.Active || B.status == BookingStatus.ReturnPending,\n            \"bad status\"\n        );\n\n        uint256 fee = (B.rentalCost * platformFeeBps) / 10_000;\n        uint256 ownerNet = B.rentalCost - fee;\n        uint256 renterBack = B.deposit;\n\n        require(B.escrow == B.rentalCost + B.deposit, \"escrow mismatch\");\n        balances[L.ownerAddr] += ownerNet;\n        balances[B.renter]   += renterBack;\n        balances[owner]      += fee;\n\n        B.escrow = 0;\n        B.status = BookingStatus.Completed;\n\n        emit BookingCompleted(bookingId, ownerNet, renterBack, fee);\n    }\n\n    /* ================================ Ratings ============================= */\n\n    struct Rating { uint8 value; bool set; }\n    // bookingId => ratings\n    mapping(uint256 => Rating) public rateOwnerScore;\n    mapping(uint256 => Rating) public rateRenterScore;\n\n    function rateOwner(uint256 bookingId, uint8 score) external {\n        Booking storage B = bookings[bookingId];\n        require(B.status == BookingStatus.Completed, \"not completed\");\n        require(msg.sender == B.renter, \"only renter\");\n        require(score >= 1 && score <= 5, \"1..5\");\n        require(!rateOwnerScore[bookingId].set, \"rated\");\n        rateOwnerScore[bookingId] = Rating(score, true);\n    }\n\n    function rateRenter(uint256 bookingId, uint8 score) external {\n        Booking storage B = bookings[bookingId];\n        address listingOwner = listings[B.listingId].ownerAddr;\n        require(B.status == BookingStatus.Completed, \"not completed\");\n        require(msg.sender == listingOwner, \"only owner\");\n        require(score >= 1 && score <= 5, \"1..5\");\n        require(!rateRenterScore[bookingId].set, \"rated\");\n        rateRenterScore[bookingId] = Rating(score, true);\n    }\n\n    /* ================================ Funds =============================== */\n\n    function withdraw() external nonReentrant {\n        uint256 amount = balances[msg.sender];\n        require(amount > 0, \"nothing to withdraw\");\n        balances[msg.sender] = 0;\n        _safeTransfer(payable(msg.sender), amount);\n    }\n\n    function _safeTransfer(address payable to, uint256 amount) internal {\n        (bool ok, ) = to.call{value: amount}(\"\");\n        require(ok, \"transfer failed\");\n    }\n}\n",
  "sourcePath": "/workspaces/DecentralizdCarRentalApp/blockchain/contracts/CarRental.sol",
  "compiler": {
    "name": "solc",
    "version": "0.8.24+commit.e11b9ed9.Emscripten.clang"
  },
  "schemaVersion": "3.4.16",
  "updatedAt": "2025-11-19T04:46:08.620Z",
  "networkType": "ethereum",
  "devdoc": {
    "kind": "dev",
    "methods": {},
    "version": 1
  },
  "userdoc": {
    "kind": "user",
    "methods": {},
    "version": 1
  }
}