{
  "contractName": "CarRental",
  "abi": [
    {
      "inputs": [
        {
          "internalType": "address",
          "name": "_insuranceVerifier",
          "type": "address"
        },
        {
          "internalType": "address",
          "name": "_arbitrator",
          "type": "address"
        },
        {
          "internalType": "uint16",
          "name": "_feeBps",
          "type": "uint16"
        }
      ],
      "stateMutability": "nonpayable",
      "type": "constructor"
    },
    {
      "anonymous": false,
      "inputs": [
        {
          "indexed": true,
          "internalType": "uint256",
          "name": "bookingId",
          "type": "uint256"
        }
      ],
      "name": "BookingApproved",
      "type": "event"
    },
    {
      "anonymous": false,
      "inputs": [
        {
          "indexed": true,
          "internalType": "uint256",
          "name": "bookingId",
          "type": "uint256"
        }
      ],
      "name": "BookingCancelled",
      "type": "event"
    },
    {
      "anonymous": false,
      "inputs": [
        {
          "indexed": true,
          "internalType": "uint256",
          "name": "bookingId",
          "type": "uint256"
        },
        {
          "indexed": false,
          "internalType": "uint256",
          "name": "ownerCredit",
          "type": "uint256"
        },
        {
          "indexed": false,
          "internalType": "uint256",
          "name": "renterCredit",
          "type": "uint256"
        },
        {
          "indexed": false,
          "internalType": "uint256",
          "name": "fee",
          "type": "uint256"
        }
      ],
      "name": "BookingCompleted",
      "type": "event"
    },
    {
      "anonymous": false,
      "inputs": [
        {
          "indexed": true,
          "internalType": "uint256",
          "name": "bookingId",
          "type": "uint256"
        },
        {
          "indexed": true,
          "internalType": "address",
          "name": "by",
          "type": "address"
        }
      ],
      "name": "BookingDisputed",
      "type": "event"
    },
    {
      "anonymous": false,
      "inputs": [
        {
          "indexed": true,
          "internalType": "uint256",
          "name": "bookingId",
          "type": "uint256"
        }
      ],
      "name": "BookingRejected",
      "type": "event"
    },
    {
      "anonymous": false,
      "inputs": [
        {
          "indexed": true,
          "internalType": "uint256",
          "name": "bookingId",
          "type": "uint256"
        },
        {
          "indexed": true,
          "internalType": "uint256",
          "name": "listingId",
          "type": "uint256"
        },
        {
          "indexed": true,
          "internalType": "address",
          "name": "renter",
          "type": "address"
        },
        {
          "indexed": false,
          "internalType": "uint256",
          "name": "escrow",
          "type": "uint256"
        }
      ],
      "name": "BookingRequested",
      "type": "event"
    },
    {
      "anonymous": false,
      "inputs": [
        {
          "indexed": true,
          "internalType": "uint256",
          "name": "listingId",
          "type": "uint256"
        },
        {
          "indexed": false,
          "internalType": "bool",
          "name": "valid",
          "type": "bool"
        }
      ],
      "name": "InsuranceVerified",
      "type": "event"
    },
    {
      "anonymous": false,
      "inputs": [
        {
          "indexed": true,
          "internalType": "uint256",
          "name": "listingId",
          "type": "uint256"
        },
        {
          "indexed": false,
          "internalType": "bool",
          "name": "active",
          "type": "bool"
        }
      ],
      "name": "ListingActive",
      "type": "event"
    },
    {
      "anonymous": false,
      "inputs": [
        {
          "indexed": true,
          "internalType": "uint256",
          "name": "listingId",
          "type": "uint256"
        },
        {
          "indexed": true,
          "internalType": "address",
          "name": "carOwner",
          "type": "address"
        }
      ],
      "name": "ListingCreated",
      "type": "event"
    },
    {
      "anonymous": false,
      "inputs": [
        {
          "indexed": true,
          "internalType": "uint256",
          "name": "listingId",
          "type": "uint256"
        }
      ],
      "name": "ListingEdited",
      "type": "event"
    },
    {
      "anonymous": false,
      "inputs": [
        {
          "indexed": true,
          "internalType": "uint256",
          "name": "bookingId",
          "type": "uint256"
        },
        {
          "indexed": true,
          "internalType": "address",
          "name": "by",
          "type": "address"
        }
      ],
      "name": "PickupConfirmed",
      "type": "event"
    },
    {
      "anonymous": false,
      "inputs": [
        {
          "indexed": true,
          "internalType": "uint256",
          "name": "bookingId",
          "type": "uint256"
        },
        {
          "indexed": true,
          "internalType": "address",
          "name": "by",
          "type": "address"
        }
      ],
      "name": "ReturnConfirmed",
      "type": "event"
    },
    {
      "anonymous": false,
      "inputs": [
        {
          "indexed": true,
          "internalType": "address",
          "name": "user",
          "type": "address"
        }
      ],
      "name": "UserRegistered",
      "type": "event"
    },
    {
      "inputs": [],
      "name": "arbitrator",
      "outputs": [
        {
          "internalType": "address",
          "name": "",
          "type": "address"
        }
      ],
      "stateMutability": "view",
      "type": "function",
      "constant": true
    },
    {
      "inputs": [
        {
          "internalType": "address",
          "name": "",
          "type": "address"
        }
      ],
      "name": "balances",
      "outputs": [
        {
          "internalType": "uint256",
          "name": "",
          "type": "uint256"
        }
      ],
      "stateMutability": "view",
      "type": "function",
      "constant": true
    },
    {
      "inputs": [
        {
          "internalType": "uint256",
          "name": "",
          "type": "uint256"
        }
      ],
      "name": "bookings",
      "outputs": [
        {
          "internalType": "uint256",
          "name": "listingId",
          "type": "uint256"
        },
        {
          "internalType": "address payable",
          "name": "renter",
          "type": "address"
        },
        {
          "internalType": "uint64",
          "name": "startDate",
          "type": "uint64"
        },
        {
          "internalType": "uint64",
          "name": "endDate",
          "type": "uint64"
        },
        {
          "internalType": "uint256",
          "name": "rentalCost",
          "type": "uint256"
        },
        {
          "internalType": "uint256",
          "name": "deposit",
          "type": "uint256"
        },
        {
          "internalType": "enum CarRental.BookingStatus",
          "name": "status",
          "type": "uint8"
        },
        {
          "internalType": "bool",
          "name": "renterPickup",
          "type": "bool"
        },
        {
          "internalType": "bool",
          "name": "ownerPickup",
          "type": "bool"
        },
        {
          "internalType": "bool",
          "name": "renterReturn",
          "type": "bool"
        },
        {
          "internalType": "bool",
          "name": "ownerReturn",
          "type": "bool"
        },
        {
          "internalType": "string",
          "name": "pickupProofURI_renter",
          "type": "string"
        },
        {
          "internalType": "string",
          "name": "pickupProofURI_owner",
          "type": "string"
        },
        {
          "internalType": "string",
          "name": "returnProofURI_renter",
          "type": "string"
        },
        {
          "internalType": "string",
          "name": "returnProofURI_owner",
          "type": "string"
        },
        {
          "internalType": "uint256",
          "name": "escrow",
          "type": "uint256"
        }
      ],
      "stateMutability": "view",
      "type": "function",
      "constant": true
    },
    {
      "inputs": [],
      "name": "contractOwner",
      "outputs": [
        {
          "internalType": "address",
          "name": "",
          "type": "address"
        }
      ],
      "stateMutability": "view",
      "type": "function",
      "constant": true
    },
    {
      "inputs": [],
      "name": "insuranceVerifier",
      "outputs": [
        {
          "internalType": "address",
          "name": "",
          "type": "address"
        }
      ],
      "stateMutability": "view",
      "type": "function",
      "constant": true
    },
    {
      "inputs": [
        {
          "internalType": "uint256",
          "name": "",
          "type": "uint256"
        }
      ],
      "name": "listings",
      "outputs": [
        {
          "internalType": "address payable",
          "name": "carOwner",
          "type": "address"
        },
        {
          "internalType": "uint256",
          "name": "dailyPrice",
          "type": "uint256"
        },
        {
          "internalType": "uint256",
          "name": "securityDeposit",
          "type": "uint256"
        },
        {
          "internalType": "bool",
          "name": "active",
          "type": "bool"
        },
        {
          "internalType": "bool",
          "name": "insuranceValid",
          "type": "bool"
        },
        {
          "internalType": "string",
          "name": "insuranceDocURI",
          "type": "string"
        },
        {
          "internalType": "string",
          "name": "make",
          "type": "string"
        },
        {
          "internalType": "string",
          "name": "model",
          "type": "string"
        },
        {
          "internalType": "uint256",
          "name": "year",
          "type": "uint256"
        },
        {
          "internalType": "string",
          "name": "location",
          "type": "string"
        }
      ],
      "stateMutability": "view",
      "type": "function",
      "constant": true
    },
    {
      "inputs": [],
      "name": "platformFeeBps",
      "outputs": [
        {
          "internalType": "uint16",
          "name": "",
          "type": "uint16"
        }
      ],
      "stateMutability": "view",
      "type": "function",
      "constant": true
    },
    {
      "inputs": [
        {
          "internalType": "uint256",
          "name": "",
          "type": "uint256"
        }
      ],
      "name": "rateOwnerScore",
      "outputs": [
        {
          "internalType": "uint8",
          "name": "value",
          "type": "uint8"
        },
        {
          "internalType": "bool",
          "name": "set",
          "type": "bool"
        }
      ],
      "stateMutability": "view",
      "type": "function",
      "constant": true
    },
    {
      "inputs": [
        {
          "internalType": "uint256",
          "name": "",
          "type": "uint256"
        }
      ],
      "name": "rateRenterScore",
      "outputs": [
        {
          "internalType": "uint8",
          "name": "value",
          "type": "uint8"
        },
        {
          "internalType": "bool",
          "name": "set",
          "type": "bool"
        }
      ],
      "stateMutability": "view",
      "type": "function",
      "constant": true
    },
    {
      "inputs": [
        {
          "internalType": "address",
          "name": "",
          "type": "address"
        }
      ],
      "name": "users",
      "outputs": [
        {
          "internalType": "bool",
          "name": "registered",
          "type": "bool"
        }
      ],
      "stateMutability": "view",
      "type": "function",
      "constant": true
    },
    {
      "inputs": [
        {
          "internalType": "address",
          "name": "_insuranceVerifier",
          "type": "address"
        },
        {
          "internalType": "address",
          "name": "_arbitrator",
          "type": "address"
        }
      ],
      "name": "setRoles",
      "outputs": [],
      "stateMutability": "nonpayable",
      "type": "function"
    },
    {
      "inputs": [
        {
          "internalType": "uint16",
          "name": "_feeBps",
          "type": "uint16"
        }
      ],
      "name": "setPlatformFee",
      "outputs": [],
      "stateMutability": "nonpayable",
      "type": "function"
    },
    {
      "inputs": [],
      "name": "register",
      "outputs": [],
      "stateMutability": "nonpayable",
      "type": "function"
    },
    {
      "inputs": [
        {
          "internalType": "uint256",
          "name": "dailyPrice",
          "type": "uint256"
        },
        {
          "internalType": "uint256",
          "name": "securityDeposit",
          "type": "uint256"
        },
        {
          "internalType": "string",
          "name": "insuranceDocURI",
          "type": "string"
        },
        {
          "internalType": "string",
          "name": "make",
          "type": "string"
        },
        {
          "internalType": "string",
          "name": "model",
          "type": "string"
        },
        {
          "internalType": "uint256",
          "name": "year",
          "type": "uint256"
        },
        {
          "internalType": "string",
          "name": "location",
          "type": "string"
        }
      ],
      "name": "createListing",
      "outputs": [
        {
          "internalType": "uint256",
          "name": "id",
          "type": "uint256"
        }
      ],
      "stateMutability": "nonpayable",
      "type": "function"
    },
    {
      "inputs": [
        {
          "internalType": "uint256",
          "name": "listingId",
          "type": "uint256"
        },
        {
          "internalType": "uint256",
          "name": "dailyPrice",
          "type": "uint256"
        },
        {
          "internalType": "uint256",
          "name": "securityDeposit",
          "type": "uint256"
        },
        {
          "internalType": "string",
          "name": "insuranceDocURI",
          "type": "string"
        },
        {
          "internalType": "string",
          "name": "make",
          "type": "string"
        },
        {
          "internalType": "string",
          "name": "model",
          "type": "string"
        },
        {
          "internalType": "uint256",
          "name": "year",
          "type": "uint256"
        },
        {
          "internalType": "string",
          "name": "location",
          "type": "string"
        }
      ],
      "name": "editListing",
      "outputs": [],
      "stateMutability": "nonpayable",
      "type": "function"
    },
    {
      "inputs": [
        {
          "internalType": "uint256",
          "name": "listingId",
          "type": "uint256"
        },
        {
          "internalType": "bool",
          "name": "active_",
          "type": "bool"
        }
      ],
      "name": "setListingActive",
      "outputs": [],
      "stateMutability": "nonpayable",
      "type": "function"
    },
    {
      "inputs": [
        {
          "internalType": "uint256",
          "name": "listingId",
          "type": "uint256"
        },
        {
          "internalType": "bool",
          "name": "valid",
          "type": "bool"
        }
      ],
      "name": "verifyInsurance",
      "outputs": [],
      "stateMutability": "nonpayable",
      "type": "function"
    },
    {
      "inputs": [
        {
          "internalType": "uint256",
          "name": "listingId",
          "type": "uint256"
        },
        {
          "internalType": "uint64",
          "name": "startDate",
          "type": "uint64"
        },
        {
          "internalType": "uint64",
          "name": "endDate",
          "type": "uint64"
        }
      ],
      "name": "requestBooking",
      "outputs": [
        {
          "internalType": "uint256",
          "name": "id",
          "type": "uint256"
        }
      ],
      "stateMutability": "payable",
      "type": "function",
      "payable": true
    },
    {
      "inputs": [
        {
          "internalType": "uint256",
          "name": "bookingId",
          "type": "uint256"
        }
      ],
      "name": "approveBooking",
      "outputs": [],
      "stateMutability": "nonpayable",
      "type": "function"
    },
    {
      "inputs": [
        {
          "internalType": "uint256",
          "name": "bookingId",
          "type": "uint256"
        }
      ],
      "name": "rejectBooking",
      "outputs": [],
      "stateMutability": "nonpayable",
      "type": "function"
    },
    {
      "inputs": [
        {
          "internalType": "uint256",
          "name": "bookingId",
          "type": "uint256"
        }
      ],
      "name": "cancelBeforeActive",
      "outputs": [],
      "stateMutability": "nonpayable",
      "type": "function"
    },
    {
      "inputs": [
        {
          "internalType": "uint256",
          "name": "bookingId",
          "type": "uint256"
        },
        {
          "internalType": "string",
          "name": "proofURI",
          "type": "string"
        }
      ],
      "name": "confirmPickup",
      "outputs": [],
      "stateMutability": "nonpayable",
      "type": "function"
    },
    {
      "inputs": [
        {
          "internalType": "uint256",
          "name": "bookingId",
          "type": "uint256"
        },
        {
          "internalType": "string",
          "name": "proofURI",
          "type": "string"
        }
      ],
      "name": "confirmReturn",
      "outputs": [],
      "stateMutability": "nonpayable",
      "type": "function"
    },
    {
      "inputs": [
        {
          "internalType": "uint256",
          "name": "bookingId",
          "type": "uint256"
        }
      ],
      "name": "openDispute",
      "outputs": [],
      "stateMutability": "nonpayable",
      "type": "function"
    },
    {
      "inputs": [
        {
          "internalType": "uint256",
          "name": "bookingId",
          "type": "uint256"
        },
        {
          "internalType": "uint256",
          "name": "ownerPayout",
          "type": "uint256"
        },
        {
          "internalType": "uint256",
          "name": "renterPayout",
          "type": "uint256"
        }
      ],
      "name": "resolveDispute",
      "outputs": [],
      "stateMutability": "nonpayable",
      "type": "function"
    },
    {
      "inputs": [
        {
          "internalType": "uint256",
          "name": "bookingId",
          "type": "uint256"
        },
        {
          "internalType": "uint8",
          "name": "score",
          "type": "uint8"
        }
      ],
      "name": "rateOwner",
      "outputs": [],
      "stateMutability": "nonpayable",
      "type": "function"
    },
    {
      "inputs": [
        {
          "internalType": "uint256",
          "name": "bookingId",
          "type": "uint256"
        },
        {
          "internalType": "uint8",
          "name": "score",
          "type": "uint8"
        }
      ],
      "name": "rateRenter",
      "outputs": [],
      "stateMutability": "nonpayable",
      "type": "function"
    },
    {
      "inputs": [],
      "name": "withdraw",
      "outputs": [],
      "stateMutability": "nonpayable",
      "type": "function"
    }
  ],
  "bytecode": "0x608034620000cf57601f62002c0c38819003918201601f19168301916001600160401b03831184841017620000d357808492606094604052833981010312620000cf576200004d81620000e7565b60406200005d60208401620000e7565b9201519061ffff82168203620000cf57600160078190555f80546001600160a01b031990811633179091558154166001600160a01b03928316179055600280546001600160b01b031916939091169290921760a09190911b61ffff60a01b16179055604051612b0f9081620000fd8239f35b5f80fd5b634e487b7160e01b5f52604160045260245ffd5b51906001600160a01b0382168203620000cf5756fe6080806040526004361015610012575f80fd5b5f3560e01c9081631aa3a008146123f6575080631dab301e1461229357806322dcd13e1461226f578063267070ad1461215957806327d00fb01461207a57806327e235e3146120425780632fd5402914611f815780633898a6b31461191a5780633ccfd60b1461188a5780633fabe74f146116f15780633feb9475146116b55780635549756c1461164c5780635cbc742c146115ba5780635f42c4da146111a357806362c514f4146110f65780636c65bd9214610ce75780636cbc87da14610a295780636cc6cde114610a015780637599f54f146109d9578063857d239b146108e25780638a2c5522146108975780639eb42b9e14610498578063a24e0ea2146103ba578063a87430ba1461037d578063a9621af6146102de578063ce606ee0146102b7578063de74e57b146101b95763f6072a1014610150575f80fd5b346101b55760403660031901126101b557610169612645565b6024356001600160a01b0381811692918390036101b55761018e815f541633146129e0565b6bffffffffffffffffffffffff60a01b911681600154161760015560025416176002555f80f35b5f80fd5b346101b55760203660031901126101b5576004356004548110156101b5576101e26040916126da565b50805460018201546002830154600384015491936102b393909261029e91610290906001600160a01b031661028261021c60048801612545565b61022860058901612545565b9260ff61023760068b01612545565b96610249600860078d01549c01612545565b998e519e8f9e8f90610140968252602082015201528c6060838316151591015260081c16151560808c01528060a08c01528a01906125e7565b9088820360c08a01526125e7565b9086820360e08801526125e7565b916101008501528382036101208501526125e7565b0390f35b346101b5575f3660031901126101b5575f546040516001600160a01b039091168152602090f35b346101b55760203660031901126101b55760043560056102fd82612484565b5061031d61030b82546126da565b50546001600160a01b03163314612827565b01805460ff81169060098210156103695761033c6001600293146127b5565b60ff19161790557fa0135758a7a152fbc51fc651f1214b629c474d76f3dcbe6095def00eaf87f18c5f80a2005b634e487b7160e01b5f52602160045260245ffd5b346101b55760203660031901126101b5576001600160a01b0361039e612645565b165f526003602052602060ff60405f2054166040519015158152f35b346101b5576103c836612625565b906103d281612484565b5060ff6005820154169260098410156103695761040e60ff926103fa600561048b9714612713565b600101546001600160a01b03163314612a21565b169060018210158061048d575b6104249061274f565b805f52600860205261044060ff60405f205460081c1615612781565b6040519161044d83612509565b82526020820190600182525f52600860205260ff60405f2092511660ff1983541617825551151561ff00825491151560081b169061ff001916179055565b005b50600582111561041b565b60603660031901126101b55760043560248035916001600160401b0390818416938481036101b55760449283359081168091036101b557335f52602095600387526104e960ff60405f205416612863565b6001546001600160a01b03919082163314610848578160025416331461080557610512856126da565b509182541633146107c257600382015460ff81161561078c5760081c60ff16156107535742811061071257808311156106e3576105536201518091846129b3565b0480156106b45761056a60029160018401546129cd565b9101916105788354836129c0565b9586340361067f575060055496600160401b88101561066c5760018801806005556105a289612484565b50508811610659575091859391600a936105bb89612484565b509387855560018501908154906001600160401b0360a01b9060a01b16906001600160401b0360a01b1933169063ffffffff60e01b161717905560028401906001600160401b0319825416179055600383015554600482015560058101600160ff198254161790550155604051918252827fccf64f7160f860aa529bd13ee78679de073ff8e017433570a494477ea0563a43853394a4604051908152f35b634e487b7160e01b5f9081526011600452fd5b634e487b7160e01b5f9081526041600452fd5b886f696e636f727265637420657363726f7760801b60649260108b6040519462461bcd60e51b86526004860152840152820152fd5b60405162461bcd60e51b815260048101899052600981890152686d696e20312064617960b81b81880152606490fd5b60405162461bcd60e51b81526004810189905260098189015268195b990f9cdd185c9d60ba1b81880152606490fd5b6064877f73746172742064617465206d75737420626520696e2074686520667574757265888b6040519362461bcd60e51b8552816004860152840152820152fd5b60405162461bcd60e51b815260048101899052601381890152721a5b9cdd5c985b98d9481b9bdd081d985b1a59606a1b81880152606490fd5b60405162461bcd60e51b8152600481018a90526010818a01526f6c697374696e6720696e61637469766560801b81890152606490fd5b60405162461bcd60e51b8152600481018990526017818901527f63616e6e6f7420626f6f6b206f776e206c697374696e6700000000000000000081880152606490fd5b60405162461bcd60e51b815260048101899052601b818901527f61726269747261746f722063616e6e6f7420626f6f6b2063617273000000000081880152606490fd5b60405162461bcd60e51b8152600481018990526023818901527f696e737572616e63652076657269666965722063616e6e6f7420626f6f6b2063818801526261727360e81b6064820152608490fd5b346101b55760203660031901126101b5576004355f5260096020526102b360405f2054604051918160ff80859460081c1691168390929160209060ff60408401951683521515910152565b346101b55760203660031901126101b5576004356109046001600754146127ee565b600260075561091281612484565b50600581019081549060ff8216600981101561036957600181149081156109ce575b50156109995761096e926007600a60018060a01b036001850154169361095b853314612a21565b01935f8554955560ff1916179055612a5b565b7ff774c001cb52a3566b767ed6e37c92706acb2b80a3ff6049e2849cd62725d0855f80a26001600755005b60405162461bcd60e51b815260206004820152600d60248201526c18d85b9b9bdd0818d85b98d95b609a1b6044820152606490fd5b600291501485610934565b346101b5575f3660031901126101b5576001546040516001600160a01b039091168152602090f35b346101b5575f3660031901126101b5576002546040516001600160a01b039091168152602090f35b346101b557610a37366126a7565b610a42839293612484565b5092610a4e84546126da565b5091600585019485549060ff8216600981101561036957600203610cb35760018181015490956001600160a01b03913390831603610bc8575050865461ff0019166101001787556006019390506001600160401b038211610bb457610abd82610ab786546124d1565b86612964565b5f90601f8311600114610b4d57508190610aec935f92610b42575b50508160011b915f199060031b1c19161790565b90555b33907f7f44dc96dfe82556f254203e555fa87ce76986f76eb50fc73d105558207ebb585f80a3805460ff8160081c1680610b35575b610b2a57005b60ff19166003179055005b5060ff8160101c16610b24565b013590508680610ad8565b92601f19831691855f528360209360205f20945f905b88838310610b9a5750505010610b81575b505050811b019055610aef565b01355f19600384901b60f8161c19169055858080610b74565b868601358855909601959384019387935090810190610b63565b634e487b7160e01b5f52604160045260245ffd5b541633145f14610c82576201000060079262ff0000191617875501926001600160401b038211610bb457610c0082610ab786546124d1565b5f90601f8311600114610c3557508190610c2e935f92610b425750508160011b915f199060031b1c19161790565b9055610aef565b92601f19831691855f528360209360205f20945f905b88838310610c685750505010610b8157505050811b019055610aef565b868601358855909601959384019387935090810190610c4b565b60405162461bcd60e51b81526020600482015260096024820152686e6f7420706172747960b81b6044820152606490fd5b60405162461bcd60e51b815260206004820152600c60248201526b1b9bdd08185c1c1c9bdd995960a21b6044820152606490fd5b346101b5576101003660031901126101b5576004356001600160401b036024356064358281116101b557610d1f90369060040161265b565b90916084358481116101b557610d3990369060040161265b565b929060a4358681116101b557610d5390369060040161265b565b60c4359260e4358981116101b557610d6f90369060040161265b565b979098610d7b8c6126da565b5096610d9160018060a01b038954163314612827565b610d9c8915156128a0565b61076c8711806110ea575b610db0906128d8565b60019889890155604435600289015560048801918c8211610bb457610ddf82610dd985546124d1565b85612964565b5f90601f831160011461108357610e0c92915f91836110785750508160011b915f199060031b1c19161790565b90555b60058601918a8211610bb457610e2982610dd985546124d1565b5f90601f831160011461101157610e5692915f91836110065750508160011b915f199060031b1c19161790565b90555b6006840191888211610bb457610e7382610dd985546124d1565b5f90601f8311600114610f98579180610ea6926008979695945f92610f8d5750508160011b915f199060031b1c19161790565b90555b600782015501938211610bb457610ec482610ab786546124d1565b5f90601f8311600114610f2657508190610ef2935f92610f1b5750508160011b915f199060031b1c19161790565b90555b7f4c520ab09d5e06c4894077fa644a2085c63bd037543118226e3428b47423ebb55f80a2005b013590508580610ad8565b92601f19831691855f528360209360205f20945f905b88838310610f735750505010610f5a575b505050811b019055610ef5565b01355f19600384901b60f8161c19169055848080610f4d565b868601358855909601959384019387935090810190610f3c565b013590508c80610ad8565b91869195949392601f19821690845f5260209160205f20925f905b828210610fed575050978360089910610fd4575b505050811b019055610ea9565b01355f19600384901b60f8161c191690558b8080610fc7565b8a8401358555998a01998b969094019390810190610fb3565b013590508d80610ad8565b90889291601f19831691855f5260209260205f20935f905b82821061105f5750508411611046575b505050811b019055610e59565b01355f19600384901b60f8161c191690558c8080611039565b8385013586558d97909501949283019290810190611029565b013590508f80610ad8565b908a9291601f19831691855f5260209260205f20935f905b8282106110d157505084116110b8575b505050811b019055610e0f565b01355f19600384901b60f8161c191690558e80806110ab565b8385013586558f9790950194928301929081019061109b565b50610834871115610da7565b346101b55761110436612688565b6001546001600160a01b0316330361116e576020816111637f407f6d6347d33597d66cbccf076e0edec1897f54ef9b615e3ceeea3b84ca7100936003611149876126da565b50019061ff00825491151560081b169061ff001916179055565b6040519015158152a2005b60405162461bcd60e51b815260206004820152600d60248201526c6e6f7420696e737572616e636560981b6044820152606490fd5b346101b5576111b1366126a7565b600192916111c284600754146127ee565b60026007556111d083612484565b50906111dc82546126da565b5092600583019283549060ff8216600981101561036957600381149081156115af575b501561157d57808801546001600160a01b0396879133908316036114c0575050845463ff000000191663010000001785556008019290506001600160401b038211610bb45761125282610dd985546124d1565b5f90601f83116001146114595761127f92915f918361144e5750508160011b915f199060031b1c19161790565b90555b33837f8e823f38cc816af62efd341a51dee8f420e5fd62f6c8483c16186967968b86615f80a3805460ff8160181c1680611441575b156114305750506112c782612484565b506112d281546126da565b50600582019160ff8354166009811015610369578060036112fc9214908115611425575b506127b5565b60038101549261271061131861ffff60025460a01c16866129cd565b049061132482866129b3565b93600484015495600a85019061133c888354926129c0565b036113ee5787808b6113e5977f05b7b4c873ca1f8b454c7ecb8fe749d8241d28083d9a966e4f1f40604db97a789b5f96541686526006602052604086206113848b82546129c0565b9055015416835260066020526040832061139f8982546129c0565b905582541682526006602052604082206113ba8582546129c0565b905555600560ff19825416179055604051938493846040919493926060820195825260208201520152565b0390a25b600755005b60405162461bcd60e51b815260206004820152600f60248201526e0cae6c6e4deee40dad2e6dac2e8c6d608b1b6044820152606490fd5b6004915014886112f6565b60ff19166004179055506113e99050565b5060ff8160201c166112b7565b013590508880610ad8565b90879291601f19831691855f5260209260205f20935f905b8282106114a7575050841161148e575b505050811b019055611282565b01355f19600384901b60f8161c19169055878080611481565b8385013586558c97909501949283019290810190611471565b541633145f14610c825764010000000060099264ff00000000191617855501916001600160401b038211610bb4576114fc82610dd985546124d1565b5f90601f83116001146115305761152992915f918361144e5750508160011b915f199060031b1c19161790565b9055611282565b90879291601f19831691855f5260209260205f20935f905b828210611564575050841161148e57505050811b019055611282565b8385013586558c97909501949283019290810190611548565b60405162461bcd60e51b815260206004820152600a6024820152696e6f742061637469766560b01b6044820152606490fd5b6004915014896111ff565b346101b55760203660031901126101b55760043561ffff81168082036101b5576103e8906115f260018060a01b035f541633146129e0565b11611618576002805461ffff60a01b191660a09290921b61ffff60a01b16919091179055005b60405162461bcd60e51b815260206004820152600c60248201526b0cccaca40e8dede40d0d2ced60a31b6044820152606490fd5b346101b55760207f0d85d5ffd1953217a27952a606aa782203679f724633773992d529af76ef695061167d36612688565b61116381600361168e8597956126da565b506116a360018060a01b038254163314612827565b019060ff801983541691151516179055565b346101b55760203660031901126101b5576004355f9081526008602081815260409283902054835160ff80831682529190931c16151590820152f35b346101b55760603660031901126101b5576004356024356044356117196001600754146127ee565b60026007819055546001600160a01b039283821633036118545761173c85612484565b509061174882546126da565b5092600583019060ff8254166009811015610369576008036118205761176e86846129c0565b600a8501908154036117e757878060016117dd977f05b7b4c873ca1f8b454c7ecb8fe749d8241d28083d9a966e4f1f40604db97a789b6117c46127106117bc61ffff5f9a60a01c168c6129cd565b04809a6129b3565b9a541686526006602052604086206113848b82546129c0565b0390a26001600755005b60405162461bcd60e51b81526020600482015260116024820152706d7573742073706c697420657363726f7760781b6044820152606490fd5b60405162461bcd60e51b815260206004820152600c60248201526b1b9bdd08191a5cdc1d5d195960a21b6044820152606490fd5b60405162461bcd60e51b815260206004820152600e60248201526d3737ba1030b93134ba3930ba37b960911b6044820152606490fd5b346101b5575f3660031901126101b5576118a86001600754146127ee565b6002600755335f52600660205260405f205480156118df576118d890335f5260066020525f604081205533612a5b565b6001600755005b60405162461bcd60e51b81526020600482015260136024820152726e6f7468696e6720746f20776974686472617760681b6044820152606490fd5b346101b55760e03660031901126101b5576044356001600160401b0381116101b55761194a90369060040161265b565b906064356001600160401b0381116101b55761196a90369060040161265b565b9190926084356001600160401b0381116101b55761198c90369060040161265b565b919060c4356001600160401b0381116101b5576119ad90369060040161265b565b939094335f5260036020526119c860ff60405f205416612863565b6001546001600160a01b03163314611f2a576002546001600160a01b03163314611edb576119f960043515156128a0565b61076c60a4351180611ecd575b611a0f906128d8565b60405197886101408101106001600160401b036101408b011117610bb457611a9897611a6b611a7793611a83975f60808e610140810160405233815260043560208201526024356040820152600160608201520152369161292e565b60a08b0152369161292e565b60c0880152369161292e565b60e085015260a435610100850152369161292e565b610120820152600454600160401b811015610bb457806001611abd92016004556126da565b919091611eba5760018060a01b038151166bffffffffffffffffffffffff60a01b8354161782556020810151600183015560408101516002830155611b3660038301611b1b60608401511515829060ff801983541691151516179055565b6080830151815461ff00191690151560081b61ff0016179055565b600482019160a08201519283516001600160401b038111610bb457611b6581611b5f84546124d1565b84612964565b602094601f8211600114611e5857611b969293949582915f92611deb5750508160011b915f199060031b1c19161790565b90555b600581019160c08101519283516001600160401b038111610bb457611bc281611b5f84546124d1565b602094601f8211600114611df657611bf39293949582915f92611deb5750508160011b915f199060031b1c19161790565b90555b600682019160e08201519283516001600160401b038111610bb457611c1f81611b5f84546124d1565b6020601f8211600114611d8057816008949392611c559261012097985f92611d755750508160011b915f199060031b1c19161790565b90555b6101008401516007820155019101519081516001600160401b038111610bb457611c8681611b5f84546124d1565b602092601f8211600114611d1557611cb5929382915f92611d0a5750508160011b915f199060031b1c19161790565b90555b6004545f198101908111611cf65760405160209133817f4e0f9c4c10f3933a613addba91d6bd94f54a77e3e2748707ee7fe140aef218c55f80a38152f35b634e487b7160e01b5f52601160045260245ffd5b015190508480610ad8565b601f19821693835f5260205f20915f5b868110611d5d5750836001959610611d45575b505050811b019055611cb8565b01515f1960f88460031b161c19169055838080611d38565b91926020600181928685015181550194019201611d25565b015190508880610ad8565b601f19821695835f5260205f20965f5b818110611dd357509660019284926008979695610120999a10611dbb575b505050811b019055611c58565b01515f1960f88460031b161c19169055878080611dae565b83830151895560019098019760209384019301611d90565b015190508680610ad8565b601f19821695835f5260205f20915f5b888110611e4057508360019596979810611e28575b505050811b019055611bf6565b01515f1960f88460031b161c19169055858080611e1b565b91926020600181928685015181550194019201611e06565b601f19821695835f5260205f20915f5b888110611ea257508360019596979810611e8a575b505050811b019055611b99565b01515f1960f88460031b161c19169055858080611e7d565b91926020600181928685015181550194019201611e68565b634e487b7160e01b5f525f60045260245ffd5b5061083460a4351115611a06565b60405162461bcd60e51b815260206004820152602160248201527f61726269747261746f722063616e6e6f7420637265617465206c697374696e676044820152607360f81b6064820152608490fd5b60405162461bcd60e51b815260206004820152602960248201527f696e737572616e63652076657269666965722063616e6e6f7420637265617465604482015268206c697374696e677360b81b6064820152608490fd5b346101b55760203660031901126101b557600435611fa36001600754146127ee565b6002600755611fb181612484565b50611fbc81546126da565b50546001600160a01b039190611fd59083163314612827565b600581019182549160ff83169060098210156103695761201794611ffc60018094146127b5565b6006600a8301955f8754975560ff1916179055015416612a5b565b7f6dda7094ca195e26efe2cf69536896d308e1876357ff952db64326381dc394135f80a26001600755005b346101b55760203660031901126101b5576001600160a01b03612063612645565b165f526006602052602060405f2054604051908152f35b346101b55760203660031901126101b55760043561209781612484565b506120a281546126da565b506001820154336001600160a01b039182161491821561214b575b505015610c8257600501805460ff81169060098210159182610369576002811492831561213e575b8315612128575b50506120f96008926127b5565b60ff191617905533907f5510d5e6aae1240aa1a06dbdba1a2738d59705856a2b2dd100fad8db8c93ed4b5f80a3005b909250610369576120f9600460089314926120ec565b506003811492505f6120e5565b9091505416331483806120bd565b346101b55761216736612625565b9061217181612484565b5060ff600561218083546126da565b50549201546001600160a01b03909216911660098110156103695760056121a79114612713565b33036122395760ff61048b92169060018210158061222e575b6121c99061274f565b805f5260096020526121e560ff60405f205460081c1615612781565b604051916121f283612509565b8252600160208084019182525f92835260099052604090912091518254915161ffff1990921660ff919091161790151560081b61ff0016179055565b5060058211156121c0565b60405162461bcd60e51b815260206004820152600e60248201526d37b7363c9031b0b91037bbb732b960911b6044820152606490fd5b346101b5575f3660031901126101b557602061ffff60025460a01c16604051908152f35b346101b55760203660031901126101b5576004356005548110156101b5576122ba90612484565b5080546001820154916001600160401b0390816002820154169060038101549360048201549260058301549560ff8716906122f760068601612545565b9561230460078701612545565b9161231160088801612545565b94600a61232060098a01612545565b980154996040519c8d9861020099528d602060018060a01b03831691015260a01c1660408d015260608c015260808b015260a08a01526009821015610369576123be6123eb966123dc9560ff8c9b6123cd9660c08e01528c60e0838360081c1615159101528c610100838360101c1615159101528c610120838360181c16151591015260201c1615156101408c0152806101608c01528a01906125e7565b908882036101808a01526125e7565b908682036101a08801526125e7565b908482036101c08601526125e7565b906101e08301520390f35b346101b5575f3660031901126101b557335f52600360205260ff60405f20541661245857335f52600360205260405f20600160ff19825416179055337f54db7a5cb4735e1aac1f53db512d3390390bb6637bd30ad4bf9fc98667d9b9b95f80a2005b62461bcd60e51b8152602060048201526007602482015266616c726561647960c81b6044820152606490fd5b6005548110156124bd57600b9060055f52027f036b6384b5eca791c62761152d0c79bb0604c104a5fb6f4eb0703f3154bb3db001905f90565b634e487b7160e01b5f52603260045260245ffd5b90600182811c921680156124ff575b60208310146124eb57565b634e487b7160e01b5f52602260045260245ffd5b91607f16916124e0565b604081019081106001600160401b03821117610bb457604052565b90601f801991011681019081106001600160401b03821117610bb457604052565b9060405191825f8254612557816124d1565b908184526020946001916001811690815f146125c55750600114612587575b50505061258592500383612524565b565b5f90815285812095935091905b8183106125ad57505061258593508201015f8080612576565b85548884018501529485019487945091830191612594565b9250505061258594925060ff191682840152151560051b8201015f8080612576565b91908251928382525f5b848110612611575050825f602080949584010152601f8019910116010190565b6020818301810151848301820152016125f1565b60409060031901126101b5576004359060243560ff811681036101b55790565b600435906001600160a01b03821682036101b557565b9181601f840112156101b5578235916001600160401b0383116101b557602083818601950101116101b557565b60409060031901126101b5576004359060243580151581036101b55790565b9060406003198301126101b55760043591602435906001600160401b0382116101b5576126d69160040161265b565b9091565b6004548110156124bd5760099060045f52027f8a35acfbc15ff81a39ae7d344fd709f28e8600b4aa8c65c6b64bfe7fe36bd19b01905f90565b1561271a57565b60405162461bcd60e51b815260206004820152600d60248201526c1b9bdd0818dbdb5c1b195d1959609a1b6044820152606490fd5b1561275657565b606460405162461bcd60e51b8152602060048201526004602482015263312e2e3560e01b6044820152fd5b1561278857565b60405162461bcd60e51b81526020600482015260056024820152641c985d195960da1b6044820152606490fd5b156127bc57565b60405162461bcd60e51b815260206004820152600a6024820152696261642073746174757360b01b6044820152606490fd5b156127f557565b60405162461bcd60e51b815260206004820152600a6024820152697265656e7472616e637960b01b6044820152606490fd5b1561282e57565b60405162461bcd60e51b815260206004820152600d60248201526c3737ba1031b0b91037bbb732b960991b6044820152606490fd5b1561286a57565b60405162461bcd60e51b815260206004820152600e60248201526d1c9959da5cdd195c88199a5c9cdd60921b6044820152606490fd5b156128a757565b60405162461bcd60e51b815260206004820152600960248201526862616420707269636560b81b6044820152606490fd5b156128df57565b60405162461bcd60e51b815260206004820152600c60248201526b34b73b30b634b2103cb2b0b960a11b6044820152606490fd5b6001600160401b038111610bb457601f01601f191660200190565b92919261293a82612913565b916129486040519384612524565b8294818452818301116101b5578281602093845f960137010152565b601f821161297157505050565b5f5260205f20906020601f840160051c830193106129a9575b601f0160051c01905b81811061299e575050565b5f8155600101612993565b909150819061298a565b91908203918211611cf657565b91908201809211611cf657565b81810292918115918404141715611cf657565b156129e757565b60405162461bcd60e51b81526020600482015260126024820152713737ba1031b7b73a3930b1ba1037bbb732b960711b6044820152606490fd5b15612a2857565b60405162461bcd60e51b815260206004820152600b60248201526a37b7363c903932b73a32b960a91b6044820152606490fd5b5f918291829182916001600160a01b03165af13d15612ad4573d612a7e81612913565b90612a8c6040519283612524565b81525f60203d92013e5b15612a9d57565b60405162461bcd60e51b815260206004820152600f60248201526e1d1c985b9cd9995c8819985a5b1959608a1b6044820152606490fd5b612a9656fea2646970667358221220945196faae5859197ed887c56d78cdd6054aab08edcfe3b980aa697f0a23f1d464736f6c63430008180033",
  "immutableReferences": {},
  "source": "// SPDX-License-Identifier: MIT\npragma solidity ^0.8.0;\n\ncontract CarRental {\n    /* =========================== Roles & Config =========================== */\n\n    address public contractOwner;         // contract owner (platform admin)\n    address public insuranceVerifier;     // role\n    address public arbitrator;            // role\n    uint16  public platformFeeBps;        // optional marketplace fee on rental (not deposit), e.g., 200 = 2%\n\n    modifier onlyOwner() { require(msg.sender == contractOwner, \"not contract owner\"); _; }\n    modifier onlyInsurance() { require(msg.sender == insuranceVerifier, \"not insurance\"); _; }\n    modifier onlyArbitrator() { require(msg.sender == arbitrator, \"not arbitrator\"); _; }\n\n    constructor(address _insuranceVerifier, address _arbitrator, uint16 _feeBps) {\n        contractOwner = msg.sender;\n        insuranceVerifier = _insuranceVerifier;\n        arbitrator = _arbitrator;\n        platformFeeBps = _feeBps; // can be 0\n    }\n\n    function setRoles(address _insuranceVerifier, address _arbitrator) external onlyOwner {\n        insuranceVerifier = _insuranceVerifier;\n        arbitrator = _arbitrator;\n    }\n\n    function setPlatformFee(uint16 _feeBps) external onlyOwner {\n        require(_feeBps <= 1000, \"fee too high\");\n        platformFeeBps = _feeBps;\n    }\n\n    /* ================================ Users =============================== */\n\n    struct User {\n        bool registered;\n    }\n    mapping(address => User) public users;\n\n    event UserRegistered(address indexed user);\n\n    function register() external {\n        require(!users[msg.sender].registered, \"already\");\n        users[msg.sender].registered = true;\n        emit UserRegistered(msg.sender);\n    }\n\n    /* =============================== Listings ============================= */\n\n    struct Listing {\n        address payable carOwner;         // car owner (listing creator)\n        uint256 dailyPrice;        // in wei per day\n        uint256 securityDeposit;   // in wei\n        bool    active;            // car owner can pause/unpause\n        bool    insuranceValid;    // set by InsuranceVerifier\n        string  insuranceDocURI;   // optional\n        string  make;              // car make/brand\n        string  model;             // car model\n        uint256 year;              // car year\n        string  location;          // car location\n    }\n    Listing[] public listings;\n\n    event ListingCreated(uint256 indexed listingId, address indexed carOwner);\n    event ListingEdited(uint256 indexed listingId);\n    event ListingActive(uint256 indexed listingId, bool active);\n    event InsuranceVerified(uint256 indexed listingId, bool valid);\n\n    function createListing(\n        uint256 dailyPrice,\n        uint256 securityDeposit,\n        string calldata insuranceDocURI,\n        string calldata make,\n        string calldata model,\n        uint256 year,\n        string calldata location\n    ) external returns (uint256 id) {\n        require(users[msg.sender].registered, \"register first\");\n        require(msg.sender != insuranceVerifier, \"insurance verifier cannot create listings\");\n        require(msg.sender != arbitrator, \"arbitrator cannot create listings\");\n        require(dailyPrice > 0, \"bad price\");\n        require(year > 1900 && year <= 2100, \"invalid year\");\n        listings.push(Listing({\n            carOwner: payable(msg.sender),\n            dailyPrice: dailyPrice,\n            securityDeposit: securityDeposit,\n            active: true,\n            insuranceValid: false,\n            insuranceDocURI: insuranceDocURI,\n            make: make,\n            model: model,\n            year: year,\n            location: location\n        }));\n        id = listings.length - 1;\n        emit ListingCreated(id, msg.sender);\n    }\n\n    function editListing(\n        uint256 listingId,\n        uint256 dailyPrice,\n        uint256 securityDeposit,\n        string calldata insuranceDocURI,\n        string calldata make,\n        string calldata model,\n        uint256 year,\n        string calldata location\n    ) external {\n        Listing storage L = listings[listingId];\n        require(msg.sender == L.carOwner, \"not car owner\");\n        require(dailyPrice > 0, \"bad price\");\n        require(year > 1900 && year <= 2100, \"invalid year\");\n        L.dailyPrice = dailyPrice;\n        L.securityDeposit = securityDeposit;\n        L.insuranceDocURI = insuranceDocURI;\n        L.make = make;\n        L.model = model;\n        L.year = year;\n        L.location = location;\n        emit ListingEdited(listingId);\n    }\n\n    function setListingActive(uint256 listingId, bool active_) external {\n        Listing storage L = listings[listingId];\n        require(msg.sender == L.carOwner, \"not car owner\");\n        L.active = active_;\n        emit ListingActive(listingId, active_);\n    }\n\n    function verifyInsurance(uint256 listingId, bool valid) external onlyInsurance {\n        listings[listingId].insuranceValid = valid;\n        emit InsuranceVerified(listingId, valid);\n    }\n\n    /* =============================== Bookings ============================= */\n\n    enum BookingStatus {\n        None,\n        Requested,     // renter escrowed funds; waiting for car owner approve/reject\n        Approved,      // pickup pending\n        Active,        // pickup confirmed by both\n        ReturnPending, // one party has confirmed return\n        Completed,     // funds split; ratings enabled\n        Rejected,      // rejected by car owner; refunded\n        Cancelled,     // cancelled before activation; refunded\n        Disputed       // arbitrator must resolve\n    }\n\n    struct Booking {\n        // immutable-ish\n        uint256 listingId;\n        address payable renter;\n        uint64  startDate;   // unix seconds\n        uint64  endDate;     // unix seconds\n        uint256 rentalCost;  // computed and locked at request time\n        uint256 deposit;     // copied from listing at request time\n\n        // status\n        BookingStatus status;\n        bool renterPickup;\n        bool ownerPickup;\n        bool renterReturn;\n        bool ownerReturn;\n\n        // evidence URIs (optional)\n        string pickupProofURI_renter;\n        string pickupProofURI_owner;\n        string returnProofURI_renter;\n        string returnProofURI_owner;\n\n        // accounting\n        uint256 escrow; // rentalCost + deposit, held until completion or dispute\n    }\n\n    Booking[] public bookings;\n\n    event BookingRequested(uint256 indexed bookingId, uint256 indexed listingId, address indexed renter, uint256 escrow);\n    event BookingApproved(uint256 indexed bookingId);\n    event BookingRejected(uint256 indexed bookingId);\n    event PickupConfirmed(uint256 indexed bookingId, address indexed by);\n    event ReturnConfirmed(uint256 indexed bookingId, address indexed by);\n    event BookingCompleted(uint256 indexed bookingId, uint256 ownerCredit, uint256 renterCredit, uint256 fee);\n    event BookingDisputed(uint256 indexed bookingId, address indexed by);\n    event BookingCancelled(uint256 indexed bookingId);\n\n    // Pull-payment balances\n    mapping(address => uint256) public balances;\n\n    // simple, gas-cheap reentrancy guard\n    uint256 private locked = 1;\n    modifier nonReentrant() {\n        require(locked == 1, \"reentrancy\");\n        locked = 2;\n        _;\n        locked = 1;\n    }\n\n    function daysBetween(uint64 a, uint64 b) internal pure returns (uint256) {\n        require(b > a, \"end>start\");\n        return (uint256(b) - uint256(a)) / 1 days;\n    }\n\n    function requestBooking(\n        uint256 listingId,\n        uint64 startDate,\n        uint64 endDate\n    ) external payable returns (uint256 id) {\n        require(users[msg.sender].registered, \"register first\");\n        require(msg.sender != insuranceVerifier, \"insurance verifier cannot book cars\");\n        require(msg.sender != arbitrator, \"arbitrator cannot book cars\");\n        Listing storage L = listings[listingId];\n        require(msg.sender != L.carOwner, \"cannot book own listing\");\n        require(L.active, \"listing inactive\");\n        require(L.insuranceValid, \"insurance not valid\");\n        require(startDate >= block.timestamp, \"start date must be in the future\");\n        uint256 numDays = daysBetween(startDate, endDate);\n        require(numDays > 0, \"min 1 day\");\n\n        uint256 rentalCost = L.dailyPrice * numDays;\n        uint256 total = rentalCost + L.securityDeposit;\n        require(msg.value == total, \"incorrect escrow\");\n\n        bookings.push();\n        id = bookings.length - 1;\n        Booking storage B = bookings[id];\n        B.listingId = listingId;\n        B.renter = payable(msg.sender);\n        B.startDate = startDate;\n        B.endDate = endDate;\n        B.rentalCost = rentalCost;\n        B.deposit = L.securityDeposit;\n        B.status = BookingStatus.Requested;\n        B.escrow = total;\n\n        emit BookingRequested(id, listingId, msg.sender, total);\n    }\n\n    function approveBooking(uint256 bookingId) external {\n        Booking storage B = bookings[bookingId];\n        Listing storage L = listings[B.listingId];\n        require(msg.sender == L.carOwner, \"not car owner\");\n        require(B.status == BookingStatus.Requested, \"bad status\");\n        B.status = BookingStatus.Approved;\n        emit BookingApproved(bookingId);\n    }\n\n    function rejectBooking(uint256 bookingId) external nonReentrant {\n        Booking storage B = bookings[bookingId];\n        Listing storage L = listings[B.listingId];\n        require(msg.sender == L.carOwner, \"not car owner\");\n        require(B.status == BookingStatus.Requested, \"bad status\");\n        uint256 refund = B.escrow;\n        B.escrow = 0;\n        B.status = BookingStatus.Rejected;\n        _safeTransfer(B.renter, refund);\n        emit BookingRejected(bookingId);\n    }\n\n    function cancelBeforeActive(uint256 bookingId) external nonReentrant {\n        Booking storage B = bookings[bookingId];\n        require(B.status == BookingStatus.Requested || B.status == BookingStatus.Approved, \"cannot cancel\");\n        require(msg.sender == B.renter, \"only renter\");\n        uint256 refund = B.escrow;\n        B.escrow = 0;\n        B.status = BookingStatus.Cancelled;\n        _safeTransfer(B.renter, refund);\n        emit BookingCancelled(bookingId);\n    }\n\n    function confirmPickup(uint256 bookingId, string calldata proofURI) external {\n        Booking storage B = bookings[bookingId];\n        Listing storage L = listings[B.listingId];\n        require(B.status == BookingStatus.Approved, \"not approved\");\n        if (msg.sender == B.renter) {\n            B.renterPickup = true;\n            B.pickupProofURI_renter = proofURI;\n        } else if (msg.sender == L.carOwner) {\n            B.ownerPickup = true;\n            B.pickupProofURI_owner = proofURI;\n        } else {\n            revert(\"not party\");\n        }\n        emit PickupConfirmed(bookingId, msg.sender);\n        if (B.renterPickup && B.ownerPickup) {\n            B.status = BookingStatus.Active;\n        }\n    }\n\n    function confirmReturn(uint256 bookingId, string calldata proofURI) external nonReentrant {\n        Booking storage B = bookings[bookingId];\n        Listing storage L = listings[B.listingId];\n        require(B.status == BookingStatus.Active || B.status == BookingStatus.ReturnPending, \"not active\");\n\n        if (msg.sender == B.renter) {\n            B.renterReturn = true;\n            B.returnProofURI_renter = proofURI;\n        } else if (msg.sender == L.carOwner) {\n            B.ownerReturn = true;\n            B.returnProofURI_owner = proofURI;\n        } else {\n            revert(\"not party\");\n        }\n        emit ReturnConfirmed(bookingId, msg.sender);\n\n        if (B.renterReturn && B.ownerReturn) {\n            // No dispute: settle immediately\n            _completeWithoutDispute(bookingId);\n        } else {\n            B.status = BookingStatus.ReturnPending;\n        }\n    }\n\n    function openDispute(uint256 bookingId) external {\n        Booking storage B = bookings[bookingId];\n        Listing storage L = listings[B.listingId];\n        require(\n            msg.sender == B.renter || msg.sender == L.carOwner,\n            \"not party\"\n        );\n        require(\n            B.status == BookingStatus.Approved ||\n            B.status == BookingStatus.Active ||\n            B.status == BookingStatus.ReturnPending,\n            \"bad status\"\n        );\n        B.status = BookingStatus.Disputed;\n        emit BookingDisputed(bookingId, msg.sender);\n    }\n\n    function resolveDispute(uint256 bookingId, uint256 ownerPayout, uint256 renterPayout)\n        external\n        nonReentrant\n        onlyArbitrator\n    {\n        Booking storage B = bookings[bookingId];\n        Listing storage L = listings[B.listingId];\n        require(B.status == BookingStatus.Disputed, \"not disputed\");\n        require(ownerPayout + renterPayout == B.escrow, \"must split escrow\");\n\n        uint256 fee = (ownerPayout * platformFeeBps) / 10_000;\n        uint256 ownerNet = ownerPayout - fee;\n\n        balances[L.carOwner] += ownerNet;\n        balances[B.renter] += renterPayout;\n        balances[contractOwner] += fee;\n\n        B.escrow = 0;\n        B.status = BookingStatus.Completed;\n\n        emit BookingCompleted(bookingId, ownerNet, renterPayout, fee);\n    }\n\n    function _completeWithoutDispute(uint256 bookingId) internal {\n        Booking storage B = bookings[bookingId];\n        Listing storage L = listings[B.listingId];\n        require(\n            B.status == BookingStatus.Active || B.status == BookingStatus.ReturnPending,\n            \"bad status\"\n        );\n\n        uint256 fee = (B.rentalCost * platformFeeBps) / 10_000;\n        uint256 ownerNet = B.rentalCost - fee;\n        uint256 renterBack = B.deposit;\n\n        require(B.escrow == B.rentalCost + B.deposit, \"escrow mismatch\");\n        balances[L.carOwner] += ownerNet;\n        balances[B.renter]   += renterBack;\n        balances[contractOwner]      += fee;\n\n        B.escrow = 0;\n        B.status = BookingStatus.Completed;\n\n        emit BookingCompleted(bookingId, ownerNet, renterBack, fee);\n    }\n\n    /* ================================ Ratings ============================= */\n\n    struct Rating { uint8 value; bool set; }\n    // bookingId => ratings\n    mapping(uint256 => Rating) public rateOwnerScore;\n    mapping(uint256 => Rating) public rateRenterScore;\n\n    function rateOwner(uint256 bookingId, uint8 score) external {\n        Booking storage B = bookings[bookingId];\n        require(B.status == BookingStatus.Completed, \"not completed\");\n        require(msg.sender == B.renter, \"only renter\");\n        require(score >= 1 && score <= 5, \"1..5\");\n        require(!rateOwnerScore[bookingId].set, \"rated\");\n        rateOwnerScore[bookingId] = Rating(score, true);\n    }\n\n    function rateRenter(uint256 bookingId, uint8 score) external {\n        Booking storage B = bookings[bookingId];\n        address carOwner = listings[B.listingId].carOwner;\n        require(B.status == BookingStatus.Completed, \"not completed\");\n        require(msg.sender == carOwner, \"only car owner\");\n        require(score >= 1 && score <= 5, \"1..5\");\n        require(!rateRenterScore[bookingId].set, \"rated\");\n        rateRenterScore[bookingId] = Rating(score, true);\n    }\n\n    /* ================================ Funds =============================== */\n\n    function withdraw() external nonReentrant {\n        uint256 amount = balances[msg.sender];\n        require(amount > 0, \"nothing to withdraw\");\n        balances[msg.sender] = 0;\n        _safeTransfer(payable(msg.sender), amount);\n    }\n\n    function _safeTransfer(address payable to, uint256 amount) internal {\n        (bool ok, ) = to.call{value: amount}(\"\");\n        require(ok, \"transfer failed\");\n    }\n}\n",
  "sourcePath": "/workspaces/DecentralizdCarRentalApp/blockchain/contracts/CarRental.sol",
  "compiler": {
    "name": "solc",
    "version": "0.8.24+commit.e11b9ed9.Emscripten.clang"
  },
  "schemaVersion": "3.4.16",
  "updatedAt": "2025-11-24T01:48:49.232Z",
  "networkType": "ethereum",
  "devdoc": {
    "kind": "dev",
    "methods": {},
    "version": 1
  },
  "userdoc": {
    "kind": "user",
    "methods": {},
    "version": 1
  }
}