{
  "contractName": "CarShareMinimal",
  "abi": [
    {
      "inputs": [
        {
          "internalType": "address",
          "name": "_insuranceVerifier",
          "type": "address"
        },
        {
          "internalType": "address",
          "name": "_arbitrator",
          "type": "address"
        },
        {
          "internalType": "uint16",
          "name": "_feeBps",
          "type": "uint16"
        }
      ],
      "stateMutability": "nonpayable",
      "type": "constructor"
    },
    {
      "anonymous": false,
      "inputs": [
        {
          "indexed": true,
          "internalType": "uint256",
          "name": "bookingId",
          "type": "uint256"
        }
      ],
      "name": "BookingApproved",
      "type": "event"
    },
    {
      "anonymous": false,
      "inputs": [
        {
          "indexed": true,
          "internalType": "uint256",
          "name": "bookingId",
          "type": "uint256"
        }
      ],
      "name": "BookingCancelled",
      "type": "event"
    },
    {
      "anonymous": false,
      "inputs": [
        {
          "indexed": true,
          "internalType": "uint256",
          "name": "bookingId",
          "type": "uint256"
        },
        {
          "indexed": false,
          "internalType": "uint256",
          "name": "ownerCredit",
          "type": "uint256"
        },
        {
          "indexed": false,
          "internalType": "uint256",
          "name": "renterCredit",
          "type": "uint256"
        },
        {
          "indexed": false,
          "internalType": "uint256",
          "name": "fee",
          "type": "uint256"
        }
      ],
      "name": "BookingCompleted",
      "type": "event"
    },
    {
      "anonymous": false,
      "inputs": [
        {
          "indexed": true,
          "internalType": "uint256",
          "name": "bookingId",
          "type": "uint256"
        },
        {
          "indexed": true,
          "internalType": "address",
          "name": "by",
          "type": "address"
        }
      ],
      "name": "BookingDisputed",
      "type": "event"
    },
    {
      "anonymous": false,
      "inputs": [
        {
          "indexed": true,
          "internalType": "uint256",
          "name": "bookingId",
          "type": "uint256"
        }
      ],
      "name": "BookingRejected",
      "type": "event"
    },
    {
      "anonymous": false,
      "inputs": [
        {
          "indexed": true,
          "internalType": "uint256",
          "name": "bookingId",
          "type": "uint256"
        },
        {
          "indexed": true,
          "internalType": "uint256",
          "name": "listingId",
          "type": "uint256"
        },
        {
          "indexed": true,
          "internalType": "address",
          "name": "renter",
          "type": "address"
        },
        {
          "indexed": false,
          "internalType": "uint256",
          "name": "escrow",
          "type": "uint256"
        }
      ],
      "name": "BookingRequested",
      "type": "event"
    },
    {
      "anonymous": false,
      "inputs": [
        {
          "indexed": true,
          "internalType": "uint256",
          "name": "listingId",
          "type": "uint256"
        },
        {
          "indexed": false,
          "internalType": "bool",
          "name": "valid",
          "type": "bool"
        }
      ],
      "name": "InsuranceVerified",
      "type": "event"
    },
    {
      "anonymous": false,
      "inputs": [
        {
          "indexed": true,
          "internalType": "uint256",
          "name": "listingId",
          "type": "uint256"
        },
        {
          "indexed": false,
          "internalType": "bool",
          "name": "active",
          "type": "bool"
        }
      ],
      "name": "ListingActive",
      "type": "event"
    },
    {
      "anonymous": false,
      "inputs": [
        {
          "indexed": true,
          "internalType": "uint256",
          "name": "listingId",
          "type": "uint256"
        },
        {
          "indexed": true,
          "internalType": "address",
          "name": "owner",
          "type": "address"
        }
      ],
      "name": "ListingCreated",
      "type": "event"
    },
    {
      "anonymous": false,
      "inputs": [
        {
          "indexed": true,
          "internalType": "uint256",
          "name": "listingId",
          "type": "uint256"
        }
      ],
      "name": "ListingEdited",
      "type": "event"
    },
    {
      "anonymous": false,
      "inputs": [
        {
          "indexed": true,
          "internalType": "uint256",
          "name": "bookingId",
          "type": "uint256"
        },
        {
          "indexed": true,
          "internalType": "address",
          "name": "by",
          "type": "address"
        }
      ],
      "name": "PickupConfirmed",
      "type": "event"
    },
    {
      "anonymous": false,
      "inputs": [
        {
          "indexed": true,
          "internalType": "uint256",
          "name": "bookingId",
          "type": "uint256"
        },
        {
          "indexed": true,
          "internalType": "address",
          "name": "by",
          "type": "address"
        }
      ],
      "name": "ReturnConfirmed",
      "type": "event"
    },
    {
      "anonymous": false,
      "inputs": [
        {
          "indexed": true,
          "internalType": "address",
          "name": "user",
          "type": "address"
        }
      ],
      "name": "UserRegistered",
      "type": "event"
    },
    {
      "inputs": [],
      "name": "arbitrator",
      "outputs": [
        {
          "internalType": "address",
          "name": "",
          "type": "address"
        }
      ],
      "stateMutability": "view",
      "type": "function"
    },
    {
      "inputs": [
        {
          "internalType": "address",
          "name": "",
          "type": "address"
        }
      ],
      "name": "balances",
      "outputs": [
        {
          "internalType": "uint256",
          "name": "",
          "type": "uint256"
        }
      ],
      "stateMutability": "view",
      "type": "function"
    },
    {
      "inputs": [
        {
          "internalType": "uint256",
          "name": "",
          "type": "uint256"
        }
      ],
      "name": "bookings",
      "outputs": [
        {
          "internalType": "uint256",
          "name": "listingId",
          "type": "uint256"
        },
        {
          "internalType": "address payable",
          "name": "renter",
          "type": "address"
        },
        {
          "internalType": "uint64",
          "name": "startDate",
          "type": "uint64"
        },
        {
          "internalType": "uint64",
          "name": "endDate",
          "type": "uint64"
        },
        {
          "internalType": "uint256",
          "name": "rentalCost",
          "type": "uint256"
        },
        {
          "internalType": "uint256",
          "name": "deposit",
          "type": "uint256"
        },
        {
          "internalType": "enum CarShareMinimal.BookingStatus",
          "name": "status",
          "type": "uint8"
        },
        {
          "internalType": "bool",
          "name": "renterPickup",
          "type": "bool"
        },
        {
          "internalType": "bool",
          "name": "ownerPickup",
          "type": "bool"
        },
        {
          "internalType": "bool",
          "name": "renterReturn",
          "type": "bool"
        },
        {
          "internalType": "bool",
          "name": "ownerReturn",
          "type": "bool"
        },
        {
          "internalType": "string",
          "name": "pickupProofURI_renter",
          "type": "string"
        },
        {
          "internalType": "string",
          "name": "pickupProofURI_owner",
          "type": "string"
        },
        {
          "internalType": "string",
          "name": "returnProofURI_renter",
          "type": "string"
        },
        {
          "internalType": "string",
          "name": "returnProofURI_owner",
          "type": "string"
        },
        {
          "internalType": "uint256",
          "name": "escrow",
          "type": "uint256"
        }
      ],
      "stateMutability": "view",
      "type": "function"
    },
    {
      "inputs": [],
      "name": "insuranceVerifier",
      "outputs": [
        {
          "internalType": "address",
          "name": "",
          "type": "address"
        }
      ],
      "stateMutability": "view",
      "type": "function"
    },
    {
      "inputs": [
        {
          "internalType": "uint256",
          "name": "",
          "type": "uint256"
        }
      ],
      "name": "listings",
      "outputs": [
        {
          "internalType": "address payable",
          "name": "ownerAddr",
          "type": "address"
        },
        {
          "internalType": "uint256",
          "name": "dailyPrice",
          "type": "uint256"
        },
        {
          "internalType": "uint256",
          "name": "securityDeposit",
          "type": "uint256"
        },
        {
          "internalType": "bool",
          "name": "active",
          "type": "bool"
        },
        {
          "internalType": "bool",
          "name": "insuranceValid",
          "type": "bool"
        },
        {
          "internalType": "string",
          "name": "insuranceDocURI",
          "type": "string"
        }
      ],
      "stateMutability": "view",
      "type": "function"
    },
    {
      "inputs": [],
      "name": "owner",
      "outputs": [
        {
          "internalType": "address",
          "name": "",
          "type": "address"
        }
      ],
      "stateMutability": "view",
      "type": "function"
    },
    {
      "inputs": [],
      "name": "platformFeeBps",
      "outputs": [
        {
          "internalType": "uint16",
          "name": "",
          "type": "uint16"
        }
      ],
      "stateMutability": "view",
      "type": "function"
    },
    {
      "inputs": [
        {
          "internalType": "uint256",
          "name": "",
          "type": "uint256"
        }
      ],
      "name": "rateOwnerScore",
      "outputs": [
        {
          "internalType": "uint8",
          "name": "value",
          "type": "uint8"
        },
        {
          "internalType": "bool",
          "name": "set",
          "type": "bool"
        }
      ],
      "stateMutability": "view",
      "type": "function"
    },
    {
      "inputs": [
        {
          "internalType": "uint256",
          "name": "",
          "type": "uint256"
        }
      ],
      "name": "rateRenterScore",
      "outputs": [
        {
          "internalType": "uint8",
          "name": "value",
          "type": "uint8"
        },
        {
          "internalType": "bool",
          "name": "set",
          "type": "bool"
        }
      ],
      "stateMutability": "view",
      "type": "function"
    },
    {
      "inputs": [
        {
          "internalType": "address",
          "name": "",
          "type": "address"
        }
      ],
      "name": "users",
      "outputs": [
        {
          "internalType": "bool",
          "name": "registered",
          "type": "bool"
        }
      ],
      "stateMutability": "view",
      "type": "function"
    },
    {
      "inputs": [
        {
          "internalType": "address",
          "name": "_insuranceVerifier",
          "type": "address"
        },
        {
          "internalType": "address",
          "name": "_arbitrator",
          "type": "address"
        }
      ],
      "name": "setRoles",
      "outputs": [],
      "stateMutability": "nonpayable",
      "type": "function"
    },
    {
      "inputs": [
        {
          "internalType": "uint16",
          "name": "_feeBps",
          "type": "uint16"
        }
      ],
      "name": "setPlatformFee",
      "outputs": [],
      "stateMutability": "nonpayable",
      "type": "function"
    },
    {
      "inputs": [],
      "name": "register",
      "outputs": [],
      "stateMutability": "nonpayable",
      "type": "function"
    },
    {
      "inputs": [
        {
          "internalType": "uint256",
          "name": "dailyPrice",
          "type": "uint256"
        },
        {
          "internalType": "uint256",
          "name": "securityDeposit",
          "type": "uint256"
        },
        {
          "internalType": "string",
          "name": "insuranceDocURI",
          "type": "string"
        }
      ],
      "name": "createListing",
      "outputs": [
        {
          "internalType": "uint256",
          "name": "id",
          "type": "uint256"
        }
      ],
      "stateMutability": "nonpayable",
      "type": "function"
    },
    {
      "inputs": [
        {
          "internalType": "uint256",
          "name": "listingId",
          "type": "uint256"
        },
        {
          "internalType": "uint256",
          "name": "dailyPrice",
          "type": "uint256"
        },
        {
          "internalType": "uint256",
          "name": "securityDeposit",
          "type": "uint256"
        },
        {
          "internalType": "string",
          "name": "insuranceDocURI",
          "type": "string"
        }
      ],
      "name": "editListing",
      "outputs": [],
      "stateMutability": "nonpayable",
      "type": "function"
    },
    {
      "inputs": [
        {
          "internalType": "uint256",
          "name": "listingId",
          "type": "uint256"
        },
        {
          "internalType": "bool",
          "name": "active_",
          "type": "bool"
        }
      ],
      "name": "setListingActive",
      "outputs": [],
      "stateMutability": "nonpayable",
      "type": "function"
    },
    {
      "inputs": [
        {
          "internalType": "uint256",
          "name": "listingId",
          "type": "uint256"
        },
        {
          "internalType": "bool",
          "name": "valid",
          "type": "bool"
        }
      ],
      "name": "verifyInsurance",
      "outputs": [],
      "stateMutability": "nonpayable",
      "type": "function"
    },
    {
      "inputs": [
        {
          "internalType": "uint256",
          "name": "listingId",
          "type": "uint256"
        },
        {
          "internalType": "uint64",
          "name": "startDate",
          "type": "uint64"
        },
        {
          "internalType": "uint64",
          "name": "endDate",
          "type": "uint64"
        }
      ],
      "name": "requestBooking",
      "outputs": [
        {
          "internalType": "uint256",
          "name": "id",
          "type": "uint256"
        }
      ],
      "stateMutability": "payable",
      "type": "function"
    },
    {
      "inputs": [
        {
          "internalType": "uint256",
          "name": "bookingId",
          "type": "uint256"
        }
      ],
      "name": "approveBooking",
      "outputs": [],
      "stateMutability": "nonpayable",
      "type": "function"
    },
    {
      "inputs": [
        {
          "internalType": "uint256",
          "name": "bookingId",
          "type": "uint256"
        }
      ],
      "name": "rejectBooking",
      "outputs": [],
      "stateMutability": "nonpayable",
      "type": "function"
    },
    {
      "inputs": [
        {
          "internalType": "uint256",
          "name": "bookingId",
          "type": "uint256"
        }
      ],
      "name": "cancelBeforeActive",
      "outputs": [],
      "stateMutability": "nonpayable",
      "type": "function"
    },
    {
      "inputs": [
        {
          "internalType": "uint256",
          "name": "bookingId",
          "type": "uint256"
        },
        {
          "internalType": "string",
          "name": "proofURI",
          "type": "string"
        }
      ],
      "name": "confirmPickup",
      "outputs": [],
      "stateMutability": "nonpayable",
      "type": "function"
    },
    {
      "inputs": [
        {
          "internalType": "uint256",
          "name": "bookingId",
          "type": "uint256"
        },
        {
          "internalType": "string",
          "name": "proofURI",
          "type": "string"
        }
      ],
      "name": "confirmReturn",
      "outputs": [],
      "stateMutability": "nonpayable",
      "type": "function"
    },
    {
      "inputs": [
        {
          "internalType": "uint256",
          "name": "bookingId",
          "type": "uint256"
        }
      ],
      "name": "openDispute",
      "outputs": [],
      "stateMutability": "nonpayable",
      "type": "function"
    },
    {
      "inputs": [
        {
          "internalType": "uint256",
          "name": "bookingId",
          "type": "uint256"
        },
        {
          "internalType": "uint256",
          "name": "ownerPayout",
          "type": "uint256"
        },
        {
          "internalType": "uint256",
          "name": "renterPayout",
          "type": "uint256"
        }
      ],
      "name": "resolveDispute",
      "outputs": [],
      "stateMutability": "nonpayable",
      "type": "function"
    },
    {
      "inputs": [
        {
          "internalType": "uint256",
          "name": "bookingId",
          "type": "uint256"
        },
        {
          "internalType": "uint8",
          "name": "score",
          "type": "uint8"
        }
      ],
      "name": "rateOwner",
      "outputs": [],
      "stateMutability": "nonpayable",
      "type": "function"
    },
    {
      "inputs": [
        {
          "internalType": "uint256",
          "name": "bookingId",
          "type": "uint256"
        },
        {
          "internalType": "uint8",
          "name": "score",
          "type": "uint8"
        }
      ],
      "name": "rateRenter",
      "outputs": [],
      "stateMutability": "nonpayable",
      "type": "function"
    },
    {
      "inputs": [],
      "name": "withdraw",
      "outputs": [],
      "stateMutability": "nonpayable",
      "type": "function"
    }
  ],
  "bytecode": "0x608034620000cf57601f6200241238819003918201601f19168301916001600160401b03831184841017620000d357808492606094604052833981010312620000cf576200004d81620000e7565b60406200005d60208401620000e7565b9201519061ffff82168203620000cf57600160078190555f80546001600160a01b031990811633179091558154166001600160a01b03928316179055600280546001600160b01b031916939091169290921760a09190911b61ffff60a01b161790556040516123159081620000fd8239f35b5f80fd5b634e487b7160e01b5f52604160045260245ffd5b51906001600160a01b0382168203620000cf5756fe6080604090808252600480361015610015575f80fd5b5f3560e01c9182631aa3a00814611c24575081631dab301e14611abb57816322dcd13e14611a96578163267070ad1461197557816327d00fb01461187a57816327e235e3146118435781632fd54029146117815781633ccfd60b146116f25781633fabe74f146115415781633feb94751461150257816341449e7f1461127a57816348a46bd7146111245781635549756c146110ba5781635cbc742c1461102c5781635f42c4da14610bdf57816362c514f414610b2f5781636cbc87da146108765781636cc6cde11461084e5781637599f54f14610826578163857d239b146107165781638a2c5522146106d55781638da5cb5b146106ae5781639eb42b9e14610402578163a24e0ea214610326578163a87430ba146102ea578163a9621af614610248578163de74e57b146101bb575063f6072a1014610154575f80fd5b346101b7573660031901126101b75761016b611e86565b6024356001600160a01b0381811692918390036101b757610190815f541633146121ec565b6bffffffffffffffffffffffff60a01b911681600154161760015560025416176002555f80f35b5f80fd5b82346101b75760203660031901126101b757813582548110156101b7576101e461024491611f1b565b509160ff60018060a01b038454169360018101549561020e60028301549160038401549301611d86565b938051978897885260208801528601528181161515606086015260081c161515608084015260c060a084015260c0830190611e28565b0390f35b346101b75760203660031901126101b757803590600561026783611cb1565b506102876102758254611f1b565b50546001600160a01b0316331461208c565b019081549060ff82169060098210156102d75750906102aa60016002931461201a565b60ff19161790557fa0135758a7a152fbc51fc651f1214b629c474d76f3dcbe6095def00eaf87f18c5f80a2005b602190634e487b7160e01b5f525260245ffd5b82346101b75760203660031901126101b7576020906001600160a01b0361030f611e86565b165f526003825260ff815f20541690519015158152f35b82346101b75761033536611e66565b9261033f82611cb1565b509060ff6005830154169060098210156102d757506103f59461037f60ff9361036b6005869514611f54565b600101546001600160a01b03163314612227565b16926001841015806103f7575b61039590611f90565b825f5260086020526103af82825f205460081c1615611fc2565b8051936103bb85611d36565b84526020840192600184525f5260086020525f2092511660ff1983541617825551151561ff00825491151560081b169061ff001916179055565b005b50600584111561038c565b8260603660031901126101b7578135906024918235906001600160401b0391828116958682036101b75760449384359081168091036101b757335f526020976003895261045460ff885f20541661210d565b61045d85611f1b565b5090600382015460ff8116156106795760081c60ff161561064257808311156106155761048e620151809184612100565b0480156105e8576104a560029160018401546120ed565b9101916104b38354836120cc565b968734036105b5575060055498600160401b8a10156105a35760018a01806005556104dd8b611cb1565b50508a11610591575091600a93918795936104f78b611cb1565b509488865560018601908154906001600160401b0360a01b9060a01b16906001600160401b0360a01b1933169063ffffffff60e01b161717905560028501906001600160401b03198254161790556003840155549082015560058101600160ff1982541617905501558251918252837fccf64f7160f860aa529bd13ee78679de073ff8e017433570a494477ea0563a43863394a451908152f35b634e487b7160e01b5f90815260118652fd5b634e487b7160e01b5f90815260418652fd5b846f696e636f727265637420657363726f7760801b60649260108d8f8e519562461bcd60e51b8752860152840152820152fd5b875162461bcd60e51b81528085018b90526009818b0152686d696e20312064617960b81b81890152606490fd5b875162461bcd60e51b81528085018b90526009818b015268195b990f9cdd185c9d60ba1b81890152606490fd5b875162461bcd60e51b81528085018b90526013818b0152721a5b9cdd5c985b98d9481b9bdd081d985b1a59606a1b81890152606490fd5b50875162461bcd60e51b81528085018b90526010818b01526f6c697374696e6720696e61637469766560801b81890152606490fd5b82346101b7575f3660031901126101b7575f5490516001600160a01b039091168152602090f35b82346101b75760203660031901126101b75790355f908152600960209081529082902054915160ff808416825260089390931c909216151590820152604090f35b9050346101b75760203660031901126101b75780359061073a600160075414612053565b600260075561074882611cb1565b506005810180549260ff841660098110156108135760018114908115610808575b50156107d5575060018201549394506107aa936001600160a01b031691600790600a90610797338614612227565b01935f8554955560ff1916179055612261565b7ff774c001cb52a3566b767ed6e37c92706acb2b80a3ff6049e2849cd62725d0855f80a26001600755005b606490602087519162461bcd60e51b8352820152600d60248201526c18d85b9b9bdd0818d85b98d95b609a1b6044820152fd5b60029150145f610769565b602182634e487b7160e01b5f525260245ffd5b82346101b7575f3660031901126101b75760015490516001600160a01b039091168152602090f35b82346101b7575f3660031901126101b75760025490516001600160a01b039091168152602090f35b9050346101b75761088636611ee8565b610891839493611cb1565b5061089c8154611f1b565b5090600581019687549060ff82166009811015610b1c57600203610aeb5760018381015490946001600160a01b03913390831603610a16575050885461ff0019166101001789555050600601936001600160401b038311610a03575061090c826109068654611cfe565b8661219d565b5f90601f831160011461099c5750819061093b935f92610991575b50508160011b915f199060031b1c19161790565b90555b33907f7f44dc96dfe82556f254203e555fa87ce76986f76eb50fc73d105558207ebb585f80a3805460ff8160081c1680610984575b61097957005b60ff19166003179055005b5060ff8160101c16610973565b013590505f80610927565b92601f19831691855f528360209360205f20945f905b888383106109e957505050106109d0575b505050811b01905561093e565b01355f19600384901b60f8161c191690555f80806109c3565b8686013588559096019593840193879350908101906109b2565b604190634e487b7160e01b5f525260245ffd5b541633145f14610ad1575062ff0000191662010000178755600701936001600160401b038311610a035750610a4f826109068654611cfe565b5f90601f8311600114610a8457508190610a7d935f926109915750508160011b915f199060031b1c19161790565b905561093e565b92601f19831691855f528360209360205f20945f905b88838310610ab757505050106109d057505050811b01905561093e565b868601358855909601959384019387935090810190610a9a565b5162461bcd60e51b815280610ae7818901611ff6565b0390fd5b5162461bcd60e51b8152602081880152600c60248201526b1b9bdd08185c1c1c9bdd995960a21b6044820152606490fd5b602188634e487b7160e01b5f525260245ffd5b82346101b757610b3e36611ec9565b60015491939092916001600160a01b03163303610bad575081602091610ba47f407f6d6347d33597d66cbccf076e0edec1897f54ef9b615e3ceeea3b84ca7100946003610b8a88611f1b565b50019061ff00825491151560081b169061ff001916179055565b519015158152a2005b6020606492519162461bcd60e51b8352820152600d60248201526c6e6f7420696e737572616e636560981b6044820152fd5b9050346101b757610bef36611ee8565b60019391610c008560075414612053565b6002600755610c0e84611cb1565b5090610c1a8254611f1b565b50926005830192835460ff81166009811015610b1c578760038214918215611022575b505015610ff257818901546001600160a01b039687913390831603610f1f575050845463ff0000001916630100000017855550600801916001600160401b038211610f0c57610c9682610c908554611cfe565b8561219d565b5f90601f8311600114610ea557610cc392915f91836109915750508160011b915f199060031b1c19161790565b90555b33847f8e823f38cc816af62efd341a51dee8f420e5fd62f6c8483c16186967968b86615f80a3805460ff8160181c1680610e98575b15610e87575050610d0b83611cb1565b50610d168154611f1b565b5091600582019060ff8254166009811015610e745780866003610d439314918215610e6a575b505061201a565b600383015490612710610d5f61ffff60025460a01c16846120ed565b0493610d6b8584612100565b958782015497600a830194610d828a8754926120cc565b03610e3557509282808b5f94610e2d9998967f05b7b4c873ca1f8b454c7ecb8fe749d8241d28083d9a966e4f1f40604db97a789d9e9f98541686526006602052878620610dd08c82546120cc565b905501541683526006602052848320610dea8a82546120cc565b905582541682526006602052838220610e048682546120cc565b905555600560ff1982541617905551938493846040919493926060820195825260208201520152565b0390a2600755005b60649060208d519162461bcd60e51b8352820152600f60248201526e0cae6c6e4deee40dad2e6dac2e8c6d608b1b6044820152fd5b149050865f610d3c565b602186634e487b7160e01b5f525260245ffd5b60ff19169092179091555050600755005b5060ff8160201c16610cfb565b90889291601f19831691855f5260209260205f20935f905b828210610ef35750508411610eda575b505050811b019055610cc6565b01355f19600384901b60f8161c191690555f8080610ecd565b8385013586558d97909501949283019290810190610ebd565b604186634e487b7160e01b5f525260245ffd5b541633145f14610fdb5764ff000000001916640100000000178455600901916001600160401b038211610f0c57610f5a82610c908554611cfe565b5f90601f8311600114610f8e57610f8792915f91836109915750508160011b915f199060031b1c19161790565b9055610cc6565b90889291601f19831691855f5260209260205f20935f905b828210610fc25750508411610eda57505050811b019055610cc6565b8385013586558d97909501949283019290810190610fa6565b895162461bcd60e51b815280610ae7818a01611ff6565b895162461bcd60e51b8152602081890152600a6024820152696e6f742061637469766560b01b6044820152606490fd5b149050875f610c3d565b9050346101b75760203660031901126101b75780359161ffff83168084036101b7576103e89061106660018060a01b035f541633146121ec565b11611088576002805461ffff60a01b191660a085901b61ffff60a01b16179055005b906020606492519162461bcd60e51b8352820152600c60248201526b0cccaca40e8dede40d0d2ced60a31b6044820152fd5b82346101b7577f0d85d5ffd1953217a27952a606aa782203679f724633773992d529af76ef695060206110ec36611ec9565b9093610ba48260036110fd88611f1b565b5061111260018060a01b03825416331461208c565b019060ff801983541691151516179055565b346101b75760803660031901126101b757803560243591606435906001600160401b03918281116101b75761115c9036908301611e9c565b918061116786611f1b565b5061117c60018060a01b03825416331461208c565b61118788151561214a565b6001976001820155604435600282015501938311610a0357506111ae82610c908554611cfe565b5f94601f831160011461121257506111de92939482915f926112075750508160011b915f199060031b1c19161790565b90555b7f4c520ab09d5e06c4894077fa644a2085c63bd037543118226e3428b47423ebb55f80a2005b013590508580610927565b90601f19831695845f5260209260205f20935f915b898310611263575050508360019596971061124a575b505050811b0190556111e1565b01355f19600384901b60f8161c1916905584808061123d565b848401358655948501949281019291810191611227565b9050346101b75760603660031901126101b75780359160246001600160401b036044358181116101b7576112b19036908601611e9c565b959091335f52602096600388526112cd60ff875f20541661210d565b6112d883151561214a565b85519060c08201828110848211176114f05787523382528882019384528682019086358252606083019160019586845260808501925f845261131981612182565b986113268c519a8b611d65565b818a5236828201116101b757815f928f92838d01378a01015260a085019788528a54600160401b8110156114de57808861136292018d55611f1b565b9590956114cd575185546001600160a01b039091166001600160a01b031990911617855551868501555160028401559051600383018054925191151560ff1661ffff199093169290921790151560081b61ff00161790558601925180519182116114bb576113d4826109068654611cfe565b8792601f831160011461145c5750611401925f91836114515750508160011b915f199060031b1c19161790565b90555b82545f19810193908411611440575050519033817f4e0f9c4c10f3933a613addba91d6bd94f54a77e3e2748707ee7fe140aef218c55f80a38152f35b601190634e487b7160e01b5f52525ffd5b015190505f80610927565b92601f19831691855f52838a5f20935f5b8c888383106114a4575050501061148c575b505050811b019055611404565b01515f1960f88460031b161c191690555f808061147f565b86860151885590960195948501948793500161146d565b84604188634e487b7160e01b5f52525ffd5b895f8d634e487b7160e01b8252525ffd5b8960418d634e487b7160e01b5f52525ffd5b8660418a634e487b7160e01b5f52525ffd5b82346101b75760203660031901126101b75790355f908152600860208181529183902054925160ff80851682529390911c909216151590820152604090f35b9050346101b75760603660031901126101b757803590602435906044359161156d600160075414612053565b60026007819055546001600160a01b039283821633036116be5761159086611cb1565b509361159c8554611f1b565b5094600581019360ff85541660098110156116ab57600803611679576115c288876120cc565b93600a830194855403611642575092828060015f946116389998966116207f05b7b4c873ca1f8b454c7ecb8fe749d8241d28083d9a966e4f1f40604db97a789e9f9961161861ffff6127109260a01c168d6120ed565b04809b612100565b9b541686526006602052878620610dd08c82546120cc565b0390a26001600755005b60649060208c519162461bcd60e51b835282015260116024820152706d7573742073706c697420657363726f7760781b6044820152fd5b895162461bcd60e51b8152602081860152600c60248201526b1b9bdd08191a5cdc1d5d195960a21b6044820152606490fd5b602185634e487b7160e01b5f525260245ffd5b606490602088519162461bcd60e51b8352820152600e60248201526d3737ba1030b93134ba3930ba37b960911b6044820152fd5b9050346101b7575f3660031901126101b757611712600160075414612053565b6002600755335f526006602052815f205490811561174857505f61174192338252600660205281205533612261565b6001600755005b606490602084519162461bcd60e51b835282015260136024820152726e6f7468696e6720746f20776974686472617760681b6044820152fd5b346101b75760203660031901126101b75780356117a2600160075414612053565b60026007556117b081611cb1565b50916117bc8354611f1b565b50546001600160a01b03906117d4908216331461208c565b6005840180549260ff84169060098210156102d75750946001916117fd8361181897981461201a565b6006600a8301955f8754975560ff1916179055015416612261565b7f6dda7094ca195e26efe2cf69536896d308e1876357ff952db64326381dc394135f80a26001600755005b82346101b75760203660031901126101b7576020906001600160a01b03611868611e86565b165f5260068252805f20549051908152f35b9050346101b75760203660031901126101b75780359161189983611cb1565b50906118a58254611f1b565b506001830154336001600160a01b0391821614918215611967575b50501561195157506005019081549060ff821690600982101591826108135760028114928315611944575b8315611930575b5050509061190160089261201a565b60ff191617905533907f5510d5e6aae1240aa1a06dbdba1a2738d59705856a2b2dd100fad8db8c93ed4b5f80a3005b90919250610813571461190160085f6118f2565b506003811492505f6118eb565b5162461bcd60e51b815280610ae7818501611ff6565b909150541633145f806118c0565b82346101b75761198436611e66565b9261198e82611cb1565b5060ff600561199d8354611f1b565b50549201546001600160a01b0390921691166009811015611a835760056119c49114611f54565b3303611a53575060ff806103f5941692600184101580611a48575b6119e890611f90565b825f526009602052611a0282825f205460081c1615611fc2565b805193611a0e85611d36565b84526020840192600184525f5260096020525f2092511660ff1983541617825551151561ff00825491151560081b169061ff001916179055565b5060058411156119df565b606490602084519162461bcd60e51b8352820152600a60248201526937b7363c9037bbb732b960b11b6044820152fd5b602183634e487b7160e01b5f525260245ffd5b82346101b7575f3660031901126101b75760209061ffff60025460a01c169051908152f35b9050346101b75760203660031901126101b75780356005548110156101b757611ae390611cb1565b5091828054916001820154936001600160401b039384600285015416916003850154818601549160058701549260ff84169260068901611b2290611d86565b96611b2f60078b01611d86565b98611b3c60088c01611d86565b9a600901611b4990611d86565b9d600a01549b81519d8e6102009a8152600160a01b600190038216906020015260a01c16908d015260608c015260808b015260a08a015260098210156102d7575093611bec611c0a94611c19979460ff611bfb958c9d9960c08e01528c60e0838360081c1615159101528c610100838360101c1615159101528c610120838360181c16151591015260201c1615156101408c0152806101608c01528a0190611e28565b908882036101808a0152611e28565b908682036101a0880152611e28565b908482036101c0860152611e28565b906101e08301520390f35b9150346101b7575f3660031901126101b757335f52600360205260ff835f205416611c865782335f5260036020525f20600160ff19825416179055337f54db7a5cb4735e1aac1f53db512d3390390bb6637bd30ad4bf9fc98667d9b9b95f80a2005b62461bcd60e51b82526020908201526007602482015266616c726561647960c81b6044820152606490fd5b600554811015611cea57600b9060055f52027f036b6384b5eca791c62761152d0c79bb0604c104a5fb6f4eb0703f3154bb3db001905f90565b634e487b7160e01b5f52603260045260245ffd5b90600182811c92168015611d2c575b6020831014611d1857565b634e487b7160e01b5f52602260045260245ffd5b91607f1691611d0d565b604081019081106001600160401b03821117611d5157604052565b634e487b7160e01b5f52604160045260245ffd5b90601f801991011681019081106001600160401b03821117611d5157604052565b9060405191825f8254611d9881611cfe565b908184526020946001916001811690815f14611e065750600114611dc8575b505050611dc692500383611d65565b565b5f90815285812095935091905b818310611dee575050611dc693508201015f8080611db7565b85548884018501529485019487945091830191611dd5565b92505050611dc694925060ff191682840152151560051b8201015f8080611db7565b91908251928382525f5b848110611e52575050825f602080949584010152601f8019910116010190565b602081830181015184830182015201611e32565b60409060031901126101b7576004359060243560ff811681036101b75790565b600435906001600160a01b03821682036101b757565b9181601f840112156101b7578235916001600160401b0383116101b757602083818601950101116101b757565b60409060031901126101b7576004359060243580151581036101b75790565b9060406003198301126101b75760043591602435906001600160401b0382116101b757611f1791600401611e9c565b9091565b600454811015611cea5760059060045f52027f8a35acfbc15ff81a39ae7d344fd709f28e8600b4aa8c65c6b64bfe7fe36bd19b01905f90565b15611f5b57565b60405162461bcd60e51b815260206004820152600d60248201526c1b9bdd0818dbdb5c1b195d1959609a1b6044820152606490fd5b15611f9757565b606460405162461bcd60e51b8152602060048201526004602482015263312e2e3560e01b6044820152fd5b15611fc957565b60405162461bcd60e51b81526020600482015260056024820152641c985d195960da1b6044820152606490fd5b6060906020815260096020820152686e6f7420706172747960b81b60408201520190565b1561202157565b60405162461bcd60e51b815260206004820152600a6024820152696261642073746174757360b01b6044820152606490fd5b1561205a57565b60405162461bcd60e51b815260206004820152600a6024820152697265656e7472616e637960b01b6044820152606490fd5b1561209357565b60405162461bcd60e51b81526020600482015260116024820152703737ba103634b9ba34b7339037bbb732b960791b6044820152606490fd5b919082018092116120d957565b634e487b7160e01b5f52601160045260245ffd5b818102929181159184041417156120d957565b919082039182116120d957565b1561211457565b60405162461bcd60e51b815260206004820152600e60248201526d1c9959da5cdd195c88199a5c9cdd60921b6044820152606490fd5b1561215157565b60405162461bcd60e51b815260206004820152600960248201526862616420707269636560b81b6044820152606490fd5b6001600160401b038111611d5157601f01601f191660200190565b601f82116121aa57505050565b5f5260205f20906020601f840160051c830193106121e2575b601f0160051c01905b8181106121d7575050565b5f81556001016121cc565b90915081906121c3565b156121f357565b60405162461bcd60e51b815260206004820152600c60248201526b6e6f7420706c6174666f726d60a01b6044820152606490fd5b1561222e57565b60405162461bcd60e51b815260206004820152600b60248201526a37b7363c903932b73a32b960a91b6044820152606490fd5b5f918291829182916001600160a01b03165af13d156122da573d61228481612182565b906122926040519283611d65565b81525f60203d92013e5b156122a357565b60405162461bcd60e51b815260206004820152600f60248201526e1d1c985b9cd9995c8819985a5b1959608a1b6044820152606490fd5b61229c56fea2646970667358221220d7b3139cab685eb28746c321cf25c3bd9371d58a9a0603907e5051b183acb52f64736f6c63430008180033",
  "immutableReferences": {},
  "source": "// SPDX-License-Identifier: MIT\npragma solidity ^0.8.0;\n\ncontract CarShareMinimal {\n    /* =========================== Roles & Config =========================== */\n\n    address public owner;                 // contract owner (platform)\n    address public insuranceVerifier;     // role\n    address public arbitrator;            // role\n    uint16  public platformFeeBps;        // optional marketplace fee on rental (not deposit), e.g., 200 = 2%\n\n    modifier onlyOwner() { require(msg.sender == owner, \"not platform\"); _; }\n    modifier onlyInsurance() { require(msg.sender == insuranceVerifier, \"not insurance\"); _; }\n    modifier onlyArbitrator() { require(msg.sender == arbitrator, \"not arbitrator\"); _; }\n\n    constructor(address _insuranceVerifier, address _arbitrator, uint16 _feeBps) {\n        owner = msg.sender;\n        insuranceVerifier = _insuranceVerifier;\n        arbitrator = _arbitrator;\n        platformFeeBps = _feeBps; // can be 0\n    }\n\n    function setRoles(address _insuranceVerifier, address _arbitrator) external onlyOwner {\n        insuranceVerifier = _insuranceVerifier;\n        arbitrator = _arbitrator;\n    }\n\n    function setPlatformFee(uint16 _feeBps) external onlyOwner {\n        require(_feeBps <= 1000, \"fee too high\");\n        platformFeeBps = _feeBps;\n    }\n\n    /* ================================ Users =============================== */\n\n    struct User {\n        bool registered;\n    }\n    mapping(address => User) public users;\n\n    event UserRegistered(address indexed user);\n\n    function register() external {\n        require(!users[msg.sender].registered, \"already\");\n        users[msg.sender].registered = true;\n        emit UserRegistered(msg.sender);\n    }\n\n    /* =============================== Listings ============================= */\n\n    struct Listing {\n        address payable ownerAddr;\n        uint256 dailyPrice;        // in wei per day\n        uint256 securityDeposit;   // in wei\n        bool    active;            // owner can pause/unpause\n        bool    insuranceValid;    // set by InsuranceVerifier\n        string  insuranceDocURI;   // optional\n    }\n    Listing[] public listings;\n\n    event ListingCreated(uint256 indexed listingId, address indexed owner);\n    event ListingEdited(uint256 indexed listingId);\n    event ListingActive(uint256 indexed listingId, bool active);\n    event InsuranceVerified(uint256 indexed listingId, bool valid);\n\n    function createListing(\n        uint256 dailyPrice,\n        uint256 securityDeposit,\n        string calldata insuranceDocURI\n    ) external returns (uint256 id) {\n        require(users[msg.sender].registered, \"register first\");\n        require(dailyPrice > 0, \"bad price\");\n        listings.push(Listing({\n            ownerAddr: payable(msg.sender),\n            dailyPrice: dailyPrice,\n            securityDeposit: securityDeposit,\n            active: true,\n            insuranceValid: false,\n            insuranceDocURI: insuranceDocURI\n        }));\n        id = listings.length - 1;\n        emit ListingCreated(id, msg.sender);\n    }\n\n    function editListing(\n        uint256 listingId,\n        uint256 dailyPrice,\n        uint256 securityDeposit,\n        string calldata insuranceDocURI\n    ) external {\n        Listing storage L = listings[listingId];\n        require(msg.sender == L.ownerAddr, \"not listing owner\");\n        require(dailyPrice > 0, \"bad price\");\n        L.dailyPrice = dailyPrice;\n        L.securityDeposit = securityDeposit;\n        L.insuranceDocURI = insuranceDocURI;\n        emit ListingEdited(listingId);\n    }\n\n    function setListingActive(uint256 listingId, bool active_) external {\n        Listing storage L = listings[listingId];\n        require(msg.sender == L.ownerAddr, \"not listing owner\");\n        L.active = active_;\n        emit ListingActive(listingId, active_);\n    }\n\n    function verifyInsurance(uint256 listingId, bool valid) external onlyInsurance {\n        listings[listingId].insuranceValid = valid;\n        emit InsuranceVerified(listingId, valid);\n    }\n\n    /* =============================== Bookings ============================= */\n\n    enum BookingStatus {\n        None,\n        Requested,     // renter escrowed funds; waiting for owner approve/reject\n        Approved,      // pickup pending\n        Active,        // pickup confirmed by both\n        ReturnPending, // one party has confirmed return\n        Completed,     // funds split; ratings enabled\n        Rejected,      // rejected by owner; refunded\n        Cancelled,     // cancelled before activation; refunded\n        Disputed       // arbitrator must resolve\n    }\n\n    struct Booking {\n        // immutable-ish\n        uint256 listingId;\n        address payable renter;\n        uint64  startDate;   // unix seconds\n        uint64  endDate;     // unix seconds\n        uint256 rentalCost;  // computed and locked at request time\n        uint256 deposit;     // copied from listing at request time\n\n        // status\n        BookingStatus status;\n        bool renterPickup;\n        bool ownerPickup;\n        bool renterReturn;\n        bool ownerReturn;\n\n        // evidence URIs (optional)\n        string pickupProofURI_renter;\n        string pickupProofURI_owner;\n        string returnProofURI_renter;\n        string returnProofURI_owner;\n\n        // accounting\n        uint256 escrow; // rentalCost + deposit, held until completion or dispute\n    }\n\n    Booking[] public bookings;\n\n    event BookingRequested(uint256 indexed bookingId, uint256 indexed listingId, address indexed renter, uint256 escrow);\n    event BookingApproved(uint256 indexed bookingId);\n    event BookingRejected(uint256 indexed bookingId);\n    event PickupConfirmed(uint256 indexed bookingId, address indexed by);\n    event ReturnConfirmed(uint256 indexed bookingId, address indexed by);\n    event BookingCompleted(uint256 indexed bookingId, uint256 ownerCredit, uint256 renterCredit, uint256 fee);\n    event BookingDisputed(uint256 indexed bookingId, address indexed by);\n    event BookingCancelled(uint256 indexed bookingId);\n\n    // Pull-payment balances\n    mapping(address => uint256) public balances;\n\n    // simple, gas-cheap reentrancy guard\n    uint256 private locked = 1;\n    modifier nonReentrant() {\n        require(locked == 1, \"reentrancy\");\n        locked = 2;\n        _;\n        locked = 1;\n    }\n\n    function daysBetween(uint64 a, uint64 b) internal pure returns (uint256) {\n        require(b > a, \"end>start\");\n        return (uint256(b) - uint256(a)) / 1 days;\n    }\n\n    function requestBooking(\n        uint256 listingId,\n        uint64 startDate,\n        uint64 endDate\n    ) external payable returns (uint256 id) {\n        require(users[msg.sender].registered, \"register first\");\n        Listing storage L = listings[listingId];\n        require(L.active, \"listing inactive\");\n        require(L.insuranceValid, \"insurance not valid\");\n        uint256 numDays = daysBetween(startDate, endDate);\n        require(numDays > 0, \"min 1 day\");\n\n        uint256 rentalCost = L.dailyPrice * numDays;\n        uint256 total = rentalCost + L.securityDeposit;\n        require(msg.value == total, \"incorrect escrow\");\n\n        bookings.push();\n        id = bookings.length - 1;\n        Booking storage B = bookings[id];\n        B.listingId = listingId;\n        B.renter = payable(msg.sender);\n        B.startDate = startDate;\n        B.endDate = endDate;\n        B.rentalCost = rentalCost;\n        B.deposit = L.securityDeposit;\n        B.status = BookingStatus.Requested;\n        B.escrow = total;\n\n        emit BookingRequested(id, listingId, msg.sender, total);\n    }\n\n    function approveBooking(uint256 bookingId) external {\n        Booking storage B = bookings[bookingId];\n        Listing storage L = listings[B.listingId];\n        require(msg.sender == L.ownerAddr, \"not listing owner\");\n        require(B.status == BookingStatus.Requested, \"bad status\");\n        B.status = BookingStatus.Approved;\n        emit BookingApproved(bookingId);\n    }\n\n    function rejectBooking(uint256 bookingId) external nonReentrant {\n        Booking storage B = bookings[bookingId];\n        Listing storage L = listings[B.listingId];\n        require(msg.sender == L.ownerAddr, \"not listing owner\");\n        require(B.status == BookingStatus.Requested, \"bad status\");\n        uint256 refund = B.escrow;\n        B.escrow = 0;\n        B.status = BookingStatus.Rejected;\n        _safeTransfer(B.renter, refund);\n        emit BookingRejected(bookingId);\n    }\n\n    function cancelBeforeActive(uint256 bookingId) external nonReentrant {\n        Booking storage B = bookings[bookingId];\n        require(B.status == BookingStatus.Requested || B.status == BookingStatus.Approved, \"cannot cancel\");\n        require(msg.sender == B.renter, \"only renter\");\n        uint256 refund = B.escrow;\n        B.escrow = 0;\n        B.status = BookingStatus.Cancelled;\n        _safeTransfer(B.renter, refund);\n        emit BookingCancelled(bookingId);\n    }\n\n    function confirmPickup(uint256 bookingId, string calldata proofURI) external {\n        Booking storage B = bookings[bookingId];\n        Listing storage L = listings[B.listingId];\n        require(B.status == BookingStatus.Approved, \"not approved\");\n        if (msg.sender == B.renter) {\n            B.renterPickup = true;\n            B.pickupProofURI_renter = proofURI;\n        } else if (msg.sender == L.ownerAddr) {\n            B.ownerPickup = true;\n            B.pickupProofURI_owner = proofURI;\n        } else {\n            revert(\"not party\");\n        }\n        emit PickupConfirmed(bookingId, msg.sender);\n        if (B.renterPickup && B.ownerPickup) {\n            B.status = BookingStatus.Active;\n        }\n    }\n\n    function confirmReturn(uint256 bookingId, string calldata proofURI) external nonReentrant {\n        Booking storage B = bookings[bookingId];\n        Listing storage L = listings[B.listingId];\n        require(B.status == BookingStatus.Active || B.status == BookingStatus.ReturnPending, \"not active\");\n\n        if (msg.sender == B.renter) {\n            B.renterReturn = true;\n            B.returnProofURI_renter = proofURI;\n        } else if (msg.sender == L.ownerAddr) {\n            B.ownerReturn = true;\n            B.returnProofURI_owner = proofURI;\n        } else {\n            revert(\"not party\");\n        }\n        emit ReturnConfirmed(bookingId, msg.sender);\n\n        if (B.renterReturn && B.ownerReturn) {\n            // No dispute: settle immediately\n            _completeWithoutDispute(bookingId);\n        } else {\n            B.status = BookingStatus.ReturnPending;\n        }\n    }\n\n    function openDispute(uint256 bookingId) external {\n        Booking storage B = bookings[bookingId];\n        Listing storage L = listings[B.listingId];\n        require(\n            msg.sender == B.renter || msg.sender == L.ownerAddr,\n            \"not party\"\n        );\n        require(\n            B.status == BookingStatus.Approved ||\n            B.status == BookingStatus.Active ||\n            B.status == BookingStatus.ReturnPending,\n            \"bad status\"\n        );\n        B.status = BookingStatus.Disputed;\n        emit BookingDisputed(bookingId, msg.sender);\n    }\n\n    function resolveDispute(uint256 bookingId, uint256 ownerPayout, uint256 renterPayout)\n        external\n        nonReentrant\n        onlyArbitrator\n    {\n        Booking storage B = bookings[bookingId];\n        Listing storage L = listings[B.listingId];\n        require(B.status == BookingStatus.Disputed, \"not disputed\");\n        require(ownerPayout + renterPayout == B.escrow, \"must split escrow\");\n\n        uint256 fee = (ownerPayout * platformFeeBps) / 10_000;\n        uint256 ownerNet = ownerPayout - fee;\n\n        balances[L.ownerAddr] += ownerNet;\n        balances[B.renter] += renterPayout;\n        balances[owner] += fee;\n\n        B.escrow = 0;\n        B.status = BookingStatus.Completed;\n\n        emit BookingCompleted(bookingId, ownerNet, renterPayout, fee);\n    }\n\n    function _completeWithoutDispute(uint256 bookingId) internal {\n        Booking storage B = bookings[bookingId];\n        Listing storage L = listings[B.listingId];\n        require(\n            B.status == BookingStatus.Active || B.status == BookingStatus.ReturnPending,\n            \"bad status\"\n        );\n\n        uint256 fee = (B.rentalCost * platformFeeBps) / 10_000;\n        uint256 ownerNet = B.rentalCost - fee;\n        uint256 renterBack = B.deposit;\n\n        require(B.escrow == B.rentalCost + B.deposit, \"escrow mismatch\");\n        balances[L.ownerAddr] += ownerNet;\n        balances[B.renter]   += renterBack;\n        balances[owner]      += fee;\n\n        B.escrow = 0;\n        B.status = BookingStatus.Completed;\n\n        emit BookingCompleted(bookingId, ownerNet, renterBack, fee);\n    }\n\n    /* ================================ Ratings ============================= */\n\n    struct Rating { uint8 value; bool set; }\n    // bookingId => ratings\n    mapping(uint256 => Rating) public rateOwnerScore;\n    mapping(uint256 => Rating) public rateRenterScore;\n\n    function rateOwner(uint256 bookingId, uint8 score) external {\n        Booking storage B = bookings[bookingId];\n        require(B.status == BookingStatus.Completed, \"not completed\");\n        require(msg.sender == B.renter, \"only renter\");\n        require(score >= 1 && score <= 5, \"1..5\");\n        require(!rateOwnerScore[bookingId].set, \"rated\");\n        rateOwnerScore[bookingId] = Rating(score, true);\n    }\n\n    function rateRenter(uint256 bookingId, uint8 score) external {\n        Booking storage B = bookings[bookingId];\n        address listingOwner = listings[B.listingId].ownerAddr;\n        require(B.status == BookingStatus.Completed, \"not completed\");\n        require(msg.sender == listingOwner, \"only owner\");\n        require(score >= 1 && score <= 5, \"1..5\");\n        require(!rateRenterScore[bookingId].set, \"rated\");\n        rateRenterScore[bookingId] = Rating(score, true);\n    }\n\n    /* ================================ Funds =============================== */\n\n    function withdraw() external nonReentrant {\n        uint256 amount = balances[msg.sender];\n        require(amount > 0, \"nothing to withdraw\");\n        balances[msg.sender] = 0;\n        _safeTransfer(payable(msg.sender), amount);\n    }\n\n    function _safeTransfer(address payable to, uint256 amount) internal {\n        (bool ok, ) = to.call{value: amount}(\"\");\n        require(ok, \"transfer failed\");\n    }\n}\n",
  "sourcePath": "/workspaces/DecentralizdCarRentalApp/blockchain/contracts/CarShareMinimal.sol",
  "compiler": {
    "name": "solc",
    "version": "0.8.24+commit.e11b9ed9.Emscripten.clang"
  },
  "schemaVersion": "3.4.16",
  "updatedAt": "2025-11-17T06:38:55.108Z",
  "devdoc": {
    "kind": "dev",
    "methods": {},
    "version": 1
  },
  "userdoc": {
    "kind": "user",
    "methods": {},
    "version": 1
  }
}