{
  "contractName": "CarRental",
  "abi": [
    {
      "inputs": [],
      "stateMutability": "nonpayable",
      "type": "constructor"
    },
    {
      "anonymous": false,
      "inputs": [
        {
          "indexed": true,
          "internalType": "uint256",
          "name": "bookingId",
          "type": "uint256"
        },
        {
          "indexed": true,
          "internalType": "address",
          "name": "owner",
          "type": "address"
        }
      ],
      "name": "BookingApproved",
      "type": "event"
    },
    {
      "anonymous": false,
      "inputs": [
        {
          "indexed": true,
          "internalType": "uint256",
          "name": "bookingId",
          "type": "uint256"
        }
      ],
      "name": "BookingCancelled",
      "type": "event"
    },
    {
      "anonymous": false,
      "inputs": [
        {
          "indexed": true,
          "internalType": "uint256",
          "name": "bookingId",
          "type": "uint256"
        },
        {
          "indexed": true,
          "internalType": "uint256",
          "name": "carId",
          "type": "uint256"
        },
        {
          "indexed": true,
          "internalType": "address",
          "name": "renter",
          "type": "address"
        }
      ],
      "name": "BookingCreated",
      "type": "event"
    },
    {
      "anonymous": false,
      "inputs": [
        {
          "indexed": true,
          "internalType": "uint256",
          "name": "carId",
          "type": "uint256"
        },
        {
          "indexed": true,
          "internalType": "address",
          "name": "owner",
          "type": "address"
        }
      ],
      "name": "CarEdited",
      "type": "event"
    },
    {
      "anonymous": false,
      "inputs": [
        {
          "indexed": true,
          "internalType": "uint256",
          "name": "carId",
          "type": "uint256"
        },
        {
          "indexed": true,
          "internalType": "address",
          "name": "owner",
          "type": "address"
        },
        {
          "indexed": false,
          "internalType": "string",
          "name": "make",
          "type": "string"
        },
        {
          "indexed": false,
          "internalType": "string",
          "name": "model",
          "type": "string"
        }
      ],
      "name": "CarListed",
      "type": "event"
    },
    {
      "anonymous": false,
      "inputs": [
        {
          "indexed": true,
          "internalType": "uint256",
          "name": "carId",
          "type": "uint256"
        },
        {
          "indexed": true,
          "internalType": "address",
          "name": "owner",
          "type": "address"
        }
      ],
      "name": "CarRemoved",
      "type": "event"
    },
    {
      "anonymous": false,
      "inputs": [
        {
          "indexed": true,
          "internalType": "uint256",
          "name": "disputeId",
          "type": "uint256"
        },
        {
          "indexed": true,
          "internalType": "uint256",
          "name": "bookingId",
          "type": "uint256"
        },
        {
          "indexed": true,
          "internalType": "address",
          "name": "initiator",
          "type": "address"
        }
      ],
      "name": "DisputeOpened",
      "type": "event"
    },
    {
      "anonymous": false,
      "inputs": [
        {
          "indexed": true,
          "internalType": "uint256",
          "name": "disputeId",
          "type": "uint256"
        },
        {
          "indexed": true,
          "internalType": "address",
          "name": "arbitrator",
          "type": "address"
        }
      ],
      "name": "DisputeResolved",
      "type": "event"
    },
    {
      "anonymous": false,
      "inputs": [
        {
          "indexed": true,
          "internalType": "address",
          "name": "owner",
          "type": "address"
        },
        {
          "indexed": false,
          "internalType": "uint256",
          "name": "amount",
          "type": "uint256"
        }
      ],
      "name": "EarningsWithdrawn",
      "type": "event"
    },
    {
      "anonymous": false,
      "inputs": [
        {
          "indexed": true,
          "internalType": "address",
          "name": "renter",
          "type": "address"
        },
        {
          "indexed": true,
          "internalType": "address",
          "name": "verifier",
          "type": "address"
        }
      ],
      "name": "InsuranceRevoked",
      "type": "event"
    },
    {
      "anonymous": false,
      "inputs": [
        {
          "indexed": true,
          "internalType": "address",
          "name": "renter",
          "type": "address"
        },
        {
          "indexed": true,
          "internalType": "address",
          "name": "verifier",
          "type": "address"
        }
      ],
      "name": "InsuranceVerified",
      "type": "event"
    },
    {
      "anonymous": false,
      "inputs": [
        {
          "indexed": true,
          "internalType": "address",
          "name": "owner",
          "type": "address"
        },
        {
          "indexed": false,
          "internalType": "string",
          "name": "username",
          "type": "string"
        }
      ],
      "name": "OwnerRegistered",
      "type": "event"
    },
    {
      "anonymous": false,
      "inputs": [
        {
          "indexed": true,
          "internalType": "uint256",
          "name": "bookingId",
          "type": "uint256"
        },
        {
          "indexed": true,
          "internalType": "address",
          "name": "confirmer",
          "type": "address"
        }
      ],
      "name": "PickupConfirmed",
      "type": "event"
    },
    {
      "anonymous": false,
      "inputs": [
        {
          "indexed": true,
          "internalType": "uint256",
          "name": "bookingId",
          "type": "uint256"
        },
        {
          "indexed": true,
          "internalType": "address",
          "name": "rater",
          "type": "address"
        },
        {
          "indexed": true,
          "internalType": "address",
          "name": "ratee",
          "type": "address"
        },
        {
          "indexed": false,
          "internalType": "uint8",
          "name": "rating",
          "type": "uint8"
        }
      ],
      "name": "RatingSubmitted",
      "type": "event"
    },
    {
      "anonymous": false,
      "inputs": [
        {
          "indexed": true,
          "internalType": "address",
          "name": "renter",
          "type": "address"
        },
        {
          "indexed": false,
          "internalType": "string",
          "name": "username",
          "type": "string"
        }
      ],
      "name": "RenterRegistered",
      "type": "event"
    },
    {
      "anonymous": false,
      "inputs": [
        {
          "indexed": true,
          "internalType": "uint256",
          "name": "bookingId",
          "type": "uint256"
        },
        {
          "indexed": true,
          "internalType": "address",
          "name": "confirmer",
          "type": "address"
        }
      ],
      "name": "ReturnConfirmed",
      "type": "event"
    },
    {
      "inputs": [],
      "name": "bookingCounter",
      "outputs": [
        {
          "internalType": "uint256",
          "name": "",
          "type": "uint256"
        }
      ],
      "stateMutability": "view",
      "type": "function"
    },
    {
      "inputs": [
        {
          "internalType": "uint256",
          "name": "",
          "type": "uint256"
        }
      ],
      "name": "bookings",
      "outputs": [
        {
          "internalType": "uint256",
          "name": "carId",
          "type": "uint256"
        },
        {
          "internalType": "address",
          "name": "renter",
          "type": "address"
        },
        {
          "internalType": "address",
          "name": "owner",
          "type": "address"
        },
        {
          "internalType": "uint256",
          "name": "startDate",
          "type": "uint256"
        },
        {
          "internalType": "uint256",
          "name": "endDate",
          "type": "uint256"
        },
        {
          "internalType": "uint256",
          "name": "totalCost",
          "type": "uint256"
        },
        {
          "internalType": "enum CarRental.BookingStatus",
          "name": "status",
          "type": "uint8"
        },
        {
          "internalType": "bool",
          "name": "pickupConfirmed",
          "type": "bool"
        },
        {
          "internalType": "bool",
          "name": "returnConfirmed",
          "type": "bool"
        },
        {
          "internalType": "bool",
          "name": "ownerApproved",
          "type": "bool"
        },
        {
          "internalType": "bool",
          "name": "hasDispute",
          "type": "bool"
        },
        {
          "internalType": "uint256",
          "name": "disputeId",
          "type": "uint256"
        }
      ],
      "stateMutability": "view",
      "type": "function"
    },
    {
      "inputs": [],
      "name": "carCounter",
      "outputs": [
        {
          "internalType": "uint256",
          "name": "",
          "type": "uint256"
        }
      ],
      "stateMutability": "view",
      "type": "function"
    },
    {
      "inputs": [
        {
          "internalType": "uint256",
          "name": "",
          "type": "uint256"
        }
      ],
      "name": "cars",
      "outputs": [
        {
          "internalType": "address",
          "name": "owner",
          "type": "address"
        },
        {
          "internalType": "string",
          "name": "make",
          "type": "string"
        },
        {
          "internalType": "string",
          "name": "model",
          "type": "string"
        },
        {
          "internalType": "uint256",
          "name": "year",
          "type": "uint256"
        },
        {
          "internalType": "string",
          "name": "location",
          "type": "string"
        },
        {
          "internalType": "uint256",
          "name": "dailyRate",
          "type": "uint256"
        },
        {
          "internalType": "bool",
          "name": "isAvailable",
          "type": "bool"
        },
        {
          "internalType": "bool",
          "name": "isListed",
          "type": "bool"
        },
        {
          "internalType": "uint256",
          "name": "totalBookings",
          "type": "uint256"
        }
      ],
      "stateMutability": "view",
      "type": "function"
    },
    {
      "inputs": [],
      "name": "contractOwner",
      "outputs": [
        {
          "internalType": "address",
          "name": "",
          "type": "address"
        }
      ],
      "stateMutability": "view",
      "type": "function"
    },
    {
      "inputs": [
        {
          "internalType": "address",
          "name": "",
          "type": "address"
        }
      ],
      "name": "disputeArbitrators",
      "outputs": [
        {
          "internalType": "bool",
          "name": "",
          "type": "bool"
        }
      ],
      "stateMutability": "view",
      "type": "function"
    },
    {
      "inputs": [],
      "name": "disputeCounter",
      "outputs": [
        {
          "internalType": "uint256",
          "name": "",
          "type": "uint256"
        }
      ],
      "stateMutability": "view",
      "type": "function"
    },
    {
      "inputs": [
        {
          "internalType": "uint256",
          "name": "",
          "type": "uint256"
        }
      ],
      "name": "disputes",
      "outputs": [
        {
          "internalType": "uint256",
          "name": "bookingId",
          "type": "uint256"
        },
        {
          "internalType": "address",
          "name": "initiator",
          "type": "address"
        },
        {
          "internalType": "string",
          "name": "reason",
          "type": "string"
        },
        {
          "internalType": "enum CarRental.DisputeStatus",
          "name": "status",
          "type": "uint8"
        },
        {
          "internalType": "address",
          "name": "arbitrator",
          "type": "address"
        }
      ],
      "stateMutability": "view",
      "type": "function"
    },
    {
      "inputs": [
        {
          "internalType": "address",
          "name": "",
          "type": "address"
        }
      ],
      "name": "insuranceRecords",
      "outputs": [
        {
          "internalType": "bool",
          "name": "isVerified",
          "type": "bool"
        },
        {
          "internalType": "bool",
          "name": "isRevoked",
          "type": "bool"
        },
        {
          "internalType": "uint256",
          "name": "verifiedAt",
          "type": "uint256"
        },
        {
          "internalType": "address",
          "name": "verifier",
          "type": "address"
        }
      ],
      "stateMutability": "view",
      "type": "function"
    },
    {
      "inputs": [
        {
          "internalType": "address",
          "name": "",
          "type": "address"
        }
      ],
      "name": "insuranceVerifiers",
      "outputs": [
        {
          "internalType": "bool",
          "name": "",
          "type": "bool"
        }
      ],
      "stateMutability": "view",
      "type": "function"
    },
    {
      "inputs": [
        {
          "internalType": "string",
          "name": "",
          "type": "string"
        }
      ],
      "name": "ownerUsernames",
      "outputs": [
        {
          "internalType": "bool",
          "name": "",
          "type": "bool"
        }
      ],
      "stateMutability": "view",
      "type": "function"
    },
    {
      "inputs": [
        {
          "internalType": "address",
          "name": "",
          "type": "address"
        }
      ],
      "name": "owners",
      "outputs": [
        {
          "internalType": "string",
          "name": "username",
          "type": "string"
        },
        {
          "internalType": "bytes32",
          "name": "loginHash",
          "type": "bytes32"
        },
        {
          "internalType": "bool",
          "name": "isRegistered",
          "type": "bool"
        },
        {
          "internalType": "uint256",
          "name": "totalEarnings",
          "type": "uint256"
        },
        {
          "internalType": "uint256",
          "name": "withdrawableEarnings",
          "type": "uint256"
        },
        {
          "internalType": "uint256",
          "name": "totalListings",
          "type": "uint256"
        }
      ],
      "stateMutability": "view",
      "type": "function"
    },
    {
      "inputs": [
        {
          "internalType": "string",
          "name": "",
          "type": "string"
        }
      ],
      "name": "renterUsernames",
      "outputs": [
        {
          "internalType": "bool",
          "name": "",
          "type": "bool"
        }
      ],
      "stateMutability": "view",
      "type": "function"
    },
    {
      "inputs": [
        {
          "internalType": "address",
          "name": "",
          "type": "address"
        }
      ],
      "name": "renters",
      "outputs": [
        {
          "internalType": "string",
          "name": "username",
          "type": "string"
        },
        {
          "internalType": "bytes32",
          "name": "loginHash",
          "type": "bytes32"
        },
        {
          "internalType": "bool",
          "name": "isRegistered",
          "type": "bool"
        },
        {
          "internalType": "uint256",
          "name": "totalBookings",
          "type": "uint256"
        }
      ],
      "stateMutability": "view",
      "type": "function"
    },
    {
      "inputs": [
        {
          "internalType": "string",
          "name": "_username",
          "type": "string"
        },
        {
          "internalType": "bytes32",
          "name": "_passwordHash",
          "type": "bytes32"
        }
      ],
      "name": "registerOwner",
      "outputs": [],
      "stateMutability": "nonpayable",
      "type": "function"
    },
    {
      "inputs": [
        {
          "internalType": "string",
          "name": "_username",
          "type": "string"
        },
        {
          "internalType": "bytes32",
          "name": "_passwordHash",
          "type": "bytes32"
        }
      ],
      "name": "registerRenter",
      "outputs": [],
      "stateMutability": "nonpayable",
      "type": "function"
    },
    {
      "inputs": [
        {
          "internalType": "bool",
          "name": "isOwner",
          "type": "bool"
        },
        {
          "internalType": "bytes32",
          "name": "_passwordHash",
          "type": "bytes32"
        }
      ],
      "name": "login",
      "outputs": [
        {
          "internalType": "bool",
          "name": "",
          "type": "bool"
        }
      ],
      "stateMutability": "view",
      "type": "function"
    },
    {
      "inputs": [
        {
          "internalType": "string",
          "name": "_make",
          "type": "string"
        },
        {
          "internalType": "string",
          "name": "_model",
          "type": "string"
        },
        {
          "internalType": "uint256",
          "name": "_year",
          "type": "uint256"
        },
        {
          "internalType": "string",
          "name": "_location",
          "type": "string"
        },
        {
          "internalType": "uint256",
          "name": "_dailyRate",
          "type": "uint256"
        }
      ],
      "name": "listCar",
      "outputs": [],
      "stateMutability": "nonpayable",
      "type": "function"
    },
    {
      "inputs": [
        {
          "internalType": "uint256",
          "name": "_carId",
          "type": "uint256"
        },
        {
          "internalType": "string",
          "name": "_make",
          "type": "string"
        },
        {
          "internalType": "string",
          "name": "_model",
          "type": "string"
        },
        {
          "internalType": "uint256",
          "name": "_year",
          "type": "uint256"
        },
        {
          "internalType": "string",
          "name": "_location",
          "type": "string"
        },
        {
          "internalType": "uint256",
          "name": "_dailyRate",
          "type": "uint256"
        }
      ],
      "name": "editListing",
      "outputs": [],
      "stateMutability": "nonpayable",
      "type": "function"
    },
    {
      "inputs": [
        {
          "internalType": "uint256",
          "name": "_carId",
          "type": "uint256"
        }
      ],
      "name": "removeCar",
      "outputs": [],
      "stateMutability": "nonpayable",
      "type": "function"
    },
    {
      "inputs": [
        {
          "internalType": "uint256",
          "name": "_carId",
          "type": "uint256"
        },
        {
          "internalType": "uint256",
          "name": "_startDate",
          "type": "uint256"
        },
        {
          "internalType": "uint256",
          "name": "_endDate",
          "type": "uint256"
        }
      ],
      "name": "bookCar",
      "outputs": [],
      "stateMutability": "payable",
      "type": "function"
    },
    {
      "inputs": [
        {
          "internalType": "uint256",
          "name": "_bookingId",
          "type": "uint256"
        }
      ],
      "name": "cancelBooking",
      "outputs": [],
      "stateMutability": "nonpayable",
      "type": "function"
    },
    {
      "inputs": [
        {
          "internalType": "uint256",
          "name": "_bookingId",
          "type": "uint256"
        }
      ],
      "name": "approveBooking",
      "outputs": [],
      "stateMutability": "nonpayable",
      "type": "function"
    },
    {
      "inputs": [
        {
          "internalType": "uint256",
          "name": "_bookingId",
          "type": "uint256"
        }
      ],
      "name": "confirmPickup",
      "outputs": [],
      "stateMutability": "nonpayable",
      "type": "function"
    },
    {
      "inputs": [
        {
          "internalType": "uint256",
          "name": "_bookingId",
          "type": "uint256"
        }
      ],
      "name": "confirmReturn",
      "outputs": [],
      "stateMutability": "nonpayable",
      "type": "function"
    },
    {
      "inputs": [
        {
          "internalType": "uint256",
          "name": "_bookingId",
          "type": "uint256"
        },
        {
          "internalType": "string",
          "name": "_reason",
          "type": "string"
        }
      ],
      "name": "openDispute",
      "outputs": [],
      "stateMutability": "nonpayable",
      "type": "function"
    },
    {
      "inputs": [
        {
          "internalType": "uint256",
          "name": "_disputeId",
          "type": "uint256"
        },
        {
          "internalType": "address",
          "name": "_winner",
          "type": "address"
        }
      ],
      "name": "resolveDispute",
      "outputs": [],
      "stateMutability": "nonpayable",
      "type": "function"
    },
    {
      "inputs": [
        {
          "internalType": "uint256",
          "name": "_bookingId",
          "type": "uint256"
        }
      ],
      "name": "settleBooking",
      "outputs": [],
      "stateMutability": "nonpayable",
      "type": "function"
    },
    {
      "inputs": [],
      "name": "withdrawEarnings",
      "outputs": [],
      "stateMutability": "nonpayable",
      "type": "function"
    },
    {
      "inputs": [
        {
          "internalType": "address",
          "name": "_renter",
          "type": "address"
        }
      ],
      "name": "verifyInsurance",
      "outputs": [],
      "stateMutability": "nonpayable",
      "type": "function"
    },
    {
      "inputs": [
        {
          "internalType": "address",
          "name": "_renter",
          "type": "address"
        }
      ],
      "name": "revokeInsurance",
      "outputs": [],
      "stateMutability": "nonpayable",
      "type": "function"
    },
    {
      "inputs": [
        {
          "internalType": "uint256",
          "name": "_bookingId",
          "type": "uint256"
        },
        {
          "internalType": "uint8",
          "name": "_rating",
          "type": "uint8"
        },
        {
          "internalType": "bool",
          "name": "rateOwner",
          "type": "bool"
        }
      ],
      "name": "rate",
      "outputs": [],
      "stateMutability": "nonpayable",
      "type": "function"
    },
    {
      "inputs": [
        {
          "internalType": "address",
          "name": "_verifier",
          "type": "address"
        },
        {
          "internalType": "bool",
          "name": "_status",
          "type": "bool"
        }
      ],
      "name": "setInsuranceVerifier",
      "outputs": [],
      "stateMutability": "nonpayable",
      "type": "function"
    },
    {
      "inputs": [
        {
          "internalType": "address",
          "name": "_arbitrator",
          "type": "address"
        },
        {
          "internalType": "bool",
          "name": "_status",
          "type": "bool"
        }
      ],
      "name": "setDisputeArbitrator",
      "outputs": [],
      "stateMutability": "nonpayable",
      "type": "function"
    },
    {
      "inputs": [
        {
          "internalType": "address",
          "name": "_owner",
          "type": "address"
        }
      ],
      "name": "getOwner",
      "outputs": [
        {
          "internalType": "string",
          "name": "username",
          "type": "string"
        },
        {
          "internalType": "bool",
          "name": "isRegistered",
          "type": "bool"
        },
        {
          "internalType": "uint256",
          "name": "totalEarnings",
          "type": "uint256"
        },
        {
          "internalType": "uint256",
          "name": "withdrawableEarnings",
          "type": "uint256"
        },
        {
          "internalType": "uint256",
          "name": "totalListings",
          "type": "uint256"
        }
      ],
      "stateMutability": "view",
      "type": "function"
    },
    {
      "inputs": [
        {
          "internalType": "address",
          "name": "_renter",
          "type": "address"
        }
      ],
      "name": "getRenter",
      "outputs": [
        {
          "internalType": "string",
          "name": "username",
          "type": "string"
        },
        {
          "internalType": "bool",
          "name": "isRegistered",
          "type": "bool"
        },
        {
          "internalType": "uint256",
          "name": "totalBookings",
          "type": "uint256"
        }
      ],
      "stateMutability": "view",
      "type": "function"
    },
    {
      "inputs": [
        {
          "internalType": "uint256",
          "name": "_carId",
          "type": "uint256"
        }
      ],
      "name": "getCarBasic",
      "outputs": [
        {
          "internalType": "address",
          "name": "owner",
          "type": "address"
        },
        {
          "internalType": "string",
          "name": "make",
          "type": "string"
        },
        {
          "internalType": "string",
          "name": "model",
          "type": "string"
        },
        {
          "internalType": "uint256",
          "name": "year",
          "type": "uint256"
        }
      ],
      "stateMutability": "view",
      "type": "function"
    },
    {
      "inputs": [
        {
          "internalType": "uint256",
          "name": "_carId",
          "type": "uint256"
        }
      ],
      "name": "getCarRental",
      "outputs": [
        {
          "internalType": "string",
          "name": "location",
          "type": "string"
        },
        {
          "internalType": "uint256",
          "name": "dailyRate",
          "type": "uint256"
        },
        {
          "internalType": "bool",
          "name": "isAvailable",
          "type": "bool"
        },
        {
          "internalType": "bool",
          "name": "isListed",
          "type": "bool"
        }
      ],
      "stateMutability": "view",
      "type": "function"
    },
    {
      "inputs": [
        {
          "internalType": "uint256",
          "name": "_bookingId",
          "type": "uint256"
        }
      ],
      "name": "getBookingBasic",
      "outputs": [
        {
          "internalType": "uint256",
          "name": "carId",
          "type": "uint256"
        },
        {
          "internalType": "address",
          "name": "renter",
          "type": "address"
        },
        {
          "internalType": "address",
          "name": "owner",
          "type": "address"
        }
      ],
      "stateMutability": "view",
      "type": "function"
    },
    {
      "inputs": [
        {
          "internalType": "uint256",
          "name": "_bookingId",
          "type": "uint256"
        }
      ],
      "name": "getBookingDates",
      "outputs": [
        {
          "internalType": "uint256",
          "name": "startDate",
          "type": "uint256"
        },
        {
          "internalType": "uint256",
          "name": "endDate",
          "type": "uint256"
        },
        {
          "internalType": "uint256",
          "name": "totalCost",
          "type": "uint256"
        }
      ],
      "stateMutability": "view",
      "type": "function"
    },
    {
      "inputs": [
        {
          "internalType": "uint256",
          "name": "_bookingId",
          "type": "uint256"
        }
      ],
      "name": "getBookingStatus",
      "outputs": [
        {
          "internalType": "enum CarRental.BookingStatus",
          "name": "status",
          "type": "uint8"
        },
        {
          "internalType": "bool",
          "name": "pickupConfirmed",
          "type": "bool"
        },
        {
          "internalType": "bool",
          "name": "returnConfirmed",
          "type": "bool"
        },
        {
          "internalType": "bool",
          "name": "ownerApproved",
          "type": "bool"
        },
        {
          "internalType": "bool",
          "name": "hasDispute",
          "type": "bool"
        }
      ],
      "stateMutability": "view",
      "type": "function"
    }
  ],
  "bytecode": "0x608060405234801561001057600080fd5b50600d80546001600160a01b03191633179055613c5f806100326000396000f3fe6080604052600436106102465760003560e01c806383175d0f11610139578063bb338318116100b6578063d33bcb551161007a578063d33bcb5514610732578063e8d01f7814610752578063ec95e01214610782578063ee6507ee146107b2578063f7746e36146107d2578063fa5441611461080757610246565b8063bb3383181461069b578063bf4160d4146106bb578063ca586109146106db578063ce606ee0146106fb578063d287ac421461071d57610246565b8063a9621af6116100fd578063a9621af6146105f7578063afe5b4f714610617578063b52e4c8614610637578063b73c6ce914610657578063ba6cb1261461066c57610246565b806383175d0f146105475780638b88aac4146105675780639fead93d14610587578063a003da49146105a7578063a3f2a9e7146105d757610246565b80634175cd2f116101c75780636a38ddb31161018b5780636a38ddb3146104b05780636a4b27f4146104d05780636c2c5a6b146104ff5780637d36f4d31461051f5780637f836a251461053457610246565b80634175cd2f146103de5780634ef5fee6146103fe578063564a565d14610420578063644a137014610451578063667cb5541461048157610246565b806322473ff31161020e57806322473ff31461032d578063282ec7051461034d5780632e5df6e31461036d57806336f691c41461038d5780633c15b31c146103ad57610246565b8063022914a71461024b5780630dca825e146102865780630e33599d146102a85780631d53b119146102c85780631dab301e146102f5575b600080fd5b34801561025757600080fd5b5061026b610266366004612cdc565b610838565b60405161027d9695949392919061322f565b60405180910390f35b34801561029257600080fd5b506102a66102a1366004612e6c565b6108f9565b005b3480156102b457600080fd5b506102a66102c3366004612e84565b610a25565b3480156102d457600080fd5b506102e86102e3366004612d58565b610c1a565b60405161027d919061312d565b34801561030157600080fd5b50610315610310366004612e6c565b610c3a565b60405161027d9c9b9a999897969594939291906139f4565b34801561033957600080fd5b506102e8610348366004612d58565b610cb5565b34801561035957600080fd5b506102a6610368366004612cdc565b610cd5565b34801561037957600080fd5b506102a6610388366004612e6c565b610e53565b34801561039957600080fd5b506102a66103a8366004612ea6565b610f81565b3480156103b957600080fd5b506103cd6103c8366004612e6c565b6111cf565b60405161027d95949392919061315e565b3480156103ea57600080fd5b506102a66103f9366004612cdc565b61120f565b34801561040a57600080fd5b506104136112c6565b60405161027d91906139cc565b34801561042c57600080fd5b5061044061043b366004612e6c565b6112cc565b60405161027d959493929190613a69565b34801561045d57600080fd5b5061047161046c366004612cdc565b61139b565b60405161027d9493929190613200565b34801561048d57600080fd5b506104a161049c366004612e6c565b611451565b60405161027d93929190613abc565b3480156104bc57600080fd5b506102a66104cb366004612e6c565b611478565b3480156104dc57600080fd5b506104f06104eb366004612cdc565b6115b1565b60405161027d939291906131a4565b34801561050b57600080fd5b506102a661051a366004612cfd565b611677565b34801561052b57600080fd5b506104136116cc565b6102a6610542366004612f8b565b6116d2565b34801561055357600080fd5b506102a6610562366004612d93565b6118ff565b34801561057357600080fd5b506102a6610582366004612e6c565b611a75565b34801561059357600080fd5b506102a66105a2366004612dd6565b611bc2565b3480156105b357600080fd5b506105c76105c2366004612e6c565b611d2e565b60405161027d9493929190613299565b3480156105e357600080fd5b506102a66105f2366004612d93565b611df7565b34801561060357600080fd5b506102a6610612366004612e6c565b611f8a565b34801561062357600080fd5b506102e8610632366004612d2f565b612082565b34801561064357600080fd5b506102e8610652366004612cdc565b612127565b34801561066357600080fd5b506102a661213c565b34801561067857600080fd5b5061068c610687366004612e6c565b612221565b60405161027d939291906139d5565b3480156106a757600080fd5b506102e86106b6366004612cdc565b612250565b3480156106c757600080fd5b506102a66106d6366004612fb6565b612265565b3480156106e757600080fd5b506102a66106f6366004612eeb565b612455565b34801561070757600080fd5b506107106125d2565b60405161027d9190613054565b34801561072957600080fd5b506104136125e1565b34801561073e57600080fd5b506102a661074d366004612e6c565b6125e7565b34801561075e57600080fd5b5061077261076d366004612cdc565b6126ed565b60405161027d9493929190613138565b34801561078e57600080fd5b506107a261079d366004612e6c565b612723565b60405161027d9493929190613068565b3480156107be57600080fd5b506102a66107cd366004612cfd565b612875565b3480156107de57600080fd5b506107f26107ed366004612e6c565b6128ca565b60405161027d999897969594939291906130b0565b34801561081357600080fd5b50610827610822366004612cdc565b612abd565b60405161027d9594939291906131c9565b60006020819052908152604090208054819061085390613b91565b80601f016020809104026020016040519081016040528092919081815260200182805461087f90613b91565b80156108cc5780601f106108a1576101008083540402835291602001916108cc565b820191906000526020600020905b8154815290600101906020018083116108af57829003601f168201915b50505060018401546002850154600386015460048701546005909701549596929560ff9092169450925086565b600081815260056020526040902060018101546001600160a01b0316331461093c5760405162461bcd60e51b8152600401610933906134ff565b60405180910390fd5b6000600682015460ff16600581111561096557634e487b7160e01b600052602160045260246000fd5b146109825760405162461bcd60e51b8152600401610933906134c8565b6006810180546001919060ff1916828002179055508054600090815260046020526040808220600601805460ff19166001908117909155830154600584015491516001600160a01b039091169282156108fc02929190818181858888f193505050501580156109f5573d6000803e3d6000fd5b5060405182907ff774c001cb52a3566b767ed6e37c92706acb2b80a3ff6049e2849cd62725d08590600090a25050565b3360009081526009602052604090205460ff16610a545760405162461bcd60e51b8152600401610933906135b2565b600082815260066020526040812090600382015460ff166002811115610a8a57634e487b7160e01b600052602160045260246000fd5b14610aa75760405162461bcd60e51b8152600401610933906136b2565b805460009081526005602052604090206006810154640100000000900460ff16610ae35760405162461bcd60e51b8152600401610933906133cf565b6003820180546101003302610100600160a81b031960ff199283166001171617909155600682018054909116600417905560028101546001600160a01b039081169084161415610ba557600581015460028201546001600160a01b031660009081526020819052604081206004018054909190610b61908490613ae0565b9091555050600581015460028201546001600160a01b031660009081526020819052604081206003018054909190610b9a908490613ae0565b90915550610be79050565b600181015460058201546040516001600160a01b039092169181156108fc0291906000818181858888f19350505050158015610be5573d6000803e3d6000fd5b505b604051339085907ff77ceb5e091d2da041bc760667f9d5fe7a756949eaf29250ad0e60ca6f4c27d990600090a350505050565b805160208183018101805160038252928201919093012091525460ff1681565b60056020819052600091825260409091208054600182015460028301546003840154600485015495850154600686015460079096015494966001600160a01b039485169694909316949193909160ff80831692610100810482169262010000820483169263010000008304811692640100000000900416908c565b805160208183018101805160028252928201919093012091525460ff1681565b3360009081526008602052604090205460ff16610d045760405162461bcd60e51b8152600401610933906138df565b6001600160a01b03811660009081526001602052604090206002015460ff16610d3f5760405162461bcd60e51b815260040161093390613916565b6001600160a01b03811660009081526007602052604090205460ff161580610d8457506001600160a01b038116600090815260076020526040902054610100900460ff165b610da05760405162461bcd60e51b815260040161093390613301565b604080516080810182526001808252600060208084018281524285870190815233606087018181526001600160a01b038a8116808852600790965289872098518954955160ff199096169015151761ff0019166101009515159590950294909417885591519587019590955551600290950180546001600160a01b0319169590911694909417909355925190927f32be68da2c0c6d68e92d0c0b668395c88fc0612143c27c37951d98090808322f91a350565b600081815260056020526040902060018101546001600160a01b0316331480610e88575060028101546001600160a01b031633145b610ea45760405162461bcd60e51b8152600401610933906139a4565b6002600682015460ff166005811115610ecd57634e487b7160e01b600052602160045260246000fd5b14610eea5760405162461bcd60e51b815260040161093390613466565b8060040154421015610f0e5760405162461bcd60e51b8152600401610933906136dc565b60068101805462ff0000191662010000178082556003919060ff1916600183021790555080546000908152600460205260409020600601805460ff19166001179055604051339083907f8e823f38cc816af62efd341a51dee8f420e5fd62f6c8483c16186967968b866190600090a35050565b600082815260056020526040902060018101546001600160a01b0316331480610fb6575060028101546001600160a01b031633145b610fd25760405162461bcd60e51b8152600401610933906139a4565b6003600682015460ff166005811115610ffb57634e487b7160e01b600052602160045260246000fd5b148061102d57506002600682015460ff16600581111561102b57634e487b7160e01b600052602160045260246000fd5b145b6110495760405162461bcd60e51b815260040161093390613617565b6006810154640100000000900460ff16156110765760405162461bcd60e51b81526004016109339061339f565b600c805490600061108683613bcc565b90915550506040805160a08101825284815233602080830191825282840186815260006060850181905260808501819052600c54815260068352949094208351815591516001830180546001600160a01b0319166001600160a01b0390921691909117905592518051929391926111039260028501920190612b96565b50606082015160038201805460ff1916600183600281111561113557634e487b7160e01b600052602160045260246000fd5b021790555060809190910151600390910180546001600160a01b0390921661010002610100600160a81b031990921691909117905560068101805464ff00000000191664010000000017808255600c5460078401556005919060ff19166001830217905550600c54604051339185917fc6fb55a2bd2838e444163cece1945a661c371c5ec8c1a4ea5d697aefc769054790600090a4505050565b60009081526005602052604090206006015460ff808216926101008304821692620100008104831692630100000082048116926401000000009092041690565b3360009081526008602052604090205460ff1661123e5760405162461bcd60e51b8152600401610933906138df565b6001600160a01b03811660009081526007602052604090205460ff166112765760405162461bcd60e51b815260040161093390613436565b6001600160a01b038116600081815260076020526040808220805461ff001916610100179055513392917faa7e63ec2536ca3a899abb1365f5775916d8905cc25c084f1af7cb186f541a3c91a350565b600a5481565b60066020526000908152604090208054600182015460028301805492936001600160a01b03909216926112fe90613b91565b80601f016020809104026020016040519081016040528092919081815260200182805461132a90613b91565b80156113775780601f1061134c57610100808354040283529160200191611377565b820191906000526020600020905b81548152906001019060200180831161135a57829003601f168201915b5050506003909301549192505060ff8116906001600160a01b036101009091041685565b6001602052600090815260409020805481906113b690613b91565b80601f01602080910402602001604051908101604052809291908181526020018280546113e290613b91565b801561142f5780601f106114045761010080835404028352916020019161142f565b820191906000526020600020905b81548152906001019060200180831161141257829003601f168201915b50505050600183015460028401546003909401549293909260ff909116915084565b60009081526005602081905260409091206003810154600482015491909201549192909190565b3360009081526020819052604090206002015460ff166114aa5760405162461bcd60e51b815260040161093390613338565b6000818152600460205260409020546001600160a01b031633146114e05760405162461bcd60e51b815260040161093390613787565b600081815260046020526040902060060154610100900460ff166115165760405162461bcd60e51b81526004016109339061397c565b60008181526004602052604090206006015460ff166115475760405162461bcd60e51b815260040161093390613713565b6000818152600460209081526040808320600601805461ffff1916905533835290829052812060050180549161157c83613b7a565b9091555050604051339082907fc3c0ddab9ecd9a2284c61fb1b5fd46ba0bf81a798b51cff2aaff892f10a3c9d390600090a350565b6001600160a01b0381166000908152600160205260408120805460609291829181906115dc90613b91565b80601f016020809104026020016040519081016040528092919081815260200182805461160890613b91565b80156116555780601f1061162a57610100808354040283529160200191611655565b820191906000526020600020905b81548152906001019060200180831161163857829003601f168201915b5050506002840154600390940154929860ff9094169750919550919350505050565b600d546001600160a01b031633146116a15760405162461bcd60e51b8152600401610933906137dd565b6001600160a01b03919091166000908152600960205260409020805460ff1916911515919091179055565b600c5481565b3360009081526001602052604090206002015460ff166117045760405162461bcd60e51b815260040161093390613491565b60008381526004602052604090206006810154610100900460ff16801561172f5750600681015460ff165b61174b5760405162461bcd60e51b8152600401610933906137b2565b818310801561175a5750428310155b6117765760405162461bcd60e51b815260040161093390613809565b336000908152600760205260409020805460ff16801561179d57508054610100900460ff16155b6117b95760405162461bcd60e51b815260040161093390613436565b6000620151806117c98686613b37565b6117d39190613af8565b83600501546117e29190613b18565b9050803410156118045760405162461bcd60e51b8152600401610933906135e9565b600b805490600061181483613bcc565b9091555050600b54600090815260056020819052604082208881556001810180546001600160a01b0319908116331790915586546002830180549092166001600160a01b0390911617905560038101889055600481018790559081018390556006808201805460ff1990811690915590860180549091169055600785018054919261189e83613bcc565b90915550503360009081526001602052604081206003018054916118c183613bcc565b9091555050600b54604051339189917f63b2ee9406f5b4de2520627b528758c36b93081ec000b0579013c887b40b456290600090a450505050505050565b3360009081526001602052604090206002015460ff16156119325760405162461bcd60e51b815260040161093390613644565b6003826040516119429190613038565b9081526040519081900360200190205460ff16156119725760405162461bcd60e51b815260040161093390613554565b60008251116119935760405162461bcd60e51b8152600401610933906132ca565b60408051608081018252838152602080820184905260018284018190526000606084018190523381529082529290922081518051929391926119d89284920190612b96565b50602082015160018281019190915560408084015160028401805460ff19169115159190911790556060909301516003928301559151611a19908590613038565b908152604051908190036020018120805492151560ff199093169290921790915533907f9196745b441709d0330f54516183b3c0114e30f6cb7a8971b00501a20c19a4ab90611a69908590613191565b60405180910390a25050565b60008181526005602052604090206003600682015460ff166005811115611aac57634e487b7160e01b600052602160045260246000fd5b14611ac95760405162461bcd60e51b815260040161093390613759565b6006810154640100000000900460ff1615611af65760405162461bcd60e51b815260040161093390613830565b60028101546001600160a01b0316331480611b1d575060018101546001600160a01b031633145b611b395760405162461bcd60e51b8152600401610933906139a4565b60068101805460ff19166004908117909155600582015460028301546001600160a01b03166000908152602081905260408120909201805491929091611b80908490613ae0565b9091555050600581015460028201546001600160a01b031660009081526020819052604081206003018054909190611bb9908490613ae0565b90915550505050565b3360009081526020819052604090206002015460ff16611bf45760405162461bcd60e51b815260040161093390613338565b60008111611c145760405162461bcd60e51b81526004016109339061389e565b600a8054906000611c2483613bcc565b9091555050600a54600081815260046020908152604090912080546001600160a01b0319163317815587519091611c629160018401918a0190612b96565b508551611c789060028301906020890190612b96565b50600381018590558351611c959060048301906020870190612b96565b50600580820184905560068201805461ff001960ff1990911660011716610100179055600060078301819055338152602081905260408120909101805491611cdc83613bcc565b9190505550336001600160a01b0316827f4be45ef5bd3606c02e624fc434f7ec7a6ad6dddda2606fa16194305208aa5d8b8989604051611d1d92919061326b565b60405180910390a350505050505050565b6000818152600460208190526040822090810180546060939283928392611d5490613b91565b80601f0160208091040260200160405190810160405280929190818152602001828054611d8090613b91565b8015611dcd5780601f10611da257610100808354040283529160200191611dcd565b820191906000526020600020905b815481529060010190602001808311611db057829003601f168201915b50505050600583015460069093015491989297505060ff8082169650610100909104169350915050565b3360009081526020819052604090206002015460ff1615611e2a5760405162461bcd60e51b815260040161093390613368565b600282604051611e3a9190613038565b9081526040519081900360200190205460ff1615611e6a5760405162461bcd60e51b815260040161093390613554565b6000825111611e8b5760405162461bcd60e51b8152600401610933906132ca565b6040805160c08101825283815260208082018490526001828401526000606083018190526080830181905260a08301819052338152808252929092208151805192939192611edc9284920190612b96565b506020820151816001015560408201518160020160006101000a81548160ff021916908315150217905550606082015181600301556080820151816004015560a082015181600501559050506001600283604051611f3a9190613038565b908152604051908190036020018120805492151560ff199093169290921790915533907f5f66e430b448d83d46a65ab17a365f04c0c8f1a66ac20bcc38dfde7f2d67514190611a69908590613191565b3360009081526020819052604090206002015460ff16611fbc5760405162461bcd60e51b815260040161093390613338565b600081815260056020526040902060028101546001600160a01b03163314611ff65760405162461bcd60e51b815260040161093390613787565b6000600682015460ff16600581111561201f57634e487b7160e01b600052602160045260246000fd5b1461203c5760405162461bcd60e51b8152600401610933906133ff565b60068101805463ff00000019166301000000179055604051339083907f3af9c898bf33ad521e1e15f7dc1cd466a08a3a2d238472e9a4abff2c20553abb90600090a35050565b600082156120d7573360009081526020819052604090206002015460ff166120bc5760405162461bcd60e51b815260040161093390613584565b50336000908152602081905260409020600101548114612121565b3360009081526001602052604090206002015460ff166121095760405162461bcd60e51b815260040161093390613916565b50336000908152600160208190526040909120015481145b92915050565b60096020526000908152604090205460ff1681565b3360009081526020819052604090206002015460ff1661216e5760405162461bcd60e51b815260040161093390613338565b336000908152602081905260409020600401548061219e5760405162461bcd60e51b815260040161093390613867565b336000818152602081905260408082206004018290555183156108fc0291849190818181858888f193505050501580156121dc573d6000803e3d6000fd5b50336001600160a01b03167f48dc35af7b45e2a81fffad55f6e2fafacdb1d3d0d50d24ebdc16324f5ba757f18260405161221691906139cc565b60405180910390a250565b60009081526005602052604090208054600182015460029092015490926001600160a01b039283169290911690565b60086020526000908152604090205460ff1681565b60008381526005602052604090206004600682015460ff16600581111561229c57634e487b7160e01b600052602160045260246000fd5b146122b95760405162461bcd60e51b815260040161093390613527565b60018360ff16101580156122d1575060058360ff1611155b6122ed5760405162461bcd60e51b81526004016109339061367b565b81156123a3573360009081526001602052604090206002015460ff166123255760405162461bcd60e51b815260040161093390613491565b60018101546001600160a01b031633146123515760405162461bcd60e51b8152600401610933906134ff565b60028101546040516001600160a01b0390911690339086907f1c77a158686639c60e48e2f63ec680c6dfd55fdebf1a1d34b6ad59eee1f2861090612396908890613ad2565b60405180910390a461244f565b3360009081526020819052604090206002015460ff166123d55760405162461bcd60e51b815260040161093390613338565b60028101546001600160a01b031633146124015760405162461bcd60e51b815260040161093390613787565b60018101546040516001600160a01b0390911690339086907f1c77a158686639c60e48e2f63ec680c6dfd55fdebf1a1d34b6ad59eee1f2861090612446908890613ad2565b60405180910390a45b50505050565b3360009081526020819052604090206002015460ff166124875760405162461bcd60e51b815260040161093390613338565b6000868152600460205260409020546001600160a01b031633146124bd5760405162461bcd60e51b815260040161093390613787565b600086815260046020526040902060060154610100900460ff166124f35760405162461bcd60e51b81526004016109339061397c565b600081116125135760405162461bcd60e51b81526004016109339061389e565b6000868152600460209081526040909120865161253892600190920191880190612b96565b506000868152600460209081526040909120855161255e92600290920191870190612b96565b50600086815260046020818152604090922060038101869055845161258b93919092019190850190612b96565b5060008681526004602052604080822060050183905551339188917ff6de82cc309e90935e7cbf8f44636fb7f7597e27ce10ac4e720706ae2ebed0599190a3505050505050565b600d546001600160a01b031681565b600b5481565b600081815260056020526040902060018101546001600160a01b031633148061261c575060028101546001600160a01b031633145b6126385760405162461bcd60e51b8152600401610933906139a4565b6000600682015460ff16600581111561266157634e487b7160e01b600052602160045260246000fd5b1461267e5760405162461bcd60e51b8152600401610933906133ff565b80600301544210156126a25760405162461bcd60e51b815260040161093390613945565b600681018054600261ff00199091166101001760ff1916179055604051339083907f7f44dc96dfe82556f254203e555fa87ce76986f76eb50fc73d105558207ebb5890600090a35050565b60076020526000908152604090208054600182015460029092015460ff808316936101009093041691906001600160a01b031684565b600081815260046020526040812080546001820180546001600160a01b039092169360609384939192909161275790613b91565b80601f016020809104026020016040519081016040528092919081815260200182805461278390613b91565b80156127d05780601f106127a5576101008083540402835291602001916127d0565b820191906000526020600020905b8154815290600101906020018083116127b357829003601f168201915b505050505093508060020180546127e690613b91565b80601f016020809104026020016040519081016040528092919081815260200182805461281290613b91565b801561285f5780601f106128345761010080835404028352916020019161285f565b820191906000526020600020905b81548152906001019060200180831161284257829003601f168201915b5050505050925080600301549150509193509193565b600d546001600160a01b0316331461289f5760405162461bcd60e51b8152600401610933906137dd565b6001600160a01b03919091166000908152600860205260409020805460ff1916911515919091179055565b600460205260009081526040902080546001820180546001600160a01b0390921692916128f690613b91565b80601f016020809104026020016040519081016040528092919081815260200182805461292290613b91565b801561296f5780601f106129445761010080835404028352916020019161296f565b820191906000526020600020905b81548152906001019060200180831161295257829003601f168201915b50505050509080600201805461298490613b91565b80601f01602080910402602001604051908101604052809291908181526020018280546129b090613b91565b80156129fd5780601f106129d2576101008083540402835291602001916129fd565b820191906000526020600020905b8154815290600101906020018083116129e057829003601f168201915b505050505090806003015490806004018054612a1890613b91565b80601f0160208091040260200160405190810160405280929190818152602001828054612a4490613b91565b8015612a915780601f10612a6657610100808354040283529160200191612a91565b820191906000526020600020905b815481529060010190602001808311612a7457829003601f168201915b505050600584015460068501546007909501549394909360ff8083169450610100909204909116915089565b6001600160a01b03811660009081526020819052604081208054606092918291829182918190612aec90613b91565b80601f0160208091040260200160405190810160405280929190818152602001828054612b1890613b91565b8015612b655780601f10612b3a57610100808354040283529160200191612b65565b820191906000526020600020905b815481529060010190602001808311612b4857829003601f168201915b505050600284015460038501546004860154600590960154949c60ff9092169b509950939750919550919350505050565b828054612ba290613b91565b90600052602060002090601f016020900481019282612bc45760008555612c0a565b82601f10612bdd57805160ff1916838001178555612c0a565b82800160010185558215612c0a579182015b82811115612c0a578251825591602001919060010190612bef565b50612c16929150612c1a565b5090565b5b80821115612c165760008155600101612c1b565b80356001600160a01b0381168114612c4657600080fd5b919050565b80358015158114612c4657600080fd5b600082601f830112612c6b578081fd5b813567ffffffffffffffff80821115612c8657612c86613c13565b604051601f8301601f191681016020018281118282101715612caa57612caa613c13565b604052828152848301602001861015612cc1578384fd5b82602086016020830137918201602001929092529392505050565b600060208284031215612ced578081fd5b612cf682612c2f565b9392505050565b60008060408385031215612d0f578081fd5b612d1883612c2f565b9150612d2660208401612c4b565b90509250929050565b60008060408385031215612d41578182fd5b612d4a83612c4b565b946020939093013593505050565b600060208284031215612d69578081fd5b813567ffffffffffffffff811115612d7f578182fd5b612d8b84828501612c5b565b949350505050565b60008060408385031215612da5578182fd5b823567ffffffffffffffff811115612dbb578283fd5b612dc785828601612c5b565b95602094909401359450505050565b600080600080600060a08688031215612ded578081fd5b853567ffffffffffffffff80821115612e04578283fd5b612e1089838a01612c5b565b96506020880135915080821115612e25578283fd5b612e3189838a01612c5b565b9550604088013594506060880135915080821115612e4d578283fd5b50612e5a88828901612c5b565b95989497509295608001359392505050565b600060208284031215612e7d578081fd5b5035919050565b60008060408385031215612e96578182fd5b82359150612d2660208401612c2f565b60008060408385031215612eb8578182fd5b82359150602083013567ffffffffffffffff811115612ed5578182fd5b612ee185828601612c5b565b9150509250929050565b60008060008060008060c08789031215612f03578081fd5b86359550602087013567ffffffffffffffff80821115612f21578283fd5b612f2d8a838b01612c5b565b96506040890135915080821115612f42578283fd5b612f4e8a838b01612c5b565b9550606089013594506080890135915080821115612f6a578283fd5b50612f7789828a01612c5b565b92505060a087013590509295509295509295565b600080600060608486031215612f9f578283fd5b505081359360208301359350604090920135919050565b600080600060608486031215612fca578283fd5b83359250602084013560ff81168114612fe1578283fd5b9150612fef60408501612c4b565b90509250925092565b6006811061300857613008613bfd565b9052565b60008151808452613024816020860160208601613b4e565b601f01601f19169290920160200192915050565b6000825161304a818460208701613b4e565b9190910192915050565b6001600160a01b0391909116815260200190565b6001600160a01b038516815260806020820181905260009061308c9083018661300c565b828103604084015261309e818661300c565b91505082606083015295945050505050565b6001600160a01b038a168152610120602082018190526000906130d58382018c61300c565b905082810360408401526130e9818b61300c565b90508860608401528281036080840152613103818961300c565b60a0840197909752505092151560c084015290151560e08301526101009091015295945050505050565b901515815260200190565b9315158452911515602084015260408301526001600160a01b0316606082015260800190565b60a0810161316c8288612ff8565b9415156020820152921515604084015290151560608301521515608090910152919050565b600060208252612cf6602083018461300c565b6000606082526131b7606083018661300c565b93151560208301525060400152919050565b600060a082526131dc60a083018861300c565b95151560208301525060408101939093526060830191909152608090910152919050565b600060808252613213608083018761300c565b6020830195909552509115156040830152606090910152919050565b600060c0825261324260c083018961300c565b60208301979097525093151560408501526060840192909252608083015260a090910152919050565b60006040825261327e604083018561300c565b8281036020840152613290818561300c565b95945050505050565b6000608082526132ac608083018761300c565b60208301959095525091151560408301521515606090910152919050565b60208082526018908201527f557365726e616d652063616e6e6f7420626520656d7074790000000000000000604082015260600190565b6020808252601a908201527f496e737572616e636520616c7265616479207665726966696564000000000000604082015260600190565b6020808252601690820152752737ba1030903932b3b4b9ba32b932b21037bbb732b960511b604082015260600190565b60208082526018908201527f4f776e657220616c726561647920726567697374657265640000000000000000604082015260600190565b6020808252601690820152754469737075746520616c72656164792065786973747360501b604082015260600190565b602080825260169082015275426f6f6b696e6720686173206e6f206469737075746560501b604082015260600190565b6020808252601c908201527f426f6f6b696e67206e6f7420696e20426f6f6b65642073746174757300000000604082015260600190565b602080825260169082015275125b9cdd5c985b98d9481b9bdd081d995c9a599a595960521b604082015260600190565b6020808252601190820152700436172206e6f74207069636b656420757607c1b604082015260600190565b60208082526017908201527f4e6f74206120726567697374657265642072656e746572000000000000000000604082015260600190565b6020808252601b908201527f426f6f6b696e672063616e6e6f742062652063616e63656c6c65640000000000604082015260600190565b6020808252600e908201526d2737ba103a3432903932b73a32b960911b604082015260600190565b602080825260139082015272109bdbdada5b99c81b9bdd081cd95d1d1b1959606a1b604082015260600190565b6020808252601690820152752ab9b2b93730b6b29030b63932b0b23c903a30b5b2b760511b604082015260600190565b60208082526014908201527313dddb995c881b9bdd081c9959da5cdd195c995960621b604082015260600190565b60208082526018908201527f4e6f74206120646973707574652061726269747261746f720000000000000000604082015260600190565b602080825260149082015273125b9cdd59999a58da595b9d081c185e5b595b9d60621b604082015260600190565b60208082526013908201527243616e6e6f74206f70656e206469737075746560681b604082015260600190565b60208082526019908201527f52656e74657220616c7265616479207265676973746572656400000000000000604082015260600190565b6020808252601e908201527f526174696e67206d757374206265206265747765656e203120616e6420350000604082015260600190565b60208082526010908201526f2234b9b83aba32903737ba1037b832b760811b604082015260600190565b60208082526017908201527f52657475726e2074696d65206e6f742072656163686564000000000000000000604082015260600190565b60208082526026908201527f43616e6e6f742072656d6f76652063617220776974682061637469766520626f6040820152656f6b696e677360d01b606082015260800190565b602080825260149082015273109bdbdada5b99c81b9bdd081c995d1d5c9b995960621b604082015260600190565b6020808252601190820152702737ba103a34329031b0b91037bbb732b960791b604082015260600190565b602080825260119082015270436172206e6f7420617661696c61626c6560781b604082015260600190565b6020808252601290820152712737ba1031b7b73a3930b1ba1037bbb732b960711b604082015260600190565b6020808252600d908201526c496e76616c696420646174657360981b604082015260600190565b6020808252601a908201527f426f6f6b696e6720686173206163746976652064697370757465000000000000604082015260600190565b60208082526017908201527f4e6f206561726e696e677320746f207769746864726177000000000000000000604082015260600190565b60208082526021908201527f4461696c792072617465206d7573742062652067726561746572207468616e206040820152600360fc1b606082015260800190565b60208082526019908201527f4e6f7420616e20696e737572616e636520766572696669657200000000000000604082015260600190565b60208082526015908201527414995b9d195c881b9bdd081c9959da5cdd195c9959605a1b604082015260600190565b60208082526017908201527f5069636b75702074696d65206e6f742072656163686564000000000000000000604082015260600190565b6020808252600e908201526d10d85c881b9bdd081b1a5cdd195960921b604082015260600190565b6020808252600e908201526d139bdd08185d5d1a1bdc9a5e995960921b604082015260600190565b90815260200190565b9283526001600160a01b03918216602084015216604082015260600190565b8c81526001600160a01b038c811660208301528b166040820152606081018a90526080810189905260a081018890526101808101613a3560c0830189612ff8565b95151560e0820152931515610100850152911515610120840152151561014083015261016090910152979650505050505050565b600086825260018060a01b03808716602084015260a06040840152613a9160a084018761300c565b915060038510613aa357613aa3613bfd565b8460608401528084166080840152509695505050505050565b9283526020830191909152604082015260600190565b60ff91909116815260200190565b60008219821115613af357613af3613be7565b500190565b600082613b1357634e487b7160e01b81526012600452602481fd5b500490565b6000816000190483118215151615613b3257613b32613be7565b500290565b600082821015613b4957613b49613be7565b500390565b60005b83811015613b69578181015183820152602001613b51565b8381111561244f5750506000910152565b600081613b8957613b89613be7565b506000190190565b600281046001821680613ba557607f821691505b60208210811415613bc657634e487b7160e01b600052602260045260246000fd5b50919050565b6000600019821415613be057613be0613be7565b5060010190565b634e487b7160e01b600052601160045260246000fd5b634e487b7160e01b600052602160045260246000fd5b634e487b7160e01b600052604160045260246000fdfea2646970667358221220e3da750f6e0b3f5dd98633e75060956d2488f3b446a56a18e70c4e2f4519acad64736f6c63430008000033",
  "immutableReferences": {},
  "source": "// SPDX-License-Identifier: UNLICENSED\npragma solidity ^0.8.0;\n\ncontract CarRental {\n    // ============ STRUCTS ============\n    \n    struct Owner {\n        string username;\n        bytes32 loginHash; // Hash key for login\n        bool isRegistered;\n        uint256 totalEarnings;\n        uint256 withdrawableEarnings;\n        uint256 totalListings;\n    }\n    \n    struct Renter {\n        string username;\n        bytes32 loginHash; // Hash key for login\n        bool isRegistered;\n        uint256 totalBookings;\n    }\n    \n    struct Car {\n        address owner;\n        string make;\n        string model;\n        uint256 year;\n        string location;\n        uint256 dailyRate; // in wei\n        bool isAvailable;\n        bool isListed;\n        uint256 totalBookings;\n    }\n    \n    struct Booking {\n        uint256 carId;\n        address renter;\n        address owner;\n        uint256 startDate;\n        uint256 endDate;\n        uint256 totalCost;\n        BookingStatus status;\n        bool pickupConfirmed;\n        bool returnConfirmed;\n        bool ownerApproved;\n        bool hasDispute;\n        uint256 disputeId;\n    }\n    \n    struct Dispute {\n        uint256 bookingId;\n        address initiator; // Owner or Renter who opened the dispute\n        string reason;\n        DisputeStatus status;\n        address arbitrator; // Dispute Arbitrator address\n    }\n    \n    struct Insurance {\n        bool isVerified;\n        bool isRevoked;\n        uint256 verifiedAt;\n        address verifier; // Insurance Verifier address\n    }\n    \n    enum BookingStatus {\n        Booked,\n        Cancelled,\n        PickedUp,\n        Returned,\n        Settled,\n        FundsFrozen\n    }\n    \n    enum DisputeStatus {\n        Open,\n        Resolved,\n        Closed\n    }\n    \n    // ============ STATE VARIABLES ============\n    \n    mapping(address => Owner) public owners;\n    mapping(address => Renter) public renters;\n    mapping(string => bool) public ownerUsernames; // Track unique owner usernames\n    mapping(string => bool) public renterUsernames; // Track unique renter usernames\n    mapping(uint256 => Car) public cars;\n    mapping(uint256 => Booking) public bookings;\n    mapping(uint256 => Dispute) public disputes;\n    mapping(address => Insurance) public insuranceRecords;\n    \n    // Role mappings\n    mapping(address => bool) public insuranceVerifiers;\n    mapping(address => bool) public disputeArbitrators;\n    \n    uint256 public carCounter;\n    uint256 public bookingCounter;\n    uint256 public disputeCounter;\n    \n    address public contractOwner;\n    \n    // ============ EVENTS ============\n    \n    event OwnerRegistered(address indexed owner, string username);\n    event RenterRegistered(address indexed renter, string username);\n    event CarListed(uint256 indexed carId, address indexed owner, string make, string model);\n    event CarEdited(uint256 indexed carId, address indexed owner);\n    event CarRemoved(uint256 indexed carId, address indexed owner);\n    event BookingCreated(uint256 indexed bookingId, uint256 indexed carId, address indexed renter);\n    event BookingCancelled(uint256 indexed bookingId);\n    event BookingApproved(uint256 indexed bookingId, address indexed owner);\n    event PickupConfirmed(uint256 indexed bookingId, address indexed confirmer);\n    event ReturnConfirmed(uint256 indexed bookingId, address indexed confirmer);\n    event DisputeOpened(uint256 indexed disputeId, uint256 indexed bookingId, address indexed initiator);\n    event DisputeResolved(uint256 indexed disputeId, address indexed arbitrator);\n    event InsuranceVerified(address indexed renter, address indexed verifier);\n    event InsuranceRevoked(address indexed renter, address indexed verifier);\n    event EarningsWithdrawn(address indexed owner, uint256 amount);\n    event RatingSubmitted(uint256 indexed bookingId, address indexed rater, address indexed ratee, uint8 rating);\n    \n    // ============ MODIFIERS ============\n    \n    modifier onlyOwner() {\n        require(owners[msg.sender].isRegistered, \"Not a registered owner\");\n        _;\n    }\n    \n    modifier onlyRenter() {\n        require(renters[msg.sender].isRegistered, \"Not a registered renter\");\n        _;\n    }\n    \n    modifier onlyInsuranceVerifier() {\n        require(insuranceVerifiers[msg.sender], \"Not an insurance verifier\");\n        _;\n    }\n    \n    modifier onlyDisputeArbitrator() {\n        require(disputeArbitrators[msg.sender], \"Not a dispute arbitrator\");\n        _;\n    }\n    \n    modifier onlyContractOwner() {\n        require(msg.sender == contractOwner, \"Not contract owner\");\n        _;\n    }\n    \n    // ============ CONSTRUCTOR ============\n    \n    constructor() {\n        contractOwner = msg.sender;\n    }\n    \n    // ============ REGISTRATION FUNCTIONS ============\n    \n    /**\n     * @dev Register a new car owner with username and password hash\n     * @param _username Unique username for the owner\n     * @param _passwordHash Hash of the password (should be computed off-chain)\n     */\n    function registerOwner(string memory _username, bytes32 _passwordHash) public {\n        require(!owners[msg.sender].isRegistered, \"Owner already registered\");\n        require(!ownerUsernames[_username], \"Username already taken\");\n        require(bytes(_username).length > 0, \"Username cannot be empty\");\n        \n        owners[msg.sender] = Owner({\n            username: _username,\n            loginHash: _passwordHash,\n            isRegistered: true,\n            totalEarnings: 0,\n            withdrawableEarnings: 0,\n            totalListings: 0\n        });\n        \n        ownerUsernames[_username] = true;\n        \n        emit OwnerRegistered(msg.sender, _username);\n    }\n    \n    /**\n     * @dev Register a new renter with username and password hash\n     * @param _username Unique username for the renter\n     * @param _passwordHash Hash of the password (should be computed off-chain)\n     */\n    function registerRenter(string memory _username, bytes32 _passwordHash) public {\n        require(!renters[msg.sender].isRegistered, \"Renter already registered\");\n        require(!renterUsernames[_username], \"Username already taken\");\n        require(bytes(_username).length > 0, \"Username cannot be empty\");\n        \n        renters[msg.sender] = Renter({\n            username: _username,\n            loginHash: _passwordHash,\n            isRegistered: true,\n            totalBookings: 0\n        });\n        \n        renterUsernames[_username] = true;\n        \n        emit RenterRegistered(msg.sender, _username);\n    }\n    \n    /**\n     * @dev Verify login using password hash\n     * @param isOwner True if checking owner login, false for renter\n     * @param _passwordHash Hash of the password to verify\n     * @return bool True if login hash matches\n     */\n    function login(bool isOwner, bytes32 _passwordHash) public view returns (bool) {\n        if (isOwner) {\n            require(owners[msg.sender].isRegistered, \"Owner not registered\");\n            return owners[msg.sender].loginHash == _passwordHash;\n        } else {\n            require(renters[msg.sender].isRegistered, \"Renter not registered\");\n            return renters[msg.sender].loginHash == _passwordHash;\n        }\n    }\n    \n    // ============ CAR LISTING FUNCTIONS ============\n    \n    /**\n     * @dev List a car for rent\n     * @param _make Car make/brand\n     * @param _model Car model\n     * @param _year Car year\n     * @param _location Car location\n     * @param _dailyRate Daily rental rate in wei\n     */\n    function listCar(\n        string memory _make,\n        string memory _model,\n        uint256 _year,\n        string memory _location,\n        uint256 _dailyRate\n    ) public onlyOwner {\n        require(_dailyRate > 0, \"Daily rate must be greater than 0\");\n        \n        carCounter++;\n        uint256 newCarId = carCounter;\n        Car storage newCar = cars[newCarId];\n        newCar.owner = msg.sender;\n        newCar.make = _make;\n        newCar.model = _model;\n        newCar.year = _year;\n        newCar.location = _location;\n        newCar.dailyRate = _dailyRate;\n        newCar.isAvailable = true;\n        newCar.isListed = true;\n        newCar.totalBookings = 0;\n        \n        owners[msg.sender].totalListings++;\n        \n        emit CarListed(newCarId, msg.sender, _make, _model);\n    }\n    \n    /**\n     * @dev Edit a car listing\n     * @param _carId ID of the car to edit\n     * @param _make Updated car make\n     * @param _model Updated car model\n     * @param _year Updated car year\n     * @param _location Updated car location\n     * @param _dailyRate Updated daily rental rate\n     */\n    function editListing(\n        uint256 _carId,\n        string memory _make,\n        string memory _model,\n        uint256 _year,\n        string memory _location,\n        uint256 _dailyRate\n    ) public onlyOwner {\n        require(cars[_carId].owner == msg.sender, \"Not the car owner\");\n        require(cars[_carId].isListed, \"Car not listed\");\n        require(_dailyRate > 0, \"Daily rate must be greater than 0\");\n        \n        cars[_carId].make = _make;\n        cars[_carId].model = _model;\n        cars[_carId].year = _year;\n        cars[_carId].location = _location;\n        cars[_carId].dailyRate = _dailyRate;\n        \n        emit CarEdited(_carId, msg.sender);\n    }\n    \n    /**\n     * @dev Remove/unlist a car from rental\n     * @param _carId ID of the car to remove\n     */\n    function removeCar(uint256 _carId) public onlyOwner {\n        require(cars[_carId].owner == msg.sender, \"Not the car owner\");\n        require(cars[_carId].isListed, \"Car not listed\");\n        require(cars[_carId].isAvailable, \"Cannot remove car with active bookings\");\n        \n        cars[_carId].isListed = false;\n        cars[_carId].isAvailable = false;\n        \n        owners[msg.sender].totalListings--;\n        \n        emit CarRemoved(_carId, msg.sender);\n    }\n    \n    // ============ BOOKING FUNCTIONS ============\n    \n    /**\n     * @dev Book a car\n     * @param _carId ID of the car to book\n     * @param _startDate Start date timestamp\n     * @param _endDate End date timestamp\n     */\n    function bookCar(\n        uint256 _carId,\n        uint256 _startDate,\n        uint256 _endDate\n    ) public payable onlyRenter {\n        Car storage car = cars[_carId];\n        require(car.isListed && car.isAvailable, \"Car not available\");\n        require(_startDate < _endDate && _startDate >= block.timestamp, \"Invalid dates\");\n        Insurance storage insurance = insuranceRecords[msg.sender];\n        require(insurance.isVerified && !insurance.isRevoked, \"Insurance not verified\");\n        \n        uint256 totalCost = car.dailyRate * ((_endDate - _startDate) / 1 days);\n        require(msg.value >= totalCost, \"Insufficient payment\");\n        \n        bookingCounter++;\n        Booking storage newBooking = bookings[bookingCounter];\n        newBooking.carId = _carId;\n        newBooking.renter = msg.sender;\n        newBooking.owner = car.owner;\n        newBooking.startDate = _startDate;\n        newBooking.endDate = _endDate;\n        newBooking.totalCost = totalCost;\n        newBooking.status = BookingStatus.Booked;\n        \n        car.isAvailable = false;\n        car.totalBookings++;\n        renters[msg.sender].totalBookings++;\n        \n        emit BookingCreated(bookingCounter, _carId, msg.sender);\n    }\n    \n    /**\n     * @dev Cancel a booking\n     * @param _bookingId ID of the booking to cancel\n     */\n    function cancelBooking(uint256 _bookingId) public {\n        Booking storage booking = bookings[_bookingId];\n        require(booking.renter == msg.sender, \"Not the renter\");\n        require(booking.status == BookingStatus.Booked, \"Booking cannot be cancelled\");\n        \n        booking.status = BookingStatus.Cancelled;\n        cars[booking.carId].isAvailable = true;\n        \n        // Refund to renter\n        payable(booking.renter).transfer(booking.totalCost);\n        \n        emit BookingCancelled(_bookingId);\n    }\n    \n    /**\n     * @dev Approve a booking (by owner)\n     * @param _bookingId ID of the booking to approve\n     */\n    function approveBooking(uint256 _bookingId) public onlyOwner {\n        Booking storage booking = bookings[_bookingId];\n        require(booking.owner == msg.sender, \"Not the car owner\");\n        require(booking.status == BookingStatus.Booked, \"Booking not in Booked status\");\n        \n        booking.ownerApproved = true;\n        \n        emit BookingApproved(_bookingId, msg.sender);\n    }\n    \n    /**\n     * @dev Confirm pickup\n     * @param _bookingId ID of the booking\n     */\n    function confirmPickup(uint256 _bookingId) public {\n        Booking storage booking = bookings[_bookingId];\n        require(booking.renter == msg.sender || booking.owner == msg.sender, \"Not authorized\");\n        require(booking.status == BookingStatus.Booked, \"Booking not in Booked status\");\n        require(block.timestamp >= booking.startDate, \"Pickup time not reached\");\n        \n        booking.pickupConfirmed = true;\n        booking.status = BookingStatus.PickedUp;\n        \n        emit PickupConfirmed(_bookingId, msg.sender);\n    }\n    \n    /**\n     * @dev Confirm return\n     * @param _bookingId ID of the booking\n     */\n    function confirmReturn(uint256 _bookingId) public {\n        Booking storage booking = bookings[_bookingId];\n        require(booking.renter == msg.sender || booking.owner == msg.sender, \"Not authorized\");\n        require(booking.status == BookingStatus.PickedUp, \"Car not picked up\");\n        require(block.timestamp >= booking.endDate, \"Return time not reached\");\n        \n        booking.returnConfirmed = true;\n        booking.status = BookingStatus.Returned;\n        cars[booking.carId].isAvailable = true;\n        \n        // Check if overdue\n        if (block.timestamp > booking.endDate) {\n            // Can trigger dispute if needed\n        }\n        \n        emit ReturnConfirmed(_bookingId, msg.sender);\n    }\n    \n    // ============ DISPUTE FUNCTIONS ============\n    \n    /**\n     * @dev Open a dispute for a booking\n     * @param _bookingId ID of the booking\n     * @param _reason Reason for the dispute\n     */\n    function openDispute(uint256 _bookingId, string memory _reason) public {\n        Booking storage booking = bookings[_bookingId];\n        require(booking.renter == msg.sender || booking.owner == msg.sender, \"Not authorized\");\n        require(booking.status == BookingStatus.Returned || booking.status == BookingStatus.PickedUp, \"Cannot open dispute\");\n        require(!booking.hasDispute, \"Dispute already exists\");\n        \n        disputeCounter++;\n        disputes[disputeCounter] = Dispute({\n            bookingId: _bookingId,\n            initiator: msg.sender,\n            reason: _reason,\n            status: DisputeStatus.Open,\n            arbitrator: address(0)\n        });\n        \n        booking.hasDispute = true;\n        booking.disputeId = disputeCounter;\n        booking.status = BookingStatus.FundsFrozen;\n        \n        emit DisputeOpened(disputeCounter, _bookingId, msg.sender);\n    }\n    \n    /**\n     * @dev Resolve a dispute (by arbitrator)\n     * @param _disputeId ID of the dispute\n     * @param _winner Address of the winner (owner or renter)\n     */\n    function resolveDispute(uint256 _disputeId, address _winner) public onlyDisputeArbitrator {\n        Dispute storage dispute = disputes[_disputeId];\n        require(dispute.status == DisputeStatus.Open, \"Dispute not open\");\n        \n        Booking storage booking = bookings[dispute.bookingId];\n        require(booking.hasDispute, \"Booking has no dispute\");\n        \n        dispute.status = DisputeStatus.Resolved;\n        dispute.arbitrator = msg.sender;\n        booking.status = BookingStatus.Settled;\n        \n        // Transfer funds to winner\n        if (_winner == booking.owner) {\n            owners[booking.owner].withdrawableEarnings += booking.totalCost;\n            owners[booking.owner].totalEarnings += booking.totalCost;\n        } else {\n            payable(booking.renter).transfer(booking.totalCost);\n        }\n        \n        emit DisputeResolved(_disputeId, msg.sender);\n    }\n    \n    // ============ SETTLEMENT FUNCTIONS ============\n    \n    /**\n     * @dev Settle a booking (when no dispute)\n     * @param _bookingId ID of the booking\n     */\n    function settleBooking(uint256 _bookingId) public {\n        Booking storage booking = bookings[_bookingId];\n        require(booking.status == BookingStatus.Returned, \"Booking not returned\");\n        require(!booking.hasDispute, \"Booking has active dispute\");\n        require(booking.owner == msg.sender || booking.renter == msg.sender, \"Not authorized\");\n        \n        booking.status = BookingStatus.Settled;\n        owners[booking.owner].withdrawableEarnings += booking.totalCost;\n        owners[booking.owner].totalEarnings += booking.totalCost;\n    }\n    \n    /**\n     * @dev Withdraw earnings (by owner)\n     */\n    function withdrawEarnings() public onlyOwner {\n        uint256 amount = owners[msg.sender].withdrawableEarnings;\n        require(amount > 0, \"No earnings to withdraw\");\n        \n        owners[msg.sender].withdrawableEarnings = 0;\n        payable(msg.sender).transfer(amount);\n        \n        emit EarningsWithdrawn(msg.sender, amount);\n    }\n    \n    // ============ INSURANCE FUNCTIONS ============\n    \n    /**\n     * @dev Verify insurance for a renter\n     * @param _renter Address of the renter\n     */\n    function verifyInsurance(address _renter) public onlyInsuranceVerifier {\n        require(renters[_renter].isRegistered, \"Renter not registered\");\n        require(!insuranceRecords[_renter].isVerified || insuranceRecords[_renter].isRevoked, \"Insurance already verified\");\n        \n        insuranceRecords[_renter] = Insurance({\n            isVerified: true,\n            isRevoked: false,\n            verifiedAt: block.timestamp,\n            verifier: msg.sender\n        });\n        \n        emit InsuranceVerified(_renter, msg.sender);\n    }\n    \n    /**\n     * @dev Revoke insurance for a renter\n     * @param _renter Address of the renter\n     */\n    function revokeInsurance(address _renter) public onlyInsuranceVerifier {\n        require(insuranceRecords[_renter].isVerified, \"Insurance not verified\");\n        \n        insuranceRecords[_renter].isRevoked = true;\n        \n        emit InsuranceRevoked(_renter, msg.sender);\n    }\n    \n    // ============ RATING FUNCTIONS ============\n    \n    /**\n     * @dev Rate a user (owner rates renter, or renter rates owner)\n     * @param _bookingId ID of the booking\n     * @param _rating Rating value (1-5)\n     * @param rateOwner True if rating the owner, false if rating the renter\n     */\n    function rate(uint256 _bookingId, uint8 _rating, bool rateOwner) public {\n        Booking storage booking = bookings[_bookingId];\n        require(booking.status == BookingStatus.Settled, \"Booking not settled\");\n        require(_rating >= 1 && _rating <= 5, \"Rating must be between 1 and 5\");\n        \n        if (rateOwner) {\n            require(renters[msg.sender].isRegistered, \"Not a registered renter\");\n            require(booking.renter == msg.sender, \"Not the renter\");\n            emit RatingSubmitted(_bookingId, msg.sender, booking.owner, _rating);\n        } else {\n            require(owners[msg.sender].isRegistered, \"Not a registered owner\");\n            require(booking.owner == msg.sender, \"Not the car owner\");\n            emit RatingSubmitted(_bookingId, msg.sender, booking.renter, _rating);\n        }\n    }\n    \n    // ============ ADMIN FUNCTIONS ============\n    \n    /**\n     * @dev Set insurance verifier status\n     * @param _verifier Address of the verifier\n     * @param _status True to add, false to remove\n     */\n    function setInsuranceVerifier(address _verifier, bool _status) public onlyContractOwner {\n        insuranceVerifiers[_verifier] = _status;\n    }\n    \n    /**\n     * @dev Set dispute arbitrator status\n     * @param _arbitrator Address of the arbitrator\n     * @param _status True to add, false to remove\n     */\n    function setDisputeArbitrator(address _arbitrator, bool _status) public onlyContractOwner {\n        disputeArbitrators[_arbitrator] = _status;\n    }\n    \n    // ============ VIEW FUNCTIONS ============\n    \n    /**\n     * @dev Get owner information\n     * @param _owner Address of the owner\n     */\n    function getOwner(address _owner) public view returns (\n        string memory username,\n        bool isRegistered,\n        uint256 totalEarnings,\n        uint256 withdrawableEarnings,\n        uint256 totalListings\n    ) {\n        Owner storage o = owners[_owner];\n        username = o.username;\n        isRegistered = o.isRegistered;\n        totalEarnings = o.totalEarnings;\n        withdrawableEarnings = o.withdrawableEarnings;\n        totalListings = o.totalListings;\n    }\n    \n    /**\n     * @dev Get renter information\n     * @param _renter Address of the renter\n     */\n    function getRenter(address _renter) public view returns (\n        string memory username,\n        bool isRegistered,\n        uint256 totalBookings\n    ) {\n        Renter storage r = renters[_renter];\n        username = r.username;\n        isRegistered = r.isRegistered;\n        totalBookings = r.totalBookings;\n    }\n    \n    /**\n     * @dev Get car basic information\n     * @param _carId ID of the car\n     */\n    function getCarBasic(uint256 _carId) public view returns (\n        address owner,\n        string memory make,\n        string memory model,\n        uint256 year\n    ) {\n        Car storage c = cars[_carId];\n        owner = c.owner;\n        make = c.make;\n        model = c.model;\n        year = c.year;\n    }\n    \n    /**\n     * @dev Get car rental information\n     * @param _carId ID of the car\n     */\n    function getCarRental(uint256 _carId) public view returns (\n        string memory location,\n        uint256 dailyRate,\n        bool isAvailable,\n        bool isListed\n    ) {\n        Car storage c = cars[_carId];\n        location = c.location;\n        dailyRate = c.dailyRate;\n        isAvailable = c.isAvailable;\n        isListed = c.isListed;\n    }\n    \n    /**\n     * @dev Get booking basic information\n     * @param _bookingId ID of the booking\n     */\n    function getBookingBasic(uint256 _bookingId) public view returns (\n        uint256 carId,\n        address renter,\n        address owner\n    ) {\n        Booking storage b = bookings[_bookingId];\n        carId = b.carId;\n        renter = b.renter;\n        owner = b.owner;\n    }\n    \n    /**\n     * @dev Get booking dates and cost\n     * @param _bookingId ID of the booking\n     */\n    function getBookingDates(uint256 _bookingId) public view returns (\n        uint256 startDate,\n        uint256 endDate,\n        uint256 totalCost\n ) {\n        Booking storage b = bookings[_bookingId];\n        startDate = b.startDate;\n        endDate = b.endDate;\n        totalCost = b.totalCost;\n    }\n    \n    /**\n     * @dev Get booking status information\n     * @param _bookingId ID of the booking\n     */\n    function getBookingStatus(uint256 _bookingId) public view returns (\n        BookingStatus status,\n        bool pickupConfirmed,\n        bool returnConfirmed,\n        bool ownerApproved,\n        bool hasDispute\n    ) {\n        Booking storage b = bookings[_bookingId];\n        status = b.status;\n        pickupConfirmed = b.pickupConfirmed;\n        returnConfirmed = b.returnConfirmed;\n        ownerApproved = b.ownerApproved;\n        hasDispute = b.hasDispute;\n    }\n}\n\n",
  "sourcePath": "/workspaces/DecentralizdCarRentalApp/blockchain/contracts/CarRental.sol",
  "compiler": {
    "name": "solc",
    "version": "0.8.0+commit.c7dfd78e.Emscripten.clang"
  },
  "schemaVersion": "3.4.16",
  "updatedAt": "2025-11-17T06:14:21.509Z",
  "devdoc": {
    "kind": "dev",
    "methods": {
      "approveBooking(uint256)": {
        "details": "Approve a booking (by owner)",
        "params": {
          "_bookingId": "ID of the booking to approve"
        }
      },
      "bookCar(uint256,uint256,uint256)": {
        "details": "Book a car",
        "params": {
          "_carId": "ID of the car to book",
          "_endDate": "End date timestamp",
          "_startDate": "Start date timestamp"
        }
      },
      "cancelBooking(uint256)": {
        "details": "Cancel a booking",
        "params": {
          "_bookingId": "ID of the booking to cancel"
        }
      },
      "confirmPickup(uint256)": {
        "details": "Confirm pickup",
        "params": {
          "_bookingId": "ID of the booking"
        }
      },
      "confirmReturn(uint256)": {
        "details": "Confirm return",
        "params": {
          "_bookingId": "ID of the booking"
        }
      },
      "editListing(uint256,string,string,uint256,string,uint256)": {
        "details": "Edit a car listing",
        "params": {
          "_carId": "ID of the car to edit",
          "_dailyRate": "Updated daily rental rate",
          "_location": "Updated car location",
          "_make": "Updated car make",
          "_model": "Updated car model",
          "_year": "Updated car year"
        }
      },
      "getBookingBasic(uint256)": {
        "details": "Get booking basic information",
        "params": {
          "_bookingId": "ID of the booking"
        }
      },
      "getBookingDates(uint256)": {
        "details": "Get booking dates and cost",
        "params": {
          "_bookingId": "ID of the booking"
        }
      },
      "getBookingStatus(uint256)": {
        "details": "Get booking status information",
        "params": {
          "_bookingId": "ID of the booking"
        }
      },
      "getCarBasic(uint256)": {
        "details": "Get car basic information",
        "params": {
          "_carId": "ID of the car"
        }
      },
      "getCarRental(uint256)": {
        "details": "Get car rental information",
        "params": {
          "_carId": "ID of the car"
        }
      },
      "getOwner(address)": {
        "details": "Get owner information",
        "params": {
          "_owner": "Address of the owner"
        }
      },
      "getRenter(address)": {
        "details": "Get renter information",
        "params": {
          "_renter": "Address of the renter"
        }
      },
      "listCar(string,string,uint256,string,uint256)": {
        "details": "List a car for rent",
        "params": {
          "_dailyRate": "Daily rental rate in wei",
          "_location": "Car location",
          "_make": "Car make/brand",
          "_model": "Car model",
          "_year": "Car year"
        }
      },
      "login(bool,bytes32)": {
        "details": "Verify login using password hash",
        "params": {
          "_passwordHash": "Hash of the password to verify",
          "isOwner": "True if checking owner login, false for renter"
        },
        "returns": {
          "_0": "bool True if login hash matches"
        }
      },
      "openDispute(uint256,string)": {
        "details": "Open a dispute for a booking",
        "params": {
          "_bookingId": "ID of the booking",
          "_reason": "Reason for the dispute"
        }
      },
      "rate(uint256,uint8,bool)": {
        "details": "Rate a user (owner rates renter, or renter rates owner)",
        "params": {
          "_bookingId": "ID of the booking",
          "_rating": "Rating value (1-5)",
          "rateOwner": "True if rating the owner, false if rating the renter"
        }
      },
      "registerOwner(string,bytes32)": {
        "details": "Register a new car owner with username and password hash",
        "params": {
          "_passwordHash": "Hash of the password (should be computed off-chain)",
          "_username": "Unique username for the owner"
        }
      },
      "registerRenter(string,bytes32)": {
        "details": "Register a new renter with username and password hash",
        "params": {
          "_passwordHash": "Hash of the password (should be computed off-chain)",
          "_username": "Unique username for the renter"
        }
      },
      "removeCar(uint256)": {
        "details": "Remove/unlist a car from rental",
        "params": {
          "_carId": "ID of the car to remove"
        }
      },
      "resolveDispute(uint256,address)": {
        "details": "Resolve a dispute (by arbitrator)",
        "params": {
          "_disputeId": "ID of the dispute",
          "_winner": "Address of the winner (owner or renter)"
        }
      },
      "revokeInsurance(address)": {
        "details": "Revoke insurance for a renter",
        "params": {
          "_renter": "Address of the renter"
        }
      },
      "setDisputeArbitrator(address,bool)": {
        "details": "Set dispute arbitrator status",
        "params": {
          "_arbitrator": "Address of the arbitrator",
          "_status": "True to add, false to remove"
        }
      },
      "setInsuranceVerifier(address,bool)": {
        "details": "Set insurance verifier status",
        "params": {
          "_status": "True to add, false to remove",
          "_verifier": "Address of the verifier"
        }
      },
      "settleBooking(uint256)": {
        "details": "Settle a booking (when no dispute)",
        "params": {
          "_bookingId": "ID of the booking"
        }
      },
      "verifyInsurance(address)": {
        "details": "Verify insurance for a renter",
        "params": {
          "_renter": "Address of the renter"
        }
      },
      "withdrawEarnings()": {
        "details": "Withdraw earnings (by owner)"
      }
    },
    "version": 1
  },
  "userdoc": {
    "kind": "user",
    "methods": {},
    "version": 1
  }
}